{"project/contracts/SafariVerseMarketplace.sol":{"SafariVerseMarketplace":{"abi":[{"inputs":[{"internalType":"address","name":"_feeRecipient","type":"address"}],"stateMutability":"nonpayable","type":"constructor"},{"inputs":[{"internalType":"address","name":"owner","type":"address"}],"name":"OwnableInvalidOwner","type":"error"},{"inputs":[{"internalType":"address","name":"account","type":"address"}],"name":"OwnableUnauthorizedAccount","type":"error"},{"inputs":[],"name":"ReentrancyGuardReentrantCall","type":"error"},{"anonymous":false,"inputs":[{"indexed":true,"internalType":"address","name":"previousOwner","type":"address"},{"indexed":true,"internalType":"address","name":"newOwner","type":"address"}],"name":"OwnershipTransferred","type":"event"},{"anonymous":false,"inputs":[{"indexed":true,"internalType":"uint256","name":"productId","type":"uint256"},{"indexed":true,"internalType":"address","name":"creator","type":"address"},{"indexed":false,"internalType":"string","name":"name","type":"string"},{"indexed":false,"internalType":"uint256","name":"price","type":"uint256"}],"name":"ProductCreated","type":"event"},{"anonymous":false,"inputs":[{"indexed":true,"internalType":"uint256","name":"productId","type":"uint256"},{"indexed":true,"internalType":"address","name":"creator","type":"address"}],"name":"ProductDeactivated","type":"event"},{"anonymous":false,"inputs":[{"indexed":true,"internalType":"uint256","name":"productId","type":"uint256"},{"indexed":true,"internalType":"address","name":"buyer","type":"address"},{"indexed":true,"internalType":"address","name":"creator","type":"address"},{"indexed":false,"internalType":"uint256","name":"price","type":"uint256"},{"indexed":false,"internalType":"uint256","name":"timestamp","type":"uint256"}],"name":"ProductPurchased","type":"event"},{"anonymous":false,"inputs":[{"indexed":true,"internalType":"uint256","name":"productId","type":"uint256"},{"indexed":true,"internalType":"address","name":"creator","type":"address"},{"indexed":false,"internalType":"string","name":"name","type":"string"},{"indexed":false,"internalType":"uint256","name":"price","type":"uint256"}],"name":"ProductUpdated","type":"event"},{"inputs":[{"internalType":"address","name":"_token","type":"address"}],"name":"addSupportedToken","outputs":[],"stateMutability":"nonpayable","type":"function"},{"inputs":[{"internalType":"string","name":"_name","type":"string"},{"internalType":"string","name":"_description","type":"string"},{"internalType":"string","name":"_fileUrl","type":"string"},{"internalType":"uint256","name":"_price","type":"uint256"},{"internalType":"string","name":"_category","type":"string"}],"name":"createProduct","outputs":[{"internalType":"uint256","name":"","type":"uint256"}],"stateMutability":"nonpayable","type":"function"},{"inputs":[{"internalType":"address","name":"","type":"address"}],"name":"creatorItemsSold","outputs":[{"internalType":"uint256","name":"","type":"uint256"}],"stateMutability":"view","type":"function"},{"inputs":[{"internalType":"address","name":"","type":"address"},{"internalType":"uint256","name":"","type":"uint256"}],"name":"creatorProducts","outputs":[{"internalType":"uint256","name":"","type":"uint256"}],"stateMutability":"view","type":"function"},{"inputs":[{"internalType":"address","name":"","type":"address"}],"name":"creatorStats","outputs":[{"internalType":"uint256","name":"","type":"uint256"}],"stateMutability":"view","type":"function"},{"inputs":[{"internalType":"uint256","name":"_productId","type":"uint256"}],"name":"deactivateProduct","outputs":[],"stateMutability":"nonpayable","type":"function"},{"inputs":[],"name":"emergencyWithdraw","outputs":[],"stateMutability":"nonpayable","type":"function"},{"inputs":[{"internalType":"address","name":"_token","type":"address"},{"internalType":"uint256","name":"_amount","type":"uint256"}],"name":"emergencyWithdrawToken","outputs":[],"stateMutability":"nonpayable","type":"function"},{"inputs":[],"name":"feeRecipient","outputs":[{"internalType":"address","name":"","type":"address"}],"stateMutability":"view","type":"function"},{"inputs":[{"internalType":"uint256","name":"_offset","type":"uint256"},{"internalType":"uint256","name":"_limit","type":"uint256"}],"name":"getActiveProducts","outputs":[{"components":[{"internalType":"uint256","name":"id","type":"uint256"},{"internalType":"string","name":"name","type":"string"},{"internalType":"string","name":"description","type":"string"},{"internalType":"string","name":"fileUrl","type":"string"},{"internalType":"uint256","name":"price","type":"uint256"},{"internalType":"address","name":"creator","type":"address"},{"internalType":"bool","name":"isActive","type":"bool"},{"internalType":"uint256","name":"createdAt","type":"uint256"},{"internalType":"uint256","name":"updatedAt","type":"uint256"},{"internalType":"uint256","name":"itemsSold","type":"uint256"},{"internalType":"uint256","name":"totalRevenue","type":"uint256"},{"internalType":"string","name":"category","type":"string"}],"internalType":"struct SafariVerseMarketplace.Product[]","name":"activeProducts","type":"tuple[]"},{"internalType":"uint256","name":"totalCount","type":"uint256"}],"stateMutability":"view","type":"function"},{"inputs":[{"internalType":"address","name":"_creator","type":"address"}],"name":"getCreatorProducts","outputs":[{"internalType":"uint256[]","name":"","type":"uint256[]"}],"stateMutability":"view","type":"function"},{"inputs":[{"internalType":"address","name":"_creator","type":"address"}],"name":"getCreatorStats","outputs":[{"internalType":"uint256","name":"creatorRevenue","type":"uint256"},{"internalType":"uint256","name":"itemsSold","type":"uint256"}],"stateMutability":"view","type":"function"},{"inputs":[],"name":"getPlatformStats","outputs":[{"internalType":"uint256","name":"_totalProducts","type":"uint256"},{"internalType":"uint256","name":"_totalSales","type":"uint256"},{"internalType":"uint256","name":"_totalRevenue","type":"uint256"}],"stateMutability":"view","type":"function"},{"inputs":[{"internalType":"uint256","name":"_productId","type":"uint256"}],"name":"getProduct","outputs":[{"components":[{"internalType":"uint256","name":"id","type":"uint256"},{"internalType":"string","name":"name","type":"string"},{"internalType":"string","name":"description","type":"string"},{"internalType":"string","name":"fileUrl","type":"string"},{"internalType":"uint256","name":"price","type":"uint256"},{"internalType":"address","name":"creator","type":"address"},{"internalType":"bool","name":"isActive","type":"bool"},{"internalType":"uint256","name":"createdAt","type":"uint256"},{"internalType":"uint256","name":"updatedAt","type":"uint256"},{"internalType":"uint256","name":"itemsSold","type":"uint256"},{"internalType":"uint256","name":"totalRevenue","type":"uint256"},{"internalType":"string","name":"category","type":"string"}],"internalType":"struct SafariVerseMarketplace.Product","name":"","type":"tuple"}],"stateMutability":"view","type":"function"},{"inputs":[],"name":"nativeToken","outputs":[{"internalType":"address","name":"","type":"address"}],"stateMutability":"view","type":"function"},{"inputs":[],"name":"nextProductId","outputs":[{"internalType":"uint256","name":"","type":"uint256"}],"stateMutability":"view","type":"function"},{"inputs":[],"name":"owner","outputs":[{"internalType":"address","name":"","type":"address"}],"stateMutability":"view","type":"function"},{"inputs":[],"name":"platformFeeBps","outputs":[{"internalType":"uint256","name":"","type":"uint256"}],"stateMutability":"view","type":"function"},{"inputs":[{"internalType":"uint256","name":"","type":"uint256"}],"name":"products","outputs":[{"internalType":"uint256","name":"id","type":"uint256"},{"internalType":"string","name":"name","type":"string"},{"internalType":"string","name":"description","type":"string"},{"internalType":"string","name":"fileUrl","type":"string"},{"internalType":"uint256","name":"price","type":"uint256"},{"internalType":"address","name":"creator","type":"address"},{"internalType":"bool","name":"isActive","type":"bool"},{"internalType":"uint256","name":"createdAt","type":"uint256"},{"internalType":"uint256","name":"updatedAt","type":"uint256"},{"internalType":"uint256","name":"itemsSold","type":"uint256"},{"internalType":"uint256","name":"totalRevenue","type":"uint256"},{"internalType":"string","name":"category","type":"string"}],"stateMutability":"view","type":"function"},{"inputs":[{"internalType":"uint256","name":"_productId","type":"uint256"}],"name":"purchaseProduct","outputs":[],"stateMutability":"payable","type":"function"},{"inputs":[{"internalType":"uint256","name":"_productId","type":"uint256"}],"name":"reactivateProduct","outputs":[],"stateMutability":"nonpayable","type":"function"},{"inputs":[{"internalType":"address","name":"_token","type":"address"}],"name":"removeSupportedToken","outputs":[],"stateMutability":"nonpayable","type":"function"},{"inputs":[],"name":"renounceOwnership","outputs":[],"stateMutability":"nonpayable","type":"function"},{"inputs":[{"internalType":"address","name":"_feeRecipient","type":"address"}],"name":"setFeeRecipient","outputs":[],"stateMutability":"nonpayable","type":"function"},{"inputs":[{"internalType":"uint256","name":"_feeBps","type":"uint256"}],"name":"setPlatformFee","outputs":[],"stateMutability":"nonpayable","type":"function"},{"inputs":[{"internalType":"address","name":"","type":"address"}],"name":"supportedTokens","outputs":[{"internalType":"bool","name":"","type":"bool"}],"stateMutability":"view","type":"function"},{"inputs":[],"name":"totalProducts","outputs":[{"internalType":"uint256","name":"","type":"uint256"}],"stateMutability":"view","type":"function"},{"inputs":[],"name":"totalRevenue","outputs":[{"internalType":"uint256","name":"","type":"uint256"}],"stateMutability":"view","type":"function"},{"inputs":[],"name":"totalSales","outputs":[{"internalType":"uint256","name":"","type":"uint256"}],"stateMutability":"view","type":"function"},{"inputs":[{"internalType":"address","name":"newOwner","type":"address"}],"name":"transferOwnership","outputs":[],"stateMutability":"nonpayable","type":"function"},{"inputs":[{"internalType":"uint256","name":"_productId","type":"uint256"},{"internalType":"string","name":"_name","type":"string"},{"internalType":"string","name":"_description","type":"string"},{"internalType":"string","name":"_fileUrl","type":"string"},{"internalType":"uint256","name":"_price","type":"uint256"},{"internalType":"string","name":"_category","type":"string"}],"name":"updateProduct","outputs":[],"stateMutability":"nonpayable","type":"function"}],"evm":{"bytecode":{"linkReferences":{},"object":"6080604052600160025560fa600a55348015610019575f5ffd5b50604051614f9f380380614f9f833981810160405281019061003b919061034c565b335f73ffffffffffffffffffffffffffffffffffffffff168173ffffffffffffffffffffffffffffffffffffffff16036100ac575f6040517f1e4fbdf70000000000000000000000000000000000000000000000000000000081526004016100a39190610386565b60405180910390fd5b6100bb8161022d60201b60201c565b50600180819055505f73ffffffffffffffffffffffffffffffffffffffff168173ffffffffffffffffffffffffffffffffffffffff1603610131576040517f08c379a00000000000000000000000000000000000000000000000000000000081526004016101289061041f565b60405180910390fd5b80600b5f6101000a81548173ffffffffffffffffffffffffffffffffffffffff021916908373ffffffffffffffffffffffffffffffffffffffff1602179055505f600d5f6101000a81548173ffffffffffffffffffffffffffffffffffffffff021916908373ffffffffffffffffffffffffffffffffffffffff1602179055506001600c5f600d5f9054906101000a900473ffffffffffffffffffffffffffffffffffffffff1673ffffffffffffffffffffffffffffffffffffffff1673ffffffffffffffffffffffffffffffffffffffff1681526020019081526020015f205f6101000a81548160ff0219169083151502179055505061043d565b5f5f5f9054906101000a900473ffffffffffffffffffffffffffffffffffffffff169050815f5f6101000a81548173ffffffffffffffffffffffffffffffffffffffff021916908373ffffffffffffffffffffffffffffffffffffffff1602179055508173ffffffffffffffffffffffffffffffffffffffff168173ffffffffffffffffffffffffffffffffffffffff167f8be0079c531659141344cd1fd0a4f28419497f9722a3daafe3b4186f6b6457e060405160405180910390a35050565b5f5ffd5b5f73ffffffffffffffffffffffffffffffffffffffff82169050919050565b5f61031b826102f2565b9050919050565b61032b81610311565b8114610335575f5ffd5b50565b5f8151905061034681610322565b92915050565b5f60208284031215610361576103606102ee565b5b5f61036e84828501610338565b91505092915050565b61038081610311565b82525050565b5f6020820190506103995f830184610377565b92915050565b5f82825260208201905092915050565b7f53616661726956657273653a2046656520726563697069656e742063616e6e6f5f8201527f74206265207a65726f2061646472657373000000000000000000000000000000602082015250565b5f61040960318361039f565b9150610414826103af565b604082019050919050565b5f6020820190508181035f830152610436816103fd565b9050919050565b614b558061044a5f395ff3fe6080604052600436106101d7575f3560e01c80637acc0b2011610101578063bf2d9e0b11610094578063e74b981b11610063578063e74b981b146106b7578063edb0395d146106df578063f2fde38b1461071c578063fd77e5de14610744576101d7565b8063bf2d9e0b14610611578063c98fe9381461063b578063db2e21bc14610677578063e1758bd81461068d576101d7565b80639f82d472116100d05780639f82d47214610534578063a381af6614610571578063a4c3b091146105ad578063b9db15b4146105d5576101d7565b80637acc0b2014610471578063837e9722146104b85780638da5cb5b146104e05780639b9d326d1461050a576101d7565b806346904840116101795780636d69fcaf116101485780636d69fcaf146103e35780636e0e53321461040b578063715018a6146104335780637631919014610449576101d7565b806346904840146103295780634de91a63146103535780636605ff661461037d57806368c4ac26146103a7576101d7565b806322dcd13e116101b557806322dcd13e1461026b5780632e24c5871461029557806332e086a1146102d157806338e76a031461030d576101d7565b806307ed175a146101db57806312e8e2c314610217578063136d88831461023f575b5f5ffd5b3480156101e6575f5ffd5b5061020160048036038101906101fc9190612d66565b61076c565b60405161020e9190612e51565b60405180910390f35b348015610222575f5ffd5b5061023d60048036038101906102389190612e9b565b6107ff565b005b34801561024a575f5ffd5b50610253610899565b60405161026293929190612ed5565b60405180910390f35b348015610276575f5ffd5b5061027f6108b0565b60405161028c9190612f0a565b60405180910390f35b3480156102a0575f5ffd5b506102bb60048036038101906102b69190612d66565b6108b6565b6040516102c89190612f0a565b60405180910390f35b3480156102dc575f5ffd5b506102f760048036038101906102f2919061305f565b6108cb565b6040516103049190612f0a565b60405180910390f35b61032760048036038101906103229190612e9b565b610de6565b005b348015610334575f5ffd5b5061033d61117a565b60405161034a9190613155565b60405180910390f35b34801561035e575f5ffd5b5061036761119f565b6040516103749190612f0a565b60405180910390f35b348015610388575f5ffd5b506103916111a5565b60405161039e9190612f0a565b60405180910390f35b3480156103b2575f5ffd5b506103cd60048036038101906103c89190612d66565b6111ab565b6040516103da9190613188565b60405180910390f35b3480156103ee575f5ffd5b5061040960048036038101906104049190612d66565b6111c8565b005b348015610416575f5ffd5b50610431600480360381019061042c9190612e9b565b611296565b005b34801561043e575f5ffd5b5061044761140a565b005b348015610454575f5ffd5b5061046f600480360381019061046a9190612d66565b61141d565b005b34801561047c575f5ffd5b5061049760048036038101906104929190612e9b565b6114ea565b6040516104af9c9b9a99989796959493929190613201565b60405180910390f35b3480156104c3575f5ffd5b506104de60048036038101906104d991906132d5565b61178a565b005b3480156104eb575f5ffd5b506104f4611c2d565b6040516105019190613155565b60405180910390f35b348015610515575f5ffd5b5061051e611c54565b60405161052b9190612f0a565b60405180910390f35b34801561053f575f5ffd5b5061055a60048036038101906105559190612d66565b611c5a565b6040516105689291906133ce565b60405180910390f35b34801561057c575f5ffd5b50610597600480360381019061059291906133f5565b611ce1565b6040516105a49190612f0a565b60405180910390f35b3480156105b8575f5ffd5b506105d360048036038101906105ce91906133f5565b611d0c565b005b3480156105e0575f5ffd5b506105fb60048036038101906105f69190612e9b565b611e8e565b60405161060891906135af565b60405180910390f35b34801561061c575f5ffd5b5061062561222d565b6040516106329190612f0a565b60405180910390f35b348015610646575f5ffd5b50610661600480360381019061065c9190612d66565b612233565b60405161066e9190612f0a565b60405180910390f35b348015610682575f5ffd5b5061068b612248565b005b348015610698575f5ffd5b506106a1612349565b6040516106ae9190613155565b60405180910390f35b3480156106c2575f5ffd5b506106dd60048036038101906106d89190612d66565b61236e565b005b3480156106ea575f5ffd5b50610705600480360381019061070091906135cf565b612427565b6040516107139291906137de565b60405180910390f35b348015610727575f5ffd5b50610742600480360381019061073d9190612d66565b612919565b005b34801561074f575f5ffd5b5061076a60048036038101906107659190612e9b565b61299d565b005b606060045f8373ffffffffffffffffffffffffffffffffffffffff1673ffffffffffffffffffffffffffffffffffffffff1681526020019081526020015f208054806020026020016040519081016040528092919081815260200182805480156107f357602002820191905f5260205f20905b8154815260200190600101908083116107df575b50505050509050919050565b610807612b3b565b6103e881111561084c576040517f08c379a00000000000000000000000000000000000000000000000000000000081526004016108439061387c565b60405180910390fd5b5f81101561088f576040517f08c379a00000000000000000000000000000000000000000000000000000000081526004016108869061390a565b60405180910390fd5b80600a8190555050565b5f5f5f600754600854600954925092509250909192565b600a5481565b6005602052805f5260405f205f915090505481565b5f5f86511161090f576040517f08c379a000000000000000000000000000000000000000000000000000000000815260040161090690613998565b60405180910390fd5b606486511115610954576040517f08c379a000000000000000000000000000000000000000000000000000000000815260040161094b90613a26565b60405180910390fd5b5f855111610997576040517f08c379a000000000000000000000000000000000000000000000000000000000815260040161098e90613ab4565b60405180910390fd5b6101f4855111156109dd576040517f08c379a00000000000000000000000000000000000000000000000000000000081526004016109d490613b42565b60405180910390fd5b5f845111610a20576040517f08c379a0000000000000000000000000000000000000000000000000000000008152600401610a1790613bd0565b60405180910390fd5b60c884511115610a65576040517f08c379a0000000000000000000000000000000000000000000000000000000008152600401610a5c90613c5e565b60405180910390fd5b5f8311610aa7576040517f08c379a0000000000000000000000000000000000000000000000000000000008152600401610a9e90613cec565b60405180910390fd5b69d3c21bcecceda1000000831115610af4576040517f08c379a0000000000000000000000000000000000000000000000000000000008152600401610aeb90613d7a565b60405180910390fd5b5f825111610b37576040517f08c379a0000000000000000000000000000000000000000000000000000000008152600401610b2e90613e08565b60405180910390fd5b603282511115610b7c576040517f08c379a0000000000000000000000000000000000000000000000000000000008152600401610b7390613e96565b60405180910390fd5b5f60025f815480929190610b8f90613ee1565b9190505590506040518061018001604052808281526020018881526020018781526020018681526020018581526020013373ffffffffffffffffffffffffffffffffffffffff1681526020016001151581526020014281526020014281526020015f81526020015f81526020018481525060035f8381526020019081526020015f205f820151815f01556020820151816001019081610c2e9190614125565b506040820151816002019081610c449190614125565b506060820151816003019081610c5a9190614125565b506080820151816004015560a0820151816005015f6101000a81548173ffffffffffffffffffffffffffffffffffffffff021916908373ffffffffffffffffffffffffffffffffffffffff16021790555060c08201518160050160146101000a81548160ff02191690831515021790555060e0820151816006015561010082015181600701556101208201518160080155610140820151816009015561016082015181600a019081610d0c9190614125565b5090505060045f3373ffffffffffffffffffffffffffffffffffffffff1673ffffffffffffffffffffffffffffffffffffffff1681526020019081526020015f2081908060018154018082558091505060019003905f5260205f20015f909190919091505560075f815480929190610d8390613ee1565b91905055503373ffffffffffffffffffffffffffffffffffffffff16817f5f25c590b5c7f62ed4186adca32d3118caef07e5020c6cc8268d4136df2cfef88987604051610dd19291906141f4565b60405180910390a38091505095945050505050565b805f8111610e29576040517f08c379a0000000000000000000000000000000000000000000000000000000008152600401610e2090614292565b60405180910390fd5b6002548110610e6d576040517f08c379a0000000000000000000000000000000000000000000000000000000008152600401610e6490614320565b60405180910390fd5b8160035f8281526020019081526020015f2060050160149054906101000a900460ff16610ecf576040517f08c379a0000000000000000000000000000000000000000000000000000000008152600401610ec6906143ae565b60405180910390fd5b5f60035f8581526020019081526020015f2090508060040154341015610f2a576040517f08c379a0000000000000000000000000000000000000000000000000000000008152600401610f2190614416565b60405180910390fd5b806005015f9054906101000a900473ffffffffffffffffffffffffffffffffffffffff1673ffffffffffffffffffffffffffffffffffffffff163373ffffffffffffffffffffffffffffffffffffffff1603610fbb576040517f08c379a0000000000000000000000000000000000000000000000000000000008152600401610fb29061447e565b60405180910390fd5b806008015f815480929190610fcf90613ee1565b919050555034816009015f828254610fe7919061449c565b9250508190555060085f81548092919061100090613ee1565b91905055503460095f828254611016919061449c565b925050819055505f816005015f9054906101000a900473ffffffffffffffffffffffffffffffffffffffff1673ffffffffffffffffffffffffffffffffffffffff1634604051611065906144fc565b5f6040518083038185875af1925050503d805f811461109f576040519150601f19603f3d011682016040523d82523d5f602084013e6110a4565b606091505b50509050806110e8576040517f08c379a00000000000000000000000000000000000000000000000000000000081526004016110df9061455a565b60405180910390fd5b816005015f9054906101000a900473ffffffffffffffffffffffffffffffffffffffff1673ffffffffffffffffffffffffffffffffffffffff163373ffffffffffffffffffffffffffffffffffffffff16867fbe6177108f4df43c5d7be79cb219c969fc97915bbdb4b56d14d391dcdcc16060344260405161116b9291906133ce565b60405180910390a45050505050565b600b5f9054906101000a900473ffffffffffffffffffffffffffffffffffffffff1681565b60025481565b60085481565b600c602052805f5260405f205f915054906101000a900460ff1681565b6111d0612b3b565b5f73ffffffffffffffffffffffffffffffffffffffff168173ffffffffffffffffffffffffffffffffffffffff160361123e576040517f08c379a0000000000000000000000000000000000000000000000000000000008152600401611235906145e8565b60405180910390fd5b6001600c5f8373ffffffffffffffffffffffffffffffffffffffff1673ffffffffffffffffffffffffffffffffffffffff1681526020019081526020015f205f6101000a81548160ff02191690831515021790555050565b805f81116112d9576040517f08c379a00000000000000000000000000000000000000000000000000000000081526004016112d090614292565b60405180910390fd5b600254811061131d576040517f08c379a000000000000000000000000000000000000000000000000000000000815260040161131490614320565b60405180910390fd5b813373ffffffffffffffffffffffffffffffffffffffff1660035f8381526020019081526020015f206005015f9054906101000a900473ffffffffffffffffffffffffffffffffffffffff1673ffffffffffffffffffffffffffffffffffffffff16146113bf576040517f08c379a00000000000000000000000000000000000000000000000000000000081526004016113b690614676565b60405180910390fd5b600160035f8581526020019081526020015f2060050160146101000a81548160ff0219169083151502179055504260035f8581526020019081526020015f2060070181905550505050565b611412612b3b565b61141b5f612bc2565b565b611425612b3b565b5f73ffffffffffffffffffffffffffffffffffffffff168173ffffffffffffffffffffffffffffffffffffffff1603611493576040517f08c379a000000000000000000000000000000000000000000000000000000000815260040161148a906145e8565b60405180910390fd5b5f600c5f8373ffffffffffffffffffffffffffffffffffffffff1673ffffffffffffffffffffffffffffffffffffffff1681526020019081526020015f205f6101000a81548160ff02191690831515021790555050565b6003602052805f5260405f205f91509050805f01549080600101805461150f90613f55565b80601f016020809104026020016040519081016040528092919081815260200182805461153b90613f55565b80156115865780601f1061155d57610100808354040283529160200191611586565b820191905f5260205f20905b81548152906001019060200180831161156957829003601f168201915b50505050509080600201805461159b90613f55565b80601f01602080910402602001604051908101604052809291908181526020018280546115c790613f55565b80156116125780601f106115e957610100808354040283529160200191611612565b820191905f5260205f20905b8154815290600101906020018083116115f557829003601f168201915b50505050509080600301805461162790613f55565b80601f016020809104026020016040519081016040528092919081815260200182805461165390613f55565b801561169e5780601f106116755761010080835404028352916020019161169e565b820191905f5260205f20905b81548152906001019060200180831161168157829003601f168201915b505050505090806004015490806005015f9054906101000a900473ffffffffffffffffffffffffffffffffffffffff16908060050160149054906101000a900460ff169080600601549080600701549080600801549080600901549080600a01805461170990613f55565b80601f016020809104026020016040519081016040528092919081815260200182805461173590613f55565b80156117805780601f1061175757610100808354040283529160200191611780565b820191905f5260205f20905b81548152906001019060200180831161176357829003601f168201915b505050505090508c565b855f81116117cd576040517f08c379a00000000000000000000000000000000000000000000000000000000081526004016117c490614292565b60405180910390fd5b6002548110611811576040517f08c379a000000000000000000000000000000000000000000000000000000000815260040161180890614320565b60405180910390fd5b863373ffffffffffffffffffffffffffffffffffffffff1660035f8381526020019081526020015f206005015f9054906101000a900473ffffffffffffffffffffffffffffffffffffffff1673ffffffffffffffffffffffffffffffffffffffff16146118b3576040517f08c379a00000000000000000000000000000000000000000000000000000000081526004016118aa90614676565b60405180910390fd5b5f8751116118f6576040517f08c379a00000000000000000000000000000000000000000000000000000000081526004016118ed90613998565b60405180910390fd5b60648751111561193b576040517f08c379a000000000000000000000000000000000000000000000000000000000815260040161193290613a26565b60405180910390fd5b5f86511161197e576040517f08c379a000000000000000000000000000000000000000000000000000000000815260040161197590613ab4565b60405180910390fd5b6101f4865111156119c4576040517f08c379a00000000000000000000000000000000000000000000000000000000081526004016119bb90613b42565b60405180910390fd5b5f855111611a07576040517f08c379a00000000000000000000000000000000000000000000000000000000081526004016119fe90613bd0565b60405180910390fd5b60c885511115611a4c576040517f08c379a0000000000000000000000000000000000000000000000000000000008152600401611a4390613c5e565b60405180910390fd5b5f8411611a8e576040517f08c379a0000000000000000000000000000000000000000000000000000000008152600401611a8590613cec565b60405180910390fd5b69d3c21bcecceda1000000841115611adb576040517f08c379a0000000000000000000000000000000000000000000000000000000008152600401611ad290613d7a565b60405180910390fd5b5f835111611b1e576040517f08c379a0000000000000000000000000000000000000000000000000000000008152600401611b1590613e08565b60405180910390fd5b603283511115611b63576040517f08c379a0000000000000000000000000000000000000000000000000000000008152600401611b5a90613e96565b60405180910390fd5b5f60035f8a81526020019081526020015f20905087816001019081611b889190614125565b5086816002019081611b9a9190614125565b5085816003019081611bac9190614125565b508481600401819055508381600a019081611bc79190614125565b504281600701819055503373ffffffffffffffffffffffffffffffffffffffff16897f5a033cba5e379690447ba58a292348e2d5034bf867f32d6aee59a86b3d0134e18a88604051611c1a9291906141f4565b60405180910390a3505050505050505050565b5f5f5f9054906101000a900473ffffffffffffffffffffffffffffffffffffffff16905090565b60075481565b5f5f60055f8473ffffffffffffffffffffffffffffffffffffffff1673ffffffffffffffffffffffffffffffffffffffff1681526020019081526020015f205460065f8573ffffffffffffffffffffffffffffffffffffffff1673ffffffffffffffffffffffffffffffffffffffff1681526020019081526020015f205491509150915091565b6004602052815f5260405f208181548110611cfa575f80fd5b905f5260205f20015f91509150505481565b611d14612b3b565b5f73ffffffffffffffffffffffffffffffffffffffff168273ffffffffffffffffffffffffffffffffffffffff1603611d82576040517f08c379a0000000000000000000000000000000000000000000000000000000008152600401611d79906145e8565b60405180910390fd5b5f8111611dc4576040517f08c379a0000000000000000000000000000000000000000000000000000000008152600401611dbb90614704565b60405180910390fd5b5f8273ffffffffffffffffffffffffffffffffffffffff1663a9059cbb611de9611c2d565b846040518363ffffffff1660e01b8152600401611e07929190614722565b6020604051808303815f875af1158015611e23573d5f5f3e3d5ffd5b505050506040513d601f19601f82011682018060405250810190611e479190614773565b905080611e89576040517f08c379a0000000000000000000000000000000000000000000000000000000008152600401611e809061480e565b60405180910390fd5b505050565b611e96612c8a565b815f8111611ed9576040517f08c379a0000000000000000000000000000000000000000000000000000000008152600401611ed090614292565b60405180910390fd5b6002548110611f1d576040517f08c379a0000000000000000000000000000000000000000000000000000000008152600401611f1490614320565b60405180910390fd5b60035f8481526020019081526020015f20604051806101800160405290815f8201548152602001600182018054611f5390613f55565b80601f0160208091040260200160405190810160405280929190818152602001828054611f7f90613f55565b8015611fca5780601f10611fa157610100808354040283529160200191611fca565b820191905f5260205f20905b815481529060010190602001808311611fad57829003601f168201915b50505050508152602001600282018054611fe390613f55565b80601f016020809104026020016040519081016040528092919081815260200182805461200f90613f55565b801561205a5780601f106120315761010080835404028352916020019161205a565b820191905f5260205f20905b81548152906001019060200180831161203d57829003601f168201915b5050505050815260200160038201805461207390613f55565b80601f016020809104026020016040519081016040528092919081815260200182805461209f90613f55565b80156120ea5780601f106120c1576101008083540402835291602001916120ea565b820191905f5260205f20905b8154815290600101906020018083116120cd57829003601f168201915b5050505050815260200160048201548152602001600582015f9054906101000a900473ffffffffffffffffffffffffffffffffffffffff1673ffffffffffffffffffffffffffffffffffffffff1673ffffffffffffffffffffffffffffffffffffffff1681526020016005820160149054906101000a900460ff1615151515815260200160068201548152602001600782015481526020016008820154815260200160098201548152602001600a820180546121a590613f55565b80601f01602080910402602001604051908101604052809291908181526020018280546121d190613f55565b801561221c5780601f106121f35761010080835404028352916020019161221c565b820191905f5260205f20905b8154815290600101906020018083116121ff57829003601f168201915b505050505081525050915050919050565b60095481565b6006602052805f5260405f205f915090505481565b612250612b3b565b5f4790505f8111612296576040517f08c379a000000000000000000000000000000000000000000000000000000000815260040161228d9061489c565b60405180910390fd5b5f61229f611c2d565b73ffffffffffffffffffffffffffffffffffffffff16826040516122c2906144fc565b5f6040518083038185875af1925050503d805f81146122fc576040519150601f19603f3d011682016040523d82523d5f602084013e612301565b606091505b5050905080612345576040517f08c379a000000000000000000000000000000000000000000000000000000000815260040161233c9061492a565b60405180910390fd5b5050565b600d5f9054906101000a900473ffffffffffffffffffffffffffffffffffffffff1681565b612376612b3b565b5f73ffffffffffffffffffffffffffffffffffffffff168173ffffffffffffffffffffffffffffffffffffffff16036123e4576040517f08c379a00000000000000000000000000000000000000000000000000000000081526004016123db906149b8565b60405180910390fd5b80600b5f6101000a81548173ffffffffffffffffffffffffffffffffffffffff021916908373ffffffffffffffffffffffffffffffffffffffff16021790555050565b60605f5f831161246c576040517f08c379a000000000000000000000000000000000000000000000000000000000815260040161246390614a46565b60405180910390fd5b60648311156124b0576040517f08c379a00000000000000000000000000000000000000000000000000000000081526004016124a790614ad4565b60405180910390fd5b5f5f90505f5f90505f600190505b60025481101561250b5760035f8281526020019081526020015f2060050160149054906101000a900460ff16156124fe5781806124fa90613ee1565b9250505b80806001019150506124be565b505f8567ffffffffffffffff81111561252757612526612f3b565b5b60405190808252806020026020018201604052801561256057816020015b61254d612c8a565b8152602001906001900390816125455790505b5090505f5f90505f600190505b6002548110801561257d57508782105b156129075760035f8281526020019081526020015f2060050160149054906101000a900460ff16156128f4578885106128e55760035f8281526020019081526020015f20604051806101800160405290815f82015481526020016001820180546125e690613f55565b80601f016020809104026020016040519081016040528092919081815260200182805461261290613f55565b801561265d5780601f106126345761010080835404028352916020019161265d565b820191905f5260205f20905b81548152906001019060200180831161264057829003601f168201915b5050505050815260200160028201805461267690613f55565b80601f01602080910402602001604051908101604052809291908181526020018280546126a290613f55565b80156126ed5780601f106126c4576101008083540402835291602001916126ed565b820191905f5260205f20905b8154815290600101906020018083116126d057829003601f168201915b5050505050815260200160038201805461270690613f55565b80601f016020809104026020016040519081016040528092919081815260200182805461273290613f55565b801561277d5780601f106127545761010080835404028352916020019161277d565b820191905f5260205f20905b81548152906001019060200180831161276057829003601f168201915b5050505050815260200160048201548152602001600582015f9054906101000a900473ffffffffffffffffffffffffffffffffffffffff1673ffffffffffffffffffffffffffffffffffffffff1673ffffffffffffffffffffffffffffffffffffffff1681526020016005820160149054906101000a900460ff1615151515815260200160068201548152602001600782015481526020016008820154815260200160098201548152602001600a8201805461283890613f55565b80601f016020809104026020016040519081016040528092919081815260200182805461286490613f55565b80156128af5780601f10612886576101008083540402835291602001916128af565b820191905f5260205f20905b81548152906001019060200180831161289257829003601f168201915b5050505050815250508383815181106128cb576128ca614af2565b5b602002602001018190525081806128e190613ee1565b9250505b84806128f090613ee1565b9550505b80806128ff90613ee1565b91505061256d565b50818395509550505050509250929050565b612921612b3b565b5f73ffffffffffffffffffffffffffffffffffffffff168173ffffffffffffffffffffffffffffffffffffffff1603612991575f6040517f1e4fbdf70000000000000000000000000000000000000000000000000000000081526004016129889190613155565b60405180910390fd5b61299a81612bc2565b50565b805f81116129e0576040517f08c379a00000000000000000000000000000000000000000000000000000000081526004016129d790614292565b60405180910390fd5b6002548110612a24576040517f08c379a0000000000000000000000000000000000000000000000000000000008152600401612a1b90614320565b60405180910390fd5b813373ffffffffffffffffffffffffffffffffffffffff1660035f8381526020019081526020015f206005015f9054906101000a900473ffffffffffffffffffffffffffffffffffffffff1673ffffffffffffffffffffffffffffffffffffffff1614612ac6576040517f08c379a0000000000000000000000000000000000000000000000000000000008152600401612abd90614676565b60405180910390fd5b5f60035f8581526020019081526020015f2060050160146101000a81548160ff0219169083151502179055503373ffffffffffffffffffffffffffffffffffffffff16837f3ce9d5d4c93354e5800c5250d08d814fbbe096fa7c05ccb03d2a8b09b7a4888d60405160405180910390a3505050565b612b43612c83565b73ffffffffffffffffffffffffffffffffffffffff16612b61611c2d565b73ffffffffffffffffffffffffffffffffffffffff1614612bc057612b84612c83565b6040517f118cdaa7000000000000000000000000000000000000000000000000000000008152600401612bb79190613155565b60405180910390fd5b565b5f5f5f9054906101000a900473ffffffffffffffffffffffffffffffffffffffff169050815f5f6101000a81548173ffffffffffffffffffffffffffffffffffffffff021916908373ffffffffffffffffffffffffffffffffffffffff1602179055508173ffffffffffffffffffffffffffffffffffffffff168173ffffffffffffffffffffffffffffffffffffffff167f8be0079c531659141344cd1fd0a4f28419497f9722a3daafe3b4186f6b6457e060405160405180910390a35050565b5f33905090565b6040518061018001604052805f81526020016060815260200160608152602001606081526020015f81526020015f73ffffffffffffffffffffffffffffffffffffffff1681526020015f151581526020015f81526020015f81526020015f81526020015f8152602001606081525090565b5f604051905090565b5f5ffd5b5f5ffd5b5f73ffffffffffffffffffffffffffffffffffffffff82169050919050565b5f612d3582612d0c565b9050919050565b612d4581612d2b565b8114612d4f575f5ffd5b50565b5f81359050612d6081612d3c565b92915050565b5f60208284031215612d7b57612d7a612d04565b5b5f612d8884828501612d52565b91505092915050565b5f81519050919050565b5f82825260208201905092915050565b5f819050602082019050919050565b5f819050919050565b612dcc81612dba565b82525050565b5f612ddd8383612dc3565b60208301905092915050565b5f602082019050919050565b5f612dff82612d91565b612e098185612d9b565b9350612e1483612dab565b805f5b83811015612e44578151612e2b8882612dd2565b9750612e3683612de9565b925050600181019050612e17565b5085935050505092915050565b5f6020820190508181035f830152612e698184612df5565b905092915050565b612e7a81612dba565b8114612e84575f5ffd5b50565b5f81359050612e9581612e71565b92915050565b5f60208284031215612eb057612eaf612d04565b5b5f612ebd84828501612e87565b91505092915050565b612ecf81612dba565b82525050565b5f606082019050612ee85f830186612ec6565b612ef56020830185612ec6565b612f026040830184612ec6565b949350505050565b5f602082019050612f1d5f830184612ec6565b92915050565b5f5ffd5b5f5ffd5b5f601f19601f8301169050919050565b7f4e487b71000000000000000000000000000000000000000000000000000000005f52604160045260245ffd5b612f7182612f2b565b810181811067ffffffffffffffff82111715612f9057612f8f612f3b565b5b80604052505050565b5f612fa2612cfb565b9050612fae8282612f68565b919050565b5f67ffffffffffffffff821115612fcd57612fcc612f3b565b5b612fd682612f2b565b9050602081019050919050565b828183375f83830152505050565b5f613003612ffe84612fb3565b612f99565b90508281526020810184848401111561301f5761301e612f27565b5b61302a848285612fe3565b509392505050565b5f82601f83011261304657613045612f23565b5b8135613056848260208601612ff1565b91505092915050565b5f5f5f5f5f60a0868803121561307857613077612d04565b5b5f86013567ffffffffffffffff81111561309557613094612d08565b5b6130a188828901613032565b955050602086013567ffffffffffffffff8111156130c2576130c1612d08565b5b6130ce88828901613032565b945050604086013567ffffffffffffffff8111156130ef576130ee612d08565b5b6130fb88828901613032565b935050606061310c88828901612e87565b925050608086013567ffffffffffffffff81111561312d5761312c612d08565b5b61313988828901613032565b9150509295509295909350565b61314f81612d2b565b82525050565b5f6020820190506131685f830184613146565b92915050565b5f8115159050919050565b6131828161316e565b82525050565b5f60208201905061319b5f830184613179565b92915050565b5f81519050919050565b5f82825260208201905092915050565b8281835e5f83830152505050565b5f6131d3826131a1565b6131dd81856131ab565b93506131ed8185602086016131bb565b6131f681612f2b565b840191505092915050565b5f610180820190506132155f83018f612ec6565b8181036020830152613227818e6131c9565b9050818103604083015261323b818d6131c9565b9050818103606083015261324f818c6131c9565b905061325e608083018b612ec6565b61326b60a083018a613146565b61327860c0830189613179565b61328560e0830188612ec6565b613293610100830187612ec6565b6132a1610120830186612ec6565b6132af610140830185612ec6565b8181036101608301526132c281846131c9565b90509d9c50505050505050505050505050565b5f5f5f5f5f5f60c087890312156132ef576132ee612d04565b5b5f6132fc89828a01612e87565b965050602087013567ffffffffffffffff81111561331d5761331c612d08565b5b61332989828a01613032565b955050604087013567ffffffffffffffff81111561334a57613349612d08565b5b61335689828a01613032565b945050606087013567ffffffffffffffff81111561337757613376612d08565b5b61338389828a01613032565b935050608061339489828a01612e87565b92505060a087013567ffffffffffffffff8111156133b5576133b4612d08565b5b6133c189828a01613032565b9150509295509295509295565b5f6040820190506133e15f830185612ec6565b6133ee6020830184612ec6565b9392505050565b5f5f6040838503121561340b5761340a612d04565b5b5f61341885828601612d52565b925050602061342985828601612e87565b9150509250929050565b5f82825260208201905092915050565b5f61344d826131a1565b6134578185613433565b93506134678185602086016131bb565b61347081612f2b565b840191505092915050565b61348481612d2b565b82525050565b6134938161316e565b82525050565b5f61018083015f8301516134af5f860182612dc3565b50602083015184820360208601526134c78282613443565b915050604083015184820360408601526134e18282613443565b915050606083015184820360608601526134fb8282613443565b91505060808301516135106080860182612dc3565b5060a083015161352360a086018261347b565b5060c083015161353660c086018261348a565b5060e083015161354960e0860182612dc3565b5061010083015161355e610100860182612dc3565b50610120830151613573610120860182612dc3565b50610140830151613588610140860182612dc3565b506101608301518482036101608601526135a28282613443565b9150508091505092915050565b5f6020820190508181035f8301526135c78184613499565b905092915050565b5f5f604083850312156135e5576135e4612d04565b5b5f6135f285828601612e87565b925050602061360385828601612e87565b9150509250929050565b5f81519050919050565b5f82825260208201905092915050565b5f819050602082019050919050565b5f61018083015f83015161364c5f860182612dc3565b50602083015184820360208601526136648282613443565b9150506040830151848203604086015261367e8282613443565b915050606083015184820360608601526136988282613443565b91505060808301516136ad6080860182612dc3565b5060a08301516136c060a086018261347b565b5060c08301516136d360c086018261348a565b5060e08301516136e660e0860182612dc3565b506101008301516136fb610100860182612dc3565b50610120830151613710610120860182612dc3565b50610140830151613725610140860182612dc3565b5061016083015184820361016086015261373f8282613443565b9150508091505092915050565b5f6137578383613636565b905092915050565b5f602082019050919050565b5f6137758261360d565b61377f8185613617565b93508360208202850161379185613627565b805f5b858110156137cc57848403895281516137ad858261374c565b94506137b88361375f565b925060208a01995050600181019050613794565b50829750879550505050505092915050565b5f6040820190508181035f8301526137f6818561376b565b90506138056020830184612ec6565b9392505050565b7f53616661726956657273653a20506c6174666f726d206665652063616e6e6f745f8201527f206578636565642031302520283130303020626173697320706f696e74732900602082015250565b5f613866603f836131ab565b91506138718261380c565b604082019050919050565b5f6020820190508181035f8301526138938161385a565b9050919050565b7f53616661726956657273653a20506c6174666f726d206665652063616e6e6f745f8201527f206265206e656761746976650000000000000000000000000000000000000000602082015250565b5f6138f4602c836131ab565b91506138ff8261389a565b604082019050919050565b5f6020820190508181035f830152613921816138e8565b9050919050565b7f53616661726956657273653a2050726f64756374206e616d652063616e6e6f745f8201527f20626520656d7074790000000000000000000000000000000000000000000000602082015250565b5f6139826029836131ab565b915061398d82613928565b604082019050919050565b5f6020820190508181035f8301526139af81613976565b9050919050565b7f53616661726956657273653a2050726f64756374206e616d6520746f6f206c6f5f8201527f6e6720286d617820313030206368617273290000000000000000000000000000602082015250565b5f613a106032836131ab565b9150613a1b826139b6565b604082019050919050565b5f6020820190508181035f830152613a3d81613a04565b9050919050565b7f53616661726956657273653a2050726f64756374206465736372697074696f6e5f8201527f2063616e6e6f7420626520656d70747900000000000000000000000000000000602082015250565b5f613a9e6030836131ab565b9150613aa982613a44565b604082019050919050565b5f6020820190508181035f830152613acb81613a92565b9050919050565b7f53616661726956657273653a2050726f64756374206465736372697074696f6e5f8201527f20746f6f206c6f6e6720286d6178203530302063686172732900000000000000602082015250565b5f613b2c6039836131ab565b9150613b3782613ad2565b604082019050919050565b5f6020820190508181035f830152613b5981613b20565b9050919050565b7f53616661726956657273653a2046696c652055524c2063616e6e6f74206265205f8201527f656d707479000000000000000000000000000000000000000000000000000000602082015250565b5f613bba6025836131ab565b9150613bc582613b60565b604082019050919050565b5f6020820190508181035f830152613be781613bae565b9050919050565b7f53616661726956657273653a2046696c652055524c20746f6f206c6f6e6720285f8201527f6d61782032303020636861727329000000000000000000000000000000000000602082015250565b5f613c48602e836131ab565b9150613c5382613bee565b604082019050919050565b5f6020820190508181035f830152613c7581613c3c565b9050919050565b7f53616661726956657273653a2050726f64756374207072696365206d757374205f8201527f62652067726561746572207468616e2030000000000000000000000000000000602082015250565b5f613cd66031836131ab565b9150613ce182613c7c565b604082019050919050565b5f6020820190508181035f830152613d0381613cca565b9050919050565b7f53616661726956657273653a2050726f6475637420707269636520746f6f20685f8201527f69676820286d617820314d204842415229000000000000000000000000000000602082015250565b5f613d646031836131ab565b9150613d6f82613d0a565b604082019050919050565b5f6020820190508181035f830152613d9181613d58565b9050919050565b7f53616661726956657273653a2050726f647563742063617465676f72792063615f8201527f6e6e6f7420626520656d70747900000000000000000000000000000000000000602082015250565b5f613df2602d836131ab565b9150613dfd82613d98565b604082019050919050565b5f6020820190508181035f830152613e1f81613de6565b9050919050565b7f53616661726956657273653a2050726f647563742063617465676f727920746f5f8201527f6f206c6f6e6720286d6178203530206368617273290000000000000000000000602082015250565b5f613e806035836131ab565b9150613e8b82613e26565b604082019050919050565b5f6020820190508181035f830152613ead81613e74565b9050919050565b7f4e487b71000000000000000000000000000000000000000000000000000000005f52601160045260245ffd5b5f613eeb82612dba565b91507fffffffffffffffffffffffffffffffffffffffffffffffffffffffffffffffff8203613f1d57613f1c613eb4565b5b600182019050919050565b7f4e487b71000000000000000000000000000000000000000000000000000000005f52602260045260245ffd5b5f6002820490506001821680613f6c57607f821691505b602082108103613f7f57613f7e613f28565b5b50919050565b5f819050815f5260205f209050919050565b5f6020601f8301049050919050565b5f82821b905092915050565b5f60088302613fe17fffffffffffffffffffffffffffffffffffffffffffffffffffffffffffffffff82613fa6565b613feb8683613fa6565b95508019841693508086168417925050509392505050565b5f819050919050565b5f61402661402161401c84612dba565b614003565b612dba565b9050919050565b5f819050919050565b61403f8361400c565b61405361404b8261402d565b848454613fb2565b825550505050565b5f5f905090565b61406a61405b565b614075818484614036565b505050565b5b818110156140985761408d5f82614062565b60018101905061407b565b5050565b601f8211156140dd576140ae81613f85565b6140b784613f97565b810160208510156140c6578190505b6140da6140d285613f97565b83018261407a565b50505b505050565b5f82821c905092915050565b5f6140fd5f19846008026140e2565b1980831691505092915050565b5f61411583836140ee565b9150826002028217905092915050565b61412e826131a1565b67ffffffffffffffff81111561414757614146612f3b565b5b6141518254613f55565b61415c82828561409c565b5f60209050601f83116001811461418d575f841561417b578287015190505b614185858261410a565b8655506141ec565b601f19841661419b86613f85565b5f5b828110156141c25784890151825560018201915060208501945060208101905061419d565b868310156141df57848901516141db601f8916826140ee565b8355505b6001600288020188555050505b505050505050565b5f6040820190508181035f83015261420c81856131c9565b905061421b6020830184612ec6565b9392505050565b7f53616661726956657273653a2050726f64756374204944206d757374206265205f8201527f67726561746572207468616e2030000000000000000000000000000000000000602082015250565b5f61427c602e836131ab565b915061428782614222565b604082019050919050565b5f6020820190508181035f8301526142a981614270565b9050919050565b7f53616661726956657273653a2050726f6475637420646f6573206e6f742065785f8201527f6973740000000000000000000000000000000000000000000000000000000000602082015250565b5f61430a6023836131ab565b9150614315826142b0565b604082019050919050565b5f6020820190508181035f830152614337816142fe565b9050919050565b7f53616661726956657273653a2050726f64756374206973206e6f7420616374695f8201527f7665000000000000000000000000000000000000000000000000000000000000602082015250565b5f6143986022836131ab565b91506143a38261433e565b604082019050919050565b5f6020820190508181035f8301526143c58161438c565b9050919050565b7f5061796d656e7420746f6f206c6f7700000000000000000000000000000000005f82015250565b5f614400600f836131ab565b915061440b826143cc565b602082019050919050565b5f6020820190508181035f83015261442d816143f4565b9050919050565b7f43616e6e6f7420627579206f776e2070726f64756374000000000000000000005f82015250565b5f6144686016836131ab565b915061447382614434565b602082019050919050565b5f6020820190508181035f8301526144958161445c565b9050919050565b5f6144a682612dba565b91506144b183612dba565b92508282019050808211156144c9576144c8613eb4565b5b92915050565b5f81905092915050565b50565b5f6144e75f836144cf565b91506144f2826144d9565b5f82019050919050565b5f614506826144dc565b9150819050919050565b7f5061796d656e74206661696c65640000000000000000000000000000000000005f82015250565b5f614544600e836131ab565b915061454f82614510565b602082019050919050565b5f6020820190508181035f83015261457181614538565b9050919050565b7f53616661726956657273653a20546f6b656e20616464726573732063616e6e6f5f8201527f74206265207a65726f2061646472657373000000000000000000000000000000602082015250565b5f6145d26031836131ab565b91506145dd82614578565b604082019050919050565b5f6020820190508181035f8301526145ff816145c6565b9050919050565b7f53616661726956657273653a204f6e6c792070726f647563742063726561746f5f8201527f722063616e20706572666f726d207468697320616374696f6e00000000000000602082015250565b5f6146606039836131ab565b915061466b82614606565b604082019050919050565b5f6020820190508181035f83015261468d81614654565b9050919050565b7f53616661726956657273653a20416d6f756e74206d75737420626520677265615f8201527f746572207468616e203000000000000000000000000000000000000000000000602082015250565b5f6146ee602a836131ab565b91506146f982614694565b604082019050919050565b5f6020820190508181035f83015261471b816146e2565b9050919050565b5f6040820190506147355f830185613146565b6147426020830184612ec6565b9392505050565b6147528161316e565b811461475c575f5ffd5b50565b5f8151905061476d81614749565b92915050565b5f6020828403121561478857614787612d04565b5b5f6147958482850161475f565b91505092915050565b7f53616661726956657273653a20456d657267656e637920746f6b656e207769745f8201527f6864726177206661696c65640000000000000000000000000000000000000000602082015250565b5f6147f8602c836131ab565b91506148038261479e565b604082019050919050565b5f6020820190508181035f830152614825816147ec565b9050919050565b7f53616661726956657273653a204e6f2066756e647320746f20776974686472615f8201527f7700000000000000000000000000000000000000000000000000000000000000602082015250565b5f6148866021836131ab565b91506148918261482c565b604082019050919050565b5f6020820190508181035f8301526148b38161487a565b9050919050565b7f53616661726956657273653a20456d657267656e6379207769746864726177205f8201527f6661696c65640000000000000000000000000000000000000000000000000000602082015250565b5f6149146026836131ab565b915061491f826148ba565b604082019050919050565b5f6020820190508181035f83015261494181614908565b9050919050565b7f53616661726956657273653a2046656520726563697069656e742063616e6e6f5f8201527f74206265207a65726f2061646472657373000000000000000000000000000000602082015250565b5f6149a26031836131ab565b91506149ad82614948565b604082019050919050565b5f6020820190508181035f8301526149cf81614996565b9050919050565b7f53616661726956657273653a204c696d6974206d7573742062652067726561745f8201527f6572207468616e20300000000000000000000000000000000000000000000000602082015250565b5f614a306029836131ab565b9150614a3b826149d6565b604082019050919050565b5f6020820190508181035f830152614a5d81614a24565b9050919050565b7f53616661726956657273653a204c696d69742063616e6e6f74206578636565645f8201527f2031303000000000000000000000000000000000000000000000000000000000602082015250565b5f614abe6024836131ab565b9150614ac982614a64565b604082019050919050565b5f6020820190508181035f830152614aeb81614ab2565b9050919050565b7f4e487b71000000000000000000000000000000000000000000000000000000005f52603260045260245ffdfea2646970667358221220da50462b9776fa2ddcfb5f8a69796011ca62327be6705c77c3a1bfcfd59bdb0a64736f6c634300081c0033","opcodes":"PUSH1 0x80 PUSH1 0x40 MSTORE PUSH1 0x1 PUSH1 0x2 SSTORE PUSH1 0xFA PUSH1 0xA SSTORE CALLVALUE DUP1 ISZERO PUSH2 0x19 JUMPI PUSH0 PUSH0 REVERT JUMPDEST POP PUSH1 0x40 MLOAD PUSH2 0x4F9F CODESIZE SUB DUP1 PUSH2 0x4F9F DUP4 CODECOPY DUP2 DUP2 ADD PUSH1 0x40 MSTORE DUP2 ADD SWAP1 PUSH2 0x3B SWAP2 SWAP1 PUSH2 0x34C JUMP JUMPDEST CALLER PUSH0 PUSH20 0xFFFFFFFFFFFFFFFFFFFFFFFFFFFFFFFFFFFFFFFF AND DUP2 PUSH20 0xFFFFFFFFFFFFFFFFFFFFFFFFFFFFFFFFFFFFFFFF AND SUB PUSH2 0xAC JUMPI PUSH0 PUSH1 0x40 MLOAD PUSH32 0x1E4FBDF700000000000000000000000000000000000000000000000000000000 DUP2 MSTORE PUSH1 0x4 ADD PUSH2 0xA3 SWAP2 SWAP1 PUSH2 0x386 JUMP JUMPDEST PUSH1 0x40 MLOAD DUP1 SWAP2 SUB SWAP1 REVERT JUMPDEST PUSH2 0xBB DUP2 PUSH2 0x22D PUSH1 0x20 SHL PUSH1 0x20 SHR JUMP JUMPDEST POP PUSH1 0x1 DUP1 DUP2 SWAP1 SSTORE POP PUSH0 PUSH20 0xFFFFFFFFFFFFFFFFFFFFFFFFFFFFFFFFFFFFFFFF AND DUP2 PUSH20 0xFFFFFFFFFFFFFFFFFFFFFFFFFFFFFFFFFFFFFFFF AND SUB PUSH2 0x131 JUMPI PUSH1 0x40 MLOAD PUSH32 0x8C379A000000000000000000000000000000000000000000000000000000000 DUP2 MSTORE PUSH1 0x4 ADD PUSH2 0x128 SWAP1 PUSH2 0x41F JUMP JUMPDEST PUSH1 0x40 MLOAD DUP1 SWAP2 SUB SWAP1 REVERT JUMPDEST DUP1 PUSH1 0xB PUSH0 PUSH2 0x100 EXP DUP2 SLOAD DUP2 PUSH20 0xFFFFFFFFFFFFFFFFFFFFFFFFFFFFFFFFFFFFFFFF MUL NOT AND SWAP1 DUP4 PUSH20 0xFFFFFFFFFFFFFFFFFFFFFFFFFFFFFFFFFFFFFFFF AND MUL OR SWAP1 SSTORE POP PUSH0 PUSH1 0xD PUSH0 PUSH2 0x100 EXP DUP2 SLOAD DUP2 PUSH20 0xFFFFFFFFFFFFFFFFFFFFFFFFFFFFFFFFFFFFFFFF MUL NOT AND SWAP1 DUP4 PUSH20 0xFFFFFFFFFFFFFFFFFFFFFFFFFFFFFFFFFFFFFFFF AND MUL OR SWAP1 SSTORE POP PUSH1 0x1 PUSH1 0xC PUSH0 PUSH1 0xD PUSH0 SWAP1 SLOAD SWAP1 PUSH2 0x100 EXP SWAP1 DIV PUSH20 0xFFFFFFFFFFFFFFFFFFFFFFFFFFFFFFFFFFFFFFFF AND PUSH20 0xFFFFFFFFFFFFFFFFFFFFFFFFFFFFFFFFFFFFFFFF AND PUSH20 0xFFFFFFFFFFFFFFFFFFFFFFFFFFFFFFFFFFFFFFFF AND DUP2 MSTORE PUSH1 0x20 ADD SWAP1 DUP2 MSTORE PUSH1 0x20 ADD PUSH0 KECCAK256 PUSH0 PUSH2 0x100 EXP DUP2 SLOAD DUP2 PUSH1 0xFF MUL NOT AND SWAP1 DUP4 ISZERO ISZERO MUL OR SWAP1 SSTORE POP POP PUSH2 0x43D JUMP JUMPDEST PUSH0 PUSH0 PUSH0 SWAP1 SLOAD SWAP1 PUSH2 0x100 EXP SWAP1 DIV PUSH20 0xFFFFFFFFFFFFFFFFFFFFFFFFFFFFFFFFFFFFFFFF AND SWAP1 POP DUP2 PUSH0 PUSH0 PUSH2 0x100 EXP DUP2 SLOAD DUP2 PUSH20 0xFFFFFFFFFFFFFFFFFFFFFFFFFFFFFFFFFFFFFFFF MUL NOT AND SWAP1 DUP4 PUSH20 0xFFFFFFFFFFFFFFFFFFFFFFFFFFFFFFFFFFFFFFFF AND MUL OR SWAP1 SSTORE POP DUP2 PUSH20 0xFFFFFFFFFFFFFFFFFFFFFFFFFFFFFFFFFFFFFFFF AND DUP2 PUSH20 0xFFFFFFFFFFFFFFFFFFFFFFFFFFFFFFFFFFFFFFFF AND PUSH32 0x8BE0079C531659141344CD1FD0A4F28419497F9722A3DAAFE3B4186F6B6457E0 PUSH1 0x40 MLOAD PUSH1 0x40 MLOAD DUP1 SWAP2 SUB SWAP1 LOG3 POP POP JUMP JUMPDEST PUSH0 PUSH0 REVERT JUMPDEST PUSH0 PUSH20 0xFFFFFFFFFFFFFFFFFFFFFFFFFFFFFFFFFFFFFFFF DUP3 AND SWAP1 POP SWAP2 SWAP1 POP JUMP JUMPDEST PUSH0 PUSH2 0x31B DUP3 PUSH2 0x2F2 JUMP JUMPDEST SWAP1 POP SWAP2 SWAP1 POP JUMP JUMPDEST PUSH2 0x32B DUP2 PUSH2 0x311 JUMP JUMPDEST DUP2 EQ PUSH2 0x335 JUMPI PUSH0 PUSH0 REVERT JUMPDEST POP JUMP JUMPDEST PUSH0 DUP2 MLOAD SWAP1 POP PUSH2 0x346 DUP2 PUSH2 0x322 JUMP JUMPDEST SWAP3 SWAP2 POP POP JUMP JUMPDEST PUSH0 PUSH1 0x20 DUP3 DUP5 SUB SLT ISZERO PUSH2 0x361 JUMPI PUSH2 0x360 PUSH2 0x2EE JUMP JUMPDEST JUMPDEST PUSH0 PUSH2 0x36E DUP5 DUP3 DUP6 ADD PUSH2 0x338 JUMP JUMPDEST SWAP2 POP POP SWAP3 SWAP2 POP POP JUMP JUMPDEST PUSH2 0x380 DUP2 PUSH2 0x311 JUMP JUMPDEST DUP3 MSTORE POP POP JUMP JUMPDEST PUSH0 PUSH1 0x20 DUP3 ADD SWAP1 POP PUSH2 0x399 PUSH0 DUP4 ADD DUP5 PUSH2 0x377 JUMP JUMPDEST SWAP3 SWAP2 POP POP JUMP JUMPDEST PUSH0 DUP3 DUP3 MSTORE PUSH1 0x20 DUP3 ADD SWAP1 POP SWAP3 SWAP2 POP POP JUMP JUMPDEST PUSH32 0x53616661726956657273653A2046656520726563697069656E742063616E6E6F PUSH0 DUP3 ADD MSTORE PUSH32 0x74206265207A65726F2061646472657373000000000000000000000000000000 PUSH1 0x20 DUP3 ADD MSTORE POP JUMP JUMPDEST PUSH0 PUSH2 0x409 PUSH1 0x31 DUP4 PUSH2 0x39F JUMP JUMPDEST SWAP2 POP PUSH2 0x414 DUP3 PUSH2 0x3AF JUMP JUMPDEST PUSH1 0x40 DUP3 ADD SWAP1 POP SWAP2 SWAP1 POP JUMP JUMPDEST PUSH0 PUSH1 0x20 DUP3 ADD SWAP1 POP DUP2 DUP2 SUB PUSH0 DUP4 ADD MSTORE PUSH2 0x436 DUP2 PUSH2 0x3FD JUMP JUMPDEST SWAP1 POP SWAP2 SWAP1 POP JUMP JUMPDEST PUSH2 0x4B55 DUP1 PUSH2 0x44A PUSH0 CODECOPY PUSH0 RETURN INVALID PUSH1 0x80 PUSH1 0x40 MSTORE PUSH1 0x4 CALLDATASIZE LT PUSH2 0x1D7 JUMPI PUSH0 CALLDATALOAD PUSH1 0xE0 SHR DUP1 PUSH4 0x7ACC0B20 GT PUSH2 0x101 JUMPI DUP1 PUSH4 0xBF2D9E0B GT PUSH2 0x94 JUMPI DUP1 PUSH4 0xE74B981B GT PUSH2 0x63 JUMPI DUP1 PUSH4 0xE74B981B EQ PUSH2 0x6B7 JUMPI DUP1 PUSH4 0xEDB0395D EQ PUSH2 0x6DF JUMPI DUP1 PUSH4 0xF2FDE38B EQ PUSH2 0x71C JUMPI DUP1 PUSH4 0xFD77E5DE EQ PUSH2 0x744 JUMPI PUSH2 0x1D7 JUMP JUMPDEST DUP1 PUSH4 0xBF2D9E0B EQ PUSH2 0x611 JUMPI DUP1 PUSH4 0xC98FE938 EQ PUSH2 0x63B JUMPI DUP1 PUSH4 0xDB2E21BC EQ PUSH2 0x677 JUMPI DUP1 PUSH4 0xE1758BD8 EQ PUSH2 0x68D JUMPI PUSH2 0x1D7 JUMP JUMPDEST DUP1 PUSH4 0x9F82D472 GT PUSH2 0xD0 JUMPI DUP1 PUSH4 0x9F82D472 EQ PUSH2 0x534 JUMPI DUP1 PUSH4 0xA381AF66 EQ PUSH2 0x571 JUMPI DUP1 PUSH4 0xA4C3B091 EQ PUSH2 0x5AD JUMPI DUP1 PUSH4 0xB9DB15B4 EQ PUSH2 0x5D5 JUMPI PUSH2 0x1D7 JUMP JUMPDEST DUP1 PUSH4 0x7ACC0B20 EQ PUSH2 0x471 JUMPI DUP1 PUSH4 0x837E9722 EQ PUSH2 0x4B8 JUMPI DUP1 PUSH4 0x8DA5CB5B EQ PUSH2 0x4E0 JUMPI DUP1 PUSH4 0x9B9D326D EQ PUSH2 0x50A JUMPI PUSH2 0x1D7 JUMP JUMPDEST DUP1 PUSH4 0x46904840 GT PUSH2 0x179 JUMPI DUP1 PUSH4 0x6D69FCAF GT PUSH2 0x148 JUMPI DUP1 PUSH4 0x6D69FCAF EQ PUSH2 0x3E3 JUMPI DUP1 PUSH4 0x6E0E5332 EQ PUSH2 0x40B JUMPI DUP1 PUSH4 0x715018A6 EQ PUSH2 0x433 JUMPI DUP1 PUSH4 0x76319190 EQ PUSH2 0x449 JUMPI PUSH2 0x1D7 JUMP JUMPDEST DUP1 PUSH4 0x46904840 EQ PUSH2 0x329 JUMPI DUP1 PUSH4 0x4DE91A63 EQ PUSH2 0x353 JUMPI DUP1 PUSH4 0x6605FF66 EQ PUSH2 0x37D JUMPI DUP1 PUSH4 0x68C4AC26 EQ PUSH2 0x3A7 JUMPI PUSH2 0x1D7 JUMP JUMPDEST DUP1 PUSH4 0x22DCD13E GT PUSH2 0x1B5 JUMPI DUP1 PUSH4 0x22DCD13E EQ PUSH2 0x26B JUMPI DUP1 PUSH4 0x2E24C587 EQ PUSH2 0x295 JUMPI DUP1 PUSH4 0x32E086A1 EQ PUSH2 0x2D1 JUMPI DUP1 PUSH4 0x38E76A03 EQ PUSH2 0x30D JUMPI PUSH2 0x1D7 JUMP JUMPDEST DUP1 PUSH4 0x7ED175A EQ PUSH2 0x1DB JUMPI DUP1 PUSH4 0x12E8E2C3 EQ PUSH2 0x217 JUMPI DUP1 PUSH4 0x136D8883 EQ PUSH2 0x23F JUMPI JUMPDEST PUSH0 PUSH0 REVERT JUMPDEST CALLVALUE DUP1 ISZERO PUSH2 0x1E6 JUMPI PUSH0 PUSH0 REVERT JUMPDEST POP PUSH2 0x201 PUSH1 0x4 DUP1 CALLDATASIZE SUB DUP2 ADD SWAP1 PUSH2 0x1FC SWAP2 SWAP1 PUSH2 0x2D66 JUMP JUMPDEST PUSH2 0x76C JUMP JUMPDEST PUSH1 0x40 MLOAD PUSH2 0x20E SWAP2 SWAP1 PUSH2 0x2E51 JUMP JUMPDEST PUSH1 0x40 MLOAD DUP1 SWAP2 SUB SWAP1 RETURN JUMPDEST CALLVALUE DUP1 ISZERO PUSH2 0x222 JUMPI PUSH0 PUSH0 REVERT JUMPDEST POP PUSH2 0x23D PUSH1 0x4 DUP1 CALLDATASIZE SUB DUP2 ADD SWAP1 PUSH2 0x238 SWAP2 SWAP1 PUSH2 0x2E9B JUMP JUMPDEST PUSH2 0x7FF JUMP JUMPDEST STOP JUMPDEST CALLVALUE DUP1 ISZERO PUSH2 0x24A JUMPI PUSH0 PUSH0 REVERT JUMPDEST POP PUSH2 0x253 PUSH2 0x899 JUMP JUMPDEST PUSH1 0x40 MLOAD PUSH2 0x262 SWAP4 SWAP3 SWAP2 SWAP1 PUSH2 0x2ED5 JUMP JUMPDEST PUSH1 0x40 MLOAD DUP1 SWAP2 SUB SWAP1 RETURN JUMPDEST CALLVALUE DUP1 ISZERO PUSH2 0x276 JUMPI PUSH0 PUSH0 REVERT JUMPDEST POP PUSH2 0x27F PUSH2 0x8B0 JUMP JUMPDEST PUSH1 0x40 MLOAD PUSH2 0x28C SWAP2 SWAP1 PUSH2 0x2F0A JUMP JUMPDEST PUSH1 0x40 MLOAD DUP1 SWAP2 SUB SWAP1 RETURN JUMPDEST CALLVALUE DUP1 ISZERO PUSH2 0x2A0 JUMPI PUSH0 PUSH0 REVERT JUMPDEST POP PUSH2 0x2BB PUSH1 0x4 DUP1 CALLDATASIZE SUB DUP2 ADD SWAP1 PUSH2 0x2B6 SWAP2 SWAP1 PUSH2 0x2D66 JUMP JUMPDEST PUSH2 0x8B6 JUMP JUMPDEST PUSH1 0x40 MLOAD PUSH2 0x2C8 SWAP2 SWAP1 PUSH2 0x2F0A JUMP JUMPDEST PUSH1 0x40 MLOAD DUP1 SWAP2 SUB SWAP1 RETURN JUMPDEST CALLVALUE DUP1 ISZERO PUSH2 0x2DC JUMPI PUSH0 PUSH0 REVERT JUMPDEST POP PUSH2 0x2F7 PUSH1 0x4 DUP1 CALLDATASIZE SUB DUP2 ADD SWAP1 PUSH2 0x2F2 SWAP2 SWAP1 PUSH2 0x305F JUMP JUMPDEST PUSH2 0x8CB JUMP JUMPDEST PUSH1 0x40 MLOAD PUSH2 0x304 SWAP2 SWAP1 PUSH2 0x2F0A JUMP JUMPDEST PUSH1 0x40 MLOAD DUP1 SWAP2 SUB SWAP1 RETURN JUMPDEST PUSH2 0x327 PUSH1 0x4 DUP1 CALLDATASIZE SUB DUP2 ADD SWAP1 PUSH2 0x322 SWAP2 SWAP1 PUSH2 0x2E9B JUMP JUMPDEST PUSH2 0xDE6 JUMP JUMPDEST STOP JUMPDEST CALLVALUE DUP1 ISZERO PUSH2 0x334 JUMPI PUSH0 PUSH0 REVERT JUMPDEST POP PUSH2 0x33D PUSH2 0x117A JUMP JUMPDEST PUSH1 0x40 MLOAD PUSH2 0x34A SWAP2 SWAP1 PUSH2 0x3155 JUMP JUMPDEST PUSH1 0x40 MLOAD DUP1 SWAP2 SUB SWAP1 RETURN JUMPDEST CALLVALUE DUP1 ISZERO PUSH2 0x35E JUMPI PUSH0 PUSH0 REVERT JUMPDEST POP PUSH2 0x367 PUSH2 0x119F JUMP JUMPDEST PUSH1 0x40 MLOAD PUSH2 0x374 SWAP2 SWAP1 PUSH2 0x2F0A JUMP JUMPDEST PUSH1 0x40 MLOAD DUP1 SWAP2 SUB SWAP1 RETURN JUMPDEST CALLVALUE DUP1 ISZERO PUSH2 0x388 JUMPI PUSH0 PUSH0 REVERT JUMPDEST POP PUSH2 0x391 PUSH2 0x11A5 JUMP JUMPDEST PUSH1 0x40 MLOAD PUSH2 0x39E SWAP2 SWAP1 PUSH2 0x2F0A JUMP JUMPDEST PUSH1 0x40 MLOAD DUP1 SWAP2 SUB SWAP1 RETURN JUMPDEST CALLVALUE DUP1 ISZERO PUSH2 0x3B2 JUMPI PUSH0 PUSH0 REVERT JUMPDEST POP PUSH2 0x3CD PUSH1 0x4 DUP1 CALLDATASIZE SUB DUP2 ADD SWAP1 PUSH2 0x3C8 SWAP2 SWAP1 PUSH2 0x2D66 JUMP JUMPDEST PUSH2 0x11AB JUMP JUMPDEST PUSH1 0x40 MLOAD PUSH2 0x3DA SWAP2 SWAP1 PUSH2 0x3188 JUMP JUMPDEST PUSH1 0x40 MLOAD DUP1 SWAP2 SUB SWAP1 RETURN JUMPDEST CALLVALUE DUP1 ISZERO PUSH2 0x3EE JUMPI PUSH0 PUSH0 REVERT JUMPDEST POP PUSH2 0x409 PUSH1 0x4 DUP1 CALLDATASIZE SUB DUP2 ADD SWAP1 PUSH2 0x404 SWAP2 SWAP1 PUSH2 0x2D66 JUMP JUMPDEST PUSH2 0x11C8 JUMP JUMPDEST STOP JUMPDEST CALLVALUE DUP1 ISZERO PUSH2 0x416 JUMPI PUSH0 PUSH0 REVERT JUMPDEST POP PUSH2 0x431 PUSH1 0x4 DUP1 CALLDATASIZE SUB DUP2 ADD SWAP1 PUSH2 0x42C SWAP2 SWAP1 PUSH2 0x2E9B JUMP JUMPDEST PUSH2 0x1296 JUMP JUMPDEST STOP JUMPDEST CALLVALUE DUP1 ISZERO PUSH2 0x43E JUMPI PUSH0 PUSH0 REVERT JUMPDEST POP PUSH2 0x447 PUSH2 0x140A JUMP JUMPDEST STOP JUMPDEST CALLVALUE DUP1 ISZERO PUSH2 0x454 JUMPI PUSH0 PUSH0 REVERT JUMPDEST POP PUSH2 0x46F PUSH1 0x4 DUP1 CALLDATASIZE SUB DUP2 ADD SWAP1 PUSH2 0x46A SWAP2 SWAP1 PUSH2 0x2D66 JUMP JUMPDEST PUSH2 0x141D JUMP JUMPDEST STOP JUMPDEST CALLVALUE DUP1 ISZERO PUSH2 0x47C JUMPI PUSH0 PUSH0 REVERT JUMPDEST POP PUSH2 0x497 PUSH1 0x4 DUP1 CALLDATASIZE SUB DUP2 ADD SWAP1 PUSH2 0x492 SWAP2 SWAP1 PUSH2 0x2E9B JUMP JUMPDEST PUSH2 0x14EA JUMP JUMPDEST PUSH1 0x40 MLOAD PUSH2 0x4AF SWAP13 SWAP12 SWAP11 SWAP10 SWAP9 SWAP8 SWAP7 SWAP6 SWAP5 SWAP4 SWAP3 SWAP2 SWAP1 PUSH2 0x3201 JUMP JUMPDEST PUSH1 0x40 MLOAD DUP1 SWAP2 SUB SWAP1 RETURN JUMPDEST CALLVALUE DUP1 ISZERO PUSH2 0x4C3 JUMPI PUSH0 PUSH0 REVERT JUMPDEST POP PUSH2 0x4DE PUSH1 0x4 DUP1 CALLDATASIZE SUB DUP2 ADD SWAP1 PUSH2 0x4D9 SWAP2 SWAP1 PUSH2 0x32D5 JUMP JUMPDEST PUSH2 0x178A JUMP JUMPDEST STOP JUMPDEST CALLVALUE DUP1 ISZERO PUSH2 0x4EB JUMPI PUSH0 PUSH0 REVERT JUMPDEST POP PUSH2 0x4F4 PUSH2 0x1C2D JUMP JUMPDEST PUSH1 0x40 MLOAD PUSH2 0x501 SWAP2 SWAP1 PUSH2 0x3155 JUMP JUMPDEST PUSH1 0x40 MLOAD DUP1 SWAP2 SUB SWAP1 RETURN JUMPDEST CALLVALUE DUP1 ISZERO PUSH2 0x515 JUMPI PUSH0 PUSH0 REVERT JUMPDEST POP PUSH2 0x51E PUSH2 0x1C54 JUMP JUMPDEST PUSH1 0x40 MLOAD PUSH2 0x52B SWAP2 SWAP1 PUSH2 0x2F0A JUMP JUMPDEST PUSH1 0x40 MLOAD DUP1 SWAP2 SUB SWAP1 RETURN JUMPDEST CALLVALUE DUP1 ISZERO PUSH2 0x53F JUMPI PUSH0 PUSH0 REVERT JUMPDEST POP PUSH2 0x55A PUSH1 0x4 DUP1 CALLDATASIZE SUB DUP2 ADD SWAP1 PUSH2 0x555 SWAP2 SWAP1 PUSH2 0x2D66 JUMP JUMPDEST PUSH2 0x1C5A JUMP JUMPDEST PUSH1 0x40 MLOAD PUSH2 0x568 SWAP3 SWAP2 SWAP1 PUSH2 0x33CE JUMP JUMPDEST PUSH1 0x40 MLOAD DUP1 SWAP2 SUB SWAP1 RETURN JUMPDEST CALLVALUE DUP1 ISZERO PUSH2 0x57C JUMPI PUSH0 PUSH0 REVERT JUMPDEST POP PUSH2 0x597 PUSH1 0x4 DUP1 CALLDATASIZE SUB DUP2 ADD SWAP1 PUSH2 0x592 SWAP2 SWAP1 PUSH2 0x33F5 JUMP JUMPDEST PUSH2 0x1CE1 JUMP JUMPDEST PUSH1 0x40 MLOAD PUSH2 0x5A4 SWAP2 SWAP1 PUSH2 0x2F0A JUMP JUMPDEST PUSH1 0x40 MLOAD DUP1 SWAP2 SUB SWAP1 RETURN JUMPDEST CALLVALUE DUP1 ISZERO PUSH2 0x5B8 JUMPI PUSH0 PUSH0 REVERT JUMPDEST POP PUSH2 0x5D3 PUSH1 0x4 DUP1 CALLDATASIZE SUB DUP2 ADD SWAP1 PUSH2 0x5CE SWAP2 SWAP1 PUSH2 0x33F5 JUMP JUMPDEST PUSH2 0x1D0C JUMP JUMPDEST STOP JUMPDEST CALLVALUE DUP1 ISZERO PUSH2 0x5E0 JUMPI PUSH0 PUSH0 REVERT JUMPDEST POP PUSH2 0x5FB PUSH1 0x4 DUP1 CALLDATASIZE SUB DUP2 ADD SWAP1 PUSH2 0x5F6 SWAP2 SWAP1 PUSH2 0x2E9B JUMP JUMPDEST PUSH2 0x1E8E JUMP JUMPDEST PUSH1 0x40 MLOAD PUSH2 0x608 SWAP2 SWAP1 PUSH2 0x35AF JUMP JUMPDEST PUSH1 0x40 MLOAD DUP1 SWAP2 SUB SWAP1 RETURN JUMPDEST CALLVALUE DUP1 ISZERO PUSH2 0x61C JUMPI PUSH0 PUSH0 REVERT JUMPDEST POP PUSH2 0x625 PUSH2 0x222D JUMP JUMPDEST PUSH1 0x40 MLOAD PUSH2 0x632 SWAP2 SWAP1 PUSH2 0x2F0A JUMP JUMPDEST PUSH1 0x40 MLOAD DUP1 SWAP2 SUB SWAP1 RETURN JUMPDEST CALLVALUE DUP1 ISZERO PUSH2 0x646 JUMPI PUSH0 PUSH0 REVERT JUMPDEST POP PUSH2 0x661 PUSH1 0x4 DUP1 CALLDATASIZE SUB DUP2 ADD SWAP1 PUSH2 0x65C SWAP2 SWAP1 PUSH2 0x2D66 JUMP JUMPDEST PUSH2 0x2233 JUMP JUMPDEST PUSH1 0x40 MLOAD PUSH2 0x66E SWAP2 SWAP1 PUSH2 0x2F0A JUMP JUMPDEST PUSH1 0x40 MLOAD DUP1 SWAP2 SUB SWAP1 RETURN JUMPDEST CALLVALUE DUP1 ISZERO PUSH2 0x682 JUMPI PUSH0 PUSH0 REVERT JUMPDEST POP PUSH2 0x68B PUSH2 0x2248 JUMP JUMPDEST STOP JUMPDEST CALLVALUE DUP1 ISZERO PUSH2 0x698 JUMPI PUSH0 PUSH0 REVERT JUMPDEST POP PUSH2 0x6A1 PUSH2 0x2349 JUMP JUMPDEST PUSH1 0x40 MLOAD PUSH2 0x6AE SWAP2 SWAP1 PUSH2 0x3155 JUMP JUMPDEST PUSH1 0x40 MLOAD DUP1 SWAP2 SUB SWAP1 RETURN JUMPDEST CALLVALUE DUP1 ISZERO PUSH2 0x6C2 JUMPI PUSH0 PUSH0 REVERT JUMPDEST POP PUSH2 0x6DD PUSH1 0x4 DUP1 CALLDATASIZE SUB DUP2 ADD SWAP1 PUSH2 0x6D8 SWAP2 SWAP1 PUSH2 0x2D66 JUMP JUMPDEST PUSH2 0x236E JUMP JUMPDEST STOP JUMPDEST CALLVALUE DUP1 ISZERO PUSH2 0x6EA JUMPI PUSH0 PUSH0 REVERT JUMPDEST POP PUSH2 0x705 PUSH1 0x4 DUP1 CALLDATASIZE SUB DUP2 ADD SWAP1 PUSH2 0x700 SWAP2 SWAP1 PUSH2 0x35CF JUMP JUMPDEST PUSH2 0x2427 JUMP JUMPDEST PUSH1 0x40 MLOAD PUSH2 0x713 SWAP3 SWAP2 SWAP1 PUSH2 0x37DE JUMP JUMPDEST PUSH1 0x40 MLOAD DUP1 SWAP2 SUB SWAP1 RETURN JUMPDEST CALLVALUE DUP1 ISZERO PUSH2 0x727 JUMPI PUSH0 PUSH0 REVERT JUMPDEST POP PUSH2 0x742 PUSH1 0x4 DUP1 CALLDATASIZE SUB DUP2 ADD SWAP1 PUSH2 0x73D SWAP2 SWAP1 PUSH2 0x2D66 JUMP JUMPDEST PUSH2 0x2919 JUMP JUMPDEST STOP JUMPDEST CALLVALUE DUP1 ISZERO PUSH2 0x74F JUMPI PUSH0 PUSH0 REVERT JUMPDEST POP PUSH2 0x76A PUSH1 0x4 DUP1 CALLDATASIZE SUB DUP2 ADD SWAP1 PUSH2 0x765 SWAP2 SWAP1 PUSH2 0x2E9B JUMP JUMPDEST PUSH2 0x299D JUMP JUMPDEST STOP JUMPDEST PUSH1 0x60 PUSH1 0x4 PUSH0 DUP4 PUSH20 0xFFFFFFFFFFFFFFFFFFFFFFFFFFFFFFFFFFFFFFFF AND PUSH20 0xFFFFFFFFFFFFFFFFFFFFFFFFFFFFFFFFFFFFFFFF AND DUP2 MSTORE PUSH1 0x20 ADD SWAP1 DUP2 MSTORE PUSH1 0x20 ADD PUSH0 KECCAK256 DUP1 SLOAD DUP1 PUSH1 0x20 MUL PUSH1 0x20 ADD PUSH1 0x40 MLOAD SWAP1 DUP2 ADD PUSH1 0x40 MSTORE DUP1 SWAP3 SWAP2 SWAP1 DUP2 DUP2 MSTORE PUSH1 0x20 ADD DUP3 DUP1 SLOAD DUP1 ISZERO PUSH2 0x7F3 JUMPI PUSH1 0x20 MUL DUP3 ADD SWAP2 SWAP1 PUSH0 MSTORE PUSH1 0x20 PUSH0 KECCAK256 SWAP1 JUMPDEST DUP2 SLOAD DUP2 MSTORE PUSH1 0x20 ADD SWAP1 PUSH1 0x1 ADD SWAP1 DUP1 DUP4 GT PUSH2 0x7DF JUMPI JUMPDEST POP POP POP POP POP SWAP1 POP SWAP2 SWAP1 POP JUMP JUMPDEST PUSH2 0x807 PUSH2 0x2B3B JUMP JUMPDEST PUSH2 0x3E8 DUP2 GT ISZERO PUSH2 0x84C JUMPI PUSH1 0x40 MLOAD PUSH32 0x8C379A000000000000000000000000000000000000000000000000000000000 DUP2 MSTORE PUSH1 0x4 ADD PUSH2 0x843 SWAP1 PUSH2 0x387C JUMP JUMPDEST PUSH1 0x40 MLOAD DUP1 SWAP2 SUB SWAP1 REVERT JUMPDEST PUSH0 DUP2 LT ISZERO PUSH2 0x88F JUMPI PUSH1 0x40 MLOAD PUSH32 0x8C379A000000000000000000000000000000000000000000000000000000000 DUP2 MSTORE PUSH1 0x4 ADD PUSH2 0x886 SWAP1 PUSH2 0x390A JUMP JUMPDEST PUSH1 0x40 MLOAD DUP1 SWAP2 SUB SWAP1 REVERT JUMPDEST DUP1 PUSH1 0xA DUP2 SWAP1 SSTORE POP POP JUMP JUMPDEST PUSH0 PUSH0 PUSH0 PUSH1 0x7 SLOAD PUSH1 0x8 SLOAD PUSH1 0x9 SLOAD SWAP3 POP SWAP3 POP SWAP3 POP SWAP1 SWAP2 SWAP3 JUMP JUMPDEST PUSH1 0xA SLOAD DUP2 JUMP JUMPDEST PUSH1 0x5 PUSH1 0x20 MSTORE DUP1 PUSH0 MSTORE PUSH1 0x40 PUSH0 KECCAK256 PUSH0 SWAP2 POP SWAP1 POP SLOAD DUP2 JUMP JUMPDEST PUSH0 PUSH0 DUP7 MLOAD GT PUSH2 0x90F JUMPI PUSH1 0x40 MLOAD PUSH32 0x8C379A000000000000000000000000000000000000000000000000000000000 DUP2 MSTORE PUSH1 0x4 ADD PUSH2 0x906 SWAP1 PUSH2 0x3998 JUMP JUMPDEST PUSH1 0x40 MLOAD DUP1 SWAP2 SUB SWAP1 REVERT JUMPDEST PUSH1 0x64 DUP7 MLOAD GT ISZERO PUSH2 0x954 JUMPI PUSH1 0x40 MLOAD PUSH32 0x8C379A000000000000000000000000000000000000000000000000000000000 DUP2 MSTORE PUSH1 0x4 ADD PUSH2 0x94B SWAP1 PUSH2 0x3A26 JUMP JUMPDEST PUSH1 0x40 MLOAD DUP1 SWAP2 SUB SWAP1 REVERT JUMPDEST PUSH0 DUP6 MLOAD GT PUSH2 0x997 JUMPI PUSH1 0x40 MLOAD PUSH32 0x8C379A000000000000000000000000000000000000000000000000000000000 DUP2 MSTORE PUSH1 0x4 ADD PUSH2 0x98E SWAP1 PUSH2 0x3AB4 JUMP JUMPDEST PUSH1 0x40 MLOAD DUP1 SWAP2 SUB SWAP1 REVERT JUMPDEST PUSH2 0x1F4 DUP6 MLOAD GT ISZERO PUSH2 0x9DD JUMPI PUSH1 0x40 MLOAD PUSH32 0x8C379A000000000000000000000000000000000000000000000000000000000 DUP2 MSTORE PUSH1 0x4 ADD PUSH2 0x9D4 SWAP1 PUSH2 0x3B42 JUMP JUMPDEST PUSH1 0x40 MLOAD DUP1 SWAP2 SUB SWAP1 REVERT JUMPDEST PUSH0 DUP5 MLOAD GT PUSH2 0xA20 JUMPI PUSH1 0x40 MLOAD PUSH32 0x8C379A000000000000000000000000000000000000000000000000000000000 DUP2 MSTORE PUSH1 0x4 ADD PUSH2 0xA17 SWAP1 PUSH2 0x3BD0 JUMP JUMPDEST PUSH1 0x40 MLOAD DUP1 SWAP2 SUB SWAP1 REVERT JUMPDEST PUSH1 0xC8 DUP5 MLOAD GT ISZERO PUSH2 0xA65 JUMPI PUSH1 0x40 MLOAD PUSH32 0x8C379A000000000000000000000000000000000000000000000000000000000 DUP2 MSTORE PUSH1 0x4 ADD PUSH2 0xA5C SWAP1 PUSH2 0x3C5E JUMP JUMPDEST PUSH1 0x40 MLOAD DUP1 SWAP2 SUB SWAP1 REVERT JUMPDEST PUSH0 DUP4 GT PUSH2 0xAA7 JUMPI PUSH1 0x40 MLOAD PUSH32 0x8C379A000000000000000000000000000000000000000000000000000000000 DUP2 MSTORE PUSH1 0x4 ADD PUSH2 0xA9E SWAP1 PUSH2 0x3CEC JUMP JUMPDEST PUSH1 0x40 MLOAD DUP1 SWAP2 SUB SWAP1 REVERT JUMPDEST PUSH10 0xD3C21BCECCEDA1000000 DUP4 GT ISZERO PUSH2 0xAF4 JUMPI PUSH1 0x40 MLOAD PUSH32 0x8C379A000000000000000000000000000000000000000000000000000000000 DUP2 MSTORE PUSH1 0x4 ADD PUSH2 0xAEB SWAP1 PUSH2 0x3D7A JUMP JUMPDEST PUSH1 0x40 MLOAD DUP1 SWAP2 SUB SWAP1 REVERT JUMPDEST PUSH0 DUP3 MLOAD GT PUSH2 0xB37 JUMPI PUSH1 0x40 MLOAD PUSH32 0x8C379A000000000000000000000000000000000000000000000000000000000 DUP2 MSTORE PUSH1 0x4 ADD PUSH2 0xB2E SWAP1 PUSH2 0x3E08 JUMP JUMPDEST PUSH1 0x40 MLOAD DUP1 SWAP2 SUB SWAP1 REVERT JUMPDEST PUSH1 0x32 DUP3 MLOAD GT ISZERO PUSH2 0xB7C JUMPI PUSH1 0x40 MLOAD PUSH32 0x8C379A000000000000000000000000000000000000000000000000000000000 DUP2 MSTORE PUSH1 0x4 ADD PUSH2 0xB73 SWAP1 PUSH2 0x3E96 JUMP JUMPDEST PUSH1 0x40 MLOAD DUP1 SWAP2 SUB SWAP1 REVERT JUMPDEST PUSH0 PUSH1 0x2 PUSH0 DUP2 SLOAD DUP1 SWAP3 SWAP2 SWAP1 PUSH2 0xB8F SWAP1 PUSH2 0x3EE1 JUMP JUMPDEST SWAP2 SWAP1 POP SSTORE SWAP1 POP PUSH1 0x40 MLOAD DUP1 PUSH2 0x180 ADD PUSH1 0x40 MSTORE DUP1 DUP3 DUP2 MSTORE PUSH1 0x20 ADD DUP9 DUP2 MSTORE PUSH1 0x20 ADD DUP8 DUP2 MSTORE PUSH1 0x20 ADD DUP7 DUP2 MSTORE PUSH1 0x20 ADD DUP6 DUP2 MSTORE PUSH1 0x20 ADD CALLER PUSH20 0xFFFFFFFFFFFFFFFFFFFFFFFFFFFFFFFFFFFFFFFF AND DUP2 MSTORE PUSH1 0x20 ADD PUSH1 0x1 ISZERO ISZERO DUP2 MSTORE PUSH1 0x20 ADD TIMESTAMP DUP2 MSTORE PUSH1 0x20 ADD TIMESTAMP DUP2 MSTORE PUSH1 0x20 ADD PUSH0 DUP2 MSTORE PUSH1 0x20 ADD PUSH0 DUP2 MSTORE PUSH1 0x20 ADD DUP5 DUP2 MSTORE POP PUSH1 0x3 PUSH0 DUP4 DUP2 MSTORE PUSH1 0x20 ADD SWAP1 DUP2 MSTORE PUSH1 0x20 ADD PUSH0 KECCAK256 PUSH0 DUP3 ADD MLOAD DUP2 PUSH0 ADD SSTORE PUSH1 0x20 DUP3 ADD MLOAD DUP2 PUSH1 0x1 ADD SWAP1 DUP2 PUSH2 0xC2E SWAP2 SWAP1 PUSH2 0x4125 JUMP JUMPDEST POP PUSH1 0x40 DUP3 ADD MLOAD DUP2 PUSH1 0x2 ADD SWAP1 DUP2 PUSH2 0xC44 SWAP2 SWAP1 PUSH2 0x4125 JUMP JUMPDEST POP PUSH1 0x60 DUP3 ADD MLOAD DUP2 PUSH1 0x3 ADD SWAP1 DUP2 PUSH2 0xC5A SWAP2 SWAP1 PUSH2 0x4125 JUMP JUMPDEST POP PUSH1 0x80 DUP3 ADD MLOAD DUP2 PUSH1 0x4 ADD SSTORE PUSH1 0xA0 DUP3 ADD MLOAD DUP2 PUSH1 0x5 ADD PUSH0 PUSH2 0x100 EXP DUP2 SLOAD DUP2 PUSH20 0xFFFFFFFFFFFFFFFFFFFFFFFFFFFFFFFFFFFFFFFF MUL NOT AND SWAP1 DUP4 PUSH20 0xFFFFFFFFFFFFFFFFFFFFFFFFFFFFFFFFFFFFFFFF AND MUL OR SWAP1 SSTORE POP PUSH1 0xC0 DUP3 ADD MLOAD DUP2 PUSH1 0x5 ADD PUSH1 0x14 PUSH2 0x100 EXP DUP2 SLOAD DUP2 PUSH1 0xFF MUL NOT AND SWAP1 DUP4 ISZERO ISZERO MUL OR SWAP1 SSTORE POP PUSH1 0xE0 DUP3 ADD MLOAD DUP2 PUSH1 0x6 ADD SSTORE PUSH2 0x100 DUP3 ADD MLOAD DUP2 PUSH1 0x7 ADD SSTORE PUSH2 0x120 DUP3 ADD MLOAD DUP2 PUSH1 0x8 ADD SSTORE PUSH2 0x140 DUP3 ADD MLOAD DUP2 PUSH1 0x9 ADD SSTORE PUSH2 0x160 DUP3 ADD MLOAD DUP2 PUSH1 0xA ADD SWAP1 DUP2 PUSH2 0xD0C SWAP2 SWAP1 PUSH2 0x4125 JUMP JUMPDEST POP SWAP1 POP POP PUSH1 0x4 PUSH0 CALLER PUSH20 0xFFFFFFFFFFFFFFFFFFFFFFFFFFFFFFFFFFFFFFFF AND PUSH20 0xFFFFFFFFFFFFFFFFFFFFFFFFFFFFFFFFFFFFFFFF AND DUP2 MSTORE PUSH1 0x20 ADD SWAP1 DUP2 MSTORE PUSH1 0x20 ADD PUSH0 KECCAK256 DUP2 SWAP1 DUP1 PUSH1 0x1 DUP2 SLOAD ADD DUP1 DUP3 SSTORE DUP1 SWAP2 POP POP PUSH1 0x1 SWAP1 SUB SWAP1 PUSH0 MSTORE PUSH1 0x20 PUSH0 KECCAK256 ADD PUSH0 SWAP1 SWAP2 SWAP1 SWAP2 SWAP1 SWAP2 POP SSTORE PUSH1 0x7 PUSH0 DUP2 SLOAD DUP1 SWAP3 SWAP2 SWAP1 PUSH2 0xD83 SWAP1 PUSH2 0x3EE1 JUMP JUMPDEST SWAP2 SWAP1 POP SSTORE POP CALLER PUSH20 0xFFFFFFFFFFFFFFFFFFFFFFFFFFFFFFFFFFFFFFFF AND DUP2 PUSH32 0x5F25C590B5C7F62ED4186ADCA32D3118CAEF07E5020C6CC8268D4136DF2CFEF8 DUP10 DUP8 PUSH1 0x40 MLOAD PUSH2 0xDD1 SWAP3 SWAP2 SWAP1 PUSH2 0x41F4 JUMP JUMPDEST PUSH1 0x40 MLOAD DUP1 SWAP2 SUB SWAP1 LOG3 DUP1 SWAP2 POP POP SWAP6 SWAP5 POP POP POP POP POP JUMP JUMPDEST DUP1 PUSH0 DUP2 GT PUSH2 0xE29 JUMPI PUSH1 0x40 MLOAD PUSH32 0x8C379A000000000000000000000000000000000000000000000000000000000 DUP2 MSTORE PUSH1 0x4 ADD PUSH2 0xE20 SWAP1 PUSH2 0x4292 JUMP JUMPDEST PUSH1 0x40 MLOAD DUP1 SWAP2 SUB SWAP1 REVERT JUMPDEST PUSH1 0x2 SLOAD DUP2 LT PUSH2 0xE6D JUMPI PUSH1 0x40 MLOAD PUSH32 0x8C379A000000000000000000000000000000000000000000000000000000000 DUP2 MSTORE PUSH1 0x4 ADD PUSH2 0xE64 SWAP1 PUSH2 0x4320 JUMP JUMPDEST PUSH1 0x40 MLOAD DUP1 SWAP2 SUB SWAP1 REVERT JUMPDEST DUP2 PUSH1 0x3 PUSH0 DUP3 DUP2 MSTORE PUSH1 0x20 ADD SWAP1 DUP2 MSTORE PUSH1 0x20 ADD PUSH0 KECCAK256 PUSH1 0x5 ADD PUSH1 0x14 SWAP1 SLOAD SWAP1 PUSH2 0x100 EXP SWAP1 DIV PUSH1 0xFF AND PUSH2 0xECF JUMPI PUSH1 0x40 MLOAD PUSH32 0x8C379A000000000000000000000000000000000000000000000000000000000 DUP2 MSTORE PUSH1 0x4 ADD PUSH2 0xEC6 SWAP1 PUSH2 0x43AE JUMP JUMPDEST PUSH1 0x40 MLOAD DUP1 SWAP2 SUB SWAP1 REVERT JUMPDEST PUSH0 PUSH1 0x3 PUSH0 DUP6 DUP2 MSTORE PUSH1 0x20 ADD SWAP1 DUP2 MSTORE PUSH1 0x20 ADD PUSH0 KECCAK256 SWAP1 POP DUP1 PUSH1 0x4 ADD SLOAD CALLVALUE LT ISZERO PUSH2 0xF2A JUMPI PUSH1 0x40 MLOAD PUSH32 0x8C379A000000000000000000000000000000000000000000000000000000000 DUP2 MSTORE PUSH1 0x4 ADD PUSH2 0xF21 SWAP1 PUSH2 0x4416 JUMP JUMPDEST PUSH1 0x40 MLOAD DUP1 SWAP2 SUB SWAP1 REVERT JUMPDEST DUP1 PUSH1 0x5 ADD PUSH0 SWAP1 SLOAD SWAP1 PUSH2 0x100 EXP SWAP1 DIV PUSH20 0xFFFFFFFFFFFFFFFFFFFFFFFFFFFFFFFFFFFFFFFF AND PUSH20 0xFFFFFFFFFFFFFFFFFFFFFFFFFFFFFFFFFFFFFFFF AND CALLER PUSH20 0xFFFFFFFFFFFFFFFFFFFFFFFFFFFFFFFFFFFFFFFF AND SUB PUSH2 0xFBB JUMPI PUSH1 0x40 MLOAD PUSH32 0x8C379A000000000000000000000000000000000000000000000000000000000 DUP2 MSTORE PUSH1 0x4 ADD PUSH2 0xFB2 SWAP1 PUSH2 0x447E JUMP JUMPDEST PUSH1 0x40 MLOAD DUP1 SWAP2 SUB SWAP1 REVERT JUMPDEST DUP1 PUSH1 0x8 ADD PUSH0 DUP2 SLOAD DUP1 SWAP3 SWAP2 SWAP1 PUSH2 0xFCF SWAP1 PUSH2 0x3EE1 JUMP JUMPDEST SWAP2 SWAP1 POP SSTORE POP CALLVALUE DUP2 PUSH1 0x9 ADD PUSH0 DUP3 DUP3 SLOAD PUSH2 0xFE7 SWAP2 SWAP1 PUSH2 0x449C JUMP JUMPDEST SWAP3 POP POP DUP2 SWAP1 SSTORE POP PUSH1 0x8 PUSH0 DUP2 SLOAD DUP1 SWAP3 SWAP2 SWAP1 PUSH2 0x1000 SWAP1 PUSH2 0x3EE1 JUMP JUMPDEST SWAP2 SWAP1 POP SSTORE POP CALLVALUE PUSH1 0x9 PUSH0 DUP3 DUP3 SLOAD PUSH2 0x1016 SWAP2 SWAP1 PUSH2 0x449C JUMP JUMPDEST SWAP3 POP POP DUP2 SWAP1 SSTORE POP PUSH0 DUP2 PUSH1 0x5 ADD PUSH0 SWAP1 SLOAD SWAP1 PUSH2 0x100 EXP SWAP1 DIV PUSH20 0xFFFFFFFFFFFFFFFFFFFFFFFFFFFFFFFFFFFFFFFF AND PUSH20 0xFFFFFFFFFFFFFFFFFFFFFFFFFFFFFFFFFFFFFFFF AND CALLVALUE PUSH1 0x40 MLOAD PUSH2 0x1065 SWAP1 PUSH2 0x44FC JUMP JUMPDEST PUSH0 PUSH1 0x40 MLOAD DUP1 DUP4 SUB DUP2 DUP6 DUP8 GAS CALL SWAP3 POP POP POP RETURNDATASIZE DUP1 PUSH0 DUP2 EQ PUSH2 0x109F JUMPI PUSH1 0x40 MLOAD SWAP2 POP PUSH1 0x1F NOT PUSH1 0x3F RETURNDATASIZE ADD AND DUP3 ADD PUSH1 0x40 MSTORE RETURNDATASIZE DUP3 MSTORE RETURNDATASIZE PUSH0 PUSH1 0x20 DUP5 ADD RETURNDATACOPY PUSH2 0x10A4 JUMP JUMPDEST PUSH1 0x60 SWAP2 POP JUMPDEST POP POP SWAP1 POP DUP1 PUSH2 0x10E8 JUMPI PUSH1 0x40 MLOAD PUSH32 0x8C379A000000000000000000000000000000000000000000000000000000000 DUP2 MSTORE PUSH1 0x4 ADD PUSH2 0x10DF SWAP1 PUSH2 0x455A JUMP JUMPDEST PUSH1 0x40 MLOAD DUP1 SWAP2 SUB SWAP1 REVERT JUMPDEST DUP2 PUSH1 0x5 ADD PUSH0 SWAP1 SLOAD SWAP1 PUSH2 0x100 EXP SWAP1 DIV PUSH20 0xFFFFFFFFFFFFFFFFFFFFFFFFFFFFFFFFFFFFFFFF AND PUSH20 0xFFFFFFFFFFFFFFFFFFFFFFFFFFFFFFFFFFFFFFFF AND CALLER PUSH20 0xFFFFFFFFFFFFFFFFFFFFFFFFFFFFFFFFFFFFFFFF AND DUP7 PUSH32 0xBE6177108F4DF43C5D7BE79CB219C969FC97915BBDB4B56D14D391DCDCC16060 CALLVALUE TIMESTAMP PUSH1 0x40 MLOAD PUSH2 0x116B SWAP3 SWAP2 SWAP1 PUSH2 0x33CE JUMP JUMPDEST PUSH1 0x40 MLOAD DUP1 SWAP2 SUB SWAP1 LOG4 POP POP POP POP POP JUMP JUMPDEST PUSH1 0xB PUSH0 SWAP1 SLOAD SWAP1 PUSH2 0x100 EXP SWAP1 DIV PUSH20 0xFFFFFFFFFFFFFFFFFFFFFFFFFFFFFFFFFFFFFFFF AND DUP2 JUMP JUMPDEST PUSH1 0x2 SLOAD DUP2 JUMP JUMPDEST PUSH1 0x8 SLOAD DUP2 JUMP JUMPDEST PUSH1 0xC PUSH1 0x20 MSTORE DUP1 PUSH0 MSTORE PUSH1 0x40 PUSH0 KECCAK256 PUSH0 SWAP2 POP SLOAD SWAP1 PUSH2 0x100 EXP SWAP1 DIV PUSH1 0xFF AND DUP2 JUMP JUMPDEST PUSH2 0x11D0 PUSH2 0x2B3B JUMP JUMPDEST PUSH0 PUSH20 0xFFFFFFFFFFFFFFFFFFFFFFFFFFFFFFFFFFFFFFFF AND DUP2 PUSH20 0xFFFFFFFFFFFFFFFFFFFFFFFFFFFFFFFFFFFFFFFF AND SUB PUSH2 0x123E JUMPI PUSH1 0x40 MLOAD PUSH32 0x8C379A000000000000000000000000000000000000000000000000000000000 DUP2 MSTORE PUSH1 0x4 ADD PUSH2 0x1235 SWAP1 PUSH2 0x45E8 JUMP JUMPDEST PUSH1 0x40 MLOAD DUP1 SWAP2 SUB SWAP1 REVERT JUMPDEST PUSH1 0x1 PUSH1 0xC PUSH0 DUP4 PUSH20 0xFFFFFFFFFFFFFFFFFFFFFFFFFFFFFFFFFFFFFFFF AND PUSH20 0xFFFFFFFFFFFFFFFFFFFFFFFFFFFFFFFFFFFFFFFF AND DUP2 MSTORE PUSH1 0x20 ADD SWAP1 DUP2 MSTORE PUSH1 0x20 ADD PUSH0 KECCAK256 PUSH0 PUSH2 0x100 EXP DUP2 SLOAD DUP2 PUSH1 0xFF MUL NOT AND SWAP1 DUP4 ISZERO ISZERO MUL OR SWAP1 SSTORE POP POP JUMP JUMPDEST DUP1 PUSH0 DUP2 GT PUSH2 0x12D9 JUMPI PUSH1 0x40 MLOAD PUSH32 0x8C379A000000000000000000000000000000000000000000000000000000000 DUP2 MSTORE PUSH1 0x4 ADD PUSH2 0x12D0 SWAP1 PUSH2 0x4292 JUMP JUMPDEST PUSH1 0x40 MLOAD DUP1 SWAP2 SUB SWAP1 REVERT JUMPDEST PUSH1 0x2 SLOAD DUP2 LT PUSH2 0x131D JUMPI PUSH1 0x40 MLOAD PUSH32 0x8C379A000000000000000000000000000000000000000000000000000000000 DUP2 MSTORE PUSH1 0x4 ADD PUSH2 0x1314 SWAP1 PUSH2 0x4320 JUMP JUMPDEST PUSH1 0x40 MLOAD DUP1 SWAP2 SUB SWAP1 REVERT JUMPDEST DUP2 CALLER PUSH20 0xFFFFFFFFFFFFFFFFFFFFFFFFFFFFFFFFFFFFFFFF AND PUSH1 0x3 PUSH0 DUP4 DUP2 MSTORE PUSH1 0x20 ADD SWAP1 DUP2 MSTORE PUSH1 0x20 ADD PUSH0 KECCAK256 PUSH1 0x5 ADD PUSH0 SWAP1 SLOAD SWAP1 PUSH2 0x100 EXP SWAP1 DIV PUSH20 0xFFFFFFFFFFFFFFFFFFFFFFFFFFFFFFFFFFFFFFFF AND PUSH20 0xFFFFFFFFFFFFFFFFFFFFFFFFFFFFFFFFFFFFFFFF AND EQ PUSH2 0x13BF JUMPI PUSH1 0x40 MLOAD PUSH32 0x8C379A000000000000000000000000000000000000000000000000000000000 DUP2 MSTORE PUSH1 0x4 ADD PUSH2 0x13B6 SWAP1 PUSH2 0x4676 JUMP JUMPDEST PUSH1 0x40 MLOAD DUP1 SWAP2 SUB SWAP1 REVERT JUMPDEST PUSH1 0x1 PUSH1 0x3 PUSH0 DUP6 DUP2 MSTORE PUSH1 0x20 ADD SWAP1 DUP2 MSTORE PUSH1 0x20 ADD PUSH0 KECCAK256 PUSH1 0x5 ADD PUSH1 0x14 PUSH2 0x100 EXP DUP2 SLOAD DUP2 PUSH1 0xFF MUL NOT AND SWAP1 DUP4 ISZERO ISZERO MUL OR SWAP1 SSTORE POP TIMESTAMP PUSH1 0x3 PUSH0 DUP6 DUP2 MSTORE PUSH1 0x20 ADD SWAP1 DUP2 MSTORE PUSH1 0x20 ADD PUSH0 KECCAK256 PUSH1 0x7 ADD DUP2 SWAP1 SSTORE POP POP POP POP JUMP JUMPDEST PUSH2 0x1412 PUSH2 0x2B3B JUMP JUMPDEST PUSH2 0x141B PUSH0 PUSH2 0x2BC2 JUMP JUMPDEST JUMP JUMPDEST PUSH2 0x1425 PUSH2 0x2B3B JUMP JUMPDEST PUSH0 PUSH20 0xFFFFFFFFFFFFFFFFFFFFFFFFFFFFFFFFFFFFFFFF AND DUP2 PUSH20 0xFFFFFFFFFFFFFFFFFFFFFFFFFFFFFFFFFFFFFFFF AND SUB PUSH2 0x1493 JUMPI PUSH1 0x40 MLOAD PUSH32 0x8C379A000000000000000000000000000000000000000000000000000000000 DUP2 MSTORE PUSH1 0x4 ADD PUSH2 0x148A SWAP1 PUSH2 0x45E8 JUMP JUMPDEST PUSH1 0x40 MLOAD DUP1 SWAP2 SUB SWAP1 REVERT JUMPDEST PUSH0 PUSH1 0xC PUSH0 DUP4 PUSH20 0xFFFFFFFFFFFFFFFFFFFFFFFFFFFFFFFFFFFFFFFF AND PUSH20 0xFFFFFFFFFFFFFFFFFFFFFFFFFFFFFFFFFFFFFFFF AND DUP2 MSTORE PUSH1 0x20 ADD SWAP1 DUP2 MSTORE PUSH1 0x20 ADD PUSH0 KECCAK256 PUSH0 PUSH2 0x100 EXP DUP2 SLOAD DUP2 PUSH1 0xFF MUL NOT AND SWAP1 DUP4 ISZERO ISZERO MUL OR SWAP1 SSTORE POP POP JUMP JUMPDEST PUSH1 0x3 PUSH1 0x20 MSTORE DUP1 PUSH0 MSTORE PUSH1 0x40 PUSH0 KECCAK256 PUSH0 SWAP2 POP SWAP1 POP DUP1 PUSH0 ADD SLOAD SWAP1 DUP1 PUSH1 0x1 ADD DUP1 SLOAD PUSH2 0x150F SWAP1 PUSH2 0x3F55 JUMP JUMPDEST DUP1 PUSH1 0x1F ADD PUSH1 0x20 DUP1 SWAP2 DIV MUL PUSH1 0x20 ADD PUSH1 0x40 MLOAD SWAP1 DUP2 ADD PUSH1 0x40 MSTORE DUP1 SWAP3 SWAP2 SWAP1 DUP2 DUP2 MSTORE PUSH1 0x20 ADD DUP3 DUP1 SLOAD PUSH2 0x153B SWAP1 PUSH2 0x3F55 JUMP JUMPDEST DUP1 ISZERO PUSH2 0x1586 JUMPI DUP1 PUSH1 0x1F LT PUSH2 0x155D JUMPI PUSH2 0x100 DUP1 DUP4 SLOAD DIV MUL DUP4 MSTORE SWAP2 PUSH1 0x20 ADD SWAP2 PUSH2 0x1586 JUMP JUMPDEST DUP3 ADD SWAP2 SWAP1 PUSH0 MSTORE PUSH1 0x20 PUSH0 KECCAK256 SWAP1 JUMPDEST DUP2 SLOAD DUP2 MSTORE SWAP1 PUSH1 0x1 ADD SWAP1 PUSH1 0x20 ADD DUP1 DUP4 GT PUSH2 0x1569 JUMPI DUP3 SWAP1 SUB PUSH1 0x1F AND DUP3 ADD SWAP2 JUMPDEST POP POP POP POP POP SWAP1 DUP1 PUSH1 0x2 ADD DUP1 SLOAD PUSH2 0x159B SWAP1 PUSH2 0x3F55 JUMP JUMPDEST DUP1 PUSH1 0x1F ADD PUSH1 0x20 DUP1 SWAP2 DIV MUL PUSH1 0x20 ADD PUSH1 0x40 MLOAD SWAP1 DUP2 ADD PUSH1 0x40 MSTORE DUP1 SWAP3 SWAP2 SWAP1 DUP2 DUP2 MSTORE PUSH1 0x20 ADD DUP3 DUP1 SLOAD PUSH2 0x15C7 SWAP1 PUSH2 0x3F55 JUMP JUMPDEST DUP1 ISZERO PUSH2 0x1612 JUMPI DUP1 PUSH1 0x1F LT PUSH2 0x15E9 JUMPI PUSH2 0x100 DUP1 DUP4 SLOAD DIV MUL DUP4 MSTORE SWAP2 PUSH1 0x20 ADD SWAP2 PUSH2 0x1612 JUMP JUMPDEST DUP3 ADD SWAP2 SWAP1 PUSH0 MSTORE PUSH1 0x20 PUSH0 KECCAK256 SWAP1 JUMPDEST DUP2 SLOAD DUP2 MSTORE SWAP1 PUSH1 0x1 ADD SWAP1 PUSH1 0x20 ADD DUP1 DUP4 GT PUSH2 0x15F5 JUMPI DUP3 SWAP1 SUB PUSH1 0x1F AND DUP3 ADD SWAP2 JUMPDEST POP POP POP POP POP SWAP1 DUP1 PUSH1 0x3 ADD DUP1 SLOAD PUSH2 0x1627 SWAP1 PUSH2 0x3F55 JUMP JUMPDEST DUP1 PUSH1 0x1F ADD PUSH1 0x20 DUP1 SWAP2 DIV MUL PUSH1 0x20 ADD PUSH1 0x40 MLOAD SWAP1 DUP2 ADD PUSH1 0x40 MSTORE DUP1 SWAP3 SWAP2 SWAP1 DUP2 DUP2 MSTORE PUSH1 0x20 ADD DUP3 DUP1 SLOAD PUSH2 0x1653 SWAP1 PUSH2 0x3F55 JUMP JUMPDEST DUP1 ISZERO PUSH2 0x169E JUMPI DUP1 PUSH1 0x1F LT PUSH2 0x1675 JUMPI PUSH2 0x100 DUP1 DUP4 SLOAD DIV MUL DUP4 MSTORE SWAP2 PUSH1 0x20 ADD SWAP2 PUSH2 0x169E JUMP JUMPDEST DUP3 ADD SWAP2 SWAP1 PUSH0 MSTORE PUSH1 0x20 PUSH0 KECCAK256 SWAP1 JUMPDEST DUP2 SLOAD DUP2 MSTORE SWAP1 PUSH1 0x1 ADD SWAP1 PUSH1 0x20 ADD DUP1 DUP4 GT PUSH2 0x1681 JUMPI DUP3 SWAP1 SUB PUSH1 0x1F AND DUP3 ADD SWAP2 JUMPDEST POP POP POP POP POP SWAP1 DUP1 PUSH1 0x4 ADD SLOAD SWAP1 DUP1 PUSH1 0x5 ADD PUSH0 SWAP1 SLOAD SWAP1 PUSH2 0x100 EXP SWAP1 DIV PUSH20 0xFFFFFFFFFFFFFFFFFFFFFFFFFFFFFFFFFFFFFFFF AND SWAP1 DUP1 PUSH1 0x5 ADD PUSH1 0x14 SWAP1 SLOAD SWAP1 PUSH2 0x100 EXP SWAP1 DIV PUSH1 0xFF AND SWAP1 DUP1 PUSH1 0x6 ADD SLOAD SWAP1 DUP1 PUSH1 0x7 ADD SLOAD SWAP1 DUP1 PUSH1 0x8 ADD SLOAD SWAP1 DUP1 PUSH1 0x9 ADD SLOAD SWAP1 DUP1 PUSH1 0xA ADD DUP1 SLOAD PUSH2 0x1709 SWAP1 PUSH2 0x3F55 JUMP JUMPDEST DUP1 PUSH1 0x1F ADD PUSH1 0x20 DUP1 SWAP2 DIV MUL PUSH1 0x20 ADD PUSH1 0x40 MLOAD SWAP1 DUP2 ADD PUSH1 0x40 MSTORE DUP1 SWAP3 SWAP2 SWAP1 DUP2 DUP2 MSTORE PUSH1 0x20 ADD DUP3 DUP1 SLOAD PUSH2 0x1735 SWAP1 PUSH2 0x3F55 JUMP JUMPDEST DUP1 ISZERO PUSH2 0x1780 JUMPI DUP1 PUSH1 0x1F LT PUSH2 0x1757 JUMPI PUSH2 0x100 DUP1 DUP4 SLOAD DIV MUL DUP4 MSTORE SWAP2 PUSH1 0x20 ADD SWAP2 PUSH2 0x1780 JUMP JUMPDEST DUP3 ADD SWAP2 SWAP1 PUSH0 MSTORE PUSH1 0x20 PUSH0 KECCAK256 SWAP1 JUMPDEST DUP2 SLOAD DUP2 MSTORE SWAP1 PUSH1 0x1 ADD SWAP1 PUSH1 0x20 ADD DUP1 DUP4 GT PUSH2 0x1763 JUMPI DUP3 SWAP1 SUB PUSH1 0x1F AND DUP3 ADD SWAP2 JUMPDEST POP POP POP POP POP SWAP1 POP DUP13 JUMP JUMPDEST DUP6 PUSH0 DUP2 GT PUSH2 0x17CD JUMPI PUSH1 0x40 MLOAD PUSH32 0x8C379A000000000000000000000000000000000000000000000000000000000 DUP2 MSTORE PUSH1 0x4 ADD PUSH2 0x17C4 SWAP1 PUSH2 0x4292 JUMP JUMPDEST PUSH1 0x40 MLOAD DUP1 SWAP2 SUB SWAP1 REVERT JUMPDEST PUSH1 0x2 SLOAD DUP2 LT PUSH2 0x1811 JUMPI PUSH1 0x40 MLOAD PUSH32 0x8C379A000000000000000000000000000000000000000000000000000000000 DUP2 MSTORE PUSH1 0x4 ADD PUSH2 0x1808 SWAP1 PUSH2 0x4320 JUMP JUMPDEST PUSH1 0x40 MLOAD DUP1 SWAP2 SUB SWAP1 REVERT JUMPDEST DUP7 CALLER PUSH20 0xFFFFFFFFFFFFFFFFFFFFFFFFFFFFFFFFFFFFFFFF AND PUSH1 0x3 PUSH0 DUP4 DUP2 MSTORE PUSH1 0x20 ADD SWAP1 DUP2 MSTORE PUSH1 0x20 ADD PUSH0 KECCAK256 PUSH1 0x5 ADD PUSH0 SWAP1 SLOAD SWAP1 PUSH2 0x100 EXP SWAP1 DIV PUSH20 0xFFFFFFFFFFFFFFFFFFFFFFFFFFFFFFFFFFFFFFFF AND PUSH20 0xFFFFFFFFFFFFFFFFFFFFFFFFFFFFFFFFFFFFFFFF AND EQ PUSH2 0x18B3 JUMPI PUSH1 0x40 MLOAD PUSH32 0x8C379A000000000000000000000000000000000000000000000000000000000 DUP2 MSTORE PUSH1 0x4 ADD PUSH2 0x18AA SWAP1 PUSH2 0x4676 JUMP JUMPDEST PUSH1 0x40 MLOAD DUP1 SWAP2 SUB SWAP1 REVERT JUMPDEST PUSH0 DUP8 MLOAD GT PUSH2 0x18F6 JUMPI PUSH1 0x40 MLOAD PUSH32 0x8C379A000000000000000000000000000000000000000000000000000000000 DUP2 MSTORE PUSH1 0x4 ADD PUSH2 0x18ED SWAP1 PUSH2 0x3998 JUMP JUMPDEST PUSH1 0x40 MLOAD DUP1 SWAP2 SUB SWAP1 REVERT JUMPDEST PUSH1 0x64 DUP8 MLOAD GT ISZERO PUSH2 0x193B JUMPI PUSH1 0x40 MLOAD PUSH32 0x8C379A000000000000000000000000000000000000000000000000000000000 DUP2 MSTORE PUSH1 0x4 ADD PUSH2 0x1932 SWAP1 PUSH2 0x3A26 JUMP JUMPDEST PUSH1 0x40 MLOAD DUP1 SWAP2 SUB SWAP1 REVERT JUMPDEST PUSH0 DUP7 MLOAD GT PUSH2 0x197E JUMPI PUSH1 0x40 MLOAD PUSH32 0x8C379A000000000000000000000000000000000000000000000000000000000 DUP2 MSTORE PUSH1 0x4 ADD PUSH2 0x1975 SWAP1 PUSH2 0x3AB4 JUMP JUMPDEST PUSH1 0x40 MLOAD DUP1 SWAP2 SUB SWAP1 REVERT JUMPDEST PUSH2 0x1F4 DUP7 MLOAD GT ISZERO PUSH2 0x19C4 JUMPI PUSH1 0x40 MLOAD PUSH32 0x8C379A000000000000000000000000000000000000000000000000000000000 DUP2 MSTORE PUSH1 0x4 ADD PUSH2 0x19BB SWAP1 PUSH2 0x3B42 JUMP JUMPDEST PUSH1 0x40 MLOAD DUP1 SWAP2 SUB SWAP1 REVERT JUMPDEST PUSH0 DUP6 MLOAD GT PUSH2 0x1A07 JUMPI PUSH1 0x40 MLOAD PUSH32 0x8C379A000000000000000000000000000000000000000000000000000000000 DUP2 MSTORE PUSH1 0x4 ADD PUSH2 0x19FE SWAP1 PUSH2 0x3BD0 JUMP JUMPDEST PUSH1 0x40 MLOAD DUP1 SWAP2 SUB SWAP1 REVERT JUMPDEST PUSH1 0xC8 DUP6 MLOAD GT ISZERO PUSH2 0x1A4C JUMPI PUSH1 0x40 MLOAD PUSH32 0x8C379A000000000000000000000000000000000000000000000000000000000 DUP2 MSTORE PUSH1 0x4 ADD PUSH2 0x1A43 SWAP1 PUSH2 0x3C5E JUMP JUMPDEST PUSH1 0x40 MLOAD DUP1 SWAP2 SUB SWAP1 REVERT JUMPDEST PUSH0 DUP5 GT PUSH2 0x1A8E JUMPI PUSH1 0x40 MLOAD PUSH32 0x8C379A000000000000000000000000000000000000000000000000000000000 DUP2 MSTORE PUSH1 0x4 ADD PUSH2 0x1A85 SWAP1 PUSH2 0x3CEC JUMP JUMPDEST PUSH1 0x40 MLOAD DUP1 SWAP2 SUB SWAP1 REVERT JUMPDEST PUSH10 0xD3C21BCECCEDA1000000 DUP5 GT ISZERO PUSH2 0x1ADB JUMPI PUSH1 0x40 MLOAD PUSH32 0x8C379A000000000000000000000000000000000000000000000000000000000 DUP2 MSTORE PUSH1 0x4 ADD PUSH2 0x1AD2 SWAP1 PUSH2 0x3D7A JUMP JUMPDEST PUSH1 0x40 MLOAD DUP1 SWAP2 SUB SWAP1 REVERT JUMPDEST PUSH0 DUP4 MLOAD GT PUSH2 0x1B1E JUMPI PUSH1 0x40 MLOAD PUSH32 0x8C379A000000000000000000000000000000000000000000000000000000000 DUP2 MSTORE PUSH1 0x4 ADD PUSH2 0x1B15 SWAP1 PUSH2 0x3E08 JUMP JUMPDEST PUSH1 0x40 MLOAD DUP1 SWAP2 SUB SWAP1 REVERT JUMPDEST PUSH1 0x32 DUP4 MLOAD GT ISZERO PUSH2 0x1B63 JUMPI PUSH1 0x40 MLOAD PUSH32 0x8C379A000000000000000000000000000000000000000000000000000000000 DUP2 MSTORE PUSH1 0x4 ADD PUSH2 0x1B5A SWAP1 PUSH2 0x3E96 JUMP JUMPDEST PUSH1 0x40 MLOAD DUP1 SWAP2 SUB SWAP1 REVERT JUMPDEST PUSH0 PUSH1 0x3 PUSH0 DUP11 DUP2 MSTORE PUSH1 0x20 ADD SWAP1 DUP2 MSTORE PUSH1 0x20 ADD PUSH0 KECCAK256 SWAP1 POP DUP8 DUP2 PUSH1 0x1 ADD SWAP1 DUP2 PUSH2 0x1B88 SWAP2 SWAP1 PUSH2 0x4125 JUMP JUMPDEST POP DUP7 DUP2 PUSH1 0x2 ADD SWAP1 DUP2 PUSH2 0x1B9A SWAP2 SWAP1 PUSH2 0x4125 JUMP JUMPDEST POP DUP6 DUP2 PUSH1 0x3 ADD SWAP1 DUP2 PUSH2 0x1BAC SWAP2 SWAP1 PUSH2 0x4125 JUMP JUMPDEST POP DUP5 DUP2 PUSH1 0x4 ADD DUP2 SWAP1 SSTORE POP DUP4 DUP2 PUSH1 0xA ADD SWAP1 DUP2 PUSH2 0x1BC7 SWAP2 SWAP1 PUSH2 0x4125 JUMP JUMPDEST POP TIMESTAMP DUP2 PUSH1 0x7 ADD DUP2 SWAP1 SSTORE POP CALLER PUSH20 0xFFFFFFFFFFFFFFFFFFFFFFFFFFFFFFFFFFFFFFFF AND DUP10 PUSH32 0x5A033CBA5E379690447BA58A292348E2D5034BF867F32D6AEE59A86B3D0134E1 DUP11 DUP9 PUSH1 0x40 MLOAD PUSH2 0x1C1A SWAP3 SWAP2 SWAP1 PUSH2 0x41F4 JUMP JUMPDEST PUSH1 0x40 MLOAD DUP1 SWAP2 SUB SWAP1 LOG3 POP POP POP POP POP POP POP POP POP JUMP JUMPDEST PUSH0 PUSH0 PUSH0 SWAP1 SLOAD SWAP1 PUSH2 0x100 EXP SWAP1 DIV PUSH20 0xFFFFFFFFFFFFFFFFFFFFFFFFFFFFFFFFFFFFFFFF AND SWAP1 POP SWAP1 JUMP JUMPDEST PUSH1 0x7 SLOAD DUP2 JUMP JUMPDEST PUSH0 PUSH0 PUSH1 0x5 PUSH0 DUP5 PUSH20 0xFFFFFFFFFFFFFFFFFFFFFFFFFFFFFFFFFFFFFFFF AND PUSH20 0xFFFFFFFFFFFFFFFFFFFFFFFFFFFFFFFFFFFFFFFF AND DUP2 MSTORE PUSH1 0x20 ADD SWAP1 DUP2 MSTORE PUSH1 0x20 ADD PUSH0 KECCAK256 SLOAD PUSH1 0x6 PUSH0 DUP6 PUSH20 0xFFFFFFFFFFFFFFFFFFFFFFFFFFFFFFFFFFFFFFFF AND PUSH20 0xFFFFFFFFFFFFFFFFFFFFFFFFFFFFFFFFFFFFFFFF AND DUP2 MSTORE PUSH1 0x20 ADD SWAP1 DUP2 MSTORE PUSH1 0x20 ADD PUSH0 KECCAK256 SLOAD SWAP2 POP SWAP2 POP SWAP2 POP SWAP2 JUMP JUMPDEST PUSH1 0x4 PUSH1 0x20 MSTORE DUP2 PUSH0 MSTORE PUSH1 0x40 PUSH0 KECCAK256 DUP2 DUP2 SLOAD DUP2 LT PUSH2 0x1CFA JUMPI PUSH0 DUP1 REVERT JUMPDEST SWAP1 PUSH0 MSTORE PUSH1 0x20 PUSH0 KECCAK256 ADD PUSH0 SWAP2 POP SWAP2 POP POP SLOAD DUP2 JUMP JUMPDEST PUSH2 0x1D14 PUSH2 0x2B3B JUMP JUMPDEST PUSH0 PUSH20 0xFFFFFFFFFFFFFFFFFFFFFFFFFFFFFFFFFFFFFFFF AND DUP3 PUSH20 0xFFFFFFFFFFFFFFFFFFFFFFFFFFFFFFFFFFFFFFFF AND SUB PUSH2 0x1D82 JUMPI PUSH1 0x40 MLOAD PUSH32 0x8C379A000000000000000000000000000000000000000000000000000000000 DUP2 MSTORE PUSH1 0x4 ADD PUSH2 0x1D79 SWAP1 PUSH2 0x45E8 JUMP JUMPDEST PUSH1 0x40 MLOAD DUP1 SWAP2 SUB SWAP1 REVERT JUMPDEST PUSH0 DUP2 GT PUSH2 0x1DC4 JUMPI PUSH1 0x40 MLOAD PUSH32 0x8C379A000000000000000000000000000000000000000000000000000000000 DUP2 MSTORE PUSH1 0x4 ADD PUSH2 0x1DBB SWAP1 PUSH2 0x4704 JUMP JUMPDEST PUSH1 0x40 MLOAD DUP1 SWAP2 SUB SWAP1 REVERT JUMPDEST PUSH0 DUP3 PUSH20 0xFFFFFFFFFFFFFFFFFFFFFFFFFFFFFFFFFFFFFFFF AND PUSH4 0xA9059CBB PUSH2 0x1DE9 PUSH2 0x1C2D JUMP JUMPDEST DUP5 PUSH1 0x40 MLOAD DUP4 PUSH4 0xFFFFFFFF AND PUSH1 0xE0 SHL DUP2 MSTORE PUSH1 0x4 ADD PUSH2 0x1E07 SWAP3 SWAP2 SWAP1 PUSH2 0x4722 JUMP JUMPDEST PUSH1 0x20 PUSH1 0x40 MLOAD DUP1 DUP4 SUB DUP2 PUSH0 DUP8 GAS CALL ISZERO DUP1 ISZERO PUSH2 0x1E23 JUMPI RETURNDATASIZE PUSH0 PUSH0 RETURNDATACOPY RETURNDATASIZE PUSH0 REVERT JUMPDEST POP POP POP POP PUSH1 0x40 MLOAD RETURNDATASIZE PUSH1 0x1F NOT PUSH1 0x1F DUP3 ADD AND DUP3 ADD DUP1 PUSH1 0x40 MSTORE POP DUP2 ADD SWAP1 PUSH2 0x1E47 SWAP2 SWAP1 PUSH2 0x4773 JUMP JUMPDEST SWAP1 POP DUP1 PUSH2 0x1E89 JUMPI PUSH1 0x40 MLOAD PUSH32 0x8C379A000000000000000000000000000000000000000000000000000000000 DUP2 MSTORE PUSH1 0x4 ADD PUSH2 0x1E80 SWAP1 PUSH2 0x480E JUMP JUMPDEST PUSH1 0x40 MLOAD DUP1 SWAP2 SUB SWAP1 REVERT JUMPDEST POP POP POP JUMP JUMPDEST PUSH2 0x1E96 PUSH2 0x2C8A JUMP JUMPDEST DUP2 PUSH0 DUP2 GT PUSH2 0x1ED9 JUMPI PUSH1 0x40 MLOAD PUSH32 0x8C379A000000000000000000000000000000000000000000000000000000000 DUP2 MSTORE PUSH1 0x4 ADD PUSH2 0x1ED0 SWAP1 PUSH2 0x4292 JUMP JUMPDEST PUSH1 0x40 MLOAD DUP1 SWAP2 SUB SWAP1 REVERT JUMPDEST PUSH1 0x2 SLOAD DUP2 LT PUSH2 0x1F1D JUMPI PUSH1 0x40 MLOAD PUSH32 0x8C379A000000000000000000000000000000000000000000000000000000000 DUP2 MSTORE PUSH1 0x4 ADD PUSH2 0x1F14 SWAP1 PUSH2 0x4320 JUMP JUMPDEST PUSH1 0x40 MLOAD DUP1 SWAP2 SUB SWAP1 REVERT JUMPDEST PUSH1 0x3 PUSH0 DUP5 DUP2 MSTORE PUSH1 0x20 ADD SWAP1 DUP2 MSTORE PUSH1 0x20 ADD PUSH0 KECCAK256 PUSH1 0x40 MLOAD DUP1 PUSH2 0x180 ADD PUSH1 0x40 MSTORE SWAP1 DUP2 PUSH0 DUP3 ADD SLOAD DUP2 MSTORE PUSH1 0x20 ADD PUSH1 0x1 DUP3 ADD DUP1 SLOAD PUSH2 0x1F53 SWAP1 PUSH2 0x3F55 JUMP JUMPDEST DUP1 PUSH1 0x1F ADD PUSH1 0x20 DUP1 SWAP2 DIV MUL PUSH1 0x20 ADD PUSH1 0x40 MLOAD SWAP1 DUP2 ADD PUSH1 0x40 MSTORE DUP1 SWAP3 SWAP2 SWAP1 DUP2 DUP2 MSTORE PUSH1 0x20 ADD DUP3 DUP1 SLOAD PUSH2 0x1F7F SWAP1 PUSH2 0x3F55 JUMP JUMPDEST DUP1 ISZERO PUSH2 0x1FCA JUMPI DUP1 PUSH1 0x1F LT PUSH2 0x1FA1 JUMPI PUSH2 0x100 DUP1 DUP4 SLOAD DIV MUL DUP4 MSTORE SWAP2 PUSH1 0x20 ADD SWAP2 PUSH2 0x1FCA JUMP JUMPDEST DUP3 ADD SWAP2 SWAP1 PUSH0 MSTORE PUSH1 0x20 PUSH0 KECCAK256 SWAP1 JUMPDEST DUP2 SLOAD DUP2 MSTORE SWAP1 PUSH1 0x1 ADD SWAP1 PUSH1 0x20 ADD DUP1 DUP4 GT PUSH2 0x1FAD JUMPI DUP3 SWAP1 SUB PUSH1 0x1F AND DUP3 ADD SWAP2 JUMPDEST POP POP POP POP POP DUP2 MSTORE PUSH1 0x20 ADD PUSH1 0x2 DUP3 ADD DUP1 SLOAD PUSH2 0x1FE3 SWAP1 PUSH2 0x3F55 JUMP JUMPDEST DUP1 PUSH1 0x1F ADD PUSH1 0x20 DUP1 SWAP2 DIV MUL PUSH1 0x20 ADD PUSH1 0x40 MLOAD SWAP1 DUP2 ADD PUSH1 0x40 MSTORE DUP1 SWAP3 SWAP2 SWAP1 DUP2 DUP2 MSTORE PUSH1 0x20 ADD DUP3 DUP1 SLOAD PUSH2 0x200F SWAP1 PUSH2 0x3F55 JUMP JUMPDEST DUP1 ISZERO PUSH2 0x205A JUMPI DUP1 PUSH1 0x1F LT PUSH2 0x2031 JUMPI PUSH2 0x100 DUP1 DUP4 SLOAD DIV MUL DUP4 MSTORE SWAP2 PUSH1 0x20 ADD SWAP2 PUSH2 0x205A JUMP JUMPDEST DUP3 ADD SWAP2 SWAP1 PUSH0 MSTORE PUSH1 0x20 PUSH0 KECCAK256 SWAP1 JUMPDEST DUP2 SLOAD DUP2 MSTORE SWAP1 PUSH1 0x1 ADD SWAP1 PUSH1 0x20 ADD DUP1 DUP4 GT PUSH2 0x203D JUMPI DUP3 SWAP1 SUB PUSH1 0x1F AND DUP3 ADD SWAP2 JUMPDEST POP POP POP POP POP DUP2 MSTORE PUSH1 0x20 ADD PUSH1 0x3 DUP3 ADD DUP1 SLOAD PUSH2 0x2073 SWAP1 PUSH2 0x3F55 JUMP JUMPDEST DUP1 PUSH1 0x1F ADD PUSH1 0x20 DUP1 SWAP2 DIV MUL PUSH1 0x20 ADD PUSH1 0x40 MLOAD SWAP1 DUP2 ADD PUSH1 0x40 MSTORE DUP1 SWAP3 SWAP2 SWAP1 DUP2 DUP2 MSTORE PUSH1 0x20 ADD DUP3 DUP1 SLOAD PUSH2 0x209F SWAP1 PUSH2 0x3F55 JUMP JUMPDEST DUP1 ISZERO PUSH2 0x20EA JUMPI DUP1 PUSH1 0x1F LT PUSH2 0x20C1 JUMPI PUSH2 0x100 DUP1 DUP4 SLOAD DIV MUL DUP4 MSTORE SWAP2 PUSH1 0x20 ADD SWAP2 PUSH2 0x20EA JUMP JUMPDEST DUP3 ADD SWAP2 SWAP1 PUSH0 MSTORE PUSH1 0x20 PUSH0 KECCAK256 SWAP1 JUMPDEST DUP2 SLOAD DUP2 MSTORE SWAP1 PUSH1 0x1 ADD SWAP1 PUSH1 0x20 ADD DUP1 DUP4 GT PUSH2 0x20CD JUMPI DUP3 SWAP1 SUB PUSH1 0x1F AND DUP3 ADD SWAP2 JUMPDEST POP POP POP POP POP DUP2 MSTORE PUSH1 0x20 ADD PUSH1 0x4 DUP3 ADD SLOAD DUP2 MSTORE PUSH1 0x20 ADD PUSH1 0x5 DUP3 ADD PUSH0 SWAP1 SLOAD SWAP1 PUSH2 0x100 EXP SWAP1 DIV PUSH20 0xFFFFFFFFFFFFFFFFFFFFFFFFFFFFFFFFFFFFFFFF AND PUSH20 0xFFFFFFFFFFFFFFFFFFFFFFFFFFFFFFFFFFFFFFFF AND PUSH20 0xFFFFFFFFFFFFFFFFFFFFFFFFFFFFFFFFFFFFFFFF AND DUP2 MSTORE PUSH1 0x20 ADD PUSH1 0x5 DUP3 ADD PUSH1 0x14 SWAP1 SLOAD SWAP1 PUSH2 0x100 EXP SWAP1 DIV PUSH1 0xFF AND ISZERO ISZERO ISZERO ISZERO DUP2 MSTORE PUSH1 0x20 ADD PUSH1 0x6 DUP3 ADD SLOAD DUP2 MSTORE PUSH1 0x20 ADD PUSH1 0x7 DUP3 ADD SLOAD DUP2 MSTORE PUSH1 0x20 ADD PUSH1 0x8 DUP3 ADD SLOAD DUP2 MSTORE PUSH1 0x20 ADD PUSH1 0x9 DUP3 ADD SLOAD DUP2 MSTORE PUSH1 0x20 ADD PUSH1 0xA DUP3 ADD DUP1 SLOAD PUSH2 0x21A5 SWAP1 PUSH2 0x3F55 JUMP JUMPDEST DUP1 PUSH1 0x1F ADD PUSH1 0x20 DUP1 SWAP2 DIV MUL PUSH1 0x20 ADD PUSH1 0x40 MLOAD SWAP1 DUP2 ADD PUSH1 0x40 MSTORE DUP1 SWAP3 SWAP2 SWAP1 DUP2 DUP2 MSTORE PUSH1 0x20 ADD DUP3 DUP1 SLOAD PUSH2 0x21D1 SWAP1 PUSH2 0x3F55 JUMP JUMPDEST DUP1 ISZERO PUSH2 0x221C JUMPI DUP1 PUSH1 0x1F LT PUSH2 0x21F3 JUMPI PUSH2 0x100 DUP1 DUP4 SLOAD DIV MUL DUP4 MSTORE SWAP2 PUSH1 0x20 ADD SWAP2 PUSH2 0x221C JUMP JUMPDEST DUP3 ADD SWAP2 SWAP1 PUSH0 MSTORE PUSH1 0x20 PUSH0 KECCAK256 SWAP1 JUMPDEST DUP2 SLOAD DUP2 MSTORE SWAP1 PUSH1 0x1 ADD SWAP1 PUSH1 0x20 ADD DUP1 DUP4 GT PUSH2 0x21FF JUMPI DUP3 SWAP1 SUB PUSH1 0x1F AND DUP3 ADD SWAP2 JUMPDEST POP POP POP POP POP DUP2 MSTORE POP POP SWAP2 POP POP SWAP2 SWAP1 POP JUMP JUMPDEST PUSH1 0x9 SLOAD DUP2 JUMP JUMPDEST PUSH1 0x6 PUSH1 0x20 MSTORE DUP1 PUSH0 MSTORE PUSH1 0x40 PUSH0 KECCAK256 PUSH0 SWAP2 POP SWAP1 POP SLOAD DUP2 JUMP JUMPDEST PUSH2 0x2250 PUSH2 0x2B3B JUMP JUMPDEST PUSH0 SELFBALANCE SWAP1 POP PUSH0 DUP2 GT PUSH2 0x2296 JUMPI PUSH1 0x40 MLOAD PUSH32 0x8C379A000000000000000000000000000000000000000000000000000000000 DUP2 MSTORE PUSH1 0x4 ADD PUSH2 0x228D SWAP1 PUSH2 0x489C JUMP JUMPDEST PUSH1 0x40 MLOAD DUP1 SWAP2 SUB SWAP1 REVERT JUMPDEST PUSH0 PUSH2 0x229F PUSH2 0x1C2D JUMP JUMPDEST PUSH20 0xFFFFFFFFFFFFFFFFFFFFFFFFFFFFFFFFFFFFFFFF AND DUP3 PUSH1 0x40 MLOAD PUSH2 0x22C2 SWAP1 PUSH2 0x44FC JUMP JUMPDEST PUSH0 PUSH1 0x40 MLOAD DUP1 DUP4 SUB DUP2 DUP6 DUP8 GAS CALL SWAP3 POP POP POP RETURNDATASIZE DUP1 PUSH0 DUP2 EQ PUSH2 0x22FC JUMPI PUSH1 0x40 MLOAD SWAP2 POP PUSH1 0x1F NOT PUSH1 0x3F RETURNDATASIZE ADD AND DUP3 ADD PUSH1 0x40 MSTORE RETURNDATASIZE DUP3 MSTORE RETURNDATASIZE PUSH0 PUSH1 0x20 DUP5 ADD RETURNDATACOPY PUSH2 0x2301 JUMP JUMPDEST PUSH1 0x60 SWAP2 POP JUMPDEST POP POP SWAP1 POP DUP1 PUSH2 0x2345 JUMPI PUSH1 0x40 MLOAD PUSH32 0x8C379A000000000000000000000000000000000000000000000000000000000 DUP2 MSTORE PUSH1 0x4 ADD PUSH2 0x233C SWAP1 PUSH2 0x492A JUMP JUMPDEST PUSH1 0x40 MLOAD DUP1 SWAP2 SUB SWAP1 REVERT JUMPDEST POP POP JUMP JUMPDEST PUSH1 0xD PUSH0 SWAP1 SLOAD SWAP1 PUSH2 0x100 EXP SWAP1 DIV PUSH20 0xFFFFFFFFFFFFFFFFFFFFFFFFFFFFFFFFFFFFFFFF AND DUP2 JUMP JUMPDEST PUSH2 0x2376 PUSH2 0x2B3B JUMP JUMPDEST PUSH0 PUSH20 0xFFFFFFFFFFFFFFFFFFFFFFFFFFFFFFFFFFFFFFFF AND DUP2 PUSH20 0xFFFFFFFFFFFFFFFFFFFFFFFFFFFFFFFFFFFFFFFF AND SUB PUSH2 0x23E4 JUMPI PUSH1 0x40 MLOAD PUSH32 0x8C379A000000000000000000000000000000000000000000000000000000000 DUP2 MSTORE PUSH1 0x4 ADD PUSH2 0x23DB SWAP1 PUSH2 0x49B8 JUMP JUMPDEST PUSH1 0x40 MLOAD DUP1 SWAP2 SUB SWAP1 REVERT JUMPDEST DUP1 PUSH1 0xB PUSH0 PUSH2 0x100 EXP DUP2 SLOAD DUP2 PUSH20 0xFFFFFFFFFFFFFFFFFFFFFFFFFFFFFFFFFFFFFFFF MUL NOT AND SWAP1 DUP4 PUSH20 0xFFFFFFFFFFFFFFFFFFFFFFFFFFFFFFFFFFFFFFFF AND MUL OR SWAP1 SSTORE POP POP JUMP JUMPDEST PUSH1 0x60 PUSH0 PUSH0 DUP4 GT PUSH2 0x246C JUMPI PUSH1 0x40 MLOAD PUSH32 0x8C379A000000000000000000000000000000000000000000000000000000000 DUP2 MSTORE PUSH1 0x4 ADD PUSH2 0x2463 SWAP1 PUSH2 0x4A46 JUMP JUMPDEST PUSH1 0x40 MLOAD DUP1 SWAP2 SUB SWAP1 REVERT JUMPDEST PUSH1 0x64 DUP4 GT ISZERO PUSH2 0x24B0 JUMPI PUSH1 0x40 MLOAD PUSH32 0x8C379A000000000000000000000000000000000000000000000000000000000 DUP2 MSTORE PUSH1 0x4 ADD PUSH2 0x24A7 SWAP1 PUSH2 0x4AD4 JUMP JUMPDEST PUSH1 0x40 MLOAD DUP1 SWAP2 SUB SWAP1 REVERT JUMPDEST PUSH0 PUSH0 SWAP1 POP PUSH0 PUSH0 SWAP1 POP PUSH0 PUSH1 0x1 SWAP1 POP JUMPDEST PUSH1 0x2 SLOAD DUP2 LT ISZERO PUSH2 0x250B JUMPI PUSH1 0x3 PUSH0 DUP3 DUP2 MSTORE PUSH1 0x20 ADD SWAP1 DUP2 MSTORE PUSH1 0x20 ADD PUSH0 KECCAK256 PUSH1 0x5 ADD PUSH1 0x14 SWAP1 SLOAD SWAP1 PUSH2 0x100 EXP SWAP1 DIV PUSH1 0xFF AND ISZERO PUSH2 0x24FE JUMPI DUP2 DUP1 PUSH2 0x24FA SWAP1 PUSH2 0x3EE1 JUMP JUMPDEST SWAP3 POP POP JUMPDEST DUP1 DUP1 PUSH1 0x1 ADD SWAP2 POP POP PUSH2 0x24BE JUMP JUMPDEST POP PUSH0 DUP6 PUSH8 0xFFFFFFFFFFFFFFFF DUP2 GT ISZERO PUSH2 0x2527 JUMPI PUSH2 0x2526 PUSH2 0x2F3B JUMP JUMPDEST JUMPDEST PUSH1 0x40 MLOAD SWAP1 DUP1 DUP3 MSTORE DUP1 PUSH1 0x20 MUL PUSH1 0x20 ADD DUP3 ADD PUSH1 0x40 MSTORE DUP1 ISZERO PUSH2 0x2560 JUMPI DUP2 PUSH1 0x20 ADD JUMPDEST PUSH2 0x254D PUSH2 0x2C8A JUMP JUMPDEST DUP2 MSTORE PUSH1 0x20 ADD SWAP1 PUSH1 0x1 SWAP1 SUB SWAP1 DUP2 PUSH2 0x2545 JUMPI SWAP1 POP JUMPDEST POP SWAP1 POP PUSH0 PUSH0 SWAP1 POP PUSH0 PUSH1 0x1 SWAP1 POP JUMPDEST PUSH1 0x2 SLOAD DUP2 LT DUP1 ISZERO PUSH2 0x257D JUMPI POP DUP8 DUP3 LT JUMPDEST ISZERO PUSH2 0x2907 JUMPI PUSH1 0x3 PUSH0 DUP3 DUP2 MSTORE PUSH1 0x20 ADD SWAP1 DUP2 MSTORE PUSH1 0x20 ADD PUSH0 KECCAK256 PUSH1 0x5 ADD PUSH1 0x14 SWAP1 SLOAD SWAP1 PUSH2 0x100 EXP SWAP1 DIV PUSH1 0xFF AND ISZERO PUSH2 0x28F4 JUMPI DUP9 DUP6 LT PUSH2 0x28E5 JUMPI PUSH1 0x3 PUSH0 DUP3 DUP2 MSTORE PUSH1 0x20 ADD SWAP1 DUP2 MSTORE PUSH1 0x20 ADD PUSH0 KECCAK256 PUSH1 0x40 MLOAD DUP1 PUSH2 0x180 ADD PUSH1 0x40 MSTORE SWAP1 DUP2 PUSH0 DUP3 ADD SLOAD DUP2 MSTORE PUSH1 0x20 ADD PUSH1 0x1 DUP3 ADD DUP1 SLOAD PUSH2 0x25E6 SWAP1 PUSH2 0x3F55 JUMP JUMPDEST DUP1 PUSH1 0x1F ADD PUSH1 0x20 DUP1 SWAP2 DIV MUL PUSH1 0x20 ADD PUSH1 0x40 MLOAD SWAP1 DUP2 ADD PUSH1 0x40 MSTORE DUP1 SWAP3 SWAP2 SWAP1 DUP2 DUP2 MSTORE PUSH1 0x20 ADD DUP3 DUP1 SLOAD PUSH2 0x2612 SWAP1 PUSH2 0x3F55 JUMP JUMPDEST DUP1 ISZERO PUSH2 0x265D JUMPI DUP1 PUSH1 0x1F LT PUSH2 0x2634 JUMPI PUSH2 0x100 DUP1 DUP4 SLOAD DIV MUL DUP4 MSTORE SWAP2 PUSH1 0x20 ADD SWAP2 PUSH2 0x265D JUMP JUMPDEST DUP3 ADD SWAP2 SWAP1 PUSH0 MSTORE PUSH1 0x20 PUSH0 KECCAK256 SWAP1 JUMPDEST DUP2 SLOAD DUP2 MSTORE SWAP1 PUSH1 0x1 ADD SWAP1 PUSH1 0x20 ADD DUP1 DUP4 GT PUSH2 0x2640 JUMPI DUP3 SWAP1 SUB PUSH1 0x1F AND DUP3 ADD SWAP2 JUMPDEST POP POP POP POP POP DUP2 MSTORE PUSH1 0x20 ADD PUSH1 0x2 DUP3 ADD DUP1 SLOAD PUSH2 0x2676 SWAP1 PUSH2 0x3F55 JUMP JUMPDEST DUP1 PUSH1 0x1F ADD PUSH1 0x20 DUP1 SWAP2 DIV MUL PUSH1 0x20 ADD PUSH1 0x40 MLOAD SWAP1 DUP2 ADD PUSH1 0x40 MSTORE DUP1 SWAP3 SWAP2 SWAP1 DUP2 DUP2 MSTORE PUSH1 0x20 ADD DUP3 DUP1 SLOAD PUSH2 0x26A2 SWAP1 PUSH2 0x3F55 JUMP JUMPDEST DUP1 ISZERO PUSH2 0x26ED JUMPI DUP1 PUSH1 0x1F LT PUSH2 0x26C4 JUMPI PUSH2 0x100 DUP1 DUP4 SLOAD DIV MUL DUP4 MSTORE SWAP2 PUSH1 0x20 ADD SWAP2 PUSH2 0x26ED JUMP JUMPDEST DUP3 ADD SWAP2 SWAP1 PUSH0 MSTORE PUSH1 0x20 PUSH0 KECCAK256 SWAP1 JUMPDEST DUP2 SLOAD DUP2 MSTORE SWAP1 PUSH1 0x1 ADD SWAP1 PUSH1 0x20 ADD DUP1 DUP4 GT PUSH2 0x26D0 JUMPI DUP3 SWAP1 SUB PUSH1 0x1F AND DUP3 ADD SWAP2 JUMPDEST POP POP POP POP POP DUP2 MSTORE PUSH1 0x20 ADD PUSH1 0x3 DUP3 ADD DUP1 SLOAD PUSH2 0x2706 SWAP1 PUSH2 0x3F55 JUMP JUMPDEST DUP1 PUSH1 0x1F ADD PUSH1 0x20 DUP1 SWAP2 DIV MUL PUSH1 0x20 ADD PUSH1 0x40 MLOAD SWAP1 DUP2 ADD PUSH1 0x40 MSTORE DUP1 SWAP3 SWAP2 SWAP1 DUP2 DUP2 MSTORE PUSH1 0x20 ADD DUP3 DUP1 SLOAD PUSH2 0x2732 SWAP1 PUSH2 0x3F55 JUMP JUMPDEST DUP1 ISZERO PUSH2 0x277D JUMPI DUP1 PUSH1 0x1F LT PUSH2 0x2754 JUMPI PUSH2 0x100 DUP1 DUP4 SLOAD DIV MUL DUP4 MSTORE SWAP2 PUSH1 0x20 ADD SWAP2 PUSH2 0x277D JUMP JUMPDEST DUP3 ADD SWAP2 SWAP1 PUSH0 MSTORE PUSH1 0x20 PUSH0 KECCAK256 SWAP1 JUMPDEST DUP2 SLOAD DUP2 MSTORE SWAP1 PUSH1 0x1 ADD SWAP1 PUSH1 0x20 ADD DUP1 DUP4 GT PUSH2 0x2760 JUMPI DUP3 SWAP1 SUB PUSH1 0x1F AND DUP3 ADD SWAP2 JUMPDEST POP POP POP POP POP DUP2 MSTORE PUSH1 0x20 ADD PUSH1 0x4 DUP3 ADD SLOAD DUP2 MSTORE PUSH1 0x20 ADD PUSH1 0x5 DUP3 ADD PUSH0 SWAP1 SLOAD SWAP1 PUSH2 0x100 EXP SWAP1 DIV PUSH20 0xFFFFFFFFFFFFFFFFFFFFFFFFFFFFFFFFFFFFFFFF AND PUSH20 0xFFFFFFFFFFFFFFFFFFFFFFFFFFFFFFFFFFFFFFFF AND PUSH20 0xFFFFFFFFFFFFFFFFFFFFFFFFFFFFFFFFFFFFFFFF AND DUP2 MSTORE PUSH1 0x20 ADD PUSH1 0x5 DUP3 ADD PUSH1 0x14 SWAP1 SLOAD SWAP1 PUSH2 0x100 EXP SWAP1 DIV PUSH1 0xFF AND ISZERO ISZERO ISZERO ISZERO DUP2 MSTORE PUSH1 0x20 ADD PUSH1 0x6 DUP3 ADD SLOAD DUP2 MSTORE PUSH1 0x20 ADD PUSH1 0x7 DUP3 ADD SLOAD DUP2 MSTORE PUSH1 0x20 ADD PUSH1 0x8 DUP3 ADD SLOAD DUP2 MSTORE PUSH1 0x20 ADD PUSH1 0x9 DUP3 ADD SLOAD DUP2 MSTORE PUSH1 0x20 ADD PUSH1 0xA DUP3 ADD DUP1 SLOAD PUSH2 0x2838 SWAP1 PUSH2 0x3F55 JUMP JUMPDEST DUP1 PUSH1 0x1F ADD PUSH1 0x20 DUP1 SWAP2 DIV MUL PUSH1 0x20 ADD PUSH1 0x40 MLOAD SWAP1 DUP2 ADD PUSH1 0x40 MSTORE DUP1 SWAP3 SWAP2 SWAP1 DUP2 DUP2 MSTORE PUSH1 0x20 ADD DUP3 DUP1 SLOAD PUSH2 0x2864 SWAP1 PUSH2 0x3F55 JUMP JUMPDEST DUP1 ISZERO PUSH2 0x28AF JUMPI DUP1 PUSH1 0x1F LT PUSH2 0x2886 JUMPI PUSH2 0x100 DUP1 DUP4 SLOAD DIV MUL DUP4 MSTORE SWAP2 PUSH1 0x20 ADD SWAP2 PUSH2 0x28AF JUMP JUMPDEST DUP3 ADD SWAP2 SWAP1 PUSH0 MSTORE PUSH1 0x20 PUSH0 KECCAK256 SWAP1 JUMPDEST DUP2 SLOAD DUP2 MSTORE SWAP1 PUSH1 0x1 ADD SWAP1 PUSH1 0x20 ADD DUP1 DUP4 GT PUSH2 0x2892 JUMPI DUP3 SWAP1 SUB PUSH1 0x1F AND DUP3 ADD SWAP2 JUMPDEST POP POP POP POP POP DUP2 MSTORE POP POP DUP4 DUP4 DUP2 MLOAD DUP2 LT PUSH2 0x28CB JUMPI PUSH2 0x28CA PUSH2 0x4AF2 JUMP JUMPDEST JUMPDEST PUSH1 0x20 MUL PUSH1 0x20 ADD ADD DUP2 SWAP1 MSTORE POP DUP2 DUP1 PUSH2 0x28E1 SWAP1 PUSH2 0x3EE1 JUMP JUMPDEST SWAP3 POP POP JUMPDEST DUP5 DUP1 PUSH2 0x28F0 SWAP1 PUSH2 0x3EE1 JUMP JUMPDEST SWAP6 POP POP JUMPDEST DUP1 DUP1 PUSH2 0x28FF SWAP1 PUSH2 0x3EE1 JUMP JUMPDEST SWAP2 POP POP PUSH2 0x256D JUMP JUMPDEST POP DUP2 DUP4 SWAP6 POP SWAP6 POP POP POP POP POP SWAP3 POP SWAP3 SWAP1 POP JUMP JUMPDEST PUSH2 0x2921 PUSH2 0x2B3B JUMP JUMPDEST PUSH0 PUSH20 0xFFFFFFFFFFFFFFFFFFFFFFFFFFFFFFFFFFFFFFFF AND DUP2 PUSH20 0xFFFFFFFFFFFFFFFFFFFFFFFFFFFFFFFFFFFFFFFF AND SUB PUSH2 0x2991 JUMPI PUSH0 PUSH1 0x40 MLOAD PUSH32 0x1E4FBDF700000000000000000000000000000000000000000000000000000000 DUP2 MSTORE PUSH1 0x4 ADD PUSH2 0x2988 SWAP2 SWAP1 PUSH2 0x3155 JUMP JUMPDEST PUSH1 0x40 MLOAD DUP1 SWAP2 SUB SWAP1 REVERT JUMPDEST PUSH2 0x299A DUP2 PUSH2 0x2BC2 JUMP JUMPDEST POP JUMP JUMPDEST DUP1 PUSH0 DUP2 GT PUSH2 0x29E0 JUMPI PUSH1 0x40 MLOAD PUSH32 0x8C379A000000000000000000000000000000000000000000000000000000000 DUP2 MSTORE PUSH1 0x4 ADD PUSH2 0x29D7 SWAP1 PUSH2 0x4292 JUMP JUMPDEST PUSH1 0x40 MLOAD DUP1 SWAP2 SUB SWAP1 REVERT JUMPDEST PUSH1 0x2 SLOAD DUP2 LT PUSH2 0x2A24 JUMPI PUSH1 0x40 MLOAD PUSH32 0x8C379A000000000000000000000000000000000000000000000000000000000 DUP2 MSTORE PUSH1 0x4 ADD PUSH2 0x2A1B SWAP1 PUSH2 0x4320 JUMP JUMPDEST PUSH1 0x40 MLOAD DUP1 SWAP2 SUB SWAP1 REVERT JUMPDEST DUP2 CALLER PUSH20 0xFFFFFFFFFFFFFFFFFFFFFFFFFFFFFFFFFFFFFFFF AND PUSH1 0x3 PUSH0 DUP4 DUP2 MSTORE PUSH1 0x20 ADD SWAP1 DUP2 MSTORE PUSH1 0x20 ADD PUSH0 KECCAK256 PUSH1 0x5 ADD PUSH0 SWAP1 SLOAD SWAP1 PUSH2 0x100 EXP SWAP1 DIV PUSH20 0xFFFFFFFFFFFFFFFFFFFFFFFFFFFFFFFFFFFFFFFF AND PUSH20 0xFFFFFFFFFFFFFFFFFFFFFFFFFFFFFFFFFFFFFFFF AND EQ PUSH2 0x2AC6 JUMPI PUSH1 0x40 MLOAD PUSH32 0x8C379A000000000000000000000000000000000000000000000000000000000 DUP2 MSTORE PUSH1 0x4 ADD PUSH2 0x2ABD SWAP1 PUSH2 0x4676 JUMP JUMPDEST PUSH1 0x40 MLOAD DUP1 SWAP2 SUB SWAP1 REVERT JUMPDEST PUSH0 PUSH1 0x3 PUSH0 DUP6 DUP2 MSTORE PUSH1 0x20 ADD SWAP1 DUP2 MSTORE PUSH1 0x20 ADD PUSH0 KECCAK256 PUSH1 0x5 ADD PUSH1 0x14 PUSH2 0x100 EXP DUP2 SLOAD DUP2 PUSH1 0xFF MUL NOT AND SWAP1 DUP4 ISZERO ISZERO MUL OR SWAP1 SSTORE POP CALLER PUSH20 0xFFFFFFFFFFFFFFFFFFFFFFFFFFFFFFFFFFFFFFFF AND DUP4 PUSH32 0x3CE9D5D4C93354E5800C5250D08D814FBBE096FA7C05CCB03D2A8B09B7A4888D PUSH1 0x40 MLOAD PUSH1 0x40 MLOAD DUP1 SWAP2 SUB SWAP1 LOG3 POP POP POP JUMP JUMPDEST PUSH2 0x2B43 PUSH2 0x2C83 JUMP JUMPDEST PUSH20 0xFFFFFFFFFFFFFFFFFFFFFFFFFFFFFFFFFFFFFFFF AND PUSH2 0x2B61 PUSH2 0x1C2D JUMP JUMPDEST PUSH20 0xFFFFFFFFFFFFFFFFFFFFFFFFFFFFFFFFFFFFFFFF AND EQ PUSH2 0x2BC0 JUMPI PUSH2 0x2B84 PUSH2 0x2C83 JUMP JUMPDEST PUSH1 0x40 MLOAD PUSH32 0x118CDAA700000000000000000000000000000000000000000000000000000000 DUP2 MSTORE PUSH1 0x4 ADD PUSH2 0x2BB7 SWAP2 SWAP1 PUSH2 0x3155 JUMP JUMPDEST PUSH1 0x40 MLOAD DUP1 SWAP2 SUB SWAP1 REVERT JUMPDEST JUMP JUMPDEST PUSH0 PUSH0 PUSH0 SWAP1 SLOAD SWAP1 PUSH2 0x100 EXP SWAP1 DIV PUSH20 0xFFFFFFFFFFFFFFFFFFFFFFFFFFFFFFFFFFFFFFFF AND SWAP1 POP DUP2 PUSH0 PUSH0 PUSH2 0x100 EXP DUP2 SLOAD DUP2 PUSH20 0xFFFFFFFFFFFFFFFFFFFFFFFFFFFFFFFFFFFFFFFF MUL NOT AND SWAP1 DUP4 PUSH20 0xFFFFFFFFFFFFFFFFFFFFFFFFFFFFFFFFFFFFFFFF AND MUL OR SWAP1 SSTORE POP DUP2 PUSH20 0xFFFFFFFFFFFFFFFFFFFFFFFFFFFFFFFFFFFFFFFF AND DUP2 PUSH20 0xFFFFFFFFFFFFFFFFFFFFFFFFFFFFFFFFFFFFFFFF AND PUSH32 0x8BE0079C531659141344CD1FD0A4F28419497F9722A3DAAFE3B4186F6B6457E0 PUSH1 0x40 MLOAD PUSH1 0x40 MLOAD DUP1 SWAP2 SUB SWAP1 LOG3 POP POP JUMP JUMPDEST PUSH0 CALLER SWAP1 POP SWAP1 JUMP JUMPDEST PUSH1 0x40 MLOAD DUP1 PUSH2 0x180 ADD PUSH1 0x40 MSTORE DUP1 PUSH0 DUP2 MSTORE PUSH1 0x20 ADD PUSH1 0x60 DUP2 MSTORE PUSH1 0x20 ADD PUSH1 0x60 DUP2 MSTORE PUSH1 0x20 ADD PUSH1 0x60 DUP2 MSTORE PUSH1 0x20 ADD PUSH0 DUP2 MSTORE PUSH1 0x20 ADD PUSH0 PUSH20 0xFFFFFFFFFFFFFFFFFFFFFFFFFFFFFFFFFFFFFFFF AND DUP2 MSTORE PUSH1 0x20 ADD PUSH0 ISZERO ISZERO DUP2 MSTORE PUSH1 0x20 ADD PUSH0 DUP2 MSTORE PUSH1 0x20 ADD PUSH0 DUP2 MSTORE PUSH1 0x20 ADD PUSH0 DUP2 MSTORE PUSH1 0x20 ADD PUSH0 DUP2 MSTORE PUSH1 0x20 ADD PUSH1 0x60 DUP2 MSTORE POP SWAP1 JUMP JUMPDEST PUSH0 PUSH1 0x40 MLOAD SWAP1 POP SWAP1 JUMP JUMPDEST PUSH0 PUSH0 REVERT JUMPDEST PUSH0 PUSH0 REVERT JUMPDEST PUSH0 PUSH20 0xFFFFFFFFFFFFFFFFFFFFFFFFFFFFFFFFFFFFFFFF DUP3 AND SWAP1 POP SWAP2 SWAP1 POP JUMP JUMPDEST PUSH0 PUSH2 0x2D35 DUP3 PUSH2 0x2D0C JUMP JUMPDEST SWAP1 POP SWAP2 SWAP1 POP JUMP JUMPDEST PUSH2 0x2D45 DUP2 PUSH2 0x2D2B JUMP JUMPDEST DUP2 EQ PUSH2 0x2D4F JUMPI PUSH0 PUSH0 REVERT JUMPDEST POP JUMP JUMPDEST PUSH0 DUP2 CALLDATALOAD SWAP1 POP PUSH2 0x2D60 DUP2 PUSH2 0x2D3C JUMP JUMPDEST SWAP3 SWAP2 POP POP JUMP JUMPDEST PUSH0 PUSH1 0x20 DUP3 DUP5 SUB SLT ISZERO PUSH2 0x2D7B JUMPI PUSH2 0x2D7A PUSH2 0x2D04 JUMP JUMPDEST JUMPDEST PUSH0 PUSH2 0x2D88 DUP5 DUP3 DUP6 ADD PUSH2 0x2D52 JUMP JUMPDEST SWAP2 POP POP SWAP3 SWAP2 POP POP JUMP JUMPDEST PUSH0 DUP2 MLOAD SWAP1 POP SWAP2 SWAP1 POP JUMP JUMPDEST PUSH0 DUP3 DUP3 MSTORE PUSH1 0x20 DUP3 ADD SWAP1 POP SWAP3 SWAP2 POP POP JUMP JUMPDEST PUSH0 DUP2 SWAP1 POP PUSH1 0x20 DUP3 ADD SWAP1 POP SWAP2 SWAP1 POP JUMP JUMPDEST PUSH0 DUP2 SWAP1 POP SWAP2 SWAP1 POP JUMP JUMPDEST PUSH2 0x2DCC DUP2 PUSH2 0x2DBA JUMP JUMPDEST DUP3 MSTORE POP POP JUMP JUMPDEST PUSH0 PUSH2 0x2DDD DUP4 DUP4 PUSH2 0x2DC3 JUMP JUMPDEST PUSH1 0x20 DUP4 ADD SWAP1 POP SWAP3 SWAP2 POP POP JUMP JUMPDEST PUSH0 PUSH1 0x20 DUP3 ADD SWAP1 POP SWAP2 SWAP1 POP JUMP JUMPDEST PUSH0 PUSH2 0x2DFF DUP3 PUSH2 0x2D91 JUMP JUMPDEST PUSH2 0x2E09 DUP2 DUP6 PUSH2 0x2D9B JUMP JUMPDEST SWAP4 POP PUSH2 0x2E14 DUP4 PUSH2 0x2DAB JUMP JUMPDEST DUP1 PUSH0 JUMPDEST DUP4 DUP2 LT ISZERO PUSH2 0x2E44 JUMPI DUP2 MLOAD PUSH2 0x2E2B DUP9 DUP3 PUSH2 0x2DD2 JUMP JUMPDEST SWAP8 POP PUSH2 0x2E36 DUP4 PUSH2 0x2DE9 JUMP JUMPDEST SWAP3 POP POP PUSH1 0x1 DUP2 ADD SWAP1 POP PUSH2 0x2E17 JUMP JUMPDEST POP DUP6 SWAP4 POP POP POP POP SWAP3 SWAP2 POP POP JUMP JUMPDEST PUSH0 PUSH1 0x20 DUP3 ADD SWAP1 POP DUP2 DUP2 SUB PUSH0 DUP4 ADD MSTORE PUSH2 0x2E69 DUP2 DUP5 PUSH2 0x2DF5 JUMP JUMPDEST SWAP1 POP SWAP3 SWAP2 POP POP JUMP JUMPDEST PUSH2 0x2E7A DUP2 PUSH2 0x2DBA JUMP JUMPDEST DUP2 EQ PUSH2 0x2E84 JUMPI PUSH0 PUSH0 REVERT JUMPDEST POP JUMP JUMPDEST PUSH0 DUP2 CALLDATALOAD SWAP1 POP PUSH2 0x2E95 DUP2 PUSH2 0x2E71 JUMP JUMPDEST SWAP3 SWAP2 POP POP JUMP JUMPDEST PUSH0 PUSH1 0x20 DUP3 DUP5 SUB SLT ISZERO PUSH2 0x2EB0 JUMPI PUSH2 0x2EAF PUSH2 0x2D04 JUMP JUMPDEST JUMPDEST PUSH0 PUSH2 0x2EBD DUP5 DUP3 DUP6 ADD PUSH2 0x2E87 JUMP JUMPDEST SWAP2 POP POP SWAP3 SWAP2 POP POP JUMP JUMPDEST PUSH2 0x2ECF DUP2 PUSH2 0x2DBA JUMP JUMPDEST DUP3 MSTORE POP POP JUMP JUMPDEST PUSH0 PUSH1 0x60 DUP3 ADD SWAP1 POP PUSH2 0x2EE8 PUSH0 DUP4 ADD DUP7 PUSH2 0x2EC6 JUMP JUMPDEST PUSH2 0x2EF5 PUSH1 0x20 DUP4 ADD DUP6 PUSH2 0x2EC6 JUMP JUMPDEST PUSH2 0x2F02 PUSH1 0x40 DUP4 ADD DUP5 PUSH2 0x2EC6 JUMP JUMPDEST SWAP5 SWAP4 POP POP POP POP JUMP JUMPDEST PUSH0 PUSH1 0x20 DUP3 ADD SWAP1 POP PUSH2 0x2F1D PUSH0 DUP4 ADD DUP5 PUSH2 0x2EC6 JUMP JUMPDEST SWAP3 SWAP2 POP POP JUMP JUMPDEST PUSH0 PUSH0 REVERT JUMPDEST PUSH0 PUSH0 REVERT JUMPDEST PUSH0 PUSH1 0x1F NOT PUSH1 0x1F DUP4 ADD AND SWAP1 POP SWAP2 SWAP1 POP JUMP JUMPDEST PUSH32 0x4E487B7100000000000000000000000000000000000000000000000000000000 PUSH0 MSTORE PUSH1 0x41 PUSH1 0x4 MSTORE PUSH1 0x24 PUSH0 REVERT JUMPDEST PUSH2 0x2F71 DUP3 PUSH2 0x2F2B JUMP JUMPDEST DUP2 ADD DUP2 DUP2 LT PUSH8 0xFFFFFFFFFFFFFFFF DUP3 GT OR ISZERO PUSH2 0x2F90 JUMPI PUSH2 0x2F8F PUSH2 0x2F3B JUMP JUMPDEST JUMPDEST DUP1 PUSH1 0x40 MSTORE POP POP POP JUMP JUMPDEST PUSH0 PUSH2 0x2FA2 PUSH2 0x2CFB JUMP JUMPDEST SWAP1 POP PUSH2 0x2FAE DUP3 DUP3 PUSH2 0x2F68 JUMP JUMPDEST SWAP2 SWAP1 POP JUMP JUMPDEST PUSH0 PUSH8 0xFFFFFFFFFFFFFFFF DUP3 GT ISZERO PUSH2 0x2FCD JUMPI PUSH2 0x2FCC PUSH2 0x2F3B JUMP JUMPDEST JUMPDEST PUSH2 0x2FD6 DUP3 PUSH2 0x2F2B JUMP JUMPDEST SWAP1 POP PUSH1 0x20 DUP2 ADD SWAP1 POP SWAP2 SWAP1 POP JUMP JUMPDEST DUP3 DUP2 DUP4 CALLDATACOPY PUSH0 DUP4 DUP4 ADD MSTORE POP POP POP JUMP JUMPDEST PUSH0 PUSH2 0x3003 PUSH2 0x2FFE DUP5 PUSH2 0x2FB3 JUMP JUMPDEST PUSH2 0x2F99 JUMP JUMPDEST SWAP1 POP DUP3 DUP2 MSTORE PUSH1 0x20 DUP2 ADD DUP5 DUP5 DUP5 ADD GT ISZERO PUSH2 0x301F JUMPI PUSH2 0x301E PUSH2 0x2F27 JUMP JUMPDEST JUMPDEST PUSH2 0x302A DUP5 DUP3 DUP6 PUSH2 0x2FE3 JUMP JUMPDEST POP SWAP4 SWAP3 POP POP POP JUMP JUMPDEST PUSH0 DUP3 PUSH1 0x1F DUP4 ADD SLT PUSH2 0x3046 JUMPI PUSH2 0x3045 PUSH2 0x2F23 JUMP JUMPDEST JUMPDEST DUP2 CALLDATALOAD PUSH2 0x3056 DUP5 DUP3 PUSH1 0x20 DUP7 ADD PUSH2 0x2FF1 JUMP JUMPDEST SWAP2 POP POP SWAP3 SWAP2 POP POP JUMP JUMPDEST PUSH0 PUSH0 PUSH0 PUSH0 PUSH0 PUSH1 0xA0 DUP7 DUP9 SUB SLT ISZERO PUSH2 0x3078 JUMPI PUSH2 0x3077 PUSH2 0x2D04 JUMP JUMPDEST JUMPDEST PUSH0 DUP7 ADD CALLDATALOAD PUSH8 0xFFFFFFFFFFFFFFFF DUP2 GT ISZERO PUSH2 0x3095 JUMPI PUSH2 0x3094 PUSH2 0x2D08 JUMP JUMPDEST JUMPDEST PUSH2 0x30A1 DUP9 DUP3 DUP10 ADD PUSH2 0x3032 JUMP JUMPDEST SWAP6 POP POP PUSH1 0x20 DUP7 ADD CALLDATALOAD PUSH8 0xFFFFFFFFFFFFFFFF DUP2 GT ISZERO PUSH2 0x30C2 JUMPI PUSH2 0x30C1 PUSH2 0x2D08 JUMP JUMPDEST JUMPDEST PUSH2 0x30CE DUP9 DUP3 DUP10 ADD PUSH2 0x3032 JUMP JUMPDEST SWAP5 POP POP PUSH1 0x40 DUP7 ADD CALLDATALOAD PUSH8 0xFFFFFFFFFFFFFFFF DUP2 GT ISZERO PUSH2 0x30EF JUMPI PUSH2 0x30EE PUSH2 0x2D08 JUMP JUMPDEST JUMPDEST PUSH2 0x30FB DUP9 DUP3 DUP10 ADD PUSH2 0x3032 JUMP JUMPDEST SWAP4 POP POP PUSH1 0x60 PUSH2 0x310C DUP9 DUP3 DUP10 ADD PUSH2 0x2E87 JUMP JUMPDEST SWAP3 POP POP PUSH1 0x80 DUP7 ADD CALLDATALOAD PUSH8 0xFFFFFFFFFFFFFFFF DUP2 GT ISZERO PUSH2 0x312D JUMPI PUSH2 0x312C PUSH2 0x2D08 JUMP JUMPDEST JUMPDEST PUSH2 0x3139 DUP9 DUP3 DUP10 ADD PUSH2 0x3032 JUMP JUMPDEST SWAP2 POP POP SWAP3 SWAP6 POP SWAP3 SWAP6 SWAP1 SWAP4 POP JUMP JUMPDEST PUSH2 0x314F DUP2 PUSH2 0x2D2B JUMP JUMPDEST DUP3 MSTORE POP POP JUMP JUMPDEST PUSH0 PUSH1 0x20 DUP3 ADD SWAP1 POP PUSH2 0x3168 PUSH0 DUP4 ADD DUP5 PUSH2 0x3146 JUMP JUMPDEST SWAP3 SWAP2 POP POP JUMP JUMPDEST PUSH0 DUP2 ISZERO ISZERO SWAP1 POP SWAP2 SWAP1 POP JUMP JUMPDEST PUSH2 0x3182 DUP2 PUSH2 0x316E JUMP JUMPDEST DUP3 MSTORE POP POP JUMP JUMPDEST PUSH0 PUSH1 0x20 DUP3 ADD SWAP1 POP PUSH2 0x319B PUSH0 DUP4 ADD DUP5 PUSH2 0x3179 JUMP JUMPDEST SWAP3 SWAP2 POP POP JUMP JUMPDEST PUSH0 DUP2 MLOAD SWAP1 POP SWAP2 SWAP1 POP JUMP JUMPDEST PUSH0 DUP3 DUP3 MSTORE PUSH1 0x20 DUP3 ADD SWAP1 POP SWAP3 SWAP2 POP POP JUMP JUMPDEST DUP3 DUP2 DUP4 MCOPY PUSH0 DUP4 DUP4 ADD MSTORE POP POP POP JUMP JUMPDEST PUSH0 PUSH2 0x31D3 DUP3 PUSH2 0x31A1 JUMP JUMPDEST PUSH2 0x31DD DUP2 DUP6 PUSH2 0x31AB JUMP JUMPDEST SWAP4 POP PUSH2 0x31ED DUP2 DUP6 PUSH1 0x20 DUP7 ADD PUSH2 0x31BB JUMP JUMPDEST PUSH2 0x31F6 DUP2 PUSH2 0x2F2B JUMP JUMPDEST DUP5 ADD SWAP2 POP POP SWAP3 SWAP2 POP POP JUMP JUMPDEST PUSH0 PUSH2 0x180 DUP3 ADD SWAP1 POP PUSH2 0x3215 PUSH0 DUP4 ADD DUP16 PUSH2 0x2EC6 JUMP JUMPDEST DUP2 DUP2 SUB PUSH1 0x20 DUP4 ADD MSTORE PUSH2 0x3227 DUP2 DUP15 PUSH2 0x31C9 JUMP JUMPDEST SWAP1 POP DUP2 DUP2 SUB PUSH1 0x40 DUP4 ADD MSTORE PUSH2 0x323B DUP2 DUP14 PUSH2 0x31C9 JUMP JUMPDEST SWAP1 POP DUP2 DUP2 SUB PUSH1 0x60 DUP4 ADD MSTORE PUSH2 0x324F DUP2 DUP13 PUSH2 0x31C9 JUMP JUMPDEST SWAP1 POP PUSH2 0x325E PUSH1 0x80 DUP4 ADD DUP12 PUSH2 0x2EC6 JUMP JUMPDEST PUSH2 0x326B PUSH1 0xA0 DUP4 ADD DUP11 PUSH2 0x3146 JUMP JUMPDEST PUSH2 0x3278 PUSH1 0xC0 DUP4 ADD DUP10 PUSH2 0x3179 JUMP JUMPDEST PUSH2 0x3285 PUSH1 0xE0 DUP4 ADD DUP9 PUSH2 0x2EC6 JUMP JUMPDEST PUSH2 0x3293 PUSH2 0x100 DUP4 ADD DUP8 PUSH2 0x2EC6 JUMP JUMPDEST PUSH2 0x32A1 PUSH2 0x120 DUP4 ADD DUP7 PUSH2 0x2EC6 JUMP JUMPDEST PUSH2 0x32AF PUSH2 0x140 DUP4 ADD DUP6 PUSH2 0x2EC6 JUMP JUMPDEST DUP2 DUP2 SUB PUSH2 0x160 DUP4 ADD MSTORE PUSH2 0x32C2 DUP2 DUP5 PUSH2 0x31C9 JUMP JUMPDEST SWAP1 POP SWAP14 SWAP13 POP POP POP POP POP POP POP POP POP POP POP POP POP JUMP JUMPDEST PUSH0 PUSH0 PUSH0 PUSH0 PUSH0 PUSH0 PUSH1 0xC0 DUP8 DUP10 SUB SLT ISZERO PUSH2 0x32EF JUMPI PUSH2 0x32EE PUSH2 0x2D04 JUMP JUMPDEST JUMPDEST PUSH0 PUSH2 0x32FC DUP10 DUP3 DUP11 ADD PUSH2 0x2E87 JUMP JUMPDEST SWAP7 POP POP PUSH1 0x20 DUP8 ADD CALLDATALOAD PUSH8 0xFFFFFFFFFFFFFFFF DUP2 GT ISZERO PUSH2 0x331D JUMPI PUSH2 0x331C PUSH2 0x2D08 JUMP JUMPDEST JUMPDEST PUSH2 0x3329 DUP10 DUP3 DUP11 ADD PUSH2 0x3032 JUMP JUMPDEST SWAP6 POP POP PUSH1 0x40 DUP8 ADD CALLDATALOAD PUSH8 0xFFFFFFFFFFFFFFFF DUP2 GT ISZERO PUSH2 0x334A JUMPI PUSH2 0x3349 PUSH2 0x2D08 JUMP JUMPDEST JUMPDEST PUSH2 0x3356 DUP10 DUP3 DUP11 ADD PUSH2 0x3032 JUMP JUMPDEST SWAP5 POP POP PUSH1 0x60 DUP8 ADD CALLDATALOAD PUSH8 0xFFFFFFFFFFFFFFFF DUP2 GT ISZERO PUSH2 0x3377 JUMPI PUSH2 0x3376 PUSH2 0x2D08 JUMP JUMPDEST JUMPDEST PUSH2 0x3383 DUP10 DUP3 DUP11 ADD PUSH2 0x3032 JUMP JUMPDEST SWAP4 POP POP PUSH1 0x80 PUSH2 0x3394 DUP10 DUP3 DUP11 ADD PUSH2 0x2E87 JUMP JUMPDEST SWAP3 POP POP PUSH1 0xA0 DUP8 ADD CALLDATALOAD PUSH8 0xFFFFFFFFFFFFFFFF DUP2 GT ISZERO PUSH2 0x33B5 JUMPI PUSH2 0x33B4 PUSH2 0x2D08 JUMP JUMPDEST JUMPDEST PUSH2 0x33C1 DUP10 DUP3 DUP11 ADD PUSH2 0x3032 JUMP JUMPDEST SWAP2 POP POP SWAP3 SWAP6 POP SWAP3 SWAP6 POP SWAP3 SWAP6 JUMP JUMPDEST PUSH0 PUSH1 0x40 DUP3 ADD SWAP1 POP PUSH2 0x33E1 PUSH0 DUP4 ADD DUP6 PUSH2 0x2EC6 JUMP JUMPDEST PUSH2 0x33EE PUSH1 0x20 DUP4 ADD DUP5 PUSH2 0x2EC6 JUMP JUMPDEST SWAP4 SWAP3 POP POP POP JUMP JUMPDEST PUSH0 PUSH0 PUSH1 0x40 DUP4 DUP6 SUB SLT ISZERO PUSH2 0x340B JUMPI PUSH2 0x340A PUSH2 0x2D04 JUMP JUMPDEST JUMPDEST PUSH0 PUSH2 0x3418 DUP6 DUP3 DUP7 ADD PUSH2 0x2D52 JUMP JUMPDEST SWAP3 POP POP PUSH1 0x20 PUSH2 0x3429 DUP6 DUP3 DUP7 ADD PUSH2 0x2E87 JUMP JUMPDEST SWAP2 POP POP SWAP3 POP SWAP3 SWAP1 POP JUMP JUMPDEST PUSH0 DUP3 DUP3 MSTORE PUSH1 0x20 DUP3 ADD SWAP1 POP SWAP3 SWAP2 POP POP JUMP JUMPDEST PUSH0 PUSH2 0x344D DUP3 PUSH2 0x31A1 JUMP JUMPDEST PUSH2 0x3457 DUP2 DUP6 PUSH2 0x3433 JUMP JUMPDEST SWAP4 POP PUSH2 0x3467 DUP2 DUP6 PUSH1 0x20 DUP7 ADD PUSH2 0x31BB JUMP JUMPDEST PUSH2 0x3470 DUP2 PUSH2 0x2F2B JUMP JUMPDEST DUP5 ADD SWAP2 POP POP SWAP3 SWAP2 POP POP JUMP JUMPDEST PUSH2 0x3484 DUP2 PUSH2 0x2D2B JUMP JUMPDEST DUP3 MSTORE POP POP JUMP JUMPDEST PUSH2 0x3493 DUP2 PUSH2 0x316E JUMP JUMPDEST DUP3 MSTORE POP POP JUMP JUMPDEST PUSH0 PUSH2 0x180 DUP4 ADD PUSH0 DUP4 ADD MLOAD PUSH2 0x34AF PUSH0 DUP7 ADD DUP3 PUSH2 0x2DC3 JUMP JUMPDEST POP PUSH1 0x20 DUP4 ADD MLOAD DUP5 DUP3 SUB PUSH1 0x20 DUP7 ADD MSTORE PUSH2 0x34C7 DUP3 DUP3 PUSH2 0x3443 JUMP JUMPDEST SWAP2 POP POP PUSH1 0x40 DUP4 ADD MLOAD DUP5 DUP3 SUB PUSH1 0x40 DUP7 ADD MSTORE PUSH2 0x34E1 DUP3 DUP3 PUSH2 0x3443 JUMP JUMPDEST SWAP2 POP POP PUSH1 0x60 DUP4 ADD MLOAD DUP5 DUP3 SUB PUSH1 0x60 DUP7 ADD MSTORE PUSH2 0x34FB DUP3 DUP3 PUSH2 0x3443 JUMP JUMPDEST SWAP2 POP POP PUSH1 0x80 DUP4 ADD MLOAD PUSH2 0x3510 PUSH1 0x80 DUP7 ADD DUP3 PUSH2 0x2DC3 JUMP JUMPDEST POP PUSH1 0xA0 DUP4 ADD MLOAD PUSH2 0x3523 PUSH1 0xA0 DUP7 ADD DUP3 PUSH2 0x347B JUMP JUMPDEST POP PUSH1 0xC0 DUP4 ADD MLOAD PUSH2 0x3536 PUSH1 0xC0 DUP7 ADD DUP3 PUSH2 0x348A JUMP JUMPDEST POP PUSH1 0xE0 DUP4 ADD MLOAD PUSH2 0x3549 PUSH1 0xE0 DUP7 ADD DUP3 PUSH2 0x2DC3 JUMP JUMPDEST POP PUSH2 0x100 DUP4 ADD MLOAD PUSH2 0x355E PUSH2 0x100 DUP7 ADD DUP3 PUSH2 0x2DC3 JUMP JUMPDEST POP PUSH2 0x120 DUP4 ADD MLOAD PUSH2 0x3573 PUSH2 0x120 DUP7 ADD DUP3 PUSH2 0x2DC3 JUMP JUMPDEST POP PUSH2 0x140 DUP4 ADD MLOAD PUSH2 0x3588 PUSH2 0x140 DUP7 ADD DUP3 PUSH2 0x2DC3 JUMP JUMPDEST POP PUSH2 0x160 DUP4 ADD MLOAD DUP5 DUP3 SUB PUSH2 0x160 DUP7 ADD MSTORE PUSH2 0x35A2 DUP3 DUP3 PUSH2 0x3443 JUMP JUMPDEST SWAP2 POP POP DUP1 SWAP2 POP POP SWAP3 SWAP2 POP POP JUMP JUMPDEST PUSH0 PUSH1 0x20 DUP3 ADD SWAP1 POP DUP2 DUP2 SUB PUSH0 DUP4 ADD MSTORE PUSH2 0x35C7 DUP2 DUP5 PUSH2 0x3499 JUMP JUMPDEST SWAP1 POP SWAP3 SWAP2 POP POP JUMP JUMPDEST PUSH0 PUSH0 PUSH1 0x40 DUP4 DUP6 SUB SLT ISZERO PUSH2 0x35E5 JUMPI PUSH2 0x35E4 PUSH2 0x2D04 JUMP JUMPDEST JUMPDEST PUSH0 PUSH2 0x35F2 DUP6 DUP3 DUP7 ADD PUSH2 0x2E87 JUMP JUMPDEST SWAP3 POP POP PUSH1 0x20 PUSH2 0x3603 DUP6 DUP3 DUP7 ADD PUSH2 0x2E87 JUMP JUMPDEST SWAP2 POP POP SWAP3 POP SWAP3 SWAP1 POP JUMP JUMPDEST PUSH0 DUP2 MLOAD SWAP1 POP SWAP2 SWAP1 POP JUMP JUMPDEST PUSH0 DUP3 DUP3 MSTORE PUSH1 0x20 DUP3 ADD SWAP1 POP SWAP3 SWAP2 POP POP JUMP JUMPDEST PUSH0 DUP2 SWAP1 POP PUSH1 0x20 DUP3 ADD SWAP1 POP SWAP2 SWAP1 POP JUMP JUMPDEST PUSH0 PUSH2 0x180 DUP4 ADD PUSH0 DUP4 ADD MLOAD PUSH2 0x364C PUSH0 DUP7 ADD DUP3 PUSH2 0x2DC3 JUMP JUMPDEST POP PUSH1 0x20 DUP4 ADD MLOAD DUP5 DUP3 SUB PUSH1 0x20 DUP7 ADD MSTORE PUSH2 0x3664 DUP3 DUP3 PUSH2 0x3443 JUMP JUMPDEST SWAP2 POP POP PUSH1 0x40 DUP4 ADD MLOAD DUP5 DUP3 SUB PUSH1 0x40 DUP7 ADD MSTORE PUSH2 0x367E DUP3 DUP3 PUSH2 0x3443 JUMP JUMPDEST SWAP2 POP POP PUSH1 0x60 DUP4 ADD MLOAD DUP5 DUP3 SUB PUSH1 0x60 DUP7 ADD MSTORE PUSH2 0x3698 DUP3 DUP3 PUSH2 0x3443 JUMP JUMPDEST SWAP2 POP POP PUSH1 0x80 DUP4 ADD MLOAD PUSH2 0x36AD PUSH1 0x80 DUP7 ADD DUP3 PUSH2 0x2DC3 JUMP JUMPDEST POP PUSH1 0xA0 DUP4 ADD MLOAD PUSH2 0x36C0 PUSH1 0xA0 DUP7 ADD DUP3 PUSH2 0x347B JUMP JUMPDEST POP PUSH1 0xC0 DUP4 ADD MLOAD PUSH2 0x36D3 PUSH1 0xC0 DUP7 ADD DUP3 PUSH2 0x348A JUMP JUMPDEST POP PUSH1 0xE0 DUP4 ADD MLOAD PUSH2 0x36E6 PUSH1 0xE0 DUP7 ADD DUP3 PUSH2 0x2DC3 JUMP JUMPDEST POP PUSH2 0x100 DUP4 ADD MLOAD PUSH2 0x36FB PUSH2 0x100 DUP7 ADD DUP3 PUSH2 0x2DC3 JUMP JUMPDEST POP PUSH2 0x120 DUP4 ADD MLOAD PUSH2 0x3710 PUSH2 0x120 DUP7 ADD DUP3 PUSH2 0x2DC3 JUMP JUMPDEST POP PUSH2 0x140 DUP4 ADD MLOAD PUSH2 0x3725 PUSH2 0x140 DUP7 ADD DUP3 PUSH2 0x2DC3 JUMP JUMPDEST POP PUSH2 0x160 DUP4 ADD MLOAD DUP5 DUP3 SUB PUSH2 0x160 DUP7 ADD MSTORE PUSH2 0x373F DUP3 DUP3 PUSH2 0x3443 JUMP JUMPDEST SWAP2 POP POP DUP1 SWAP2 POP POP SWAP3 SWAP2 POP POP JUMP JUMPDEST PUSH0 PUSH2 0x3757 DUP4 DUP4 PUSH2 0x3636 JUMP JUMPDEST SWAP1 POP SWAP3 SWAP2 POP POP JUMP JUMPDEST PUSH0 PUSH1 0x20 DUP3 ADD SWAP1 POP SWAP2 SWAP1 POP JUMP JUMPDEST PUSH0 PUSH2 0x3775 DUP3 PUSH2 0x360D JUMP JUMPDEST PUSH2 0x377F DUP2 DUP6 PUSH2 0x3617 JUMP JUMPDEST SWAP4 POP DUP4 PUSH1 0x20 DUP3 MUL DUP6 ADD PUSH2 0x3791 DUP6 PUSH2 0x3627 JUMP JUMPDEST DUP1 PUSH0 JUMPDEST DUP6 DUP2 LT ISZERO PUSH2 0x37CC JUMPI DUP5 DUP5 SUB DUP10 MSTORE DUP2 MLOAD PUSH2 0x37AD DUP6 DUP3 PUSH2 0x374C JUMP JUMPDEST SWAP5 POP PUSH2 0x37B8 DUP4 PUSH2 0x375F JUMP JUMPDEST SWAP3 POP PUSH1 0x20 DUP11 ADD SWAP10 POP POP PUSH1 0x1 DUP2 ADD SWAP1 POP PUSH2 0x3794 JUMP JUMPDEST POP DUP3 SWAP8 POP DUP8 SWAP6 POP POP POP POP POP POP SWAP3 SWAP2 POP POP JUMP JUMPDEST PUSH0 PUSH1 0x40 DUP3 ADD SWAP1 POP DUP2 DUP2 SUB PUSH0 DUP4 ADD MSTORE PUSH2 0x37F6 DUP2 DUP6 PUSH2 0x376B JUMP JUMPDEST SWAP1 POP PUSH2 0x3805 PUSH1 0x20 DUP4 ADD DUP5 PUSH2 0x2EC6 JUMP JUMPDEST SWAP4 SWAP3 POP POP POP JUMP JUMPDEST PUSH32 0x53616661726956657273653A20506C6174666F726D206665652063616E6E6F74 PUSH0 DUP3 ADD MSTORE PUSH32 0x206578636565642031302520283130303020626173697320706F696E74732900 PUSH1 0x20 DUP3 ADD MSTORE POP JUMP JUMPDEST PUSH0 PUSH2 0x3866 PUSH1 0x3F DUP4 PUSH2 0x31AB JUMP JUMPDEST SWAP2 POP PUSH2 0x3871 DUP3 PUSH2 0x380C JUMP JUMPDEST PUSH1 0x40 DUP3 ADD SWAP1 POP SWAP2 SWAP1 POP JUMP JUMPDEST PUSH0 PUSH1 0x20 DUP3 ADD SWAP1 POP DUP2 DUP2 SUB PUSH0 DUP4 ADD MSTORE PUSH2 0x3893 DUP2 PUSH2 0x385A JUMP JUMPDEST SWAP1 POP SWAP2 SWAP1 POP JUMP JUMPDEST PUSH32 0x53616661726956657273653A20506C6174666F726D206665652063616E6E6F74 PUSH0 DUP3 ADD MSTORE PUSH32 0x206265206E656761746976650000000000000000000000000000000000000000 PUSH1 0x20 DUP3 ADD MSTORE POP JUMP JUMPDEST PUSH0 PUSH2 0x38F4 PUSH1 0x2C DUP4 PUSH2 0x31AB JUMP JUMPDEST SWAP2 POP PUSH2 0x38FF DUP3 PUSH2 0x389A JUMP JUMPDEST PUSH1 0x40 DUP3 ADD SWAP1 POP SWAP2 SWAP1 POP JUMP JUMPDEST PUSH0 PUSH1 0x20 DUP3 ADD SWAP1 POP DUP2 DUP2 SUB PUSH0 DUP4 ADD MSTORE PUSH2 0x3921 DUP2 PUSH2 0x38E8 JUMP JUMPDEST SWAP1 POP SWAP2 SWAP1 POP JUMP JUMPDEST PUSH32 0x53616661726956657273653A2050726F64756374206E616D652063616E6E6F74 PUSH0 DUP3 ADD MSTORE PUSH32 0x20626520656D7074790000000000000000000000000000000000000000000000 PUSH1 0x20 DUP3 ADD MSTORE POP JUMP JUMPDEST PUSH0 PUSH2 0x3982 PUSH1 0x29 DUP4 PUSH2 0x31AB JUMP JUMPDEST SWAP2 POP PUSH2 0x398D DUP3 PUSH2 0x3928 JUMP JUMPDEST PUSH1 0x40 DUP3 ADD SWAP1 POP SWAP2 SWAP1 POP JUMP JUMPDEST PUSH0 PUSH1 0x20 DUP3 ADD SWAP1 POP DUP2 DUP2 SUB PUSH0 DUP4 ADD MSTORE PUSH2 0x39AF DUP2 PUSH2 0x3976 JUMP JUMPDEST SWAP1 POP SWAP2 SWAP1 POP JUMP JUMPDEST PUSH32 0x53616661726956657273653A2050726F64756374206E616D6520746F6F206C6F PUSH0 DUP3 ADD MSTORE PUSH32 0x6E6720286D617820313030206368617273290000000000000000000000000000 PUSH1 0x20 DUP3 ADD MSTORE POP JUMP JUMPDEST PUSH0 PUSH2 0x3A10 PUSH1 0x32 DUP4 PUSH2 0x31AB JUMP JUMPDEST SWAP2 POP PUSH2 0x3A1B DUP3 PUSH2 0x39B6 JUMP JUMPDEST PUSH1 0x40 DUP3 ADD SWAP1 POP SWAP2 SWAP1 POP JUMP JUMPDEST PUSH0 PUSH1 0x20 DUP3 ADD SWAP1 POP DUP2 DUP2 SUB PUSH0 DUP4 ADD MSTORE PUSH2 0x3A3D DUP2 PUSH2 0x3A04 JUMP JUMPDEST SWAP1 POP SWAP2 SWAP1 POP JUMP JUMPDEST PUSH32 0x53616661726956657273653A2050726F64756374206465736372697074696F6E PUSH0 DUP3 ADD MSTORE PUSH32 0x2063616E6E6F7420626520656D70747900000000000000000000000000000000 PUSH1 0x20 DUP3 ADD MSTORE POP JUMP JUMPDEST PUSH0 PUSH2 0x3A9E PUSH1 0x30 DUP4 PUSH2 0x31AB JUMP JUMPDEST SWAP2 POP PUSH2 0x3AA9 DUP3 PUSH2 0x3A44 JUMP JUMPDEST PUSH1 0x40 DUP3 ADD SWAP1 POP SWAP2 SWAP1 POP JUMP JUMPDEST PUSH0 PUSH1 0x20 DUP3 ADD SWAP1 POP DUP2 DUP2 SUB PUSH0 DUP4 ADD MSTORE PUSH2 0x3ACB DUP2 PUSH2 0x3A92 JUMP JUMPDEST SWAP1 POP SWAP2 SWAP1 POP JUMP JUMPDEST PUSH32 0x53616661726956657273653A2050726F64756374206465736372697074696F6E PUSH0 DUP3 ADD MSTORE PUSH32 0x20746F6F206C6F6E6720286D6178203530302063686172732900000000000000 PUSH1 0x20 DUP3 ADD MSTORE POP JUMP JUMPDEST PUSH0 PUSH2 0x3B2C PUSH1 0x39 DUP4 PUSH2 0x31AB JUMP JUMPDEST SWAP2 POP PUSH2 0x3B37 DUP3 PUSH2 0x3AD2 JUMP JUMPDEST PUSH1 0x40 DUP3 ADD SWAP1 POP SWAP2 SWAP1 POP JUMP JUMPDEST PUSH0 PUSH1 0x20 DUP3 ADD SWAP1 POP DUP2 DUP2 SUB PUSH0 DUP4 ADD MSTORE PUSH2 0x3B59 DUP2 PUSH2 0x3B20 JUMP JUMPDEST SWAP1 POP SWAP2 SWAP1 POP JUMP JUMPDEST PUSH32 0x53616661726956657273653A2046696C652055524C2063616E6E6F7420626520 PUSH0 DUP3 ADD MSTORE PUSH32 0x656D707479000000000000000000000000000000000000000000000000000000 PUSH1 0x20 DUP3 ADD MSTORE POP JUMP JUMPDEST PUSH0 PUSH2 0x3BBA PUSH1 0x25 DUP4 PUSH2 0x31AB JUMP JUMPDEST SWAP2 POP PUSH2 0x3BC5 DUP3 PUSH2 0x3B60 JUMP JUMPDEST PUSH1 0x40 DUP3 ADD SWAP1 POP SWAP2 SWAP1 POP JUMP JUMPDEST PUSH0 PUSH1 0x20 DUP3 ADD SWAP1 POP DUP2 DUP2 SUB PUSH0 DUP4 ADD MSTORE PUSH2 0x3BE7 DUP2 PUSH2 0x3BAE JUMP JUMPDEST SWAP1 POP SWAP2 SWAP1 POP JUMP JUMPDEST PUSH32 0x53616661726956657273653A2046696C652055524C20746F6F206C6F6E672028 PUSH0 DUP3 ADD MSTORE PUSH32 0x6D61782032303020636861727329000000000000000000000000000000000000 PUSH1 0x20 DUP3 ADD MSTORE POP JUMP JUMPDEST PUSH0 PUSH2 0x3C48 PUSH1 0x2E DUP4 PUSH2 0x31AB JUMP JUMPDEST SWAP2 POP PUSH2 0x3C53 DUP3 PUSH2 0x3BEE JUMP JUMPDEST PUSH1 0x40 DUP3 ADD SWAP1 POP SWAP2 SWAP1 POP JUMP JUMPDEST PUSH0 PUSH1 0x20 DUP3 ADD SWAP1 POP DUP2 DUP2 SUB PUSH0 DUP4 ADD MSTORE PUSH2 0x3C75 DUP2 PUSH2 0x3C3C JUMP JUMPDEST SWAP1 POP SWAP2 SWAP1 POP JUMP JUMPDEST PUSH32 0x53616661726956657273653A2050726F64756374207072696365206D75737420 PUSH0 DUP3 ADD MSTORE PUSH32 0x62652067726561746572207468616E2030000000000000000000000000000000 PUSH1 0x20 DUP3 ADD MSTORE POP JUMP JUMPDEST PUSH0 PUSH2 0x3CD6 PUSH1 0x31 DUP4 PUSH2 0x31AB JUMP JUMPDEST SWAP2 POP PUSH2 0x3CE1 DUP3 PUSH2 0x3C7C JUMP JUMPDEST PUSH1 0x40 DUP3 ADD SWAP1 POP SWAP2 SWAP1 POP JUMP JUMPDEST PUSH0 PUSH1 0x20 DUP3 ADD SWAP1 POP DUP2 DUP2 SUB PUSH0 DUP4 ADD MSTORE PUSH2 0x3D03 DUP2 PUSH2 0x3CCA JUMP JUMPDEST SWAP1 POP SWAP2 SWAP1 POP JUMP JUMPDEST PUSH32 0x53616661726956657273653A2050726F6475637420707269636520746F6F2068 PUSH0 DUP3 ADD MSTORE PUSH32 0x69676820286D617820314D204842415229000000000000000000000000000000 PUSH1 0x20 DUP3 ADD MSTORE POP JUMP JUMPDEST PUSH0 PUSH2 0x3D64 PUSH1 0x31 DUP4 PUSH2 0x31AB JUMP JUMPDEST SWAP2 POP PUSH2 0x3D6F DUP3 PUSH2 0x3D0A JUMP JUMPDEST PUSH1 0x40 DUP3 ADD SWAP1 POP SWAP2 SWAP1 POP JUMP JUMPDEST PUSH0 PUSH1 0x20 DUP3 ADD SWAP1 POP DUP2 DUP2 SUB PUSH0 DUP4 ADD MSTORE PUSH2 0x3D91 DUP2 PUSH2 0x3D58 JUMP JUMPDEST SWAP1 POP SWAP2 SWAP1 POP JUMP JUMPDEST PUSH32 0x53616661726956657273653A2050726F647563742063617465676F7279206361 PUSH0 DUP3 ADD MSTORE PUSH32 0x6E6E6F7420626520656D70747900000000000000000000000000000000000000 PUSH1 0x20 DUP3 ADD MSTORE POP JUMP JUMPDEST PUSH0 PUSH2 0x3DF2 PUSH1 0x2D DUP4 PUSH2 0x31AB JUMP JUMPDEST SWAP2 POP PUSH2 0x3DFD DUP3 PUSH2 0x3D98 JUMP JUMPDEST PUSH1 0x40 DUP3 ADD SWAP1 POP SWAP2 SWAP1 POP JUMP JUMPDEST PUSH0 PUSH1 0x20 DUP3 ADD SWAP1 POP DUP2 DUP2 SUB PUSH0 DUP4 ADD MSTORE PUSH2 0x3E1F DUP2 PUSH2 0x3DE6 JUMP JUMPDEST SWAP1 POP SWAP2 SWAP1 POP JUMP JUMPDEST PUSH32 0x53616661726956657273653A2050726F647563742063617465676F727920746F PUSH0 DUP3 ADD MSTORE PUSH32 0x6F206C6F6E6720286D6178203530206368617273290000000000000000000000 PUSH1 0x20 DUP3 ADD MSTORE POP JUMP JUMPDEST PUSH0 PUSH2 0x3E80 PUSH1 0x35 DUP4 PUSH2 0x31AB JUMP JUMPDEST SWAP2 POP PUSH2 0x3E8B DUP3 PUSH2 0x3E26 JUMP JUMPDEST PUSH1 0x40 DUP3 ADD SWAP1 POP SWAP2 SWAP1 POP JUMP JUMPDEST PUSH0 PUSH1 0x20 DUP3 ADD SWAP1 POP DUP2 DUP2 SUB PUSH0 DUP4 ADD MSTORE PUSH2 0x3EAD DUP2 PUSH2 0x3E74 JUMP JUMPDEST SWAP1 POP SWAP2 SWAP1 POP JUMP JUMPDEST PUSH32 0x4E487B7100000000000000000000000000000000000000000000000000000000 PUSH0 MSTORE PUSH1 0x11 PUSH1 0x4 MSTORE PUSH1 0x24 PUSH0 REVERT JUMPDEST PUSH0 PUSH2 0x3EEB DUP3 PUSH2 0x2DBA JUMP JUMPDEST SWAP2 POP PUSH32 0xFFFFFFFFFFFFFFFFFFFFFFFFFFFFFFFFFFFFFFFFFFFFFFFFFFFFFFFFFFFFFFFF DUP3 SUB PUSH2 0x3F1D JUMPI PUSH2 0x3F1C PUSH2 0x3EB4 JUMP JUMPDEST JUMPDEST PUSH1 0x1 DUP3 ADD SWAP1 POP SWAP2 SWAP1 POP JUMP JUMPDEST PUSH32 0x4E487B7100000000000000000000000000000000000000000000000000000000 PUSH0 MSTORE PUSH1 0x22 PUSH1 0x4 MSTORE PUSH1 0x24 PUSH0 REVERT JUMPDEST PUSH0 PUSH1 0x2 DUP3 DIV SWAP1 POP PUSH1 0x1 DUP3 AND DUP1 PUSH2 0x3F6C JUMPI PUSH1 0x7F DUP3 AND SWAP2 POP JUMPDEST PUSH1 0x20 DUP3 LT DUP2 SUB PUSH2 0x3F7F JUMPI PUSH2 0x3F7E PUSH2 0x3F28 JUMP JUMPDEST JUMPDEST POP SWAP2 SWAP1 POP JUMP JUMPDEST PUSH0 DUP2 SWAP1 POP DUP2 PUSH0 MSTORE PUSH1 0x20 PUSH0 KECCAK256 SWAP1 POP SWAP2 SWAP1 POP JUMP JUMPDEST PUSH0 PUSH1 0x20 PUSH1 0x1F DUP4 ADD DIV SWAP1 POP SWAP2 SWAP1 POP JUMP JUMPDEST PUSH0 DUP3 DUP3 SHL SWAP1 POP SWAP3 SWAP2 POP POP JUMP JUMPDEST PUSH0 PUSH1 0x8 DUP4 MUL PUSH2 0x3FE1 PUSH32 0xFFFFFFFFFFFFFFFFFFFFFFFFFFFFFFFFFFFFFFFFFFFFFFFFFFFFFFFFFFFFFFFF DUP3 PUSH2 0x3FA6 JUMP JUMPDEST PUSH2 0x3FEB DUP7 DUP4 PUSH2 0x3FA6 JUMP JUMPDEST SWAP6 POP DUP1 NOT DUP5 AND SWAP4 POP DUP1 DUP7 AND DUP5 OR SWAP3 POP POP POP SWAP4 SWAP3 POP POP POP JUMP JUMPDEST PUSH0 DUP2 SWAP1 POP SWAP2 SWAP1 POP JUMP JUMPDEST PUSH0 PUSH2 0x4026 PUSH2 0x4021 PUSH2 0x401C DUP5 PUSH2 0x2DBA JUMP JUMPDEST PUSH2 0x4003 JUMP JUMPDEST PUSH2 0x2DBA JUMP JUMPDEST SWAP1 POP SWAP2 SWAP1 POP JUMP JUMPDEST PUSH0 DUP2 SWAP1 POP SWAP2 SWAP1 POP JUMP JUMPDEST PUSH2 0x403F DUP4 PUSH2 0x400C JUMP JUMPDEST PUSH2 0x4053 PUSH2 0x404B DUP3 PUSH2 0x402D JUMP JUMPDEST DUP5 DUP5 SLOAD PUSH2 0x3FB2 JUMP JUMPDEST DUP3 SSTORE POP POP POP POP JUMP JUMPDEST PUSH0 PUSH0 SWAP1 POP SWAP1 JUMP JUMPDEST PUSH2 0x406A PUSH2 0x405B JUMP JUMPDEST PUSH2 0x4075 DUP2 DUP5 DUP5 PUSH2 0x4036 JUMP JUMPDEST POP POP POP JUMP JUMPDEST JUMPDEST DUP2 DUP2 LT ISZERO PUSH2 0x4098 JUMPI PUSH2 0x408D PUSH0 DUP3 PUSH2 0x4062 JUMP JUMPDEST PUSH1 0x1 DUP2 ADD SWAP1 POP PUSH2 0x407B JUMP JUMPDEST POP POP JUMP JUMPDEST PUSH1 0x1F DUP3 GT ISZERO PUSH2 0x40DD JUMPI PUSH2 0x40AE DUP2 PUSH2 0x3F85 JUMP JUMPDEST PUSH2 0x40B7 DUP5 PUSH2 0x3F97 JUMP JUMPDEST DUP2 ADD PUSH1 0x20 DUP6 LT ISZERO PUSH2 0x40C6 JUMPI DUP2 SWAP1 POP JUMPDEST PUSH2 0x40DA PUSH2 0x40D2 DUP6 PUSH2 0x3F97 JUMP JUMPDEST DUP4 ADD DUP3 PUSH2 0x407A JUMP JUMPDEST POP POP JUMPDEST POP POP POP JUMP JUMPDEST PUSH0 DUP3 DUP3 SHR SWAP1 POP SWAP3 SWAP2 POP POP JUMP JUMPDEST PUSH0 PUSH2 0x40FD PUSH0 NOT DUP5 PUSH1 0x8 MUL PUSH2 0x40E2 JUMP JUMPDEST NOT DUP1 DUP4 AND SWAP2 POP POP SWAP3 SWAP2 POP POP JUMP JUMPDEST PUSH0 PUSH2 0x4115 DUP4 DUP4 PUSH2 0x40EE JUMP JUMPDEST SWAP2 POP DUP3 PUSH1 0x2 MUL DUP3 OR SWAP1 POP SWAP3 SWAP2 POP POP JUMP JUMPDEST PUSH2 0x412E DUP3 PUSH2 0x31A1 JUMP JUMPDEST PUSH8 0xFFFFFFFFFFFFFFFF DUP2 GT ISZERO PUSH2 0x4147 JUMPI PUSH2 0x4146 PUSH2 0x2F3B JUMP JUMPDEST JUMPDEST PUSH2 0x4151 DUP3 SLOAD PUSH2 0x3F55 JUMP JUMPDEST PUSH2 0x415C DUP3 DUP3 DUP6 PUSH2 0x409C JUMP JUMPDEST PUSH0 PUSH1 0x20 SWAP1 POP PUSH1 0x1F DUP4 GT PUSH1 0x1 DUP2 EQ PUSH2 0x418D JUMPI PUSH0 DUP5 ISZERO PUSH2 0x417B JUMPI DUP3 DUP8 ADD MLOAD SWAP1 POP JUMPDEST PUSH2 0x4185 DUP6 DUP3 PUSH2 0x410A JUMP JUMPDEST DUP7 SSTORE POP PUSH2 0x41EC JUMP JUMPDEST PUSH1 0x1F NOT DUP5 AND PUSH2 0x419B DUP7 PUSH2 0x3F85 JUMP JUMPDEST PUSH0 JUMPDEST DUP3 DUP2 LT ISZERO PUSH2 0x41C2 JUMPI DUP5 DUP10 ADD MLOAD DUP3 SSTORE PUSH1 0x1 DUP3 ADD SWAP2 POP PUSH1 0x20 DUP6 ADD SWAP5 POP PUSH1 0x20 DUP2 ADD SWAP1 POP PUSH2 0x419D JUMP JUMPDEST DUP7 DUP4 LT ISZERO PUSH2 0x41DF JUMPI DUP5 DUP10 ADD MLOAD PUSH2 0x41DB PUSH1 0x1F DUP10 AND DUP3 PUSH2 0x40EE JUMP JUMPDEST DUP4 SSTORE POP JUMPDEST PUSH1 0x1 PUSH1 0x2 DUP9 MUL ADD DUP9 SSTORE POP POP POP JUMPDEST POP POP POP POP POP POP JUMP JUMPDEST PUSH0 PUSH1 0x40 DUP3 ADD SWAP1 POP DUP2 DUP2 SUB PUSH0 DUP4 ADD MSTORE PUSH2 0x420C DUP2 DUP6 PUSH2 0x31C9 JUMP JUMPDEST SWAP1 POP PUSH2 0x421B PUSH1 0x20 DUP4 ADD DUP5 PUSH2 0x2EC6 JUMP JUMPDEST SWAP4 SWAP3 POP POP POP JUMP JUMPDEST PUSH32 0x53616661726956657273653A2050726F64756374204944206D75737420626520 PUSH0 DUP3 ADD MSTORE PUSH32 0x67726561746572207468616E2030000000000000000000000000000000000000 PUSH1 0x20 DUP3 ADD MSTORE POP JUMP JUMPDEST PUSH0 PUSH2 0x427C PUSH1 0x2E DUP4 PUSH2 0x31AB JUMP JUMPDEST SWAP2 POP PUSH2 0x4287 DUP3 PUSH2 0x4222 JUMP JUMPDEST PUSH1 0x40 DUP3 ADD SWAP1 POP SWAP2 SWAP1 POP JUMP JUMPDEST PUSH0 PUSH1 0x20 DUP3 ADD SWAP1 POP DUP2 DUP2 SUB PUSH0 DUP4 ADD MSTORE PUSH2 0x42A9 DUP2 PUSH2 0x4270 JUMP JUMPDEST SWAP1 POP SWAP2 SWAP1 POP JUMP JUMPDEST PUSH32 0x53616661726956657273653A2050726F6475637420646F6573206E6F74206578 PUSH0 DUP3 ADD MSTORE PUSH32 0x6973740000000000000000000000000000000000000000000000000000000000 PUSH1 0x20 DUP3 ADD MSTORE POP JUMP JUMPDEST PUSH0 PUSH2 0x430A PUSH1 0x23 DUP4 PUSH2 0x31AB JUMP JUMPDEST SWAP2 POP PUSH2 0x4315 DUP3 PUSH2 0x42B0 JUMP JUMPDEST PUSH1 0x40 DUP3 ADD SWAP1 POP SWAP2 SWAP1 POP JUMP JUMPDEST PUSH0 PUSH1 0x20 DUP3 ADD SWAP1 POP DUP2 DUP2 SUB PUSH0 DUP4 ADD MSTORE PUSH2 0x4337 DUP2 PUSH2 0x42FE JUMP JUMPDEST SWAP1 POP SWAP2 SWAP1 POP JUMP JUMPDEST PUSH32 0x53616661726956657273653A2050726F64756374206973206E6F742061637469 PUSH0 DUP3 ADD MSTORE PUSH32 0x7665000000000000000000000000000000000000000000000000000000000000 PUSH1 0x20 DUP3 ADD MSTORE POP JUMP JUMPDEST PUSH0 PUSH2 0x4398 PUSH1 0x22 DUP4 PUSH2 0x31AB JUMP JUMPDEST SWAP2 POP PUSH2 0x43A3 DUP3 PUSH2 0x433E JUMP JUMPDEST PUSH1 0x40 DUP3 ADD SWAP1 POP SWAP2 SWAP1 POP JUMP JUMPDEST PUSH0 PUSH1 0x20 DUP3 ADD SWAP1 POP DUP2 DUP2 SUB PUSH0 DUP4 ADD MSTORE PUSH2 0x43C5 DUP2 PUSH2 0x438C JUMP JUMPDEST SWAP1 POP SWAP2 SWAP1 POP JUMP JUMPDEST PUSH32 0x5061796D656E7420746F6F206C6F770000000000000000000000000000000000 PUSH0 DUP3 ADD MSTORE POP JUMP JUMPDEST PUSH0 PUSH2 0x4400 PUSH1 0xF DUP4 PUSH2 0x31AB JUMP JUMPDEST SWAP2 POP PUSH2 0x440B DUP3 PUSH2 0x43CC JUMP JUMPDEST PUSH1 0x20 DUP3 ADD SWAP1 POP SWAP2 SWAP1 POP JUMP JUMPDEST PUSH0 PUSH1 0x20 DUP3 ADD SWAP1 POP DUP2 DUP2 SUB PUSH0 DUP4 ADD MSTORE PUSH2 0x442D DUP2 PUSH2 0x43F4 JUMP JUMPDEST SWAP1 POP SWAP2 SWAP1 POP JUMP JUMPDEST PUSH32 0x43616E6E6F7420627579206F776E2070726F6475637400000000000000000000 PUSH0 DUP3 ADD MSTORE POP JUMP JUMPDEST PUSH0 PUSH2 0x4468 PUSH1 0x16 DUP4 PUSH2 0x31AB JUMP JUMPDEST SWAP2 POP PUSH2 0x4473 DUP3 PUSH2 0x4434 JUMP JUMPDEST PUSH1 0x20 DUP3 ADD SWAP1 POP SWAP2 SWAP1 POP JUMP JUMPDEST PUSH0 PUSH1 0x20 DUP3 ADD SWAP1 POP DUP2 DUP2 SUB PUSH0 DUP4 ADD MSTORE PUSH2 0x4495 DUP2 PUSH2 0x445C JUMP JUMPDEST SWAP1 POP SWAP2 SWAP1 POP JUMP JUMPDEST PUSH0 PUSH2 0x44A6 DUP3 PUSH2 0x2DBA JUMP JUMPDEST SWAP2 POP PUSH2 0x44B1 DUP4 PUSH2 0x2DBA JUMP JUMPDEST SWAP3 POP DUP3 DUP3 ADD SWAP1 POP DUP1 DUP3 GT ISZERO PUSH2 0x44C9 JUMPI PUSH2 0x44C8 PUSH2 0x3EB4 JUMP JUMPDEST JUMPDEST SWAP3 SWAP2 POP POP JUMP JUMPDEST PUSH0 DUP2 SWAP1 POP SWAP3 SWAP2 POP POP JUMP JUMPDEST POP JUMP JUMPDEST PUSH0 PUSH2 0x44E7 PUSH0 DUP4 PUSH2 0x44CF JUMP JUMPDEST SWAP2 POP PUSH2 0x44F2 DUP3 PUSH2 0x44D9 JUMP JUMPDEST PUSH0 DUP3 ADD SWAP1 POP SWAP2 SWAP1 POP JUMP JUMPDEST PUSH0 PUSH2 0x4506 DUP3 PUSH2 0x44DC JUMP JUMPDEST SWAP2 POP DUP2 SWAP1 POP SWAP2 SWAP1 POP JUMP JUMPDEST PUSH32 0x5061796D656E74206661696C6564000000000000000000000000000000000000 PUSH0 DUP3 ADD MSTORE POP JUMP JUMPDEST PUSH0 PUSH2 0x4544 PUSH1 0xE DUP4 PUSH2 0x31AB JUMP JUMPDEST SWAP2 POP PUSH2 0x454F DUP3 PUSH2 0x4510 JUMP JUMPDEST PUSH1 0x20 DUP3 ADD SWAP1 POP SWAP2 SWAP1 POP JUMP JUMPDEST PUSH0 PUSH1 0x20 DUP3 ADD SWAP1 POP DUP2 DUP2 SUB PUSH0 DUP4 ADD MSTORE PUSH2 0x4571 DUP2 PUSH2 0x4538 JUMP JUMPDEST SWAP1 POP SWAP2 SWAP1 POP JUMP JUMPDEST PUSH32 0x53616661726956657273653A20546F6B656E20616464726573732063616E6E6F PUSH0 DUP3 ADD MSTORE PUSH32 0x74206265207A65726F2061646472657373000000000000000000000000000000 PUSH1 0x20 DUP3 ADD MSTORE POP JUMP JUMPDEST PUSH0 PUSH2 0x45D2 PUSH1 0x31 DUP4 PUSH2 0x31AB JUMP JUMPDEST SWAP2 POP PUSH2 0x45DD DUP3 PUSH2 0x4578 JUMP JUMPDEST PUSH1 0x40 DUP3 ADD SWAP1 POP SWAP2 SWAP1 POP JUMP JUMPDEST PUSH0 PUSH1 0x20 DUP3 ADD SWAP1 POP DUP2 DUP2 SUB PUSH0 DUP4 ADD MSTORE PUSH2 0x45FF DUP2 PUSH2 0x45C6 JUMP JUMPDEST SWAP1 POP SWAP2 SWAP1 POP JUMP JUMPDEST PUSH32 0x53616661726956657273653A204F6E6C792070726F647563742063726561746F PUSH0 DUP3 ADD MSTORE PUSH32 0x722063616E20706572666F726D207468697320616374696F6E00000000000000 PUSH1 0x20 DUP3 ADD MSTORE POP JUMP JUMPDEST PUSH0 PUSH2 0x4660 PUSH1 0x39 DUP4 PUSH2 0x31AB JUMP JUMPDEST SWAP2 POP PUSH2 0x466B DUP3 PUSH2 0x4606 JUMP JUMPDEST PUSH1 0x40 DUP3 ADD SWAP1 POP SWAP2 SWAP1 POP JUMP JUMPDEST PUSH0 PUSH1 0x20 DUP3 ADD SWAP1 POP DUP2 DUP2 SUB PUSH0 DUP4 ADD MSTORE PUSH2 0x468D DUP2 PUSH2 0x4654 JUMP JUMPDEST SWAP1 POP SWAP2 SWAP1 POP JUMP JUMPDEST PUSH32 0x53616661726956657273653A20416D6F756E74206D7573742062652067726561 PUSH0 DUP3 ADD MSTORE PUSH32 0x746572207468616E203000000000000000000000000000000000000000000000 PUSH1 0x20 DUP3 ADD MSTORE POP JUMP JUMPDEST PUSH0 PUSH2 0x46EE PUSH1 0x2A DUP4 PUSH2 0x31AB JUMP JUMPDEST SWAP2 POP PUSH2 0x46F9 DUP3 PUSH2 0x4694 JUMP JUMPDEST PUSH1 0x40 DUP3 ADD SWAP1 POP SWAP2 SWAP1 POP JUMP JUMPDEST PUSH0 PUSH1 0x20 DUP3 ADD SWAP1 POP DUP2 DUP2 SUB PUSH0 DUP4 ADD MSTORE PUSH2 0x471B DUP2 PUSH2 0x46E2 JUMP JUMPDEST SWAP1 POP SWAP2 SWAP1 POP JUMP JUMPDEST PUSH0 PUSH1 0x40 DUP3 ADD SWAP1 POP PUSH2 0x4735 PUSH0 DUP4 ADD DUP6 PUSH2 0x3146 JUMP JUMPDEST PUSH2 0x4742 PUSH1 0x20 DUP4 ADD DUP5 PUSH2 0x2EC6 JUMP JUMPDEST SWAP4 SWAP3 POP POP POP JUMP JUMPDEST PUSH2 0x4752 DUP2 PUSH2 0x316E JUMP JUMPDEST DUP2 EQ PUSH2 0x475C JUMPI PUSH0 PUSH0 REVERT JUMPDEST POP JUMP JUMPDEST PUSH0 DUP2 MLOAD SWAP1 POP PUSH2 0x476D DUP2 PUSH2 0x4749 JUMP JUMPDEST SWAP3 SWAP2 POP POP JUMP JUMPDEST PUSH0 PUSH1 0x20 DUP3 DUP5 SUB SLT ISZERO PUSH2 0x4788 JUMPI PUSH2 0x4787 PUSH2 0x2D04 JUMP JUMPDEST JUMPDEST PUSH0 PUSH2 0x4795 DUP5 DUP3 DUP6 ADD PUSH2 0x475F JUMP JUMPDEST SWAP2 POP POP SWAP3 SWAP2 POP POP JUMP JUMPDEST PUSH32 0x53616661726956657273653A20456D657267656E637920746F6B656E20776974 PUSH0 DUP3 ADD MSTORE PUSH32 0x6864726177206661696C65640000000000000000000000000000000000000000 PUSH1 0x20 DUP3 ADD MSTORE POP JUMP JUMPDEST PUSH0 PUSH2 0x47F8 PUSH1 0x2C DUP4 PUSH2 0x31AB JUMP JUMPDEST SWAP2 POP PUSH2 0x4803 DUP3 PUSH2 0x479E JUMP JUMPDEST PUSH1 0x40 DUP3 ADD SWAP1 POP SWAP2 SWAP1 POP JUMP JUMPDEST PUSH0 PUSH1 0x20 DUP3 ADD SWAP1 POP DUP2 DUP2 SUB PUSH0 DUP4 ADD MSTORE PUSH2 0x4825 DUP2 PUSH2 0x47EC JUMP JUMPDEST SWAP1 POP SWAP2 SWAP1 POP JUMP JUMPDEST PUSH32 0x53616661726956657273653A204E6F2066756E647320746F2077697468647261 PUSH0 DUP3 ADD MSTORE PUSH32 0x7700000000000000000000000000000000000000000000000000000000000000 PUSH1 0x20 DUP3 ADD MSTORE POP JUMP JUMPDEST PUSH0 PUSH2 0x4886 PUSH1 0x21 DUP4 PUSH2 0x31AB JUMP JUMPDEST SWAP2 POP PUSH2 0x4891 DUP3 PUSH2 0x482C JUMP JUMPDEST PUSH1 0x40 DUP3 ADD SWAP1 POP SWAP2 SWAP1 POP JUMP JUMPDEST PUSH0 PUSH1 0x20 DUP3 ADD SWAP1 POP DUP2 DUP2 SUB PUSH0 DUP4 ADD MSTORE PUSH2 0x48B3 DUP2 PUSH2 0x487A JUMP JUMPDEST SWAP1 POP SWAP2 SWAP1 POP JUMP JUMPDEST PUSH32 0x53616661726956657273653A20456D657267656E637920776974686472617720 PUSH0 DUP3 ADD MSTORE PUSH32 0x6661696C65640000000000000000000000000000000000000000000000000000 PUSH1 0x20 DUP3 ADD MSTORE POP JUMP JUMPDEST PUSH0 PUSH2 0x4914 PUSH1 0x26 DUP4 PUSH2 0x31AB JUMP JUMPDEST SWAP2 POP PUSH2 0x491F DUP3 PUSH2 0x48BA JUMP JUMPDEST PUSH1 0x40 DUP3 ADD SWAP1 POP SWAP2 SWAP1 POP JUMP JUMPDEST PUSH0 PUSH1 0x20 DUP3 ADD SWAP1 POP DUP2 DUP2 SUB PUSH0 DUP4 ADD MSTORE PUSH2 0x4941 DUP2 PUSH2 0x4908 JUMP JUMPDEST SWAP1 POP SWAP2 SWAP1 POP JUMP JUMPDEST PUSH32 0x53616661726956657273653A2046656520726563697069656E742063616E6E6F PUSH0 DUP3 ADD MSTORE PUSH32 0x74206265207A65726F2061646472657373000000000000000000000000000000 PUSH1 0x20 DUP3 ADD MSTORE POP JUMP JUMPDEST PUSH0 PUSH2 0x49A2 PUSH1 0x31 DUP4 PUSH2 0x31AB JUMP JUMPDEST SWAP2 POP PUSH2 0x49AD DUP3 PUSH2 0x4948 JUMP JUMPDEST PUSH1 0x40 DUP3 ADD SWAP1 POP SWAP2 SWAP1 POP JUMP JUMPDEST PUSH0 PUSH1 0x20 DUP3 ADD SWAP1 POP DUP2 DUP2 SUB PUSH0 DUP4 ADD MSTORE PUSH2 0x49CF DUP2 PUSH2 0x4996 JUMP JUMPDEST SWAP1 POP SWAP2 SWAP1 POP JUMP JUMPDEST PUSH32 0x53616661726956657273653A204C696D6974206D757374206265206772656174 PUSH0 DUP3 ADD MSTORE PUSH32 0x6572207468616E20300000000000000000000000000000000000000000000000 PUSH1 0x20 DUP3 ADD MSTORE POP JUMP JUMPDEST PUSH0 PUSH2 0x4A30 PUSH1 0x29 DUP4 PUSH2 0x31AB JUMP JUMPDEST SWAP2 POP PUSH2 0x4A3B DUP3 PUSH2 0x49D6 JUMP JUMPDEST PUSH1 0x40 DUP3 ADD SWAP1 POP SWAP2 SWAP1 POP JUMP JUMPDEST PUSH0 PUSH1 0x20 DUP3 ADD SWAP1 POP DUP2 DUP2 SUB PUSH0 DUP4 ADD MSTORE PUSH2 0x4A5D DUP2 PUSH2 0x4A24 JUMP JUMPDEST SWAP1 POP SWAP2 SWAP1 POP JUMP JUMPDEST PUSH32 0x53616661726956657273653A204C696D69742063616E6E6F7420657863656564 PUSH0 DUP3 ADD MSTORE PUSH32 0x2031303000000000000000000000000000000000000000000000000000000000 PUSH1 0x20 DUP3 ADD MSTORE POP JUMP JUMPDEST PUSH0 PUSH2 0x4ABE PUSH1 0x24 DUP4 PUSH2 0x31AB JUMP JUMPDEST SWAP2 POP PUSH2 0x4AC9 DUP3 PUSH2 0x4A64 JUMP JUMPDEST PUSH1 0x40 DUP3 ADD SWAP1 POP SWAP2 SWAP1 POP JUMP JUMPDEST PUSH0 PUSH1 0x20 DUP3 ADD SWAP1 POP DUP2 DUP2 SUB PUSH0 DUP4 ADD MSTORE PUSH2 0x4AEB DUP2 PUSH2 0x4AB2 JUMP JUMPDEST SWAP1 POP SWAP2 SWAP1 POP JUMP JUMPDEST PUSH32 0x4E487B7100000000000000000000000000000000000000000000000000000000 PUSH0 MSTORE PUSH1 0x32 PUSH1 0x4 MSTORE PUSH1 0x24 PUSH0 REVERT INVALID LOG2 PUSH5 0x6970667358 0x22 SLT KECCAK256 0xDA POP CHAINID 0x2B SWAP8 PUSH23 0xFA2DDCFB5F8A69796011CA62327BE6705C77C3A1BFCFD5 SWAP12 0xDB EXP PUSH5 0x736F6C6343 STOP ADDMOD SHR STOP CALLER "},"methodIdentifiers":{"addSupportedToken(address)":"6d69fcaf","createProduct(string,string,string,uint256,string)":"32e086a1","creatorItemsSold(address)":"c98fe938","creatorProducts(address,uint256)":"a381af66","creatorStats(address)":"2e24c587","deactivateProduct(uint256)":"fd77e5de","emergencyWithdraw()":"db2e21bc","emergencyWithdrawToken(address,uint256)":"a4c3b091","feeRecipient()":"46904840","getActiveProducts(uint256,uint256)":"edb0395d","getCreatorProducts(address)":"07ed175a","getCreatorStats(address)":"9f82d472","getPlatformStats()":"136d8883","getProduct(uint256)":"b9db15b4","nativeToken()":"e1758bd8","nextProductId()":"4de91a63","owner()":"8da5cb5b","platformFeeBps()":"22dcd13e","products(uint256)":"7acc0b20","purchaseProduct(uint256)":"38e76a03","reactivateProduct(uint256)":"6e0e5332","removeSupportedToken(address)":"76319190","renounceOwnership()":"715018a6","setFeeRecipient(address)":"e74b981b","setPlatformFee(uint256)":"12e8e2c3","supportedTokens(address)":"68c4ac26","totalProducts()":"9b9d326d","totalRevenue()":"bf2d9e0b","totalSales()":"6605ff66","transferOwnership(address)":"f2fde38b","updateProduct(uint256,string,string,string,uint256,string)":"837e9722"}}}}}