{
  "_format": "hh3-artifact-1",
  "contractName": "SafariNFT",
  "sourceName": "contracts/SafariNFT.sol",
  "abi": [
    {
      "inputs": [
        {
          "internalType": "address",
          "name": "initialOwner",
          "type": "address"
        },
        {
          "internalType": "address",
          "name": "_safariToken",
          "type": "address"
        },
        {
          "internalType": "string",
          "name": "_baseTokenURI",
          "type": "string"
        }
      ],
      "stateMutability": "nonpayable",
      "type": "constructor"
    },
    {
      "inputs": [],
      "name": "ERC721EnumerableForbiddenBatchMint",
      "type": "error"
    },
    {
      "inputs": [
        {
          "internalType": "address",
          "name": "sender",
          "type": "address"
        },
        {
          "internalType": "uint256",
          "name": "tokenId",
          "type": "uint256"
        },
        {
          "internalType": "address",
          "name": "owner",
          "type": "address"
        }
      ],
      "name": "ERC721IncorrectOwner",
      "type": "error"
    },
    {
      "inputs": [
        {
          "internalType": "address",
          "name": "operator",
          "type": "address"
        },
        {
          "internalType": "uint256",
          "name": "tokenId",
          "type": "uint256"
        }
      ],
      "name": "ERC721InsufficientApproval",
      "type": "error"
    },
    {
      "inputs": [
        {
          "internalType": "address",
          "name": "approver",
          "type": "address"
        }
      ],
      "name": "ERC721InvalidApprover",
      "type": "error"
    },
    {
      "inputs": [
        {
          "internalType": "address",
          "name": "operator",
          "type": "address"
        }
      ],
      "name": "ERC721InvalidOperator",
      "type": "error"
    },
    {
      "inputs": [
        {
          "internalType": "address",
          "name": "owner",
          "type": "address"
        }
      ],
      "name": "ERC721InvalidOwner",
      "type": "error"
    },
    {
      "inputs": [
        {
          "internalType": "address",
          "name": "receiver",
          "type": "address"
        }
      ],
      "name": "ERC721InvalidReceiver",
      "type": "error"
    },
    {
      "inputs": [
        {
          "internalType": "address",
          "name": "sender",
          "type": "address"
        }
      ],
      "name": "ERC721InvalidSender",
      "type": "error"
    },
    {
      "inputs": [
        {
          "internalType": "uint256",
          "name": "tokenId",
          "type": "uint256"
        }
      ],
      "name": "ERC721NonexistentToken",
      "type": "error"
    },
    {
      "inputs": [
        {
          "internalType": "address",
          "name": "owner",
          "type": "address"
        },
        {
          "internalType": "uint256",
          "name": "index",
          "type": "uint256"
        }
      ],
      "name": "ERC721OutOfBoundsIndex",
      "type": "error"
    },
    {
      "inputs": [],
      "name": "EnforcedPause",
      "type": "error"
    },
    {
      "inputs": [],
      "name": "ExpectedPause",
      "type": "error"
    },
    {
      "inputs": [
        {
          "internalType": "address",
          "name": "owner",
          "type": "address"
        }
      ],
      "name": "OwnableInvalidOwner",
      "type": "error"
    },
    {
      "inputs": [
        {
          "internalType": "address",
          "name": "account",
          "type": "address"
        }
      ],
      "name": "OwnableUnauthorizedAccount",
      "type": "error"
    },
    {
      "inputs": [],
      "name": "ReentrancyGuardReentrantCall",
      "type": "error"
    },
    {
      "anonymous": false,
      "inputs": [
        {
          "indexed": true,
          "internalType": "address",
          "name": "owner",
          "type": "address"
        },
        {
          "indexed": true,
          "internalType": "address",
          "name": "approved",
          "type": "address"
        },
        {
          "indexed": true,
          "internalType": "uint256",
          "name": "tokenId",
          "type": "uint256"
        }
      ],
      "name": "Approval",
      "type": "event"
    },
    {
      "anonymous": false,
      "inputs": [
        {
          "indexed": true,
          "internalType": "address",
          "name": "owner",
          "type": "address"
        },
        {
          "indexed": true,
          "internalType": "address",
          "name": "operator",
          "type": "address"
        },
        {
          "indexed": false,
          "internalType": "bool",
          "name": "approved",
          "type": "bool"
        }
      ],
      "name": "ApprovalForAll",
      "type": "event"
    },
    {
      "anonymous": false,
      "inputs": [
        {
          "indexed": false,
          "internalType": "string",
          "name": "oldURI",
          "type": "string"
        },
        {
          "indexed": false,
          "internalType": "string",
          "name": "newURI",
          "type": "string"
        }
      ],
      "name": "BaseURIUpdated",
      "type": "event"
    },
    {
      "anonymous": false,
      "inputs": [
        {
          "indexed": false,
          "internalType": "uint256",
          "name": "_fromTokenId",
          "type": "uint256"
        },
        {
          "indexed": false,
          "internalType": "uint256",
          "name": "_toTokenId",
          "type": "uint256"
        }
      ],
      "name": "BatchMetadataUpdate",
      "type": "event"
    },
    {
      "anonymous": false,
      "inputs": [
        {
          "indexed": false,
          "internalType": "uint256",
          "name": "_tokenId",
          "type": "uint256"
        }
      ],
      "name": "MetadataUpdate",
      "type": "event"
    },
    {
      "anonymous": false,
      "inputs": [
        {
          "indexed": true,
          "internalType": "uint256",
          "name": "tokenId",
          "type": "uint256"
        },
        {
          "indexed": false,
          "internalType": "string",
          "name": "metadata",
          "type": "string"
        }
      ],
      "name": "MetadataUpdated",
      "type": "event"
    },
    {
      "anonymous": false,
      "inputs": [
        {
          "indexed": false,
          "internalType": "uint256",
          "name": "oldPrice",
          "type": "uint256"
        },
        {
          "indexed": false,
          "internalType": "uint256",
          "name": "newPrice",
          "type": "uint256"
        }
      ],
      "name": "MintPriceUpdated",
      "type": "event"
    },
    {
      "anonymous": false,
      "inputs": [
        {
          "indexed": true,
          "internalType": "address",
          "name": "to",
          "type": "address"
        },
        {
          "indexed": true,
          "internalType": "uint256",
          "name": "tokenId",
          "type": "uint256"
        },
        {
          "indexed": false,
          "internalType": "string",
          "name": "tokenURI",
          "type": "string"
        },
        {
          "indexed": false,
          "internalType": "uint256",
          "name": "price",
          "type": "uint256"
        }
      ],
      "name": "NFTMinted",
      "type": "event"
    },
    {
      "anonymous": false,
      "inputs": [
        {
          "indexed": true,
          "internalType": "address",
          "name": "previousOwner",
          "type": "address"
        },
        {
          "indexed": true,
          "internalType": "address",
          "name": "newOwner",
          "type": "address"
        }
      ],
      "name": "OwnershipTransferred",
      "type": "event"
    },
    {
      "anonymous": false,
      "inputs": [
        {
          "indexed": false,
          "internalType": "address",
          "name": "account",
          "type": "address"
        }
      ],
      "name": "Paused",
      "type": "event"
    },
    {
      "anonymous": false,
      "inputs": [
        {
          "indexed": true,
          "internalType": "address",
          "name": "from",
          "type": "address"
        },
        {
          "indexed": true,
          "internalType": "address",
          "name": "to",
          "type": "address"
        },
        {
          "indexed": true,
          "internalType": "uint256",
          "name": "tokenId",
          "type": "uint256"
        }
      ],
      "name": "Transfer",
      "type": "event"
    },
    {
      "anonymous": false,
      "inputs": [
        {
          "indexed": false,
          "internalType": "address",
          "name": "account",
          "type": "address"
        }
      ],
      "name": "Unpaused",
      "type": "event"
    },
    {
      "inputs": [
        {
          "internalType": "address",
          "name": "to",
          "type": "address"
        },
        {
          "internalType": "uint256",
          "name": "tokenId",
          "type": "uint256"
        }
      ],
      "name": "approve",
      "outputs": [],
      "stateMutability": "nonpayable",
      "type": "function"
    },
    {
      "inputs": [
        {
          "internalType": "address",
          "name": "owner",
          "type": "address"
        }
      ],
      "name": "balanceOf",
      "outputs": [
        {
          "internalType": "uint256",
          "name": "",
          "type": "uint256"
        }
      ],
      "stateMutability": "view",
      "type": "function"
    },
    {
      "inputs": [],
      "name": "baseTokenURI",
      "outputs": [
        {
          "internalType": "string",
          "name": "",
          "type": "string"
        }
      ],
      "stateMutability": "view",
      "type": "function"
    },
    {
      "inputs": [
        {
          "internalType": "address",
          "name": "to",
          "type": "address"
        },
        {
          "internalType": "string[]",
          "name": "uris",
          "type": "string[]"
        },
        {
          "internalType": "string[]",
          "name": "metadatas",
          "type": "string[]"
        }
      ],
      "name": "batchMint",
      "outputs": [
        {
          "internalType": "uint256[]",
          "name": "",
          "type": "uint256[]"
        }
      ],
      "stateMutability": "nonpayable",
      "type": "function"
    },
    {
      "inputs": [
        {
          "internalType": "address",
          "name": "user",
          "type": "address"
        },
        {
          "internalType": "uint256",
          "name": "quantity",
          "type": "uint256"
        }
      ],
      "name": "canMint",
      "outputs": [
        {
          "internalType": "bool",
          "name": "",
          "type": "bool"
        }
      ],
      "stateMutability": "view",
      "type": "function"
    },
    {
      "inputs": [
        {
          "internalType": "uint256",
          "name": "tokenId",
          "type": "uint256"
        }
      ],
      "name": "getApproved",
      "outputs": [
        {
          "internalType": "address",
          "name": "",
          "type": "address"
        }
      ],
      "stateMutability": "view",
      "type": "function"
    },
    {
      "inputs": [],
      "name": "getCurrentTokenId",
      "outputs": [
        {
          "internalType": "uint256",
          "name": "",
          "type": "uint256"
        }
      ],
      "stateMutability": "view",
      "type": "function"
    },
    {
      "inputs": [
        {
          "internalType": "uint256",
          "name": "tokenId",
          "type": "uint256"
        }
      ],
      "name": "getMetadata",
      "outputs": [
        {
          "internalType": "string",
          "name": "",
          "type": "string"
        }
      ],
      "stateMutability": "view",
      "type": "function"
    },
    {
      "inputs": [],
      "name": "getRemainingSupply",
      "outputs": [
        {
          "internalType": "uint256",
          "name": "",
          "type": "uint256"
        }
      ],
      "stateMutability": "view",
      "type": "function"
    },
    {
      "inputs": [
        {
          "internalType": "address",
          "name": "owner",
          "type": "address"
        },
        {
          "internalType": "address",
          "name": "operator",
          "type": "address"
        }
      ],
      "name": "isApprovedForAll",
      "outputs": [
        {
          "internalType": "bool",
          "name": "",
          "type": "bool"
        }
      ],
      "stateMutability": "view",
      "type": "function"
    },
    {
      "inputs": [],
      "name": "maxSupply",
      "outputs": [
        {
          "internalType": "uint256",
          "name": "",
          "type": "uint256"
        }
      ],
      "stateMutability": "view",
      "type": "function"
    },
    {
      "inputs": [],
      "name": "mintPrice",
      "outputs": [
        {
          "internalType": "uint256",
          "name": "",
          "type": "uint256"
        }
      ],
      "stateMutability": "view",
      "type": "function"
    },
    {
      "inputs": [
        {
          "internalType": "address",
          "name": "to",
          "type": "address"
        },
        {
          "internalType": "string",
          "name": "uri",
          "type": "string"
        },
        {
          "internalType": "string",
          "name": "metadata",
          "type": "string"
        }
      ],
      "name": "mintWithSafariToken",
      "outputs": [
        {
          "internalType": "uint256",
          "name": "",
          "type": "uint256"
        }
      ],
      "stateMutability": "nonpayable",
      "type": "function"
    },
    {
      "inputs": [],
      "name": "name",
      "outputs": [
        {
          "internalType": "string",
          "name": "",
          "type": "string"
        }
      ],
      "stateMutability": "view",
      "type": "function"
    },
    {
      "inputs": [],
      "name": "owner",
      "outputs": [
        {
          "internalType": "address",
          "name": "",
          "type": "address"
        }
      ],
      "stateMutability": "view",
      "type": "function"
    },
    {
      "inputs": [
        {
          "internalType": "address",
          "name": "to",
          "type": "address"
        },
        {
          "internalType": "string",
          "name": "uri",
          "type": "string"
        },
        {
          "internalType": "string",
          "name": "metadata",
          "type": "string"
        }
      ],
      "name": "ownerMint",
      "outputs": [
        {
          "internalType": "uint256",
          "name": "",
          "type": "uint256"
        }
      ],
      "stateMutability": "nonpayable",
      "type": "function"
    },
    {
      "inputs": [
        {
          "internalType": "uint256",
          "name": "tokenId",
          "type": "uint256"
        }
      ],
      "name": "ownerOf",
      "outputs": [
        {
          "internalType": "address",
          "name": "",
          "type": "address"
        }
      ],
      "stateMutability": "view",
      "type": "function"
    },
    {
      "inputs": [],
      "name": "pause",
      "outputs": [],
      "stateMutability": "nonpayable",
      "type": "function"
    },
    {
      "inputs": [],
      "name": "paused",
      "outputs": [
        {
          "internalType": "bool",
          "name": "",
          "type": "bool"
        }
      ],
      "stateMutability": "view",
      "type": "function"
    },
    {
      "inputs": [],
      "name": "renounceOwnership",
      "outputs": [],
      "stateMutability": "nonpayable",
      "type": "function"
    },
    {
      "inputs": [],
      "name": "safariToken",
      "outputs": [
        {
          "internalType": "contract IERC20",
          "name": "",
          "type": "address"
        }
      ],
      "stateMutability": "view",
      "type": "function"
    },
    {
      "inputs": [
        {
          "internalType": "address",
          "name": "from",
          "type": "address"
        },
        {
          "internalType": "address",
          "name": "to",
          "type": "address"
        },
        {
          "internalType": "uint256",
          "name": "tokenId",
          "type": "uint256"
        }
      ],
      "name": "safeTransferFrom",
      "outputs": [],
      "stateMutability": "nonpayable",
      "type": "function"
    },
    {
      "inputs": [
        {
          "internalType": "address",
          "name": "from",
          "type": "address"
        },
        {
          "internalType": "address",
          "name": "to",
          "type": "address"
        },
        {
          "internalType": "uint256",
          "name": "tokenId",
          "type": "uint256"
        },
        {
          "internalType": "bytes",
          "name": "data",
          "type": "bytes"
        }
      ],
      "name": "safeTransferFrom",
      "outputs": [],
      "stateMutability": "nonpayable",
      "type": "function"
    },
    {
      "inputs": [
        {
          "internalType": "address",
          "name": "operator",
          "type": "address"
        },
        {
          "internalType": "bool",
          "name": "approved",
          "type": "bool"
        }
      ],
      "name": "setApprovalForAll",
      "outputs": [],
      "stateMutability": "nonpayable",
      "type": "function"
    },
    {
      "inputs": [
        {
          "internalType": "string",
          "name": "_baseTokenURI",
          "type": "string"
        }
      ],
      "name": "setBaseURI",
      "outputs": [],
      "stateMutability": "nonpayable",
      "type": "function"
    },
    {
      "inputs": [
        {
          "internalType": "uint256",
          "name": "_maxSupply",
          "type": "uint256"
        }
      ],
      "name": "setMaxSupply",
      "outputs": [],
      "stateMutability": "nonpayable",
      "type": "function"
    },
    {
      "inputs": [
        {
          "internalType": "uint256",
          "name": "_mintPrice",
          "type": "uint256"
        }
      ],
      "name": "setMintPrice",
      "outputs": [],
      "stateMutability": "nonpayable",
      "type": "function"
    },
    {
      "inputs": [
        {
          "internalType": "bytes4",
          "name": "interfaceId",
          "type": "bytes4"
        }
      ],
      "name": "supportsInterface",
      "outputs": [
        {
          "internalType": "bool",
          "name": "",
          "type": "bool"
        }
      ],
      "stateMutability": "view",
      "type": "function"
    },
    {
      "inputs": [],
      "name": "symbol",
      "outputs": [
        {
          "internalType": "string",
          "name": "",
          "type": "string"
        }
      ],
      "stateMutability": "view",
      "type": "function"
    },
    {
      "inputs": [
        {
          "internalType": "uint256",
          "name": "index",
          "type": "uint256"
        }
      ],
      "name": "tokenByIndex",
      "outputs": [
        {
          "internalType": "uint256",
          "name": "",
          "type": "uint256"
        }
      ],
      "stateMutability": "view",
      "type": "function"
    },
    {
      "inputs": [
        {
          "internalType": "address",
          "name": "owner",
          "type": "address"
        },
        {
          "internalType": "uint256",
          "name": "index",
          "type": "uint256"
        }
      ],
      "name": "tokenOfOwnerByIndex",
      "outputs": [
        {
          "internalType": "uint256",
          "name": "",
          "type": "uint256"
        }
      ],
      "stateMutability": "view",
      "type": "function"
    },
    {
      "inputs": [
        {
          "internalType": "uint256",
          "name": "tokenId",
          "type": "uint256"
        }
      ],
      "name": "tokenURI",
      "outputs": [
        {
          "internalType": "string",
          "name": "",
          "type": "string"
        }
      ],
      "stateMutability": "view",
      "type": "function"
    },
    {
      "inputs": [],
      "name": "totalSupply",
      "outputs": [
        {
          "internalType": "uint256",
          "name": "",
          "type": "uint256"
        }
      ],
      "stateMutability": "view",
      "type": "function"
    },
    {
      "inputs": [
        {
          "internalType": "address",
          "name": "from",
          "type": "address"
        },
        {
          "internalType": "address",
          "name": "to",
          "type": "address"
        },
        {
          "internalType": "uint256",
          "name": "tokenId",
          "type": "uint256"
        }
      ],
      "name": "transferFrom",
      "outputs": [],
      "stateMutability": "nonpayable",
      "type": "function"
    },
    {
      "inputs": [
        {
          "internalType": "address",
          "name": "newOwner",
          "type": "address"
        }
      ],
      "name": "transferOwnership",
      "outputs": [],
      "stateMutability": "nonpayable",
      "type": "function"
    },
    {
      "inputs": [],
      "name": "unpause",
      "outputs": [],
      "stateMutability": "nonpayable",
      "type": "function"
    },
    {
      "inputs": [
        {
          "internalType": "uint256",
          "name": "tokenId",
          "type": "uint256"
        },
        {
          "internalType": "string",
          "name": "metadata",
          "type": "string"
        }
      ],
      "name": "updateMetadata",
      "outputs": [],
      "stateMutability": "nonpayable",
      "type": "function"
    }
  ],
  "bytecode": "0x60a060405268056bc75e2d63100000600f55612710601055348015610022575f5ffd5b50604051612e97380380612e97833981016040819052610041916101ea565b826040518060400160405280600981526020016814d859985c9a53919560ba1b8152506040518060400160405280600481526020016314d3919560e21b815250815f908161008f919061033f565b50600161009c828261033f565b5050506001600160a01b0381166100cd57604051631e4fbdf760e01b81525f60048201526024015b60405180910390fd5b6100d68161016a565b506001600c556001600160a01b0382166101485760405162461bcd60e51b815260206004820152602d60248201527f5361666172694e46543a20536166617269546f6b656e2061646472657373206360448201526c616e6e6f74206265207a65726f60981b60648201526084016100c4565b6001600160a01b0382166080526011610161828261033f565b505050506103f9565b600b80546001600160a01b038381166001600160a01b0319831681179093556040519116919082907f8be0079c531659141344cd1fd0a4f28419497f9722a3daafe3b4186f6b6457e0905f90a35050565b80516001600160a01b03811681146101d1575f5ffd5b919050565b634e487b7160e01b5f52604160045260245ffd5b5f5f5f606084860312156101fc575f5ffd5b610205846101bb565b9250610213602085016101bb565b60408501519092506001600160401b0381111561022e575f5ffd5b8401601f8101861361023e575f5ffd5b80516001600160401b03811115610257576102576101d6565b604051601f8201601f19908116603f011681016001600160401b0381118282101715610285576102856101d6565b60405281815282820160200188101561029c575f5ffd5b8160208401602083015e5f602083830101528093505050509250925092565b600181811c908216806102cf57607f821691505b6020821081036102ed57634e487b7160e01b5f52602260045260245ffd5b50919050565b601f82111561033a57805f5260205f20601f840160051c810160208510156103185750805b601f840160051c820191505b81811015610337575f8155600101610324565b50505b505050565b81516001600160401b03811115610358576103586101d6565b61036c8161036684546102bb565b846102f3565b6020601f82116001811461039e575f83156103875750848201515b5f19600385901b1c1916600184901b178455610337565b5f84815260208120601f198516915b828110156103cd57878501518255602094850194600190920191016103ad565b50848210156103ea57868401515f19600387901b60f8161c191681555b50505050600190811b01905550565b608051612a6a61042d5f395f81816103ec01528181610715015281816109de01528181610a77015261120e0152612a6a5ff3fe608060405234801561000f575f5ffd5b506004361061021e575f3560e01c80636817c76c1161012a578063a574cea4116100b4578063d5abeb0111610079578063d5abeb011461047d578063e4b7fb7314610486578063e985e9c51461048e578063f2fde38b146104a1578063f4a0a528146104b4575f5ffd5b8063a574cea414610429578063aa2b321b1461043c578063b88d4fde1461044f578063c87b56dd14610462578063d547cfb714610475575f5ffd5b80638456cb59116100fa5780638456cb59146103ce5780638da5cb5b146103d657806392c2a113146103e757806395d89b411461040e578063a22cb46514610416575f5ffd5b80636817c76c146103975780636f8b44b0146103a057806370a08231146103b3578063715018a6146103c6575f5ffd5b80633f4ba83a116101ab57806355f804b31161017b57806355f804b31461034b578063561892361461035e5780635c975abb14610366578063615af50a146103715780636352211e14610384575f5ffd5b80633f4ba83a1461030a57806342842e0e146103125780634f6ccce71461032557806353c8388e14610338575f5ffd5b80630cb03144116101f15780630cb031441461029f5780630d5e34a4146102bf57806318160ddd146102d257806323b872dd146102e45780632f745c59146102f7575f5ffd5b806301ffc9a71461022257806306fdde031461024a578063081812fc1461025f578063095ea7b31461028a575b5f5ffd5b6102356102303660046121d5565b6104c7565b60405190151581526020015b60405180910390f35b6102526104d7565b604051610241919061221e565b61027261026d366004612230565b610566565b6040516001600160a01b039091168152602001610241565b61029d610298366004612262565b61058d565b005b6102b26102ad3660046123e6565b61059c565b6040516102419190612458565b6102356102cd366004612262565b6109aa565b6009545b604051908152602001610241565b61029d6102f236600461249a565b610b08565b6102d6610305366004612262565b610b91565b61029d610bf4565b61029d61032036600461249a565b610c06565b6102d6610333366004612230565b610c25565b61029d6103463660046124d4565b610c7a565b61029d610359366004612517565b610d39565b600e546102d6565b600d5460ff16610235565b6102d661037f366004612548565b610e1a565b610272610392366004612230565b610f52565b6102d6600f5481565b61029d6103ae366004612230565b610f5c565b6102d66103c13660046125b0565b610fe1565b61029d611026565b61029d611037565b600b546001600160a01b0316610272565b6102727f000000000000000000000000000000000000000000000000000000000000000081565b610252611047565b61029d6104243660046125d6565b611056565b610252610437366004612230565b611061565b6102d661044a366004612548565b611162565b61029d61045d36600461260b565b61137e565b610252610470366004612230565b611396565b6102526113a1565b6102d660105481565b6102d661142d565b61023561049c366004612681565b611443565b61029d6104af3660046125b0565b611470565b61029d6104c2366004612230565b6114ad565b5f6104d1826114f3565b92915050565b60605f80546104e5906126b2565b80601f0160208091040260200160405190810160405280929190818152602001828054610511906126b2565b801561055c5780601f106105335761010080835404028352916020019161055c565b820191905f5260205f20905b81548152906001019060200180831161053f57829003601f168201915b5050505050905090565b5f61057082611517565b505f828152600460205260409020546001600160a01b03166104d1565b61059882823361154f565b5050565b60606105a661155c565b6105ae611586565b6001600160a01b0384166105dd5760405162461bcd60e51b81526004016105d4906126ea565b60405180910390fd5b5f83511161063b5760405162461bcd60e51b815260206004820152602560248201527f5361666172694e46543a206d757374206d696e74206174206c65617374206f6e604482015264194813919560da1b60648201526084016105d4565b81518351146106965760405162461bcd60e51b815260206004820152602160248201527f5361666172694e46543a20617272617973206c656e677468206d69736d6174636044820152600d60fb1b60648201526084016105d4565b6010548351600e546106a89190612744565b11156107015760405162461bcd60e51b815260206004820152602260248201527f5361666172694e46543a20776f756c6420657863656564206d617820737570706044820152616c7960f01b60648201526084016105d4565b5f8351600f546107119190612757565b90507f00000000000000000000000000000000000000000000000000000000000000006001600160a01b03166323b872dd33610755600b546001600160a01b031690565b6040516001600160e01b031960e085901b1681526001600160a01b03928316600482015291166024820152604481018490526064016020604051808303815f875af11580156107a6573d5f5f3e3d5ffd5b505050506040513d601f19601f820116820180604052508101906107ca919061276e565b6107e65760405162461bcd60e51b81526004016105d490612789565b5f84516001600160401b038111156108005761080061228a565b604051908082528060200260200182016040528015610829578160200160208202803683370190505b5090505f5b8551811015610995575f86828151811061084a5761084a6127cf565b602002602001015151116108705760405162461bcd60e51b81526004016105d4906127e3565b600e80545f91826108808361281a565b91905055905061089088826115aa565b6108b3818884815181106108a6576108a66127cf565b60200260200101516115c3565b5f8683815181106108c6576108c66127cf565b602002602001015151111561090e578582815181106108e7576108e76127cf565b602002602001015160125f8381526020019081526020015f20908161090c9190612876565b505b80838381518110610921576109216127cf565b60200260200101818152505080886001600160a01b03167f7f9dd5d8fa69e733db2277a568b65a9651a3042da18fb2b5ea1966d3891cbfda89858151811061096b5761096b6127cf565b6020026020010151600f54604051610984929190612930565b60405180910390a35060010161082e565b509150506109a36001600c55565b9392505050565b5f5f82600f546109ba9190612757565b6040516370a0823160e01b81526001600160a01b03868116600483015291925082917f000000000000000000000000000000000000000000000000000000000000000016906370a0823190602401602060405180830381865afa158015610a23573d5f5f3e3d5ffd5b505050506040513d601f19601f82011682018060405250810190610a479190612951565b10158015610ae55750604051636eb1769f60e11b81526001600160a01b03858116600483015230602483015282917f00000000000000000000000000000000000000000000000000000000000000009091169063dd62ed3e90604401602060405180830381865afa158015610abe573d5f5f3e3d5ffd5b505050506040513d601f19601f82011682018060405250810190610ae29190612951565b10155b8015610b00575060105483600e54610afd9190612744565b11155b949350505050565b6001600160a01b038216610b3157604051633250574960e11b81525f60048201526024016105d4565b5f610b3d83833361160b565b9050836001600160a01b0316816001600160a01b031614610b8b576040516364283d7b60e01b81526001600160a01b03808616600483015260248201849052821660448201526064016105d4565b50505050565b5f610b9b83610fe1565b8210610bcc5760405163295f44f760e21b81526001600160a01b0384166004820152602481018390526044016105d4565b506001600160a01b03919091165f908152600760209081526040808320938352929052205490565b610bfc611617565b610c04611644565b565b610c2083838360405180602001604052805f81525061137e565b505050565b5f610c2f60095490565b8210610c575760405163295f44f760e21b81525f6004820152602481018390526044016105d4565b60098281548110610c6a57610c6a6127cf565b905f5260205f2001549050919050565b610c82611617565b5f828152600260205260409020546001600160a01b0316610ce55760405162461bcd60e51b815260206004820152601f60248201527f5361666172694e46543a20746f6b656e20646f6573206e6f742065786973740060448201526064016105d4565b5f828152601260205260409020610cfc8282612876565b50817f459157ba24c7ab9878b165ef465fa6ae2ab42bcd8445f576be378768b0c4730982604051610d2d919061221e565b60405180910390a25050565b610d41611617565b5f60118054610d4f906126b2565b80601f0160208091040260200160405190810160405280929190818152602001828054610d7b906126b2565b8015610dc65780601f10610d9d57610100808354040283529160200191610dc6565b820191905f5260205f20905b815481529060010190602001808311610da957829003601f168201915b505050505090508160119081610ddc9190612876565b507f309b29ded109b9e28fb9885757b3e0096eb75c51d23aa4635d68bcd569f6adc18183604051610e0e929190612968565b60405180910390a15050565b5f610e23611617565b6001600160a01b038416610e495760405162461bcd60e51b81526004016105d4906126ea565b601054600e5410610e9c5760405162461bcd60e51b815260206004820152601d60248201527f5361666172694e46543a206d617820737570706c79207265616368656400000060448201526064016105d4565b5f835111610ebc5760405162461bcd60e51b81526004016105d4906127e3565b600e80545f9182610ecc8361281a565b919050559050610edc85826115aa565b610ee681856115c3565b825115610f06575f818152601260205260409020610f048482612876565b505b80856001600160a01b03167f7f9dd5d8fa69e733db2277a568b65a9651a3042da18fb2b5ea1966d3891cbfda865f604051610f42929190612930565b60405180910390a3949350505050565b5f6104d182611517565b610f64611617565b600e54811015610fdc5760405162461bcd60e51b815260206004820152603860248201527f5361666172694e46543a206d617820737570706c792063616e6e6f742062652060448201527f6c657373207468616e2063757272656e7420737570706c79000000000000000060648201526084016105d4565b601055565b5f6001600160a01b03821661100b576040516322718ad960e21b81525f60048201526024016105d4565b506001600160a01b03165f9081526003602052604090205490565b61102e611617565b610c045f611696565b61103f611617565b610c046116e7565b6060600180546104e5906126b2565b610598338383611724565b5f818152600260205260409020546060906001600160a01b03166110c75760405162461bcd60e51b815260206004820152601f60248201527f5361666172694e46543a20746f6b656e20646f6573206e6f742065786973740060448201526064016105d4565b5f82815260126020526040902080546110df906126b2565b80601f016020809104026020016040519081016040528092919081815260200182805461110b906126b2565b80156111565780601f1061112d57610100808354040283529160200191611156565b820191905f5260205f20905b81548152906001019060200180831161113957829003601f168201915b50505050509050919050565b5f61116b61155c565b611173611586565b6001600160a01b0384166111995760405162461bcd60e51b81526004016105d4906126ea565b601054600e54106111ec5760405162461bcd60e51b815260206004820152601d60248201527f5361666172694e46543a206d617820737570706c79207265616368656400000060448201526064016105d4565b5f83511161120c5760405162461bcd60e51b81526004016105d4906127e3565b7f00000000000000000000000000000000000000000000000000000000000000006001600160a01b03166323b872dd3361124e600b546001600160a01b031690565b600f546040516001600160e01b031960e086901b1681526001600160a01b03938416600482015292909116602483015260448201526064016020604051808303815f875af11580156112a2573d5f5f3e3d5ffd5b505050506040513d601f19601f820116820180604052508101906112c6919061276e565b6112e25760405162461bcd60e51b81526004016105d490612789565b600e80545f91826112f28361281a565b91905055905061130285826115aa565b61130c81856115c3565b82511561132c575f81815260126020526040902061132a8482612876565b505b80856001600160a01b03167f7f9dd5d8fa69e733db2277a568b65a9651a3042da18fb2b5ea1966d3891cbfda86600f5460405161136a929190612930565b60405180910390a390506109a36001600c55565b611389848484610b08565b610b8b33858585856117c2565b60606104d1826118ea565b601180546113ae906126b2565b80601f01602080910402602001604051908101604052809291908181526020018280546113da906126b2565b80156114255780601f106113fc57610100808354040283529160200191611425565b820191905f5260205f20905b81548152906001019060200180831161140857829003601f168201915b505050505081565b5f600e5460105461143e9190612995565b905090565b6001600160a01b039182165f90815260056020908152604080832093909416825291909152205460ff1690565b611478611617565b6001600160a01b0381166114a157604051631e4fbdf760e01b81525f60048201526024016105d4565b6114aa81611696565b50565b6114b5611617565b600f80549082905560408051828152602081018490527f2e1c9e000c6e8dda4d03536adb13b7cb6034ccff90d17f01de381e4d5097b5259101610e0e565b5f6001600160e01b0319821663780e9d6360e01b14806104d157506104d1826119e1565b5f818152600260205260408120546001600160a01b0316806104d157604051637e27328960e01b8152600481018490526024016105d4565b610c208383836001611a05565b6002600c540361157f57604051633ee5aeb560e01b815260040160405180910390fd5b6002600c55565b600d5460ff1615610c045760405163d93c066560e01b815260040160405180910390fd5b610598828260405180602001604052805f815250611b09565b5f8281526006602052604090206115da8282612876565b506040518281527ff8e1a15aba9398e019f0b49df1a4fde98ee17ae345cb5f6b5e2c27f5033e8ce790602001610e0e565b5f610b00848484611b20565b600b546001600160a01b03163314610c045760405163118cdaa760e01b81523360048201526024016105d4565b61164c611beb565b600d805460ff191690557f5db9ee0a495bf2e6ff9c91a7834c1ba4fdd244a5e8aa4e537bd38aeae4b073aa335b6040516001600160a01b03909116815260200160405180910390a1565b600b80546001600160a01b038381166001600160a01b0319831681179093556040519116919082907f8be0079c531659141344cd1fd0a4f28419497f9722a3daafe3b4186f6b6457e0905f90a35050565b6116ef611586565b600d805460ff191660011790557f62e78cea01bee320cd4e420270b5ea74000d11b0c9f74754ebdbfc544b05a2586116793390565b6001600160a01b03821661175657604051630b61174360e31b81526001600160a01b03831660048201526024016105d4565b6001600160a01b038381165f81815260056020908152604080832094871680845294825291829020805460ff191686151590811790915591519182527f17307eab39ab6107e8899845ad3d59bd9653f200f220920489ca2b5937696c31910160405180910390a3505050565b6001600160a01b0383163b156118e357604051630a85bd0160e11b81526001600160a01b0384169063150b7a02906118049088908890879087906004016129a8565b6020604051808303815f875af192505050801561183e575060408051601f3d908101601f1916820190925261183b918101906129da565b60015b6118a5573d80801561186b576040519150601f19603f3d011682016040523d82523d5f602084013e611870565b606091505b5080515f0361189d57604051633250574960e11b81526001600160a01b03851660048201526024016105d4565b805160208201fd5b6001600160e01b03198116630a85bd0160e11b146118e157604051633250574960e11b81526001600160a01b03851660048201526024016105d4565b505b5050505050565b60606118f582611517565b505f828152600660205260408120805461190e906126b2565b80601f016020809104026020016040519081016040528092919081815260200182805461193a906126b2565b80156119855780601f1061195c57610100808354040283529160200191611985565b820191905f5260205f20905b81548152906001019060200180831161196857829003601f168201915b505050505090505f611995611c0e565b905080515f036119a6575092915050565b8151156119d85780826040516020016119c0929190612a0c565b60405160208183030381529060405292505050919050565b610b0084611c1d565b5f6001600160e01b03198216632483248360e11b14806104d157506104d182611c81565b8080611a1957506001600160a01b03821615155b15611ada575f611a2884611517565b90506001600160a01b03831615801590611a545750826001600160a01b0316816001600160a01b031614155b8015611a675750611a658184611443565b155b15611a905760405163a9fbf51f60e01b81526001600160a01b03841660048201526024016105d4565b8115611ad85783856001600160a01b0316826001600160a01b03167f8c5be1e5ebec7d5bd14f71427d1e84f3dd0314c0f7b2291e5b200ac8c7c3b92560405160405180910390a45b505b50505f90815260046020526040902080546001600160a01b0319166001600160a01b0392909216919091179055565b611b138383611cd0565b610c20335f8585856117c2565b5f5f611b2d858585611d31565b90506001600160a01b038116611b8957611b8484600980545f838152600a60205260408120829055600182018355919091527f6e1540171b6c0c960b71a7020d9f60077f6af931a8bbf590da0223dacf75c7af0155565b611bac565b846001600160a01b0316816001600160a01b031614611bac57611bac8185611e23565b6001600160a01b038516611bc857611bc384611ea0565b610b00565b846001600160a01b0316816001600160a01b031614610b0057610b008585611f47565b600d5460ff16610c0457604051638dfc202b60e01b815260040160405180910390fd5b6060601180546104e5906126b2565b6060611c2882611517565b505f611c32611c0e565b90505f815111611c505760405180602001604052805f8152506109a3565b80611c5a84611f95565b604051602001611c6b929190612a0c565b6040516020818303038152906040529392505050565b5f6001600160e01b031982166380ac58cd60e01b1480611cb157506001600160e01b03198216635b5e139f60e01b145b806104d157506301ffc9a760e01b6001600160e01b03198316146104d1565b6001600160a01b038216611cf957604051633250574960e11b81525f60048201526024016105d4565b5f611d0583835f61160b565b90506001600160a01b03811615610c20576040516339e3563760e11b81525f60048201526024016105d4565b5f828152600260205260408120546001600160a01b0390811690831615611d5d57611d5d818486612024565b6001600160a01b03811615611d9757611d785f855f5f611a05565b6001600160a01b0381165f90815260036020526040902080545f190190555b6001600160a01b03851615611dc5576001600160a01b0385165f908152600360205260409020805460010190555b5f8481526002602052604080822080546001600160a01b0319166001600160a01b0389811691821790925591518793918516917fddf252ad1be2c89b69c2b068fc378daa952ba7f163c4a11628f55a4df523b3ef91a4949350505050565b5f611e2d83610fe1565b5f838152600860209081526040808320546001600160a01b0388168452600790925290912091925090818314611e82575f83815260208281526040808320548584528184208190558352600890915290208290555b5f938452600860209081526040808620869055938552525081205550565b6009545f90611eb190600190612995565b5f838152600a602052604081205460098054939450909284908110611ed857611ed86127cf565b905f5260205f20015490508060098381548110611ef757611ef76127cf565b5f918252602080832090910192909255828152600a90915260408082208490558582528120556009805480611f2e57611f2e612a20565b600190038181905f5260205f20015f9055905550505050565b5f6001611f5384610fe1565b611f5d9190612995565b6001600160a01b039093165f908152600760209081526040808320868452825280832085905593825260089052919091209190915550565b60605f611fa183612088565b60010190505f816001600160401b03811115611fbf57611fbf61228a565b6040519080825280601f01601f191660200182016040528015611fe9576020820181803683370190505b5090508181016020015b5f19016f181899199a1a9b1b9c1cb0b131b232b360811b600a86061a8153600a8504945084611ff357509392505050565b61202f83838361215f565b610c20576001600160a01b03831661205d57604051637e27328960e01b8152600481018290526024016105d4565b60405163177e802f60e01b81526001600160a01b0383166004820152602481018290526044016105d4565b5f8072184f03e93ff9f4daa797ed6e38ed64bf6a1f0160401b83106120c65772184f03e93ff9f4daa797ed6e38ed64bf6a1f0160401b830492506040015b6d04ee2d6d415b85acef810000000083106120f2576d04ee2d6d415b85acef8100000000830492506020015b662386f26fc10000831061211057662386f26fc10000830492506010015b6305f5e1008310612128576305f5e100830492506008015b612710831061213c57612710830492506004015b6064831061214e576064830492506002015b600a83106104d15760010192915050565b5f6001600160a01b03831615801590610b005750826001600160a01b0316846001600160a01b0316148061219857506121988484611443565b80610b005750505f908152600460205260409020546001600160a01b03908116911614919050565b6001600160e01b0319811681146114aa575f5ffd5b5f602082840312156121e5575f5ffd5b81356109a3816121c0565b5f81518084528060208401602086015e5f602082860101526020601f19601f83011685010191505092915050565b602081525f6109a360208301846121f0565b5f60208284031215612240575f5ffd5b5035919050565b80356001600160a01b038116811461225d575f5ffd5b919050565b5f5f60408385031215612273575f5ffd5b61227c83612247565b946020939093013593505050565b634e487b7160e01b5f52604160045260245ffd5b604051601f8201601f191681016001600160401b03811182821017156122c6576122c661228a565b604052919050565b5f5f6001600160401b038411156122e7576122e761228a565b50601f8301601f19166020016122fc8161229e565b915050828152838383011115612310575f5ffd5b828260208301375f602084830101529392505050565b5f82601f830112612335575f5ffd5b6109a3838335602085016122ce565b5f82601f830112612353575f5ffd5b81356001600160401b0381111561236c5761236c61228a565b8060051b61237c6020820161229e565b91825260208185018101929081019086841115612397575f5ffd5b6020860192505b838310156123dc5782356001600160401b038111156123bb575f5ffd5b6123ca886020838a0101612326565b8352506020928301929091019061239e565b9695505050505050565b5f5f5f606084860312156123f8575f5ffd5b61240184612247565b925060208401356001600160401b0381111561241b575f5ffd5b61242786828701612344565b92505060408401356001600160401b03811115612442575f5ffd5b61244e86828701612344565b9150509250925092565b602080825282518282018190525f918401906040840190835b8181101561248f578351835260209384019390920191600101612471565b509095945050505050565b5f5f5f606084860312156124ac575f5ffd5b6124b584612247565b92506124c360208501612247565b929592945050506040919091013590565b5f5f604083850312156124e5575f5ffd5b8235915060208301356001600160401b03811115612501575f5ffd5b61250d85828601612326565b9150509250929050565b5f60208284031215612527575f5ffd5b81356001600160401b0381111561253c575f5ffd5b610b0084828501612326565b5f5f5f6060848603121561255a575f5ffd5b61256384612247565b925060208401356001600160401b0381111561257d575f5ffd5b61258986828701612326565b92505060408401356001600160401b038111156125a4575f5ffd5b61244e86828701612326565b5f602082840312156125c0575f5ffd5b6109a382612247565b80151581146114aa575f5ffd5b5f5f604083850312156125e7575f5ffd5b6125f083612247565b91506020830135612600816125c9565b809150509250929050565b5f5f5f5f6080858703121561261e575f5ffd5b61262785612247565b935061263560208601612247565b92506040850135915060608501356001600160401b03811115612656575f5ffd5b8501601f81018713612666575f5ffd5b612675878235602084016122ce565b91505092959194509250565b5f5f60408385031215612692575f5ffd5b61269b83612247565b91506126a960208401612247565b90509250929050565b600181811c908216806126c657607f821691505b6020821081036126e457634e487b7160e01b5f52602260045260245ffd5b50919050565b60208082526026908201527f5361666172694e46543a2063616e6e6f74206d696e7420746f207a65726f206160408201526564647265737360d01b606082015260800190565b634e487b7160e01b5f52601160045260245ffd5b808201808211156104d1576104d1612730565b80820281158282048414176104d1576104d1612730565b5f6020828403121561277e575f5ffd5b81516109a3816125c9565b60208082526026908201527f5361666172694e46543a20536166617269546f6b656e207472616e736665722060408201526519985a5b195960d21b606082015260800190565b634e487b7160e01b5f52603260045260245ffd5b6020808252601e908201527f5361666172694e46543a205552492063616e6e6f7420626520656d7074790000604082015260600190565b5f6001820161282b5761282b612730565b5060010190565b601f821115610c2057805f5260205f20601f840160051c810160208510156128575750805b601f840160051c820191505b818110156118e3575f8155600101612863565b81516001600160401b0381111561288f5761288f61228a565b6128a38161289d84546126b2565b84612832565b6020601f8211600181146128d5575f83156128be5750848201515b5f19600385901b1c1916600184901b1784556118e3565b5f84815260208120601f198516915b8281101561290457878501518255602094850194600190920191016128e4565b508482101561292157868401515f19600387901b60f8161c191681555b50505050600190811b01905550565b604081525f61294260408301856121f0565b90508260208301529392505050565b5f60208284031215612961575f5ffd5b5051919050565b604081525f61297a60408301856121f0565b828103602084015261298c81856121f0565b95945050505050565b818103818111156104d1576104d1612730565b6001600160a01b03858116825284166020820152604081018390526080606082018190525f906123dc908301846121f0565b5f602082840312156129ea575f5ffd5b81516109a3816121c0565b5f81518060208401855e5f93019283525090919050565b5f610b00612a1a83866129f5565b846129f5565b634e487b7160e01b5f52603160045260245ffdfea2646970667358221220d6eb6d8bd0c57e8594edfb800c23e61966ff6e7083f6d03099e7d7443d314f8c64736f6c634300081c0033",
  "linkReferences": {},
  "deployedLinkReferences": {},
  "immutableReferences": {
    "9256": [
      {
        "length": 32,
        "start": 1004
      },
      {
        "length": 32,
        "start": 1813
      },
      {
        "length": 32,
        "start": 2526
      },
      {
        "length": 32,
        "start": 2679
      },
      {
        "length": 32,
        "start": 4622
      }
    ]
  },
  "inputSourceName": "project/contracts/SafariNFT.sol",
  "buildInfoId": "solc-0_8_28-7def84fdeb39c3b8b706528aa3598a6c5a8ff5e3"
}