{
  "_format": "hh3-artifact-1",
  "contractName": "SafariVerseNFT",
  "sourceName": "contracts/SafariVerseNFT.sol",
  "abi": [
    {
      "inputs": [
        {
          "internalType": "string",
          "name": "name_",
          "type": "string"
        },
        {
          "internalType": "string",
          "name": "symbol_",
          "type": "string"
        },
        {
          "internalType": "address",
          "name": "initialOwner",
          "type": "address"
        }
      ],
      "stateMutability": "nonpayable",
      "type": "constructor"
    },
    {
      "inputs": [
        {
          "internalType": "address",
          "name": "sender",
          "type": "address"
        },
        {
          "internalType": "uint256",
          "name": "tokenId",
          "type": "uint256"
        },
        {
          "internalType": "address",
          "name": "owner",
          "type": "address"
        }
      ],
      "name": "ERC721IncorrectOwner",
      "type": "error"
    },
    {
      "inputs": [
        {
          "internalType": "address",
          "name": "operator",
          "type": "address"
        },
        {
          "internalType": "uint256",
          "name": "tokenId",
          "type": "uint256"
        }
      ],
      "name": "ERC721InsufficientApproval",
      "type": "error"
    },
    {
      "inputs": [
        {
          "internalType": "address",
          "name": "approver",
          "type": "address"
        }
      ],
      "name": "ERC721InvalidApprover",
      "type": "error"
    },
    {
      "inputs": [
        {
          "internalType": "address",
          "name": "operator",
          "type": "address"
        }
      ],
      "name": "ERC721InvalidOperator",
      "type": "error"
    },
    {
      "inputs": [
        {
          "internalType": "address",
          "name": "owner",
          "type": "address"
        }
      ],
      "name": "ERC721InvalidOwner",
      "type": "error"
    },
    {
      "inputs": [
        {
          "internalType": "address",
          "name": "receiver",
          "type": "address"
        }
      ],
      "name": "ERC721InvalidReceiver",
      "type": "error"
    },
    {
      "inputs": [
        {
          "internalType": "address",
          "name": "sender",
          "type": "address"
        }
      ],
      "name": "ERC721InvalidSender",
      "type": "error"
    },
    {
      "inputs": [
        {
          "internalType": "uint256",
          "name": "tokenId",
          "type": "uint256"
        }
      ],
      "name": "ERC721NonexistentToken",
      "type": "error"
    },
    {
      "inputs": [
        {
          "internalType": "address",
          "name": "owner",
          "type": "address"
        }
      ],
      "name": "OwnableInvalidOwner",
      "type": "error"
    },
    {
      "inputs": [
        {
          "internalType": "address",
          "name": "account",
          "type": "address"
        }
      ],
      "name": "OwnableUnauthorizedAccount",
      "type": "error"
    },
    {
      "anonymous": false,
      "inputs": [
        {
          "indexed": true,
          "internalType": "address",
          "name": "owner",
          "type": "address"
        },
        {
          "indexed": true,
          "internalType": "address",
          "name": "approved",
          "type": "address"
        },
        {
          "indexed": true,
          "internalType": "uint256",
          "name": "tokenId",
          "type": "uint256"
        }
      ],
      "name": "Approval",
      "type": "event"
    },
    {
      "anonymous": false,
      "inputs": [
        {
          "indexed": true,
          "internalType": "address",
          "name": "owner",
          "type": "address"
        },
        {
          "indexed": true,
          "internalType": "address",
          "name": "operator",
          "type": "address"
        },
        {
          "indexed": false,
          "internalType": "bool",
          "name": "approved",
          "type": "bool"
        }
      ],
      "name": "ApprovalForAll",
      "type": "event"
    },
    {
      "anonymous": false,
      "inputs": [
        {
          "indexed": false,
          "internalType": "uint256",
          "name": "_fromTokenId",
          "type": "uint256"
        },
        {
          "indexed": false,
          "internalType": "uint256",
          "name": "_toTokenId",
          "type": "uint256"
        }
      ],
      "name": "BatchMetadataUpdate",
      "type": "event"
    },
    {
      "anonymous": false,
      "inputs": [
        {
          "indexed": false,
          "internalType": "uint256",
          "name": "_tokenId",
          "type": "uint256"
        }
      ],
      "name": "MetadataUpdate",
      "type": "event"
    },
    {
      "anonymous": false,
      "inputs": [
        {
          "indexed": true,
          "internalType": "uint256",
          "name": "tokenId",
          "type": "uint256"
        },
        {
          "indexed": true,
          "internalType": "address",
          "name": "minter",
          "type": "address"
        },
        {
          "indexed": false,
          "internalType": "string",
          "name": "fileUrl",
          "type": "string"
        },
        {
          "indexed": false,
          "internalType": "string",
          "name": "title",
          "type": "string"
        },
        {
          "indexed": false,
          "internalType": "uint256",
          "name": "price",
          "type": "uint256"
        }
      ],
      "name": "Minted",
      "type": "event"
    },
    {
      "anonymous": false,
      "inputs": [
        {
          "indexed": true,
          "internalType": "address",
          "name": "previousOwner",
          "type": "address"
        },
        {
          "indexed": true,
          "internalType": "address",
          "name": "newOwner",
          "type": "address"
        }
      ],
      "name": "OwnershipTransferred",
      "type": "event"
    },
    {
      "anonymous": false,
      "inputs": [
        {
          "indexed": true,
          "internalType": "address",
          "name": "from",
          "type": "address"
        },
        {
          "indexed": true,
          "internalType": "address",
          "name": "to",
          "type": "address"
        },
        {
          "indexed": true,
          "internalType": "uint256",
          "name": "tokenId",
          "type": "uint256"
        }
      ],
      "name": "Transfer",
      "type": "event"
    },
    {
      "inputs": [
        {
          "internalType": "address",
          "name": "to",
          "type": "address"
        },
        {
          "internalType": "uint256",
          "name": "tokenId",
          "type": "uint256"
        }
      ],
      "name": "approve",
      "outputs": [],
      "stateMutability": "nonpayable",
      "type": "function"
    },
    {
      "inputs": [
        {
          "internalType": "address",
          "name": "owner",
          "type": "address"
        }
      ],
      "name": "balanceOf",
      "outputs": [
        {
          "internalType": "uint256",
          "name": "",
          "type": "uint256"
        }
      ],
      "stateMutability": "view",
      "type": "function"
    },
    {
      "inputs": [
        {
          "internalType": "uint256",
          "name": "tokenId",
          "type": "uint256"
        }
      ],
      "name": "getApproved",
      "outputs": [
        {
          "internalType": "address",
          "name": "",
          "type": "address"
        }
      ],
      "stateMutability": "view",
      "type": "function"
    },
    {
      "inputs": [
        {
          "internalType": "address",
          "name": "minter",
          "type": "address"
        }
      ],
      "name": "getMintedTokens",
      "outputs": [
        {
          "internalType": "uint256[]",
          "name": "tokenIds",
          "type": "uint256[]"
        },
        {
          "components": [
            {
              "internalType": "string",
              "name": "fileUrl",
              "type": "string"
            },
            {
              "internalType": "string",
              "name": "title",
              "type": "string"
            },
            {
              "internalType": "string",
              "name": "description",
              "type": "string"
            },
            {
              "internalType": "uint256",
              "name": "price",
              "type": "uint256"
            },
            {
              "internalType": "address",
              "name": "minter",
              "type": "address"
            },
            {
              "internalType": "uint64",
              "name": "mintedAt",
              "type": "uint64"
            }
          ],
          "internalType": "struct SafariVerseNFT.TokenData[]",
          "name": "data",
          "type": "tuple[]"
        }
      ],
      "stateMutability": "view",
      "type": "function"
    },
    {
      "inputs": [
        {
          "internalType": "uint256",
          "name": "tokenId",
          "type": "uint256"
        }
      ],
      "name": "getTokenData",
      "outputs": [
        {
          "components": [
            {
              "internalType": "string",
              "name": "fileUrl",
              "type": "string"
            },
            {
              "internalType": "string",
              "name": "title",
              "type": "string"
            },
            {
              "internalType": "string",
              "name": "description",
              "type": "string"
            },
            {
              "internalType": "uint256",
              "name": "price",
              "type": "uint256"
            },
            {
              "internalType": "address",
              "name": "minter",
              "type": "address"
            },
            {
              "internalType": "uint64",
              "name": "mintedAt",
              "type": "uint64"
            }
          ],
          "internalType": "struct SafariVerseNFT.TokenData",
          "name": "",
          "type": "tuple"
        }
      ],
      "stateMutability": "view",
      "type": "function"
    },
    {
      "inputs": [
        {
          "internalType": "address",
          "name": "owner",
          "type": "address"
        },
        {
          "internalType": "address",
          "name": "operator",
          "type": "address"
        }
      ],
      "name": "isApprovedForAll",
      "outputs": [
        {
          "internalType": "bool",
          "name": "",
          "type": "bool"
        }
      ],
      "stateMutability": "view",
      "type": "function"
    },
    {
      "inputs": [
        {
          "internalType": "string",
          "name": "fileUrl",
          "type": "string"
        },
        {
          "internalType": "string",
          "name": "title",
          "type": "string"
        },
        {
          "internalType": "string",
          "name": "description",
          "type": "string"
        },
        {
          "internalType": "uint256",
          "name": "price",
          "type": "uint256"
        }
      ],
      "name": "mint",
      "outputs": [
        {
          "internalType": "uint256",
          "name": "tokenId",
          "type": "uint256"
        }
      ],
      "stateMutability": "nonpayable",
      "type": "function"
    },
    {
      "inputs": [
        {
          "internalType": "address",
          "name": "to",
          "type": "address"
        },
        {
          "internalType": "string",
          "name": "fileUrl",
          "type": "string"
        },
        {
          "internalType": "string",
          "name": "title",
          "type": "string"
        },
        {
          "internalType": "string",
          "name": "description",
          "type": "string"
        },
        {
          "internalType": "uint256",
          "name": "price",
          "type": "uint256"
        }
      ],
      "name": "mintTo",
      "outputs": [
        {
          "internalType": "uint256",
          "name": "tokenId",
          "type": "uint256"
        }
      ],
      "stateMutability": "nonpayable",
      "type": "function"
    },
    {
      "inputs": [],
      "name": "myMintedTokens",
      "outputs": [
        {
          "internalType": "uint256[]",
          "name": "tokenIds",
          "type": "uint256[]"
        },
        {
          "components": [
            {
              "internalType": "string",
              "name": "fileUrl",
              "type": "string"
            },
            {
              "internalType": "string",
              "name": "title",
              "type": "string"
            },
            {
              "internalType": "string",
              "name": "description",
              "type": "string"
            },
            {
              "internalType": "uint256",
              "name": "price",
              "type": "uint256"
            },
            {
              "internalType": "address",
              "name": "minter",
              "type": "address"
            },
            {
              "internalType": "uint64",
              "name": "mintedAt",
              "type": "uint64"
            }
          ],
          "internalType": "struct SafariVerseNFT.TokenData[]",
          "name": "data",
          "type": "tuple[]"
        }
      ],
      "stateMutability": "view",
      "type": "function"
    },
    {
      "inputs": [],
      "name": "name",
      "outputs": [
        {
          "internalType": "string",
          "name": "",
          "type": "string"
        }
      ],
      "stateMutability": "view",
      "type": "function"
    },
    {
      "inputs": [],
      "name": "nextTokenId",
      "outputs": [
        {
          "internalType": "uint256",
          "name": "",
          "type": "uint256"
        }
      ],
      "stateMutability": "view",
      "type": "function"
    },
    {
      "inputs": [],
      "name": "owner",
      "outputs": [
        {
          "internalType": "address",
          "name": "",
          "type": "address"
        }
      ],
      "stateMutability": "view",
      "type": "function"
    },
    {
      "inputs": [
        {
          "internalType": "uint256",
          "name": "tokenId",
          "type": "uint256"
        }
      ],
      "name": "ownerOf",
      "outputs": [
        {
          "internalType": "address",
          "name": "",
          "type": "address"
        }
      ],
      "stateMutability": "view",
      "type": "function"
    },
    {
      "inputs": [],
      "name": "renounceOwnership",
      "outputs": [],
      "stateMutability": "nonpayable",
      "type": "function"
    },
    {
      "inputs": [
        {
          "internalType": "address",
          "name": "from",
          "type": "address"
        },
        {
          "internalType": "address",
          "name": "to",
          "type": "address"
        },
        {
          "internalType": "uint256",
          "name": "tokenId",
          "type": "uint256"
        }
      ],
      "name": "safeTransferFrom",
      "outputs": [],
      "stateMutability": "nonpayable",
      "type": "function"
    },
    {
      "inputs": [
        {
          "internalType": "address",
          "name": "from",
          "type": "address"
        },
        {
          "internalType": "address",
          "name": "to",
          "type": "address"
        },
        {
          "internalType": "uint256",
          "name": "tokenId",
          "type": "uint256"
        },
        {
          "internalType": "bytes",
          "name": "data",
          "type": "bytes"
        }
      ],
      "name": "safeTransferFrom",
      "outputs": [],
      "stateMutability": "nonpayable",
      "type": "function"
    },
    {
      "inputs": [
        {
          "internalType": "address",
          "name": "operator",
          "type": "address"
        },
        {
          "internalType": "bool",
          "name": "approved",
          "type": "bool"
        }
      ],
      "name": "setApprovalForAll",
      "outputs": [],
      "stateMutability": "nonpayable",
      "type": "function"
    },
    {
      "inputs": [
        {
          "internalType": "bytes4",
          "name": "interfaceId",
          "type": "bytes4"
        }
      ],
      "name": "supportsInterface",
      "outputs": [
        {
          "internalType": "bool",
          "name": "",
          "type": "bool"
        }
      ],
      "stateMutability": "view",
      "type": "function"
    },
    {
      "inputs": [],
      "name": "symbol",
      "outputs": [
        {
          "internalType": "string",
          "name": "",
          "type": "string"
        }
      ],
      "stateMutability": "view",
      "type": "function"
    },
    {
      "inputs": [
        {
          "internalType": "uint256",
          "name": "tokenId",
          "type": "uint256"
        }
      ],
      "name": "tokenURI",
      "outputs": [
        {
          "internalType": "string",
          "name": "",
          "type": "string"
        }
      ],
      "stateMutability": "view",
      "type": "function"
    },
    {
      "inputs": [
        {
          "internalType": "address",
          "name": "minter",
          "type": "address"
        }
      ],
      "name": "tokensMintedBy",
      "outputs": [
        {
          "internalType": "uint256[]",
          "name": "",
          "type": "uint256[]"
        }
      ],
      "stateMutability": "view",
      "type": "function"
    },
    {
      "inputs": [
        {
          "internalType": "address",
          "name": "from",
          "type": "address"
        },
        {
          "internalType": "address",
          "name": "to",
          "type": "address"
        },
        {
          "internalType": "uint256",
          "name": "tokenId",
          "type": "uint256"
        }
      ],
      "name": "transferFrom",
      "outputs": [],
      "stateMutability": "nonpayable",
      "type": "function"
    },
    {
      "inputs": [
        {
          "internalType": "address",
          "name": "newOwner",
          "type": "address"
        }
      ],
      "name": "transferOwnership",
      "outputs": [],
      "stateMutability": "nonpayable",
      "type": "function"
    },
    {
      "inputs": [
        {
          "internalType": "uint256",
          "name": "tokenId",
          "type": "uint256"
        },
        {
          "internalType": "uint256",
          "name": "newPrice",
          "type": "uint256"
        }
      ],
      "name": "updatePrice",
      "outputs": [],
      "stateMutability": "nonpayable",
      "type": "function"
    }
  ],
  "bytecode": "0x608060405234801561000f575f5ffd5b5060405161433038038061433083398181016040528101906100319190610347565b808383815f908161004291906105df565b50806001908161005291906105df565b5050505f73ffffffffffffffffffffffffffffffffffffffff168173ffffffffffffffffffffffffffffffffffffffff16036100c5575f6040517f1e4fbdf70000000000000000000000000000000000000000000000000000000081526004016100bc91906106bd565b60405180910390fd5b6100d4816100dd60201b60201c565b505050506106d6565b5f60075f9054906101000a900473ffffffffffffffffffffffffffffffffffffffff1690508160075f6101000a81548173ffffffffffffffffffffffffffffffffffffffff021916908373ffffffffffffffffffffffffffffffffffffffff1602179055508173ffffffffffffffffffffffffffffffffffffffff168173ffffffffffffffffffffffffffffffffffffffff167f8be0079c531659141344cd1fd0a4f28419497f9722a3daafe3b4186f6b6457e060405160405180910390a35050565b5f604051905090565b5f5ffd5b5f5ffd5b5f5ffd5b5f5ffd5b5f601f19601f8301169050919050565b7f4e487b71000000000000000000000000000000000000000000000000000000005f52604160045260245ffd5b6101ff826101b9565b810181811067ffffffffffffffff8211171561021e5761021d6101c9565b5b80604052505050565b5f6102306101a0565b905061023c82826101f6565b919050565b5f67ffffffffffffffff82111561025b5761025a6101c9565b5b610264826101b9565b9050602081019050919050565b8281835e5f83830152505050565b5f61029161028c84610241565b610227565b9050828152602081018484840111156102ad576102ac6101b5565b5b6102b8848285610271565b509392505050565b5f82601f8301126102d4576102d36101b1565b5b81516102e484826020860161027f565b91505092915050565b5f73ffffffffffffffffffffffffffffffffffffffff82169050919050565b5f610316826102ed565b9050919050565b6103268161030c565b8114610330575f5ffd5b50565b5f815190506103418161031d565b92915050565b5f5f5f6060848603121561035e5761035d6101a9565b5b5f84015167ffffffffffffffff81111561037b5761037a6101ad565b5b610387868287016102c0565b935050602084015167ffffffffffffffff8111156103a8576103a76101ad565b5b6103b4868287016102c0565b92505060406103c586828701610333565b9150509250925092565b5f81519050919050565b7f4e487b71000000000000000000000000000000000000000000000000000000005f52602260045260245ffd5b5f600282049050600182168061041d57607f821691505b6020821081036104305761042f6103d9565b5b50919050565b5f819050815f5260205f209050919050565b5f6020601f8301049050919050565b5f82821b905092915050565b5f600883026104927fffffffffffffffffffffffffffffffffffffffffffffffffffffffffffffffff82610457565b61049c8683610457565b95508019841693508086168417925050509392505050565b5f819050919050565b5f819050919050565b5f6104e06104db6104d6846104b4565b6104bd565b6104b4565b9050919050565b5f819050919050565b6104f9836104c6565b61050d610505826104e7565b848454610463565b825550505050565b5f5f905090565b610524610515565b61052f8184846104f0565b505050565b5b81811015610552576105475f8261051c565b600181019050610535565b5050565b601f8211156105975761056881610436565b61057184610448565b81016020851015610580578190505b61059461058c85610448565b830182610534565b50505b505050565b5f82821c905092915050565b5f6105b75f198460080261059c565b1980831691505092915050565b5f6105cf83836105a8565b9150826002028217905092915050565b6105e8826103cf565b67ffffffffffffffff811115610601576106006101c9565b5b61060b8254610406565b610616828285610556565b5f60209050601f831160018114610647575f8415610635578287015190505b61063f85826105c4565b8655506106a6565b601f19841661065586610436565b5f5b8281101561067c57848901518255600182019150602085019450602081019050610657565b868310156106995784890151610695601f8916826105a8565b8355505b6001600288020188555050505b505050505050565b6106b78161030c565b82525050565b5f6020820190506106d05f8301846106ae565b92915050565b613c4d806106e35f395ff3fe608060405234801561000f575f5ffd5b5060043610610156575f3560e01c806375794a3c116100c1578063b09afec11161007a578063b09afec1146103d8578063b88d4fde14610408578063c87b56dd14610424578063e985e9c514610454578063ed9abff314610484578063f2fde38b146104b457610156565b806375794a3c1461032757806382367b2d146103455780638da5cb5b1461036157806395d89b411461037f57806399179e661461039d578063a22cb465146103bc57610156565b806331b6475c1161011357806331b6475c1461024057806342842e0e14610270578063434a49a11461028c5780636352211e146102bd57806370a08231146102ed578063715018a61461031d57610156565b806301ffc9a71461015a57806306fdde031461018a578063081812fc146101a8578063095ea7b3146101d857806323b872dd146101f45780632a0c779914610210575b5f5ffd5b610174600480360381019061016f9190612ab4565b6104d0565b6040516101819190612af9565b60405180910390f35b610192610530565b60405161019f9190612b82565b60405180910390f35b6101c260048036038101906101bd9190612bd5565b6105bf565b6040516101cf9190612c3f565b60405180910390f35b6101f260048036038101906101ed9190612c82565b6105da565b005b61020e60048036038101906102099190612cc0565b6105f0565b005b61022a60048036038101906102259190612d10565b6106ef565b6040516102379190612df2565b60405180910390f35b61025a60048036038101906102559190612e73565b610782565b6040516102679190612f46565b60405180910390f35b61028a60048036038101906102859190612cc0565b610a9c565b005b6102a660048036038101906102a19190612d10565b610abb565b6040516102b4929190613127565b60405180910390f35b6102d760048036038101906102d29190612bd5565b610ad0565b6040516102e49190612c3f565b60405180910390f35b61030760048036038101906103029190612d10565b610ae1565b6040516103149190612f46565b60405180910390f35b610325610b97565b005b61032f610baa565b60405161033c9190612f46565b60405180910390f35b61035f600480360381019061035a919061315c565b610bbf565b005b610369610d03565b6040516103769190612c3f565b60405180910390f35b610387610d2b565b6040516103949190612b82565b60405180910390f35b6103a5610dbb565b6040516103b3929190613127565b60405180910390f35b6103d660048036038101906103d191906131c4565b610dcf565b005b6103f260048036038101906103ed9190612bd5565b610de5565b6040516103ff9190613296565b60405180910390f35b610422600480360381019061041d91906133de565b6110c6565b005b61043e60048036038101906104399190612bd5565b6110eb565b60405161044b9190612b82565b60405180910390f35b61046e6004803603810190610469919061345e565b6111f6565b60405161047b9190612af9565b60405180910390f35b61049e6004803603810190610499919061349c565b611284565b6040516104ab9190612f46565b60405180910390f35b6104ce60048036038101906104c99190612d10565b6115a7565b005b5f634906490660e01b7bffffffffffffffffffffffffffffffffffffffffffffffffffffffff1916827bffffffffffffffffffffffffffffffffffffffffffffffffffffffff1916148061052957506105288261162b565b5b9050919050565b60605f805461053e906135a0565b80601f016020809104026020016040519081016040528092919081815260200182805461056a906135a0565b80156105b55780601f1061058c576101008083540402835291602001916105b5565b820191905f5260205f20905b81548152906001019060200180831161059857829003601f168201915b5050505050905090565b5f6105c98261170c565b506105d382611792565b9050919050565b6105ec82826105e76117cb565b6117d2565b5050565b5f73ffffffffffffffffffffffffffffffffffffffff168273ffffffffffffffffffffffffffffffffffffffff1603610660575f6040517f64a0ae920000000000000000000000000000000000000000000000000000000081526004016106579190612c3f565b60405180910390fd5b5f610673838361066e6117cb565b6117e4565b90508373ffffffffffffffffffffffffffffffffffffffff168173ffffffffffffffffffffffffffffffffffffffff16146106e9578382826040517f64283d7b0000000000000000000000000000000000000000000000000000000081526004016106e0939291906135d0565b60405180910390fd5b50505050565b6060600a5f8373ffffffffffffffffffffffffffffffffffffffff1673ffffffffffffffffffffffffffffffffffffffff1681526020019081526020015f2080548060200260200160405190810160405280929190818152602001828054801561077657602002820191905f5260205f20905b815481526020019060010190808311610762575b50505050509050919050565b5f60085f815461079190613632565b91905081905590506107a333826119ef565b6107f08189898080601f0160208091040260200160405190810160405280939291908181526020018383808284375f81840152601f19601f82011690508083019250505050505050611a0c565b6040518060c0016040528089898080601f0160208091040260200160405190810160405280939291908181526020018383808284375f81840152601f19601f82011690508083019250505050505050815260200187878080601f0160208091040260200160405190810160405280939291908181526020018383808284375f81840152601f19601f82011690508083019250505050505050815260200185858080601f0160208091040260200160405190810160405280939291908181526020018383808284375f81840152601f19601f8201169050808301925050505050505081526020018381526020013373ffffffffffffffffffffffffffffffffffffffff1681526020014267ffffffffffffffff1681525060095f8381526020019081526020015f205f820151815f01908161092a9190613819565b5060208201518160010190816109409190613819565b5060408201518160020190816109569190613819565b50606082015181600301556080820151816004015f6101000a81548173ffffffffffffffffffffffffffffffffffffffff021916908373ffffffffffffffffffffffffffffffffffffffff16021790555060a08201518160040160146101000a81548167ffffffffffffffff021916908367ffffffffffffffff160217905550905050600a5f3373ffffffffffffffffffffffffffffffffffffffff1673ffffffffffffffffffffffffffffffffffffffff1681526020019081526020015f2081908060018154018082558091505060019003905f5260205f20015f90919091909150553373ffffffffffffffffffffffffffffffffffffffff16817faebd3278d0c08570969e316946ffb3c9c5e0c493ecae571b1718891b633ff03b8a8a8a8a88604051610a89959493929190613914565b60405180910390a3979650505050505050565b610ab683838360405180602001604052805f8152506110c6565b505050565b606080610ac783611a66565b91509150915091565b5f610ada8261170c565b9050919050565b5f5f73ffffffffffffffffffffffffffffffffffffffff168273ffffffffffffffffffffffffffffffffffffffff1603610b52575f6040517f89c62b64000000000000000000000000000000000000000000000000000000008152600401610b499190612c3f565b60405180910390fd5b60035f8373ffffffffffffffffffffffffffffffffffffffff1673ffffffffffffffffffffffffffffffffffffffff1681526020019081526020015f20549050919050565b610b9f611e0b565b610ba85f611e92565b565b5f6001600854610bba919061395b565b905090565b5f60095f8481526020019081526020015f2090505f73ffffffffffffffffffffffffffffffffffffffff16816004015f9054906101000a900473ffffffffffffffffffffffffffffffffffffffff1673ffffffffffffffffffffffffffffffffffffffff1603610c64576040517f08c379a0000000000000000000000000000000000000000000000000000000008152600401610c5b906139d8565b60405180910390fd5b3373ffffffffffffffffffffffffffffffffffffffff16816004015f9054906101000a900473ffffffffffffffffffffffffffffffffffffffff1673ffffffffffffffffffffffffffffffffffffffff1614610cf5576040517f08c379a0000000000000000000000000000000000000000000000000000000008152600401610cec90613a40565b60405180910390fd5b818160030181905550505050565b5f60075f9054906101000a900473ffffffffffffffffffffffffffffffffffffffff16905090565b606060018054610d3a906135a0565b80601f0160208091040260200160405190810160405280929190818152602001828054610d66906135a0565b8015610db15780601f10610d8857610100808354040283529160200191610db1565b820191905f5260205f20905b815481529060010190602001808311610d9457829003601f168201915b5050505050905090565b606080610dc733611a66565b915091509091565b610de1610dda6117cb565b8383611f55565b5050565b610ded6129fb565b5f73ffffffffffffffffffffffffffffffffffffffff16610e0d836120be565b73ffffffffffffffffffffffffffffffffffffffff1603610e63576040517f08c379a0000000000000000000000000000000000000000000000000000000008152600401610e5a906139d8565b60405180910390fd5b60095f8381526020019081526020015f206040518060c00160405290815f82018054610e8e906135a0565b80601f0160208091040260200160405190810160405280929190818152602001828054610eba906135a0565b8015610f055780601f10610edc57610100808354040283529160200191610f05565b820191905f5260205f20905b815481529060010190602001808311610ee857829003601f168201915b50505050508152602001600182018054610f1e906135a0565b80601f0160208091040260200160405190810160405280929190818152602001828054610f4a906135a0565b8015610f955780601f10610f6c57610100808354040283529160200191610f95565b820191905f5260205f20905b815481529060010190602001808311610f7857829003601f168201915b50505050508152602001600282018054610fae906135a0565b80601f0160208091040260200160405190810160405280929190818152602001828054610fda906135a0565b80156110255780601f10610ffc57610100808354040283529160200191611025565b820191905f5260205f20905b81548152906001019060200180831161100857829003601f168201915b5050505050815260200160038201548152602001600482015f9054906101000a900473ffffffffffffffffffffffffffffffffffffffff1673ffffffffffffffffffffffffffffffffffffffff1673ffffffffffffffffffffffffffffffffffffffff1681526020016004820160149054906101000a900467ffffffffffffffff1667ffffffffffffffff1667ffffffffffffffff16815250509050919050565b6110d18484846105f0565b6110e56110dc6117cb565b858585856120f7565b50505050565b60606110f68261170c565b505f60065f8481526020019081526020015f208054611114906135a0565b80601f0160208091040260200160405190810160405280929190818152602001828054611140906135a0565b801561118b5780601f106111625761010080835404028352916020019161118b565b820191905f5260205f20905b81548152906001019060200180831161116e57829003601f168201915b505050505090505f61119b6122a3565b90505f8151036111af5781925050506111f1565b5f825111156111e35780826040516020016111cb929190613a98565b604051602081830303815290604052925050506111f1565b6111ec846122b9565b925050505b919050565b5f60055f8473ffffffffffffffffffffffffffffffffffffffff1673ffffffffffffffffffffffffffffffffffffffff1681526020019081526020015f205f8373ffffffffffffffffffffffffffffffffffffffff1673ffffffffffffffffffffffffffffffffffffffff1681526020019081526020015f205f9054906101000a900460ff16905092915050565b5f61128d611e0b565b60085f815461129b90613632565b91905081905590506112ad89826119ef565b6112fa8189898080601f0160208091040260200160405190810160405280939291908181526020018383808284375f81840152601f19601f82011690508083019250505050505050611a0c565b6040518060c0016040528089898080601f0160208091040260200160405190810160405280939291908181526020018383808284375f81840152601f19601f82011690508083019250505050505050815260200187878080601f0160208091040260200160405190810160405280939291908181526020018383808284375f81840152601f19601f82011690508083019250505050505050815260200185858080601f0160208091040260200160405190810160405280939291908181526020018383808284375f81840152601f19601f8201169050808301925050505050505081526020018381526020018a73ffffffffffffffffffffffffffffffffffffffff1681526020014267ffffffffffffffff1681525060095f8381526020019081526020015f205f820151815f0190816114349190613819565b50602082015181600101908161144a9190613819565b5060408201518160020190816114609190613819565b50606082015181600301556080820151816004015f6101000a81548173ffffffffffffffffffffffffffffffffffffffff021916908373ffffffffffffffffffffffffffffffffffffffff16021790555060a08201518160040160146101000a81548167ffffffffffffffff021916908367ffffffffffffffff160217905550905050600a5f8a73ffffffffffffffffffffffffffffffffffffffff1673ffffffffffffffffffffffffffffffffffffffff1681526020019081526020015f2081908060018154018082558091505060019003905f5260205f20015f90919091909150558873ffffffffffffffffffffffffffffffffffffffff16817faebd3278d0c08570969e316946ffb3c9c5e0c493ecae571b1718891b633ff03b8a8a8a8a88604051611593959493929190613914565b60405180910390a398975050505050505050565b6115af611e0b565b5f73ffffffffffffffffffffffffffffffffffffffff168173ffffffffffffffffffffffffffffffffffffffff160361161f575f6040517f1e4fbdf70000000000000000000000000000000000000000000000000000000081526004016116169190612c3f565b60405180910390fd5b61162881611e92565b50565b5f7f80ac58cd000000000000000000000000000000000000000000000000000000007bffffffffffffffffffffffffffffffffffffffffffffffffffffffff1916827bffffffffffffffffffffffffffffffffffffffffffffffffffffffff191614806116f557507f5b5e139f000000000000000000000000000000000000000000000000000000007bffffffffffffffffffffffffffffffffffffffffffffffffffffffff1916827bffffffffffffffffffffffffffffffffffffffffffffffffffffffff1916145b8061170557506117048261231f565b5b9050919050565b5f5f611717836120be565b90505f73ffffffffffffffffffffffffffffffffffffffff168173ffffffffffffffffffffffffffffffffffffffff160361178957826040517f7e2732890000000000000000000000000000000000000000000000000000000081526004016117809190612f46565b60405180910390fd5b80915050919050565b5f60045f8381526020019081526020015f205f9054906101000a900473ffffffffffffffffffffffffffffffffffffffff169050919050565b5f33905090565b6117df8383836001612388565b505050565b5f5f6117ef846120be565b90505f73ffffffffffffffffffffffffffffffffffffffff168373ffffffffffffffffffffffffffffffffffffffff16146118305761182f818486612547565b5b5f73ffffffffffffffffffffffffffffffffffffffff168173ffffffffffffffffffffffffffffffffffffffff16146118bb5761186f5f855f5f612388565b600160035f8373ffffffffffffffffffffffffffffffffffffffff1673ffffffffffffffffffffffffffffffffffffffff1681526020019081526020015f205f82825403925050819055505b5f73ffffffffffffffffffffffffffffffffffffffff168573ffffffffffffffffffffffffffffffffffffffff161461193a57600160035f8773ffffffffffffffffffffffffffffffffffffffff1673ffffffffffffffffffffffffffffffffffffffff1681526020019081526020015f205f82825401925050819055505b8460025f8681526020019081526020015f205f6101000a81548173ffffffffffffffffffffffffffffffffffffffff021916908373ffffffffffffffffffffffffffffffffffffffff160217905550838573ffffffffffffffffffffffffffffffffffffffff168273ffffffffffffffffffffffffffffffffffffffff167fddf252ad1be2c89b69c2b068fc378daa952ba7f163c4a11628f55a4df523b3ef60405160405180910390a4809150509392505050565b611a08828260405180602001604052805f81525061260a565b5050565b8060065f8481526020019081526020015f209081611a2a9190613819565b507ff8e1a15aba9398e019f0b49df1a4fde98ee17ae345cb5f6b5e2c27f5033e8ce782604051611a5a9190612f46565b60405180910390a15050565b6060805f600a5f8573ffffffffffffffffffffffffffffffffffffffff1673ffffffffffffffffffffffffffffffffffffffff1681526020019081526020015f20805480602002602001604051908101604052809291908181526020018280548015611aef57602002820191905f5260205f20905b815481526020019060010190808311611adb575b505050505090505f815167ffffffffffffffff811115611b1257611b116132ba565b5b604051908082528060200260200182016040528015611b4b57816020015b611b386129fb565b815260200190600190039081611b305790505b5090505f5f90505b8251811015611dfd5760095f848381518110611b7257611b71613abb565b5b602002602001015181526020019081526020015f206040518060c00160405290815f82018054611ba1906135a0565b80601f0160208091040260200160405190810160405280929190818152602001828054611bcd906135a0565b8015611c185780601f10611bef57610100808354040283529160200191611c18565b820191905f5260205f20905b815481529060010190602001808311611bfb57829003601f168201915b50505050508152602001600182018054611c31906135a0565b80601f0160208091040260200160405190810160405280929190818152602001828054611c5d906135a0565b8015611ca85780601f10611c7f57610100808354040283529160200191611ca8565b820191905f5260205f20905b815481529060010190602001808311611c8b57829003601f168201915b50505050508152602001600282018054611cc1906135a0565b80601f0160208091040260200160405190810160405280929190818152602001828054611ced906135a0565b8015611d385780601f10611d0f57610100808354040283529160200191611d38565b820191905f5260205f20905b815481529060010190602001808311611d1b57829003601f168201915b5050505050815260200160038201548152602001600482015f9054906101000a900473ffffffffffffffffffffffffffffffffffffffff1673ffffffffffffffffffffffffffffffffffffffff1673ffffffffffffffffffffffffffffffffffffffff1681526020016004820160149054906101000a900467ffffffffffffffff1667ffffffffffffffff1667ffffffffffffffff1681525050828281518110611de557611de4613abb565b5b60200260200101819052508080600101915050611b53565b508181935093505050915091565b611e136117cb565b73ffffffffffffffffffffffffffffffffffffffff16611e31610d03565b73ffffffffffffffffffffffffffffffffffffffff1614611e9057611e546117cb565b6040517f118cdaa7000000000000000000000000000000000000000000000000000000008152600401611e879190612c3f565b60405180910390fd5b565b5f60075f9054906101000a900473ffffffffffffffffffffffffffffffffffffffff1690508160075f6101000a81548173ffffffffffffffffffffffffffffffffffffffff021916908373ffffffffffffffffffffffffffffffffffffffff1602179055508173ffffffffffffffffffffffffffffffffffffffff168173ffffffffffffffffffffffffffffffffffffffff167f8be0079c531659141344cd1fd0a4f28419497f9722a3daafe3b4186f6b6457e060405160405180910390a35050565b5f73ffffffffffffffffffffffffffffffffffffffff168273ffffffffffffffffffffffffffffffffffffffff1603611fc557816040517f5b08ba18000000000000000000000000000000000000000000000000000000008152600401611fbc9190612c3f565b60405180910390fd5b8060055f8573ffffffffffffffffffffffffffffffffffffffff1673ffffffffffffffffffffffffffffffffffffffff1681526020019081526020015f205f8473ffffffffffffffffffffffffffffffffffffffff1673ffffffffffffffffffffffffffffffffffffffff1681526020019081526020015f205f6101000a81548160ff0219169083151502179055508173ffffffffffffffffffffffffffffffffffffffff168373ffffffffffffffffffffffffffffffffffffffff167f17307eab39ab6107e8899845ad3d59bd9653f200f220920489ca2b5937696c31836040516120b19190612af9565b60405180910390a3505050565b5f60025f8381526020019081526020015f205f9054906101000a900473ffffffffffffffffffffffffffffffffffffffff169050919050565b5f8373ffffffffffffffffffffffffffffffffffffffff163b111561229c578273ffffffffffffffffffffffffffffffffffffffff1663150b7a02868685856040518563ffffffff1660e01b81526004016121559493929190613b3a565b6020604051808303815f875af192505050801561219057506040513d601f19601f8201168201806040525081019061218d9190613b98565b60015b612211573d805f81146121be576040519150601f19603f3d011682016040523d82523d5f602084013e6121c3565b606091505b505f81510361220957836040517f64a0ae920000000000000000000000000000000000000000000000000000000081526004016122009190612c3f565b60405180910390fd5b805160208201fd5b63150b7a0260e01b7bffffffffffffffffffffffffffffffffffffffffffffffffffffffff1916817bffffffffffffffffffffffffffffffffffffffffffffffffffffffff19161461229a57836040517f64a0ae920000000000000000000000000000000000000000000000000000000081526004016122919190612c3f565b60405180910390fd5b505b5050505050565b606060405180602001604052805f815250905090565b60606122c48261170c565b505f6122ce6122a3565b90505f8151116122ec5760405180602001604052805f815250612317565b806122f68461262d565b604051602001612307929190613a98565b6040516020818303038152906040525b915050919050565b5f7f01ffc9a7000000000000000000000000000000000000000000000000000000007bffffffffffffffffffffffffffffffffffffffffffffffffffffffff1916827bffffffffffffffffffffffffffffffffffffffffffffffffffffffff1916149050919050565b80806123c057505f73ffffffffffffffffffffffffffffffffffffffff168273ffffffffffffffffffffffffffffffffffffffff1614155b156124f2575f6123cf8461170c565b90505f73ffffffffffffffffffffffffffffffffffffffff168373ffffffffffffffffffffffffffffffffffffffff161415801561243957508273ffffffffffffffffffffffffffffffffffffffff168173ffffffffffffffffffffffffffffffffffffffff1614155b801561244c575061244a81846111f6565b155b1561248e57826040517fa9fbf51f0000000000000000000000000000000000000000000000000000000081526004016124859190612c3f565b60405180910390fd5b81156124f057838573ffffffffffffffffffffffffffffffffffffffff168273ffffffffffffffffffffffffffffffffffffffff167f8c5be1e5ebec7d5bd14f71427d1e84f3dd0314c0f7b2291e5b200ac8c7c3b92560405160405180910390a45b505b8360045f8581526020019081526020015f205f6101000a81548173ffffffffffffffffffffffffffffffffffffffff021916908373ffffffffffffffffffffffffffffffffffffffff16021790555050505050565b6125528383836126f7565b612605575f73ffffffffffffffffffffffffffffffffffffffff168373ffffffffffffffffffffffffffffffffffffffff16036125c657806040517f7e2732890000000000000000000000000000000000000000000000000000000081526004016125bd9190612f46565b60405180910390fd5b81816040517f177e802f0000000000000000000000000000000000000000000000000000000081526004016125fc929190613bc3565b60405180910390fd5b505050565b61261483836127b7565b61262861261f6117cb565b5f8585856120f7565b505050565b60605f600161263b846128aa565b0190505f8167ffffffffffffffff811115612659576126586132ba565b5b6040519080825280601f01601f19166020018201604052801561268b5781602001600182028036833780820191505090505b5090505f82602083010190505b6001156126ec578080600190039150507f3031323334353637383961626364656600000000000000000000000000000000600a86061a8153600a85816126e1576126e0613bea565b5b0494505f8503612698575b819350505050919050565b5f5f73ffffffffffffffffffffffffffffffffffffffff168373ffffffffffffffffffffffffffffffffffffffff16141580156127ae57508273ffffffffffffffffffffffffffffffffffffffff168473ffffffffffffffffffffffffffffffffffffffff16148061276f575061276e84846111f6565b5b806127ad57508273ffffffffffffffffffffffffffffffffffffffff1661279583611792565b73ffffffffffffffffffffffffffffffffffffffff16145b5b90509392505050565b5f73ffffffffffffffffffffffffffffffffffffffff168273ffffffffffffffffffffffffffffffffffffffff1603612827575f6040517f64a0ae9200000000000000000000000000000000000000000000000000000000815260040161281e9190612c3f565b60405180910390fd5b5f61283383835f6117e4565b90505f73ffffffffffffffffffffffffffffffffffffffff168173ffffffffffffffffffffffffffffffffffffffff16146128a5575f6040517f73c6ac6e00000000000000000000000000000000000000000000000000000000815260040161289c9190612c3f565b60405180910390fd5b505050565b5f5f5f90507a184f03e93ff9f4daa797ed6e38ed64bf6a1f0100000000000000008310612906577a184f03e93ff9f4daa797ed6e38ed64bf6a1f01000000000000000083816128fc576128fb613bea565b5b0492506040810190505b6d04ee2d6d415b85acef81000000008310612943576d04ee2d6d415b85acef8100000000838161293957612938613bea565b5b0492506020810190505b662386f26fc10000831061297257662386f26fc10000838161296857612967613bea565b5b0492506010810190505b6305f5e100831061299b576305f5e100838161299157612990613bea565b5b0492506008810190505b61271083106129c05761271083816129b6576129b5613bea565b5b0492506004810190505b606483106129e357606483816129d9576129d8613bea565b5b0492506002810190505b600a83106129f2576001810190505b80915050919050565b6040518060c001604052806060815260200160608152602001606081526020015f81526020015f73ffffffffffffffffffffffffffffffffffffffff1681526020015f67ffffffffffffffff1681525090565b5f604051905090565b5f5ffd5b5f5ffd5b5f7fffffffff0000000000000000000000000000000000000000000000000000000082169050919050565b612a9381612a5f565b8114612a9d575f5ffd5b50565b5f81359050612aae81612a8a565b92915050565b5f60208284031215612ac957612ac8612a57565b5b5f612ad684828501612aa0565b91505092915050565b5f8115159050919050565b612af381612adf565b82525050565b5f602082019050612b0c5f830184612aea565b92915050565b5f81519050919050565b5f82825260208201905092915050565b8281835e5f83830152505050565b5f601f19601f8301169050919050565b5f612b5482612b12565b612b5e8185612b1c565b9350612b6e818560208601612b2c565b612b7781612b3a565b840191505092915050565b5f6020820190508181035f830152612b9a8184612b4a565b905092915050565b5f819050919050565b612bb481612ba2565b8114612bbe575f5ffd5b50565b5f81359050612bcf81612bab565b92915050565b5f60208284031215612bea57612be9612a57565b5b5f612bf784828501612bc1565b91505092915050565b5f73ffffffffffffffffffffffffffffffffffffffff82169050919050565b5f612c2982612c00565b9050919050565b612c3981612c1f565b82525050565b5f602082019050612c525f830184612c30565b92915050565b612c6181612c1f565b8114612c6b575f5ffd5b50565b5f81359050612c7c81612c58565b92915050565b5f5f60408385031215612c9857612c97612a57565b5b5f612ca585828601612c6e565b9250506020612cb685828601612bc1565b9150509250929050565b5f5f5f60608486031215612cd757612cd6612a57565b5b5f612ce486828701612c6e565b9350506020612cf586828701612c6e565b9250506040612d0686828701612bc1565b9150509250925092565b5f60208284031215612d2557612d24612a57565b5b5f612d3284828501612c6e565b91505092915050565b5f81519050919050565b5f82825260208201905092915050565b5f819050602082019050919050565b612d6d81612ba2565b82525050565b5f612d7e8383612d64565b60208301905092915050565b5f602082019050919050565b5f612da082612d3b565b612daa8185612d45565b9350612db583612d55565b805f5b83811015612de5578151612dcc8882612d73565b9750612dd783612d8a565b925050600181019050612db8565b5085935050505092915050565b5f6020820190508181035f830152612e0a8184612d96565b905092915050565b5f5ffd5b5f5ffd5b5f5ffd5b5f5f83601f840112612e3357612e32612e12565b5b8235905067ffffffffffffffff811115612e5057612e4f612e16565b5b602083019150836001820283011115612e6c57612e6b612e1a565b5b9250929050565b5f5f5f5f5f5f5f6080888a031215612e8e57612e8d612a57565b5b5f88013567ffffffffffffffff811115612eab57612eaa612a5b565b5b612eb78a828b01612e1e565b9750975050602088013567ffffffffffffffff811115612eda57612ed9612a5b565b5b612ee68a828b01612e1e565b9550955050604088013567ffffffffffffffff811115612f0957612f08612a5b565b5b612f158a828b01612e1e565b93509350506060612f288a828b01612bc1565b91505092959891949750929550565b612f4081612ba2565b82525050565b5f602082019050612f595f830184612f37565b92915050565b5f81519050919050565b5f82825260208201905092915050565b5f819050602082019050919050565b5f82825260208201905092915050565b5f612fa282612b12565b612fac8185612f88565b9350612fbc818560208601612b2c565b612fc581612b3a565b840191505092915050565b612fd981612c1f565b82525050565b5f67ffffffffffffffff82169050919050565b612ffb81612fdf565b82525050565b5f60c083015f8301518482035f86015261301b8282612f98565b915050602083015184820360208601526130358282612f98565b9150506040830151848203604086015261304f8282612f98565b91505060608301516130646060860182612d64565b5060808301516130776080860182612fd0565b5060a083015161308a60a0860182612ff2565b508091505092915050565b5f6130a08383613001565b905092915050565b5f602082019050919050565b5f6130be82612f5f565b6130c88185612f69565b9350836020820285016130da85612f79565b805f5b8581101561311557848403895281516130f68582613095565b9450613101836130a8565b925060208a019950506001810190506130dd565b50829750879550505050505092915050565b5f6040820190508181035f83015261313f8185612d96565b9050818103602083015261315381846130b4565b90509392505050565b5f5f6040838503121561317257613171612a57565b5b5f61317f85828601612bc1565b925050602061319085828601612bc1565b9150509250929050565b6131a381612adf565b81146131ad575f5ffd5b50565b5f813590506131be8161319a565b92915050565b5f5f604083850312156131da576131d9612a57565b5b5f6131e785828601612c6e565b92505060206131f8858286016131b0565b9150509250929050565b5f60c083015f8301518482035f86015261321c8282612f98565b915050602083015184820360208601526132368282612f98565b915050604083015184820360408601526132508282612f98565b91505060608301516132656060860182612d64565b5060808301516132786080860182612fd0565b5060a083015161328b60a0860182612ff2565b508091505092915050565b5f6020820190508181035f8301526132ae8184613202565b905092915050565b5f5ffd5b7f4e487b71000000000000000000000000000000000000000000000000000000005f52604160045260245ffd5b6132f082612b3a565b810181811067ffffffffffffffff8211171561330f5761330e6132ba565b5b80604052505050565b5f613321612a4e565b905061332d82826132e7565b919050565b5f67ffffffffffffffff82111561334c5761334b6132ba565b5b61335582612b3a565b9050602081019050919050565b828183375f83830152505050565b5f61338261337d84613332565b613318565b90508281526020810184848401111561339e5761339d6132b6565b5b6133a9848285613362565b509392505050565b5f82601f8301126133c5576133c4612e12565b5b81356133d5848260208601613370565b91505092915050565b5f5f5f5f608085870312156133f6576133f5612a57565b5b5f61340387828801612c6e565b945050602061341487828801612c6e565b935050604061342587828801612bc1565b925050606085013567ffffffffffffffff81111561344657613445612a5b565b5b613452878288016133b1565b91505092959194509250565b5f5f6040838503121561347457613473612a57565b5b5f61348185828601612c6e565b925050602061349285828601612c6e565b9150509250929050565b5f5f5f5f5f5f5f5f60a0898b0312156134b8576134b7612a57565b5b5f6134c58b828c01612c6e565b985050602089013567ffffffffffffffff8111156134e6576134e5612a5b565b5b6134f28b828c01612e1e565b9750975050604089013567ffffffffffffffff81111561351557613514612a5b565b5b6135218b828c01612e1e565b9550955050606089013567ffffffffffffffff81111561354457613543612a5b565b5b6135508b828c01612e1e565b935093505060806135638b828c01612bc1565b9150509295985092959890939650565b7f4e487b71000000000000000000000000000000000000000000000000000000005f52602260045260245ffd5b5f60028204905060018216806135b757607f821691505b6020821081036135ca576135c9613573565b5b50919050565b5f6060820190506135e35f830186612c30565b6135f06020830185612f37565b6135fd6040830184612c30565b949350505050565b7f4e487b71000000000000000000000000000000000000000000000000000000005f52601160045260245ffd5b5f61363c82612ba2565b91507fffffffffffffffffffffffffffffffffffffffffffffffffffffffffffffffff820361366e5761366d613605565b5b600182019050919050565b5f819050815f5260205f209050919050565b5f6020601f8301049050919050565b5f82821b905092915050565b5f600883026136d57fffffffffffffffffffffffffffffffffffffffffffffffffffffffffffffffff8261369a565b6136df868361369a565b95508019841693508086168417925050509392505050565b5f819050919050565b5f61371a61371561371084612ba2565b6136f7565b612ba2565b9050919050565b5f819050919050565b61373383613700565b61374761373f82613721565b8484546136a6565b825550505050565b5f5f905090565b61375e61374f565b61376981848461372a565b505050565b5b8181101561378c576137815f82613756565b60018101905061376f565b5050565b601f8211156137d1576137a281613679565b6137ab8461368b565b810160208510156137ba578190505b6137ce6137c68561368b565b83018261376e565b50505b505050565b5f82821c905092915050565b5f6137f15f19846008026137d6565b1980831691505092915050565b5f61380983836137e2565b9150826002028217905092915050565b61382282612b12565b67ffffffffffffffff81111561383b5761383a6132ba565b5b61384582546135a0565b613850828285613790565b5f60209050601f831160018114613881575f841561386f578287015190505b61387985826137fe565b8655506138e0565b601f19841661388f86613679565b5f5b828110156138b657848901518255600182019150602085019450602081019050613891565b868310156138d357848901516138cf601f8916826137e2565b8355505b6001600288020188555050505b505050505050565b5f6138f38385612b1c565b9350613900838584613362565b61390983612b3a565b840190509392505050565b5f6060820190508181035f83015261392d8187896138e8565b905081810360208301526139428185876138e8565b90506139516040830184612f37565b9695505050505050565b5f61396582612ba2565b915061397083612ba2565b925082820190508082111561398857613987613605565b5b92915050565b7f53564e46543a206e6f6e6578697374656e7420746f6b656e00000000000000005f82015250565b5f6139c2601883612b1c565b91506139cd8261398e565b602082019050919050565b5f6020820190508181035f8301526139ef816139b6565b9050919050565b7f53564e46543a206f6e6c79206d696e74657200000000000000000000000000005f82015250565b5f613a2a601283612b1c565b9150613a35826139f6565b602082019050919050565b5f6020820190508181035f830152613a5781613a1e565b9050919050565b5f81905092915050565b5f613a7282612b12565b613a7c8185613a5e565b9350613a8c818560208601612b2c565b80840191505092915050565b5f613aa38285613a68565b9150613aaf8284613a68565b91508190509392505050565b7f4e487b71000000000000000000000000000000000000000000000000000000005f52603260045260245ffd5b5f81519050919050565b5f82825260208201905092915050565b5f613b0c82613ae8565b613b168185613af2565b9350613b26818560208601612b2c565b613b2f81612b3a565b840191505092915050565b5f608082019050613b4d5f830187612c30565b613b5a6020830186612c30565b613b676040830185612f37565b8181036060830152613b798184613b02565b905095945050505050565b5f81519050613b9281612a8a565b92915050565b5f60208284031215613bad57613bac612a57565b5b5f613bba84828501613b84565b91505092915050565b5f604082019050613bd65f830185612c30565b613be36020830184612f37565b9392505050565b7f4e487b71000000000000000000000000000000000000000000000000000000005f52601260045260245ffdfea264697066735822122083b170ffbda3e7a8e30a68c19e05d311cecf7c4aef1c7ae506e7dc10c08fbdbc64736f6c634300081c0033",
  "linkReferences": {},
  "deployedLinkReferences": {},
  "immutableReferences": {},
  "inputSourceName": "project/contracts/SafariVerseNFT.sol",
  "buildInfoId": "solc-0_8_28-3f05255eba531ddc1a7de5e46e4e8f46d57a8bdd"
}