{
  "_format": "hh3-artifact-1",
  "contractName": "SafariVerseNFT",
  "sourceName": "contracts/SafariVerseNFT.sol",
  "abi": [
    {
      "inputs": [
        {
          "internalType": "string",
          "name": "name_",
          "type": "string"
        },
        {
          "internalType": "string",
          "name": "symbol_",
          "type": "string"
        },
        {
          "internalType": "address",
          "name": "initialOwner",
          "type": "address"
        }
      ],
      "stateMutability": "nonpayable",
      "type": "constructor"
    },
    {
      "inputs": [
        {
          "internalType": "address",
          "name": "sender",
          "type": "address"
        },
        {
          "internalType": "uint256",
          "name": "tokenId",
          "type": "uint256"
        },
        {
          "internalType": "address",
          "name": "owner",
          "type": "address"
        }
      ],
      "name": "ERC721IncorrectOwner",
      "type": "error"
    },
    {
      "inputs": [
        {
          "internalType": "address",
          "name": "operator",
          "type": "address"
        },
        {
          "internalType": "uint256",
          "name": "tokenId",
          "type": "uint256"
        }
      ],
      "name": "ERC721InsufficientApproval",
      "type": "error"
    },
    {
      "inputs": [
        {
          "internalType": "address",
          "name": "approver",
          "type": "address"
        }
      ],
      "name": "ERC721InvalidApprover",
      "type": "error"
    },
    {
      "inputs": [
        {
          "internalType": "address",
          "name": "operator",
          "type": "address"
        }
      ],
      "name": "ERC721InvalidOperator",
      "type": "error"
    },
    {
      "inputs": [
        {
          "internalType": "address",
          "name": "owner",
          "type": "address"
        }
      ],
      "name": "ERC721InvalidOwner",
      "type": "error"
    },
    {
      "inputs": [
        {
          "internalType": "address",
          "name": "receiver",
          "type": "address"
        }
      ],
      "name": "ERC721InvalidReceiver",
      "type": "error"
    },
    {
      "inputs": [
        {
          "internalType": "address",
          "name": "sender",
          "type": "address"
        }
      ],
      "name": "ERC721InvalidSender",
      "type": "error"
    },
    {
      "inputs": [
        {
          "internalType": "uint256",
          "name": "tokenId",
          "type": "uint256"
        }
      ],
      "name": "ERC721NonexistentToken",
      "type": "error"
    },
    {
      "inputs": [
        {
          "internalType": "address",
          "name": "owner",
          "type": "address"
        }
      ],
      "name": "OwnableInvalidOwner",
      "type": "error"
    },
    {
      "inputs": [
        {
          "internalType": "address",
          "name": "account",
          "type": "address"
        }
      ],
      "name": "OwnableUnauthorizedAccount",
      "type": "error"
    },
    {
      "anonymous": false,
      "inputs": [
        {
          "indexed": true,
          "internalType": "address",
          "name": "owner",
          "type": "address"
        },
        {
          "indexed": true,
          "internalType": "address",
          "name": "approved",
          "type": "address"
        },
        {
          "indexed": true,
          "internalType": "uint256",
          "name": "tokenId",
          "type": "uint256"
        }
      ],
      "name": "Approval",
      "type": "event"
    },
    {
      "anonymous": false,
      "inputs": [
        {
          "indexed": true,
          "internalType": "address",
          "name": "owner",
          "type": "address"
        },
        {
          "indexed": true,
          "internalType": "address",
          "name": "operator",
          "type": "address"
        },
        {
          "indexed": false,
          "internalType": "bool",
          "name": "approved",
          "type": "bool"
        }
      ],
      "name": "ApprovalForAll",
      "type": "event"
    },
    {
      "anonymous": false,
      "inputs": [
        {
          "indexed": false,
          "internalType": "uint256",
          "name": "_fromTokenId",
          "type": "uint256"
        },
        {
          "indexed": false,
          "internalType": "uint256",
          "name": "_toTokenId",
          "type": "uint256"
        }
      ],
      "name": "BatchMetadataUpdate",
      "type": "event"
    },
    {
      "anonymous": false,
      "inputs": [
        {
          "indexed": true,
          "internalType": "address",
          "name": "user",
          "type": "address"
        },
        {
          "indexed": true,
          "internalType": "uint256",
          "name": "tokenId",
          "type": "uint256"
        }
      ],
      "name": "Collected",
      "type": "event"
    },
    {
      "anonymous": false,
      "inputs": [
        {
          "indexed": false,
          "internalType": "uint256",
          "name": "_tokenId",
          "type": "uint256"
        }
      ],
      "name": "MetadataUpdate",
      "type": "event"
    },
    {
      "anonymous": false,
      "inputs": [
        {
          "indexed": true,
          "internalType": "uint256",
          "name": "tokenId",
          "type": "uint256"
        },
        {
          "indexed": true,
          "internalType": "address",
          "name": "minter",
          "type": "address"
        },
        {
          "indexed": false,
          "internalType": "string",
          "name": "fileUrl",
          "type": "string"
        },
        {
          "indexed": false,
          "internalType": "string",
          "name": "title",
          "type": "string"
        },
        {
          "indexed": false,
          "internalType": "uint256",
          "name": "price",
          "type": "uint256"
        }
      ],
      "name": "Minted",
      "type": "event"
    },
    {
      "anonymous": false,
      "inputs": [
        {
          "indexed": true,
          "internalType": "uint256",
          "name": "tokenId",
          "type": "uint256"
        },
        {
          "indexed": true,
          "internalType": "address",
          "name": "owner",
          "type": "address"
        }
      ],
      "name": "OwnershipHistoryUpdated",
      "type": "event"
    },
    {
      "anonymous": false,
      "inputs": [
        {
          "indexed": true,
          "internalType": "address",
          "name": "previousOwner",
          "type": "address"
        },
        {
          "indexed": true,
          "internalType": "address",
          "name": "newOwner",
          "type": "address"
        }
      ],
      "name": "OwnershipTransferred",
      "type": "event"
    },
    {
      "anonymous": false,
      "inputs": [
        {
          "indexed": true,
          "internalType": "address",
          "name": "from",
          "type": "address"
        },
        {
          "indexed": true,
          "internalType": "address",
          "name": "to",
          "type": "address"
        },
        {
          "indexed": true,
          "internalType": "uint256",
          "name": "tokenId",
          "type": "uint256"
        }
      ],
      "name": "Transfer",
      "type": "event"
    },
    {
      "inputs": [
        {
          "internalType": "address",
          "name": "to",
          "type": "address"
        },
        {
          "internalType": "uint256",
          "name": "tokenId",
          "type": "uint256"
        }
      ],
      "name": "approve",
      "outputs": [],
      "stateMutability": "nonpayable",
      "type": "function"
    },
    {
      "inputs": [
        {
          "internalType": "address",
          "name": "owner",
          "type": "address"
        }
      ],
      "name": "balanceOf",
      "outputs": [
        {
          "internalType": "uint256",
          "name": "",
          "type": "uint256"
        }
      ],
      "stateMutability": "view",
      "type": "function"
    },
    {
      "inputs": [
        {
          "internalType": "uint256",
          "name": "tokenId",
          "type": "uint256"
        }
      ],
      "name": "collect",
      "outputs": [],
      "stateMutability": "nonpayable",
      "type": "function"
    },
    {
      "inputs": [
        {
          "internalType": "uint256",
          "name": "tokenId",
          "type": "uint256"
        }
      ],
      "name": "getApproved",
      "outputs": [
        {
          "internalType": "address",
          "name": "",
          "type": "address"
        }
      ],
      "stateMutability": "view",
      "type": "function"
    },
    {
      "inputs": [
        {
          "internalType": "address",
          "name": "user",
          "type": "address"
        }
      ],
      "name": "getCollected",
      "outputs": [
        {
          "internalType": "uint256[]",
          "name": "",
          "type": "uint256[]"
        }
      ],
      "stateMutability": "view",
      "type": "function"
    },
    {
      "inputs": [
        {
          "internalType": "address",
          "name": "minter",
          "type": "address"
        }
      ],
      "name": "getMintedTokens",
      "outputs": [
        {
          "internalType": "uint256[]",
          "name": "tokenIds",
          "type": "uint256[]"
        },
        {
          "components": [
            {
              "internalType": "string",
              "name": "fileUrl",
              "type": "string"
            },
            {
              "internalType": "string",
              "name": "title",
              "type": "string"
            },
            {
              "internalType": "string",
              "name": "description",
              "type": "string"
            },
            {
              "internalType": "uint256",
              "name": "price",
              "type": "uint256"
            },
            {
              "internalType": "address",
              "name": "minter",
              "type": "address"
            },
            {
              "internalType": "uint64",
              "name": "mintedAt",
              "type": "uint64"
            }
          ],
          "internalType": "struct SafariVerseNFT.TokenData[]",
          "name": "data",
          "type": "tuple[]"
        }
      ],
      "stateMutability": "view",
      "type": "function"
    },
    {
      "inputs": [
        {
          "internalType": "uint256",
          "name": "tokenId",
          "type": "uint256"
        }
      ],
      "name": "getOwnershipHistory",
      "outputs": [
        {
          "internalType": "address[]",
          "name": "",
          "type": "address[]"
        }
      ],
      "stateMutability": "view",
      "type": "function"
    },
    {
      "inputs": [
        {
          "internalType": "uint256",
          "name": "tokenId",
          "type": "uint256"
        }
      ],
      "name": "getTokenData",
      "outputs": [
        {
          "components": [
            {
              "internalType": "string",
              "name": "fileUrl",
              "type": "string"
            },
            {
              "internalType": "string",
              "name": "title",
              "type": "string"
            },
            {
              "internalType": "string",
              "name": "description",
              "type": "string"
            },
            {
              "internalType": "uint256",
              "name": "price",
              "type": "uint256"
            },
            {
              "internalType": "address",
              "name": "minter",
              "type": "address"
            },
            {
              "internalType": "uint64",
              "name": "mintedAt",
              "type": "uint64"
            }
          ],
          "internalType": "struct SafariVerseNFT.TokenData",
          "name": "",
          "type": "tuple"
        }
      ],
      "stateMutability": "view",
      "type": "function"
    },
    {
      "inputs": [
        {
          "internalType": "address",
          "name": "owner",
          "type": "address"
        },
        {
          "internalType": "address",
          "name": "operator",
          "type": "address"
        }
      ],
      "name": "isApprovedForAll",
      "outputs": [
        {
          "internalType": "bool",
          "name": "",
          "type": "bool"
        }
      ],
      "stateMutability": "view",
      "type": "function"
    },
    {
      "inputs": [
        {
          "internalType": "string",
          "name": "fileUrl",
          "type": "string"
        },
        {
          "internalType": "string",
          "name": "title",
          "type": "string"
        },
        {
          "internalType": "string",
          "name": "description",
          "type": "string"
        },
        {
          "internalType": "uint256",
          "name": "price",
          "type": "uint256"
        }
      ],
      "name": "mint",
      "outputs": [
        {
          "internalType": "uint256",
          "name": "tokenId",
          "type": "uint256"
        }
      ],
      "stateMutability": "nonpayable",
      "type": "function"
    },
    {
      "inputs": [
        {
          "internalType": "address",
          "name": "to",
          "type": "address"
        },
        {
          "internalType": "string",
          "name": "fileUrl",
          "type": "string"
        },
        {
          "internalType": "string",
          "name": "title",
          "type": "string"
        },
        {
          "internalType": "string",
          "name": "description",
          "type": "string"
        },
        {
          "internalType": "uint256",
          "name": "price",
          "type": "uint256"
        }
      ],
      "name": "mintTo",
      "outputs": [
        {
          "internalType": "uint256",
          "name": "tokenId",
          "type": "uint256"
        }
      ],
      "stateMutability": "nonpayable",
      "type": "function"
    },
    {
      "inputs": [],
      "name": "myCollected",
      "outputs": [
        {
          "internalType": "uint256[]",
          "name": "",
          "type": "uint256[]"
        }
      ],
      "stateMutability": "view",
      "type": "function"
    },
    {
      "inputs": [],
      "name": "myMintedTokens",
      "outputs": [
        {
          "internalType": "uint256[]",
          "name": "tokenIds",
          "type": "uint256[]"
        },
        {
          "components": [
            {
              "internalType": "string",
              "name": "fileUrl",
              "type": "string"
            },
            {
              "internalType": "string",
              "name": "title",
              "type": "string"
            },
            {
              "internalType": "string",
              "name": "description",
              "type": "string"
            },
            {
              "internalType": "uint256",
              "name": "price",
              "type": "uint256"
            },
            {
              "internalType": "address",
              "name": "minter",
              "type": "address"
            },
            {
              "internalType": "uint64",
              "name": "mintedAt",
              "type": "uint64"
            }
          ],
          "internalType": "struct SafariVerseNFT.TokenData[]",
          "name": "data",
          "type": "tuple[]"
        }
      ],
      "stateMutability": "view",
      "type": "function"
    },
    {
      "inputs": [],
      "name": "name",
      "outputs": [
        {
          "internalType": "string",
          "name": "",
          "type": "string"
        }
      ],
      "stateMutability": "view",
      "type": "function"
    },
    {
      "inputs": [],
      "name": "nextTokenId",
      "outputs": [
        {
          "internalType": "uint256",
          "name": "",
          "type": "uint256"
        }
      ],
      "stateMutability": "view",
      "type": "function"
    },
    {
      "inputs": [],
      "name": "owner",
      "outputs": [
        {
          "internalType": "address",
          "name": "",
          "type": "address"
        }
      ],
      "stateMutability": "view",
      "type": "function"
    },
    {
      "inputs": [
        {
          "internalType": "uint256",
          "name": "tokenId",
          "type": "uint256"
        }
      ],
      "name": "ownerOf",
      "outputs": [
        {
          "internalType": "address",
          "name": "",
          "type": "address"
        }
      ],
      "stateMutability": "view",
      "type": "function"
    },
    {
      "inputs": [],
      "name": "renounceOwnership",
      "outputs": [],
      "stateMutability": "nonpayable",
      "type": "function"
    },
    {
      "inputs": [
        {
          "internalType": "address",
          "name": "from",
          "type": "address"
        },
        {
          "internalType": "address",
          "name": "to",
          "type": "address"
        },
        {
          "internalType": "uint256",
          "name": "tokenId",
          "type": "uint256"
        }
      ],
      "name": "safeTransferFrom",
      "outputs": [],
      "stateMutability": "nonpayable",
      "type": "function"
    },
    {
      "inputs": [
        {
          "internalType": "address",
          "name": "from",
          "type": "address"
        },
        {
          "internalType": "address",
          "name": "to",
          "type": "address"
        },
        {
          "internalType": "uint256",
          "name": "tokenId",
          "type": "uint256"
        },
        {
          "internalType": "bytes",
          "name": "data",
          "type": "bytes"
        }
      ],
      "name": "safeTransferFrom",
      "outputs": [],
      "stateMutability": "nonpayable",
      "type": "function"
    },
    {
      "inputs": [
        {
          "internalType": "address",
          "name": "operator",
          "type": "address"
        },
        {
          "internalType": "bool",
          "name": "approved",
          "type": "bool"
        }
      ],
      "name": "setApprovalForAll",
      "outputs": [],
      "stateMutability": "nonpayable",
      "type": "function"
    },
    {
      "inputs": [
        {
          "internalType": "bytes4",
          "name": "interfaceId",
          "type": "bytes4"
        }
      ],
      "name": "supportsInterface",
      "outputs": [
        {
          "internalType": "bool",
          "name": "",
          "type": "bool"
        }
      ],
      "stateMutability": "view",
      "type": "function"
    },
    {
      "inputs": [],
      "name": "symbol",
      "outputs": [
        {
          "internalType": "string",
          "name": "",
          "type": "string"
        }
      ],
      "stateMutability": "view",
      "type": "function"
    },
    {
      "inputs": [
        {
          "internalType": "uint256",
          "name": "tokenId",
          "type": "uint256"
        }
      ],
      "name": "tokenURI",
      "outputs": [
        {
          "internalType": "string",
          "name": "",
          "type": "string"
        }
      ],
      "stateMutability": "view",
      "type": "function"
    },
    {
      "inputs": [
        {
          "internalType": "address",
          "name": "minter",
          "type": "address"
        }
      ],
      "name": "tokensMintedBy",
      "outputs": [
        {
          "internalType": "uint256[]",
          "name": "",
          "type": "uint256[]"
        }
      ],
      "stateMutability": "view",
      "type": "function"
    },
    {
      "inputs": [
        {
          "internalType": "address",
          "name": "from",
          "type": "address"
        },
        {
          "internalType": "address",
          "name": "to",
          "type": "address"
        },
        {
          "internalType": "uint256",
          "name": "tokenId",
          "type": "uint256"
        }
      ],
      "name": "transferFrom",
      "outputs": [],
      "stateMutability": "nonpayable",
      "type": "function"
    },
    {
      "inputs": [
        {
          "internalType": "address",
          "name": "newOwner",
          "type": "address"
        }
      ],
      "name": "transferOwnership",
      "outputs": [],
      "stateMutability": "nonpayable",
      "type": "function"
    },
    {
      "inputs": [
        {
          "internalType": "uint256",
          "name": "tokenId",
          "type": "uint256"
        },
        {
          "internalType": "uint256",
          "name": "newPrice",
          "type": "uint256"
        }
      ],
      "name": "updatePrice",
      "outputs": [],
      "stateMutability": "nonpayable",
      "type": "function"
    }
  ],
  "bytecode": "0x608060405234801561000f575f5ffd5b50604051614c1e380380614c1e83398181016040528101906100319190610347565b808383815f908161004291906105df565b50806001908161005291906105df565b5050505f73ffffffffffffffffffffffffffffffffffffffff168173ffffffffffffffffffffffffffffffffffffffff16036100c5575f6040517f1e4fbdf70000000000000000000000000000000000000000000000000000000081526004016100bc91906106bd565b60405180910390fd5b6100d4816100dd60201b60201c565b505050506106d6565b5f60075f9054906101000a900473ffffffffffffffffffffffffffffffffffffffff1690508160075f6101000a81548173ffffffffffffffffffffffffffffffffffffffff021916908373ffffffffffffffffffffffffffffffffffffffff1602179055508173ffffffffffffffffffffffffffffffffffffffff168173ffffffffffffffffffffffffffffffffffffffff167f8be0079c531659141344cd1fd0a4f28419497f9722a3daafe3b4186f6b6457e060405160405180910390a35050565b5f604051905090565b5f5ffd5b5f5ffd5b5f5ffd5b5f5ffd5b5f601f19601f8301169050919050565b7f4e487b71000000000000000000000000000000000000000000000000000000005f52604160045260245ffd5b6101ff826101b9565b810181811067ffffffffffffffff8211171561021e5761021d6101c9565b5b80604052505050565b5f6102306101a0565b905061023c82826101f6565b919050565b5f67ffffffffffffffff82111561025b5761025a6101c9565b5b610264826101b9565b9050602081019050919050565b8281835e5f83830152505050565b5f61029161028c84610241565b610227565b9050828152602081018484840111156102ad576102ac6101b5565b5b6102b8848285610271565b509392505050565b5f82601f8301126102d4576102d36101b1565b5b81516102e484826020860161027f565b91505092915050565b5f73ffffffffffffffffffffffffffffffffffffffff82169050919050565b5f610316826102ed565b9050919050565b6103268161030c565b8114610330575f5ffd5b50565b5f815190506103418161031d565b92915050565b5f5f5f6060848603121561035e5761035d6101a9565b5b5f84015167ffffffffffffffff81111561037b5761037a6101ad565b5b610387868287016102c0565b935050602084015167ffffffffffffffff8111156103a8576103a76101ad565b5b6103b4868287016102c0565b92505060406103c586828701610333565b9150509250925092565b5f81519050919050565b7f4e487b71000000000000000000000000000000000000000000000000000000005f52602260045260245ffd5b5f600282049050600182168061041d57607f821691505b6020821081036104305761042f6103d9565b5b50919050565b5f819050815f5260205f209050919050565b5f6020601f8301049050919050565b5f82821b905092915050565b5f600883026104927fffffffffffffffffffffffffffffffffffffffffffffffffffffffffffffffff82610457565b61049c8683610457565b95508019841693508086168417925050509392505050565b5f819050919050565b5f819050919050565b5f6104e06104db6104d6846104b4565b6104bd565b6104b4565b9050919050565b5f819050919050565b6104f9836104c6565b61050d610505826104e7565b848454610463565b825550505050565b5f5f905090565b610524610515565b61052f8184846104f0565b505050565b5b81811015610552576105475f8261051c565b600181019050610535565b5050565b601f8211156105975761056881610436565b61057184610448565b81016020851015610580578190505b61059461058c85610448565b830182610534565b50505b505050565b5f82821c905092915050565b5f6105b75f198460080261059c565b1980831691505092915050565b5f6105cf83836105a8565b9150826002028217905092915050565b6105e8826103cf565b67ffffffffffffffff811115610601576106006101c9565b5b61060b8254610406565b610616828285610556565b5f60209050601f831160018114610647575f8415610635578287015190505b61063f85826105c4565b8655506106a6565b601f19841661065586610436565b5f5b8281101561067c57848901518255600182019150602085019450602081019050610657565b868310156106995784890151610695601f8916826105a8565b8355505b6001600288020188555050505b505050505050565b6106b78161030c565b82525050565b5f6020820190506106d05f8301846106ae565b92915050565b61453b806106e35f395ff3fe608060405234801561000f575f5ffd5b50600436106101c2575f3560e01c806382367b2d116100f7578063c87b56dd11610095578063ed9abff31161006f578063ed9abff31461052a578063f1dbaccb1461055a578063f2fde38b1461058a578063fb166bb0146105a6576101c2565b8063c87b56dd146104ae578063ce3f865f146104de578063e985e9c5146104fa576101c2565b806399179e66116100d157806399179e6614610427578063a22cb46514610446578063b09afec114610462578063b88d4fde14610492576101c2565b806382367b2d146103cf5780638da5cb5b146103eb57806395d89b4114610409576101c2565b806342842e0e116101645780636352211e1161013e5780636352211e1461034757806370a0823114610377578063715018a6146103a757806375794a3c146103b1576101c2565b806342842e0e146102dc578063434a49a1146102f8578063488f33fe14610329576101c2565b8063095ea7b3116101a0578063095ea7b31461024457806323b872dd146102605780632a0c77991461027c57806331b6475c146102ac576101c2565b806301ffc9a7146101c657806306fdde03146101f6578063081812fc14610214575b5f5ffd5b6101e060048036038101906101db9190613272565b6105d6565b6040516101ed91906132b7565b60405180910390f35b6101fe610636565b60405161020b9190613340565b60405180910390f35b61022e60048036038101906102299190613393565b6106c5565b60405161023b91906133fd565b60405180910390f35b61025e60048036038101906102599190613440565b6106e0565b005b61027a6004803603810190610275919061347e565b6106f6565b005b610296600480360381019061029191906134ce565b6107f5565b6040516102a391906135b0565b60405180910390f35b6102c660048036038101906102c19190613631565b610888565b6040516102d39190613704565b60405180910390f35b6102f660048036038101906102f1919061347e565b610c55565b005b610312600480360381019061030d91906134ce565b610c74565b6040516103209291906138e5565b60405180910390f35b610331610c89565b60405161033e91906135b0565b60405180910390f35b610361600480360381019061035c9190613393565b610d1a565b60405161036e91906133fd565b60405180910390f35b610391600480360381019061038c91906134ce565b610d2b565b60405161039e9190613704565b60405180910390f35b6103af610de1565b005b6103b9610df4565b6040516103c69190613704565b60405180910390f35b6103e960048036038101906103e4919061391a565b610e09565b005b6103f3610f4d565b60405161040091906133fd565b60405180910390f35b610411610f75565b60405161041e9190613340565b60405180910390f35b61042f611005565b60405161043d9291906138e5565b60405180910390f35b610460600480360381019061045b9190613982565b611019565b005b61047c60048036038101906104779190613393565b61102f565b6040516104899190613a54565b60405180910390f35b6104ac60048036038101906104a79190613b9c565b611310565b005b6104c860048036038101906104c39190613393565b611335565b6040516104d59190613340565b60405180910390f35b6104f860048036038101906104f39190613393565b611440565b005b610514600480360381019061050f9190613c1c565b61165b565b60405161052191906132b7565b60405180910390f35b610544600480360381019061053f9190613c5a565b6116e9565b6040516105519190613704565b60405180910390f35b610574600480360381019061056f9190613393565b611abf565b6040516105819190613dd9565b60405180910390f35b6105a4600480360381019061059f91906134ce565b611bd1565b005b6105c060048036038101906105bb91906134ce565b611c55565b6040516105cd91906135b0565b60405180910390f35b5f634906490660e01b7bffffffffffffffffffffffffffffffffffffffffffffffffffffffff1916827bffffffffffffffffffffffffffffffffffffffffffffffffffffffff1916148061062f575061062e82611ce8565b5b9050919050565b60605f805461064490613e26565b80601f016020809104026020016040519081016040528092919081815260200182805461067090613e26565b80156106bb5780601f10610692576101008083540402835291602001916106bb565b820191905f5260205f20905b81548152906001019060200180831161069e57829003601f168201915b5050505050905090565b5f6106cf82611dc9565b506106d982611e4f565b9050919050565b6106f282826106ed611e88565b611e8f565b5050565b5f73ffffffffffffffffffffffffffffffffffffffff168273ffffffffffffffffffffffffffffffffffffffff1603610766575f6040517f64a0ae9200000000000000000000000000000000000000000000000000000000815260040161075d91906133fd565b60405180910390fd5b5f6107798383610774611e88565b611ea1565b90508373ffffffffffffffffffffffffffffffffffffffff168173ffffffffffffffffffffffffffffffffffffffff16146107ef578382826040517f64283d7b0000000000000000000000000000000000000000000000000000000081526004016107e693929190613e56565b60405180910390fd5b50505050565b6060600a5f8373ffffffffffffffffffffffffffffffffffffffff1673ffffffffffffffffffffffffffffffffffffffff1681526020019081526020015f2080548060200260200160405190810160405280929190818152602001828054801561087c57602002820191905f5260205f20905b815481526020019060010190808311610868575b50505050509050919050565b5f60085f815461089790613eb8565b91905081905590506108a93382611fa2565b6108f68189898080601f0160208091040260200160405190810160405280939291908181526020018383808284375f81840152601f19601f82011690508083019250505050505050611fbf565b6040518060c0016040528089898080601f0160208091040260200160405190810160405280939291908181526020018383808284375f81840152601f19601f82011690508083019250505050505050815260200187878080601f0160208091040260200160405190810160405280939291908181526020018383808284375f81840152601f19601f82011690508083019250505050505050815260200185858080601f0160208091040260200160405190810160405280939291908181526020018383808284375f81840152601f19601f8201169050808301925050505050505081526020018381526020013373ffffffffffffffffffffffffffffffffffffffff1681526020014267ffffffffffffffff1681525060095f8381526020019081526020015f205f820151815f019081610a30919061409f565b506020820151816001019081610a46919061409f565b506040820151816002019081610a5c919061409f565b50606082015181600301556080820151816004015f6101000a81548173ffffffffffffffffffffffffffffffffffffffff021916908373ffffffffffffffffffffffffffffffffffffffff16021790555060a08201518160040160146101000a81548167ffffffffffffffff021916908367ffffffffffffffff160217905550905050600a5f3373ffffffffffffffffffffffffffffffffffffffff1673ffffffffffffffffffffffffffffffffffffffff1681526020019081526020015f2081908060018154018082558091505060019003905f5260205f20015f9091909190915055600b5f8281526020019081526020015f2033908060018154018082558091505060019003905f5260205f20015f9091909190916101000a81548173ffffffffffffffffffffffffffffffffffffffff021916908373ffffffffffffffffffffffffffffffffffffffff1602179055503373ffffffffffffffffffffffffffffffffffffffff16817fc52d4e88ccec82a7d289fe84026830ee990028fb5b8791a515fb297253c458f560405160405180910390a33373ffffffffffffffffffffffffffffffffffffffff16817faebd3278d0c08570969e316946ffb3c9c5e0c493ecae571b1718891b633ff03b8a8a8a8a88604051610c4295949392919061419a565b60405180910390a3979650505050505050565b610c6f83838360405180602001604052805f815250611310565b505050565b606080610c8083612019565b91509150915091565b6060600c5f3373ffffffffffffffffffffffffffffffffffffffff1673ffffffffffffffffffffffffffffffffffffffff1681526020019081526020015f20805480602002602001604051908101604052809291908181526020018280548015610d1057602002820191905f5260205f20905b815481526020019060010190808311610cfc575b5050505050905090565b5f610d2482611dc9565b9050919050565b5f5f73ffffffffffffffffffffffffffffffffffffffff168273ffffffffffffffffffffffffffffffffffffffff1603610d9c575f6040517f89c62b64000000000000000000000000000000000000000000000000000000008152600401610d9391906133fd565b60405180910390fd5b60035f8373ffffffffffffffffffffffffffffffffffffffff1673ffffffffffffffffffffffffffffffffffffffff1681526020019081526020015f20549050919050565b610de96123be565b610df25f612445565b565b5f6001600854610e0491906141e1565b905090565b5f60095f8481526020019081526020015f2090505f73ffffffffffffffffffffffffffffffffffffffff16816004015f9054906101000a900473ffffffffffffffffffffffffffffffffffffffff1673ffffffffffffffffffffffffffffffffffffffff1603610eae576040517f08c379a0000000000000000000000000000000000000000000000000000000008152600401610ea59061425e565b60405180910390fd5b3373ffffffffffffffffffffffffffffffffffffffff16816004015f9054906101000a900473ffffffffffffffffffffffffffffffffffffffff1673ffffffffffffffffffffffffffffffffffffffff1614610f3f576040517f08c379a0000000000000000000000000000000000000000000000000000000008152600401610f36906142c6565b60405180910390fd5b818160030181905550505050565b5f60075f9054906101000a900473ffffffffffffffffffffffffffffffffffffffff16905090565b606060018054610f8490613e26565b80601f0160208091040260200160405190810160405280929190818152602001828054610fb090613e26565b8015610ffb5780601f10610fd257610100808354040283529160200191610ffb565b820191905f5260205f20905b815481529060010190602001808311610fde57829003601f168201915b5050505050905090565b60608061101133612019565b915091509091565b61102b611024611e88565b8383612508565b5050565b6110376131b9565b5f73ffffffffffffffffffffffffffffffffffffffff1661105783612671565b73ffffffffffffffffffffffffffffffffffffffff16036110ad576040517f08c379a00000000000000000000000000000000000000000000000000000000081526004016110a49061425e565b60405180910390fd5b60095f8381526020019081526020015f206040518060c00160405290815f820180546110d890613e26565b80601f016020809104026020016040519081016040528092919081815260200182805461110490613e26565b801561114f5780601f106111265761010080835404028352916020019161114f565b820191905f5260205f20905b81548152906001019060200180831161113257829003601f168201915b5050505050815260200160018201805461116890613e26565b80601f016020809104026020016040519081016040528092919081815260200182805461119490613e26565b80156111df5780601f106111b6576101008083540402835291602001916111df565b820191905f5260205f20905b8154815290600101906020018083116111c257829003601f168201915b505050505081526020016002820180546111f890613e26565b80601f016020809104026020016040519081016040528092919081815260200182805461122490613e26565b801561126f5780601f106112465761010080835404028352916020019161126f565b820191905f5260205f20905b81548152906001019060200180831161125257829003601f168201915b5050505050815260200160038201548152602001600482015f9054906101000a900473ffffffffffffffffffffffffffffffffffffffff1673ffffffffffffffffffffffffffffffffffffffff1673ffffffffffffffffffffffffffffffffffffffff1681526020016004820160149054906101000a900467ffffffffffffffff1667ffffffffffffffff1667ffffffffffffffff16815250509050919050565b61131b8484846106f6565b61132f611326611e88565b858585856126aa565b50505050565b606061134082611dc9565b505f60065f8481526020019081526020015f20805461135e90613e26565b80601f016020809104026020016040519081016040528092919081815260200182805461138a90613e26565b80156113d55780601f106113ac576101008083540402835291602001916113d5565b820191905f5260205f20905b8154815290600101906020018083116113b857829003601f168201915b505050505090505f6113e5612856565b90505f8151036113f957819250505061143b565b5f8251111561142d57808260405160200161141592919061431e565b6040516020818303038152906040529250505061143b565b6114368461286c565b925050505b919050565b5f73ffffffffffffffffffffffffffffffffffffffff1661146082612671565b73ffffffffffffffffffffffffffffffffffffffff16036114b6576040517f08c379a00000000000000000000000000000000000000000000000000000000081526004016114ad9061425e565b60405180910390fd5b600d5f3373ffffffffffffffffffffffffffffffffffffffff1673ffffffffffffffffffffffffffffffffffffffff1681526020019081526020015f205f8281526020019081526020015f205f9054906101000a900460ff161561154f576040517f08c379a00000000000000000000000000000000000000000000000000000000081526004016115469061438b565b60405180910390fd5b6001600d5f3373ffffffffffffffffffffffffffffffffffffffff1673ffffffffffffffffffffffffffffffffffffffff1681526020019081526020015f205f8381526020019081526020015f205f6101000a81548160ff021916908315150217905550600c5f3373ffffffffffffffffffffffffffffffffffffffff1673ffffffffffffffffffffffffffffffffffffffff1681526020019081526020015f2081908060018154018082558091505060019003905f5260205f20015f9091909190915055803373ffffffffffffffffffffffffffffffffffffffff167f8c22f554c81b54107cd95e734e4ef45767214974a540f34ea4a4f8c3fc7b13c360405160405180910390a350565b5f60055f8473ffffffffffffffffffffffffffffffffffffffff1673ffffffffffffffffffffffffffffffffffffffff1681526020019081526020015f205f8373ffffffffffffffffffffffffffffffffffffffff1673ffffffffffffffffffffffffffffffffffffffff1681526020019081526020015f205f9054906101000a900460ff16905092915050565b5f6116f26123be565b60085f815461170090613eb8565b91905081905590506117128982611fa2565b61175f8189898080601f0160208091040260200160405190810160405280939291908181526020018383808284375f81840152601f19601f82011690508083019250505050505050611fbf565b6040518060c0016040528089898080601f0160208091040260200160405190810160405280939291908181526020018383808284375f81840152601f19601f82011690508083019250505050505050815260200187878080601f0160208091040260200160405190810160405280939291908181526020018383808284375f81840152601f19601f82011690508083019250505050505050815260200185858080601f0160208091040260200160405190810160405280939291908181526020018383808284375f81840152601f19601f8201169050808301925050505050505081526020018381526020018a73ffffffffffffffffffffffffffffffffffffffff1681526020014267ffffffffffffffff1681525060095f8381526020019081526020015f205f820151815f019081611899919061409f565b5060208201518160010190816118af919061409f565b5060408201518160020190816118c5919061409f565b50606082015181600301556080820151816004015f6101000a81548173ffffffffffffffffffffffffffffffffffffffff021916908373ffffffffffffffffffffffffffffffffffffffff16021790555060a08201518160040160146101000a81548167ffffffffffffffff021916908367ffffffffffffffff160217905550905050600a5f8a73ffffffffffffffffffffffffffffffffffffffff1673ffffffffffffffffffffffffffffffffffffffff1681526020019081526020015f2081908060018154018082558091505060019003905f5260205f20015f9091909190915055600b5f8281526020019081526020015f2089908060018154018082558091505060019003905f5260205f20015f9091909190916101000a81548173ffffffffffffffffffffffffffffffffffffffff021916908373ffffffffffffffffffffffffffffffffffffffff1602179055508873ffffffffffffffffffffffffffffffffffffffff16817fc52d4e88ccec82a7d289fe84026830ee990028fb5b8791a515fb297253c458f560405160405180910390a38873ffffffffffffffffffffffffffffffffffffffff16817faebd3278d0c08570969e316946ffb3c9c5e0c493ecae571b1718891b633ff03b8a8a8a8a88604051611aab95949392919061419a565b60405180910390a398975050505050505050565b60605f73ffffffffffffffffffffffffffffffffffffffff16611ae183612671565b73ffffffffffffffffffffffffffffffffffffffff1603611b37576040517f08c379a0000000000000000000000000000000000000000000000000000000008152600401611b2e9061425e565b60405180910390fd5b600b5f8381526020019081526020015f20805480602002602001604051908101604052809291908181526020018280548015611bc557602002820191905f5260205f20905b815f9054906101000a900473ffffffffffffffffffffffffffffffffffffffff1673ffffffffffffffffffffffffffffffffffffffff1681526020019060010190808311611b7c575b50505050509050919050565b611bd96123be565b5f73ffffffffffffffffffffffffffffffffffffffff168173ffffffffffffffffffffffffffffffffffffffff1603611c49575f6040517f1e4fbdf7000000000000000000000000000000000000000000000000000000008152600401611c4091906133fd565b60405180910390fd5b611c5281612445565b50565b6060600c5f8373ffffffffffffffffffffffffffffffffffffffff1673ffffffffffffffffffffffffffffffffffffffff1681526020019081526020015f20805480602002602001604051908101604052809291908181526020018280548015611cdc57602002820191905f5260205f20905b815481526020019060010190808311611cc8575b50505050509050919050565b5f7f80ac58cd000000000000000000000000000000000000000000000000000000007bffffffffffffffffffffffffffffffffffffffffffffffffffffffff1916827bffffffffffffffffffffffffffffffffffffffffffffffffffffffff19161480611db257507f5b5e139f000000000000000000000000000000000000000000000000000000007bffffffffffffffffffffffffffffffffffffffffffffffffffffffff1916827bffffffffffffffffffffffffffffffffffffffffffffffffffffffff1916145b80611dc25750611dc1826128d2565b5b9050919050565b5f5f611dd483612671565b90505f73ffffffffffffffffffffffffffffffffffffffff168173ffffffffffffffffffffffffffffffffffffffff1603611e4657826040517f7e273289000000000000000000000000000000000000000000000000000000008152600401611e3d9190613704565b60405180910390fd5b80915050919050565b5f60045f8381526020019081526020015f205f9054906101000a900473ffffffffffffffffffffffffffffffffffffffff169050919050565b5f33905090565b611e9c838383600161293b565b505050565b5f5f611eae858585612afa565b90505f73ffffffffffffffffffffffffffffffffffffffff168573ffffffffffffffffffffffffffffffffffffffff1614611f9757600b5f8581526020019081526020015f2085908060018154018082558091505060019003905f5260205f20015f9091909190916101000a81548173ffffffffffffffffffffffffffffffffffffffff021916908373ffffffffffffffffffffffffffffffffffffffff1602179055508473ffffffffffffffffffffffffffffffffffffffff16847fc52d4e88ccec82a7d289fe84026830ee990028fb5b8791a515fb297253c458f560405160405180910390a35b809150509392505050565b611fbb828260405180602001604052805f815250612d05565b5050565b8060065f8481526020019081526020015f209081611fdd919061409f565b507ff8e1a15aba9398e019f0b49df1a4fde98ee17ae345cb5f6b5e2c27f5033e8ce78260405161200d9190613704565b60405180910390a15050565b6060805f600a5f8573ffffffffffffffffffffffffffffffffffffffff1673ffffffffffffffffffffffffffffffffffffffff1681526020019081526020015f208054806020026020016040519081016040528092919081815260200182805480156120a257602002820191905f5260205f20905b81548152602001906001019080831161208e575b505050505090505f815167ffffffffffffffff8111156120c5576120c4613a78565b5b6040519080825280602002602001820160405280156120fe57816020015b6120eb6131b9565b8152602001906001900390816120e35790505b5090505f5f90505b82518110156123b05760095f848381518110612125576121246143a9565b5b602002602001015181526020019081526020015f206040518060c00160405290815f8201805461215490613e26565b80601f016020809104026020016040519081016040528092919081815260200182805461218090613e26565b80156121cb5780601f106121a2576101008083540402835291602001916121cb565b820191905f5260205f20905b8154815290600101906020018083116121ae57829003601f168201915b505050505081526020016001820180546121e490613e26565b80601f016020809104026020016040519081016040528092919081815260200182805461221090613e26565b801561225b5780601f106122325761010080835404028352916020019161225b565b820191905f5260205f20905b81548152906001019060200180831161223e57829003601f168201915b5050505050815260200160028201805461227490613e26565b80601f01602080910402602001604051908101604052809291908181526020018280546122a090613e26565b80156122eb5780601f106122c2576101008083540402835291602001916122eb565b820191905f5260205f20905b8154815290600101906020018083116122ce57829003601f168201915b5050505050815260200160038201548152602001600482015f9054906101000a900473ffffffffffffffffffffffffffffffffffffffff1673ffffffffffffffffffffffffffffffffffffffff1673ffffffffffffffffffffffffffffffffffffffff1681526020016004820160149054906101000a900467ffffffffffffffff1667ffffffffffffffff1667ffffffffffffffff1681525050828281518110612398576123976143a9565b5b60200260200101819052508080600101915050612106565b508181935093505050915091565b6123c6611e88565b73ffffffffffffffffffffffffffffffffffffffff166123e4610f4d565b73ffffffffffffffffffffffffffffffffffffffff161461244357612407611e88565b6040517f118cdaa700000000000000000000000000000000000000000000000000000000815260040161243a91906133fd565b60405180910390fd5b565b5f60075f9054906101000a900473ffffffffffffffffffffffffffffffffffffffff1690508160075f6101000a81548173ffffffffffffffffffffffffffffffffffffffff021916908373ffffffffffffffffffffffffffffffffffffffff1602179055508173ffffffffffffffffffffffffffffffffffffffff168173ffffffffffffffffffffffffffffffffffffffff167f8be0079c531659141344cd1fd0a4f28419497f9722a3daafe3b4186f6b6457e060405160405180910390a35050565b5f73ffffffffffffffffffffffffffffffffffffffff168273ffffffffffffffffffffffffffffffffffffffff160361257857816040517f5b08ba1800000000000000000000000000000000000000000000000000000000815260040161256f91906133fd565b60405180910390fd5b8060055f8573ffffffffffffffffffffffffffffffffffffffff1673ffffffffffffffffffffffffffffffffffffffff1681526020019081526020015f205f8473ffffffffffffffffffffffffffffffffffffffff1673ffffffffffffffffffffffffffffffffffffffff1681526020019081526020015f205f6101000a81548160ff0219169083151502179055508173ffffffffffffffffffffffffffffffffffffffff168373ffffffffffffffffffffffffffffffffffffffff167f17307eab39ab6107e8899845ad3d59bd9653f200f220920489ca2b5937696c318360405161266491906132b7565b60405180910390a3505050565b5f60025f8381526020019081526020015f205f9054906101000a900473ffffffffffffffffffffffffffffffffffffffff169050919050565b5f8373ffffffffffffffffffffffffffffffffffffffff163b111561284f578273ffffffffffffffffffffffffffffffffffffffff1663150b7a02868685856040518563ffffffff1660e01b81526004016127089493929190614428565b6020604051808303815f875af192505050801561274357506040513d601f19601f820116820180604052508101906127409190614486565b60015b6127c4573d805f8114612771576040519150601f19603f3d011682016040523d82523d5f602084013e612776565b606091505b505f8151036127bc57836040517f64a0ae920000000000000000000000000000000000000000000000000000000081526004016127b391906133fd565b60405180910390fd5b805160208201fd5b63150b7a0260e01b7bffffffffffffffffffffffffffffffffffffffffffffffffffffffff1916817bffffffffffffffffffffffffffffffffffffffffffffffffffffffff19161461284d57836040517f64a0ae9200000000000000000000000000000000000000000000000000000000815260040161284491906133fd565b60405180910390fd5b505b5050505050565b606060405180602001604052805f815250905090565b606061287782611dc9565b505f612881612856565b90505f81511161289f5760405180602001604052805f8152506128ca565b806128a984612d28565b6040516020016128ba92919061431e565b6040516020818303038152906040525b915050919050565b5f7f01ffc9a7000000000000000000000000000000000000000000000000000000007bffffffffffffffffffffffffffffffffffffffffffffffffffffffff1916827bffffffffffffffffffffffffffffffffffffffffffffffffffffffff1916149050919050565b808061297357505f73ffffffffffffffffffffffffffffffffffffffff168273ffffffffffffffffffffffffffffffffffffffff1614155b15612aa5575f61298284611dc9565b90505f73ffffffffffffffffffffffffffffffffffffffff168373ffffffffffffffffffffffffffffffffffffffff16141580156129ec57508273ffffffffffffffffffffffffffffffffffffffff168173ffffffffffffffffffffffffffffffffffffffff1614155b80156129ff57506129fd818461165b565b155b15612a4157826040517fa9fbf51f000000000000000000000000000000000000000000000000000000008152600401612a3891906133fd565b60405180910390fd5b8115612aa357838573ffffffffffffffffffffffffffffffffffffffff168273ffffffffffffffffffffffffffffffffffffffff167f8c5be1e5ebec7d5bd14f71427d1e84f3dd0314c0f7b2291e5b200ac8c7c3b92560405160405180910390a45b505b8360045f8581526020019081526020015f205f6101000a81548173ffffffffffffffffffffffffffffffffffffffff021916908373ffffffffffffffffffffffffffffffffffffffff16021790555050505050565b5f5f612b0584612671565b90505f73ffffffffffffffffffffffffffffffffffffffff168373ffffffffffffffffffffffffffffffffffffffff1614612b4657612b45818486612df2565b5b5f73ffffffffffffffffffffffffffffffffffffffff168173ffffffffffffffffffffffffffffffffffffffff1614612bd157612b855f855f5f61293b565b600160035f8373ffffffffffffffffffffffffffffffffffffffff1673ffffffffffffffffffffffffffffffffffffffff1681526020019081526020015f205f82825403925050819055505b5f73ffffffffffffffffffffffffffffffffffffffff168573ffffffffffffffffffffffffffffffffffffffff1614612c5057600160035f8773ffffffffffffffffffffffffffffffffffffffff1673ffffffffffffffffffffffffffffffffffffffff1681526020019081526020015f205f82825401925050819055505b8460025f8681526020019081526020015f205f6101000a81548173ffffffffffffffffffffffffffffffffffffffff021916908373ffffffffffffffffffffffffffffffffffffffff160217905550838573ffffffffffffffffffffffffffffffffffffffff168273ffffffffffffffffffffffffffffffffffffffff167fddf252ad1be2c89b69c2b068fc378daa952ba7f163c4a11628f55a4df523b3ef60405160405180910390a4809150509392505050565b612d0f8383612eb5565b612d23612d1a611e88565b5f8585856126aa565b505050565b60605f6001612d3684612fa8565b0190505f8167ffffffffffffffff811115612d5457612d53613a78565b5b6040519080825280601f01601f191660200182016040528015612d865781602001600182028036833780820191505090505b5090505f82602083010190505b600115612de7578080600190039150507f3031323334353637383961626364656600000000000000000000000000000000600a86061a8153600a8581612ddc57612ddb6144b1565b5b0494505f8503612d93575b819350505050919050565b612dfd8383836130f9565b612eb0575f73ffffffffffffffffffffffffffffffffffffffff168373ffffffffffffffffffffffffffffffffffffffff1603612e7157806040517f7e273289000000000000000000000000000000000000000000000000000000008152600401612e689190613704565b60405180910390fd5b81816040517f177e802f000000000000000000000000000000000000000000000000000000008152600401612ea79291906144de565b60405180910390fd5b505050565b5f73ffffffffffffffffffffffffffffffffffffffff168273ffffffffffffffffffffffffffffffffffffffff1603612f25575f6040517f64a0ae92000000000000000000000000000000000000000000000000000000008152600401612f1c91906133fd565b60405180910390fd5b5f612f3183835f611ea1565b90505f73ffffffffffffffffffffffffffffffffffffffff168173ffffffffffffffffffffffffffffffffffffffff1614612fa3575f6040517f73c6ac6e000000000000000000000000000000000000000000000000000000008152600401612f9a91906133fd565b60405180910390fd5b505050565b5f5f5f90507a184f03e93ff9f4daa797ed6e38ed64bf6a1f0100000000000000008310613004577a184f03e93ff9f4daa797ed6e38ed64bf6a1f0100000000000000008381612ffa57612ff96144b1565b5b0492506040810190505b6d04ee2d6d415b85acef81000000008310613041576d04ee2d6d415b85acef81000000008381613037576130366144b1565b5b0492506020810190505b662386f26fc10000831061307057662386f26fc100008381613066576130656144b1565b5b0492506010810190505b6305f5e1008310613099576305f5e100838161308f5761308e6144b1565b5b0492506008810190505b61271083106130be5761271083816130b4576130b36144b1565b5b0492506004810190505b606483106130e157606483816130d7576130d66144b1565b5b0492506002810190505b600a83106130f0576001810190505b80915050919050565b5f5f73ffffffffffffffffffffffffffffffffffffffff168373ffffffffffffffffffffffffffffffffffffffff16141580156131b057508273ffffffffffffffffffffffffffffffffffffffff168473ffffffffffffffffffffffffffffffffffffffff1614806131715750613170848461165b565b5b806131af57508273ffffffffffffffffffffffffffffffffffffffff1661319783611e4f565b73ffffffffffffffffffffffffffffffffffffffff16145b5b90509392505050565b6040518060c001604052806060815260200160608152602001606081526020015f81526020015f73ffffffffffffffffffffffffffffffffffffffff1681526020015f67ffffffffffffffff1681525090565b5f604051905090565b5f5ffd5b5f5ffd5b5f7fffffffff0000000000000000000000000000000000000000000000000000000082169050919050565b6132518161321d565b811461325b575f5ffd5b50565b5f8135905061326c81613248565b92915050565b5f6020828403121561328757613286613215565b5b5f6132948482850161325e565b91505092915050565b5f8115159050919050565b6132b18161329d565b82525050565b5f6020820190506132ca5f8301846132a8565b92915050565b5f81519050919050565b5f82825260208201905092915050565b8281835e5f83830152505050565b5f601f19601f8301169050919050565b5f613312826132d0565b61331c81856132da565b935061332c8185602086016132ea565b613335816132f8565b840191505092915050565b5f6020820190508181035f8301526133588184613308565b905092915050565b5f819050919050565b61337281613360565b811461337c575f5ffd5b50565b5f8135905061338d81613369565b92915050565b5f602082840312156133a8576133a7613215565b5b5f6133b58482850161337f565b91505092915050565b5f73ffffffffffffffffffffffffffffffffffffffff82169050919050565b5f6133e7826133be565b9050919050565b6133f7816133dd565b82525050565b5f6020820190506134105f8301846133ee565b92915050565b61341f816133dd565b8114613429575f5ffd5b50565b5f8135905061343a81613416565b92915050565b5f5f6040838503121561345657613455613215565b5b5f6134638582860161342c565b92505060206134748582860161337f565b9150509250929050565b5f5f5f6060848603121561349557613494613215565b5b5f6134a28682870161342c565b93505060206134b38682870161342c565b92505060406134c48682870161337f565b9150509250925092565b5f602082840312156134e3576134e2613215565b5b5f6134f08482850161342c565b91505092915050565b5f81519050919050565b5f82825260208201905092915050565b5f819050602082019050919050565b61352b81613360565b82525050565b5f61353c8383613522565b60208301905092915050565b5f602082019050919050565b5f61355e826134f9565b6135688185613503565b935061357383613513565b805f5b838110156135a357815161358a8882613531565b975061359583613548565b925050600181019050613576565b5085935050505092915050565b5f6020820190508181035f8301526135c88184613554565b905092915050565b5f5ffd5b5f5ffd5b5f5ffd5b5f5f83601f8401126135f1576135f06135d0565b5b8235905067ffffffffffffffff81111561360e5761360d6135d4565b5b60208301915083600182028301111561362a576136296135d8565b5b9250929050565b5f5f5f5f5f5f5f6080888a03121561364c5761364b613215565b5b5f88013567ffffffffffffffff81111561366957613668613219565b5b6136758a828b016135dc565b9750975050602088013567ffffffffffffffff81111561369857613697613219565b5b6136a48a828b016135dc565b9550955050604088013567ffffffffffffffff8111156136c7576136c6613219565b5b6136d38a828b016135dc565b935093505060606136e68a828b0161337f565b91505092959891949750929550565b6136fe81613360565b82525050565b5f6020820190506137175f8301846136f5565b92915050565b5f81519050919050565b5f82825260208201905092915050565b5f819050602082019050919050565b5f82825260208201905092915050565b5f613760826132d0565b61376a8185613746565b935061377a8185602086016132ea565b613783816132f8565b840191505092915050565b613797816133dd565b82525050565b5f67ffffffffffffffff82169050919050565b6137b98161379d565b82525050565b5f60c083015f8301518482035f8601526137d98282613756565b915050602083015184820360208601526137f38282613756565b9150506040830151848203604086015261380d8282613756565b91505060608301516138226060860182613522565b506080830151613835608086018261378e565b5060a083015161384860a08601826137b0565b508091505092915050565b5f61385e83836137bf565b905092915050565b5f602082019050919050565b5f61387c8261371d565b6138868185613727565b93508360208202850161389885613737565b805f5b858110156138d357848403895281516138b48582613853565b94506138bf83613866565b925060208a0199505060018101905061389b565b50829750879550505050505092915050565b5f6040820190508181035f8301526138fd8185613554565b905081810360208301526139118184613872565b90509392505050565b5f5f604083850312156139305761392f613215565b5b5f61393d8582860161337f565b925050602061394e8582860161337f565b9150509250929050565b6139618161329d565b811461396b575f5ffd5b50565b5f8135905061397c81613958565b92915050565b5f5f6040838503121561399857613997613215565b5b5f6139a58582860161342c565b92505060206139b68582860161396e565b9150509250929050565b5f60c083015f8301518482035f8601526139da8282613756565b915050602083015184820360208601526139f48282613756565b91505060408301518482036040860152613a0e8282613756565b9150506060830151613a236060860182613522565b506080830151613a36608086018261378e565b5060a0830151613a4960a08601826137b0565b508091505092915050565b5f6020820190508181035f830152613a6c81846139c0565b905092915050565b5f5ffd5b7f4e487b71000000000000000000000000000000000000000000000000000000005f52604160045260245ffd5b613aae826132f8565b810181811067ffffffffffffffff82111715613acd57613acc613a78565b5b80604052505050565b5f613adf61320c565b9050613aeb8282613aa5565b919050565b5f67ffffffffffffffff821115613b0a57613b09613a78565b5b613b13826132f8565b9050602081019050919050565b828183375f83830152505050565b5f613b40613b3b84613af0565b613ad6565b905082815260208101848484011115613b5c57613b5b613a74565b5b613b67848285613b20565b509392505050565b5f82601f830112613b8357613b826135d0565b5b8135613b93848260208601613b2e565b91505092915050565b5f5f5f5f60808587031215613bb457613bb3613215565b5b5f613bc18782880161342c565b9450506020613bd28782880161342c565b9350506040613be38782880161337f565b925050606085013567ffffffffffffffff811115613c0457613c03613219565b5b613c1087828801613b6f565b91505092959194509250565b5f5f60408385031215613c3257613c31613215565b5b5f613c3f8582860161342c565b9250506020613c508582860161342c565b9150509250929050565b5f5f5f5f5f5f5f5f60a0898b031215613c7657613c75613215565b5b5f613c838b828c0161342c565b985050602089013567ffffffffffffffff811115613ca457613ca3613219565b5b613cb08b828c016135dc565b9750975050604089013567ffffffffffffffff811115613cd357613cd2613219565b5b613cdf8b828c016135dc565b9550955050606089013567ffffffffffffffff811115613d0257613d01613219565b5b613d0e8b828c016135dc565b93509350506080613d218b828c0161337f565b9150509295985092959890939650565b5f81519050919050565b5f82825260208201905092915050565b5f819050602082019050919050565b5f613d65838361378e565b60208301905092915050565b5f602082019050919050565b5f613d8782613d31565b613d918185613d3b565b9350613d9c83613d4b565b805f5b83811015613dcc578151613db38882613d5a565b9750613dbe83613d71565b925050600181019050613d9f565b5085935050505092915050565b5f6020820190508181035f830152613df18184613d7d565b905092915050565b7f4e487b71000000000000000000000000000000000000000000000000000000005f52602260045260245ffd5b5f6002820490506001821680613e3d57607f821691505b602082108103613e5057613e4f613df9565b5b50919050565b5f606082019050613e695f8301866133ee565b613e7660208301856136f5565b613e8360408301846133ee565b949350505050565b7f4e487b71000000000000000000000000000000000000000000000000000000005f52601160045260245ffd5b5f613ec282613360565b91507fffffffffffffffffffffffffffffffffffffffffffffffffffffffffffffffff8203613ef457613ef3613e8b565b5b600182019050919050565b5f819050815f5260205f209050919050565b5f6020601f8301049050919050565b5f82821b905092915050565b5f60088302613f5b7fffffffffffffffffffffffffffffffffffffffffffffffffffffffffffffffff82613f20565b613f658683613f20565b95508019841693508086168417925050509392505050565b5f819050919050565b5f613fa0613f9b613f9684613360565b613f7d565b613360565b9050919050565b5f819050919050565b613fb983613f86565b613fcd613fc582613fa7565b848454613f2c565b825550505050565b5f5f905090565b613fe4613fd5565b613fef818484613fb0565b505050565b5b81811015614012576140075f82613fdc565b600181019050613ff5565b5050565b601f8211156140575761402881613eff565b61403184613f11565b81016020851015614040578190505b61405461404c85613f11565b830182613ff4565b50505b505050565b5f82821c905092915050565b5f6140775f198460080261405c565b1980831691505092915050565b5f61408f8383614068565b9150826002028217905092915050565b6140a8826132d0565b67ffffffffffffffff8111156140c1576140c0613a78565b5b6140cb8254613e26565b6140d6828285614016565b5f60209050601f831160018114614107575f84156140f5578287015190505b6140ff8582614084565b865550614166565b601f19841661411586613eff565b5f5b8281101561413c57848901518255600182019150602085019450602081019050614117565b868310156141595784890151614155601f891682614068565b8355505b6001600288020188555050505b505050505050565b5f61417983856132da565b9350614186838584613b20565b61418f836132f8565b840190509392505050565b5f6060820190508181035f8301526141b381878961416e565b905081810360208301526141c881858761416e565b90506141d760408301846136f5565b9695505050505050565b5f6141eb82613360565b91506141f683613360565b925082820190508082111561420e5761420d613e8b565b5b92915050565b7f53564e46543a206e6f6e6578697374656e7420746f6b656e00000000000000005f82015250565b5f6142486018836132da565b915061425382614214565b602082019050919050565b5f6020820190508181035f8301526142758161423c565b9050919050565b7f53564e46543a206f6e6c79206d696e74657200000000000000000000000000005f82015250565b5f6142b06012836132da565b91506142bb8261427c565b602082019050919050565b5f6020820190508181035f8301526142dd816142a4565b9050919050565b5f81905092915050565b5f6142f8826132d0565b61430281856142e4565b93506143128185602086016132ea565b80840191505092915050565b5f61432982856142ee565b915061433582846142ee565b91508190509392505050565b7f53564e46543a20616c726561647920636f6c6c656374656400000000000000005f82015250565b5f6143756018836132da565b915061438082614341565b602082019050919050565b5f6020820190508181035f8301526143a281614369565b9050919050565b7f4e487b71000000000000000000000000000000000000000000000000000000005f52603260045260245ffd5b5f81519050919050565b5f82825260208201905092915050565b5f6143fa826143d6565b61440481856143e0565b93506144148185602086016132ea565b61441d816132f8565b840191505092915050565b5f60808201905061443b5f8301876133ee565b61444860208301866133ee565b61445560408301856136f5565b818103606083015261446781846143f0565b905095945050505050565b5f8151905061448081613248565b92915050565b5f6020828403121561449b5761449a613215565b5b5f6144a884828501614472565b91505092915050565b7f4e487b71000000000000000000000000000000000000000000000000000000005f52601260045260245ffd5b5f6040820190506144f15f8301856133ee565b6144fe60208301846136f5565b939250505056fea26469706673582212205150473a4849c07d314cc6c0031c937b8b2ef92e2efa329fc4364a174c4027fc64736f6c634300081c0033",
  "linkReferences": {},
  "deployedLinkReferences": {},
  "immutableReferences": {},
  "inputSourceName": "project/contracts/SafariVerseNFT.sol",
  "buildInfoId": "solc-0_8_28-76ec8d80163b188796f9ef3a2421c89907b8330b"
}