{
  "_format": "hh3-artifact-1",
  "contractName": "SafariMart",
  "sourceName": "contracts/SafariMart.sol",
  "abi": [
    {
      "inputs": [
        {
          "internalType": "address",
          "name": "initialOwner",
          "type": "address"
        },
        {
          "internalType": "address",
          "name": "_feeRecipient",
          "type": "address"
        }
      ],
      "stateMutability": "nonpayable",
      "type": "constructor"
    },
    {
      "inputs": [],
      "name": "EnforcedPause",
      "type": "error"
    },
    {
      "inputs": [],
      "name": "ExpectedPause",
      "type": "error"
    },
    {
      "inputs": [
        {
          "internalType": "address",
          "name": "owner",
          "type": "address"
        }
      ],
      "name": "OwnableInvalidOwner",
      "type": "error"
    },
    {
      "inputs": [
        {
          "internalType": "address",
          "name": "account",
          "type": "address"
        }
      ],
      "name": "OwnableUnauthorizedAccount",
      "type": "error"
    },
    {
      "inputs": [],
      "name": "ReentrancyGuardReentrantCall",
      "type": "error"
    },
    {
      "anonymous": false,
      "inputs": [
        {
          "indexed": false,
          "internalType": "address",
          "name": "newFeeRecipient",
          "type": "address"
        }
      ],
      "name": "FeeRecipientUpdated",
      "type": "event"
    },
    {
      "anonymous": false,
      "inputs": [
        {
          "indexed": true,
          "internalType": "address",
          "name": "previousOwner",
          "type": "address"
        },
        {
          "indexed": true,
          "internalType": "address",
          "name": "newOwner",
          "type": "address"
        }
      ],
      "name": "OwnershipTransferred",
      "type": "event"
    },
    {
      "anonymous": false,
      "inputs": [
        {
          "indexed": false,
          "internalType": "address",
          "name": "account",
          "type": "address"
        }
      ],
      "name": "Paused",
      "type": "event"
    },
    {
      "anonymous": false,
      "inputs": [
        {
          "indexed": false,
          "internalType": "uint256",
          "name": "newFeePercent",
          "type": "uint256"
        }
      ],
      "name": "PlatformFeeUpdated",
      "type": "event"
    },
    {
      "anonymous": false,
      "inputs": [
        {
          "indexed": true,
          "internalType": "uint256",
          "name": "productId",
          "type": "uint256"
        },
        {
          "indexed": true,
          "internalType": "address",
          "name": "creator",
          "type": "address"
        },
        {
          "indexed": false,
          "internalType": "string",
          "name": "title",
          "type": "string"
        },
        {
          "indexed": false,
          "internalType": "uint256",
          "name": "price",
          "type": "uint256"
        },
        {
          "indexed": false,
          "internalType": "string",
          "name": "category",
          "type": "string"
        }
      ],
      "name": "ProductListed",
      "type": "event"
    },
    {
      "anonymous": false,
      "inputs": [
        {
          "indexed": true,
          "internalType": "uint256",
          "name": "purchaseId",
          "type": "uint256"
        },
        {
          "indexed": true,
          "internalType": "uint256",
          "name": "productId",
          "type": "uint256"
        },
        {
          "indexed": true,
          "internalType": "address",
          "name": "buyer",
          "type": "address"
        },
        {
          "indexed": false,
          "internalType": "uint256",
          "name": "pricePaid",
          "type": "uint256"
        },
        {
          "indexed": false,
          "internalType": "address",
          "name": "creator",
          "type": "address"
        }
      ],
      "name": "ProductPurchased",
      "type": "event"
    },
    {
      "anonymous": false,
      "inputs": [
        {
          "indexed": true,
          "internalType": "uint256",
          "name": "productId",
          "type": "uint256"
        },
        {
          "indexed": false,
          "internalType": "string",
          "name": "title",
          "type": "string"
        },
        {
          "indexed": false,
          "internalType": "uint256",
          "name": "price",
          "type": "uint256"
        },
        {
          "indexed": false,
          "internalType": "bool",
          "name": "isActive",
          "type": "bool"
        }
      ],
      "name": "ProductUpdated",
      "type": "event"
    },
    {
      "anonymous": false,
      "inputs": [
        {
          "indexed": false,
          "internalType": "address",
          "name": "account",
          "type": "address"
        }
      ],
      "name": "Unpaused",
      "type": "event"
    },
    {
      "inputs": [],
      "name": "emergencyWithdraw",
      "outputs": [],
      "stateMutability": "nonpayable",
      "type": "function"
    },
    {
      "inputs": [],
      "name": "feeRecipient",
      "outputs": [
        {
          "internalType": "address",
          "name": "",
          "type": "address"
        }
      ],
      "stateMutability": "view",
      "type": "function"
    },
    {
      "inputs": [],
      "name": "getAllActiveProducts",
      "outputs": [
        {
          "components": [
            {
              "internalType": "uint256",
              "name": "productId",
              "type": "uint256"
            },
            {
              "internalType": "string",
              "name": "fileUrl",
              "type": "string"
            },
            {
              "internalType": "string",
              "name": "title",
              "type": "string"
            },
            {
              "internalType": "string",
              "name": "description",
              "type": "string"
            },
            {
              "internalType": "string",
              "name": "category",
              "type": "string"
            },
            {
              "internalType": "uint256",
              "name": "price",
              "type": "uint256"
            },
            {
              "internalType": "address",
              "name": "creator",
              "type": "address"
            },
            {
              "internalType": "bool",
              "name": "isActive",
              "type": "bool"
            },
            {
              "internalType": "uint64",
              "name": "createdAt",
              "type": "uint64"
            },
            {
              "internalType": "uint256",
              "name": "totalSales",
              "type": "uint256"
            },
            {
              "internalType": "uint256",
              "name": "totalRevenue",
              "type": "uint256"
            }
          ],
          "internalType": "struct SafariMart.Product[]",
          "name": "",
          "type": "tuple[]"
        }
      ],
      "stateMutability": "view",
      "type": "function"
    },
    {
      "inputs": [
        {
          "internalType": "address",
          "name": "creator",
          "type": "address"
        }
      ],
      "name": "getCreatorProductsWithData",
      "outputs": [
        {
          "internalType": "uint256[]",
          "name": "productIds",
          "type": "uint256[]"
        },
        {
          "components": [
            {
              "internalType": "uint256",
              "name": "productId",
              "type": "uint256"
            },
            {
              "internalType": "string",
              "name": "fileUrl",
              "type": "string"
            },
            {
              "internalType": "string",
              "name": "title",
              "type": "string"
            },
            {
              "internalType": "string",
              "name": "description",
              "type": "string"
            },
            {
              "internalType": "string",
              "name": "category",
              "type": "string"
            },
            {
              "internalType": "uint256",
              "name": "price",
              "type": "uint256"
            },
            {
              "internalType": "address",
              "name": "creator",
              "type": "address"
            },
            {
              "internalType": "bool",
              "name": "isActive",
              "type": "bool"
            },
            {
              "internalType": "uint64",
              "name": "createdAt",
              "type": "uint64"
            },
            {
              "internalType": "uint256",
              "name": "totalSales",
              "type": "uint256"
            },
            {
              "internalType": "uint256",
              "name": "totalRevenue",
              "type": "uint256"
            }
          ],
          "internalType": "struct SafariMart.Product[]",
          "name": "products",
          "type": "tuple[]"
        }
      ],
      "stateMutability": "view",
      "type": "function"
    },
    {
      "inputs": [],
      "name": "getMyProducts",
      "outputs": [
        {
          "internalType": "uint256[]",
          "name": "",
          "type": "uint256[]"
        }
      ],
      "stateMutability": "view",
      "type": "function"
    },
    {
      "inputs": [],
      "name": "getMyProductsWithData",
      "outputs": [
        {
          "internalType": "uint256[]",
          "name": "productIds",
          "type": "uint256[]"
        },
        {
          "components": [
            {
              "internalType": "uint256",
              "name": "productId",
              "type": "uint256"
            },
            {
              "internalType": "string",
              "name": "fileUrl",
              "type": "string"
            },
            {
              "internalType": "string",
              "name": "title",
              "type": "string"
            },
            {
              "internalType": "string",
              "name": "description",
              "type": "string"
            },
            {
              "internalType": "string",
              "name": "category",
              "type": "string"
            },
            {
              "internalType": "uint256",
              "name": "price",
              "type": "uint256"
            },
            {
              "internalType": "address",
              "name": "creator",
              "type": "address"
            },
            {
              "internalType": "bool",
              "name": "isActive",
              "type": "bool"
            },
            {
              "internalType": "uint64",
              "name": "createdAt",
              "type": "uint64"
            },
            {
              "internalType": "uint256",
              "name": "totalSales",
              "type": "uint256"
            },
            {
              "internalType": "uint256",
              "name": "totalRevenue",
              "type": "uint256"
            }
          ],
          "internalType": "struct SafariMart.Product[]",
          "name": "products",
          "type": "tuple[]"
        }
      ],
      "stateMutability": "view",
      "type": "function"
    },
    {
      "inputs": [],
      "name": "getMyPurchases",
      "outputs": [
        {
          "internalType": "uint256[]",
          "name": "",
          "type": "uint256[]"
        }
      ],
      "stateMutability": "view",
      "type": "function"
    },
    {
      "inputs": [
        {
          "internalType": "uint256",
          "name": "productId",
          "type": "uint256"
        }
      ],
      "name": "getProduct",
      "outputs": [
        {
          "components": [
            {
              "internalType": "uint256",
              "name": "productId",
              "type": "uint256"
            },
            {
              "internalType": "string",
              "name": "fileUrl",
              "type": "string"
            },
            {
              "internalType": "string",
              "name": "title",
              "type": "string"
            },
            {
              "internalType": "string",
              "name": "description",
              "type": "string"
            },
            {
              "internalType": "string",
              "name": "category",
              "type": "string"
            },
            {
              "internalType": "uint256",
              "name": "price",
              "type": "uint256"
            },
            {
              "internalType": "address",
              "name": "creator",
              "type": "address"
            },
            {
              "internalType": "bool",
              "name": "isActive",
              "type": "bool"
            },
            {
              "internalType": "uint64",
              "name": "createdAt",
              "type": "uint64"
            },
            {
              "internalType": "uint256",
              "name": "totalSales",
              "type": "uint256"
            },
            {
              "internalType": "uint256",
              "name": "totalRevenue",
              "type": "uint256"
            }
          ],
          "internalType": "struct SafariMart.Product",
          "name": "",
          "type": "tuple"
        }
      ],
      "stateMutability": "view",
      "type": "function"
    },
    {
      "inputs": [
        {
          "internalType": "string",
          "name": "category",
          "type": "string"
        }
      ],
      "name": "getProductsByCategory",
      "outputs": [
        {
          "components": [
            {
              "internalType": "uint256",
              "name": "productId",
              "type": "uint256"
            },
            {
              "internalType": "string",
              "name": "fileUrl",
              "type": "string"
            },
            {
              "internalType": "string",
              "name": "title",
              "type": "string"
            },
            {
              "internalType": "string",
              "name": "description",
              "type": "string"
            },
            {
              "internalType": "string",
              "name": "category",
              "type": "string"
            },
            {
              "internalType": "uint256",
              "name": "price",
              "type": "uint256"
            },
            {
              "internalType": "address",
              "name": "creator",
              "type": "address"
            },
            {
              "internalType": "bool",
              "name": "isActive",
              "type": "bool"
            },
            {
              "internalType": "uint64",
              "name": "createdAt",
              "type": "uint64"
            },
            {
              "internalType": "uint256",
              "name": "totalSales",
              "type": "uint256"
            },
            {
              "internalType": "uint256",
              "name": "totalRevenue",
              "type": "uint256"
            }
          ],
          "internalType": "struct SafariMart.Product[]",
          "name": "",
          "type": "tuple[]"
        }
      ],
      "stateMutability": "view",
      "type": "function"
    },
    {
      "inputs": [
        {
          "internalType": "address",
          "name": "creator",
          "type": "address"
        }
      ],
      "name": "getProductsByCreator",
      "outputs": [
        {
          "internalType": "uint256[]",
          "name": "",
          "type": "uint256[]"
        }
      ],
      "stateMutability": "view",
      "type": "function"
    },
    {
      "inputs": [
        {
          "internalType": "uint256",
          "name": "purchaseId",
          "type": "uint256"
        }
      ],
      "name": "getPurchase",
      "outputs": [
        {
          "components": [
            {
              "internalType": "uint256",
              "name": "purchaseId",
              "type": "uint256"
            },
            {
              "internalType": "uint256",
              "name": "productId",
              "type": "uint256"
            },
            {
              "internalType": "address",
              "name": "buyer",
              "type": "address"
            },
            {
              "internalType": "uint256",
              "name": "pricePaid",
              "type": "uint256"
            },
            {
              "internalType": "uint64",
              "name": "purchasedAt",
              "type": "uint64"
            }
          ],
          "internalType": "struct SafariMart.Purchase",
          "name": "",
          "type": "tuple"
        }
      ],
      "stateMutability": "view",
      "type": "function"
    },
    {
      "inputs": [
        {
          "internalType": "address",
          "name": "buyer",
          "type": "address"
        }
      ],
      "name": "getPurchaseHistoryWithDetails",
      "outputs": [
        {
          "components": [
            {
              "internalType": "uint256",
              "name": "purchaseId",
              "type": "uint256"
            },
            {
              "internalType": "uint256",
              "name": "productId",
              "type": "uint256"
            },
            {
              "internalType": "address",
              "name": "buyer",
              "type": "address"
            },
            {
              "internalType": "uint256",
              "name": "pricePaid",
              "type": "uint256"
            },
            {
              "internalType": "uint64",
              "name": "purchasedAt",
              "type": "uint64"
            }
          ],
          "internalType": "struct SafariMart.Purchase[]",
          "name": "purchases",
          "type": "tuple[]"
        },
        {
          "components": [
            {
              "internalType": "uint256",
              "name": "productId",
              "type": "uint256"
            },
            {
              "internalType": "string",
              "name": "fileUrl",
              "type": "string"
            },
            {
              "internalType": "string",
              "name": "title",
              "type": "string"
            },
            {
              "internalType": "string",
              "name": "description",
              "type": "string"
            },
            {
              "internalType": "string",
              "name": "category",
              "type": "string"
            },
            {
              "internalType": "uint256",
              "name": "price",
              "type": "uint256"
            },
            {
              "internalType": "address",
              "name": "creator",
              "type": "address"
            },
            {
              "internalType": "bool",
              "name": "isActive",
              "type": "bool"
            },
            {
              "internalType": "uint64",
              "name": "createdAt",
              "type": "uint64"
            },
            {
              "internalType": "uint256",
              "name": "totalSales",
              "type": "uint256"
            },
            {
              "internalType": "uint256",
              "name": "totalRevenue",
              "type": "uint256"
            }
          ],
          "internalType": "struct SafariMart.Product[]",
          "name": "products",
          "type": "tuple[]"
        }
      ],
      "stateMutability": "view",
      "type": "function"
    },
    {
      "inputs": [
        {
          "internalType": "address",
          "name": "buyer",
          "type": "address"
        }
      ],
      "name": "getPurchasesByBuyer",
      "outputs": [
        {
          "internalType": "uint256[]",
          "name": "",
          "type": "uint256[]"
        }
      ],
      "stateMutability": "view",
      "type": "function"
    },
    {
      "inputs": [
        {
          "internalType": "address",
          "name": "buyer",
          "type": "address"
        },
        {
          "internalType": "uint256",
          "name": "productId",
          "type": "uint256"
        }
      ],
      "name": "hasPurchased",
      "outputs": [
        {
          "internalType": "bool",
          "name": "",
          "type": "bool"
        }
      ],
      "stateMutability": "view",
      "type": "function"
    },
    {
      "inputs": [
        {
          "internalType": "string",
          "name": "fileUrl",
          "type": "string"
        },
        {
          "internalType": "string",
          "name": "title",
          "type": "string"
        },
        {
          "internalType": "string",
          "name": "description",
          "type": "string"
        },
        {
          "internalType": "string",
          "name": "category",
          "type": "string"
        },
        {
          "internalType": "uint256",
          "name": "price",
          "type": "uint256"
        }
      ],
      "name": "listProduct",
      "outputs": [
        {
          "internalType": "uint256",
          "name": "productId",
          "type": "uint256"
        }
      ],
      "stateMutability": "nonpayable",
      "type": "function"
    },
    {
      "inputs": [],
      "name": "nextProductId",
      "outputs": [
        {
          "internalType": "uint256",
          "name": "",
          "type": "uint256"
        }
      ],
      "stateMutability": "view",
      "type": "function"
    },
    {
      "inputs": [],
      "name": "nextPurchaseId",
      "outputs": [
        {
          "internalType": "uint256",
          "name": "",
          "type": "uint256"
        }
      ],
      "stateMutability": "view",
      "type": "function"
    },
    {
      "inputs": [],
      "name": "owner",
      "outputs": [
        {
          "internalType": "address",
          "name": "",
          "type": "address"
        }
      ],
      "stateMutability": "view",
      "type": "function"
    },
    {
      "inputs": [],
      "name": "pause",
      "outputs": [],
      "stateMutability": "nonpayable",
      "type": "function"
    },
    {
      "inputs": [],
      "name": "paused",
      "outputs": [
        {
          "internalType": "bool",
          "name": "",
          "type": "bool"
        }
      ],
      "stateMutability": "view",
      "type": "function"
    },
    {
      "inputs": [],
      "name": "platformFeePercent",
      "outputs": [
        {
          "internalType": "uint256",
          "name": "",
          "type": "uint256"
        }
      ],
      "stateMutability": "view",
      "type": "function"
    },
    {
      "inputs": [
        {
          "internalType": "uint256",
          "name": "productId",
          "type": "uint256"
        }
      ],
      "name": "purchaseProduct",
      "outputs": [
        {
          "internalType": "uint256",
          "name": "purchaseId",
          "type": "uint256"
        }
      ],
      "stateMutability": "payable",
      "type": "function"
    },
    {
      "inputs": [],
      "name": "renounceOwnership",
      "outputs": [],
      "stateMutability": "nonpayable",
      "type": "function"
    },
    {
      "inputs": [
        {
          "internalType": "address",
          "name": "newFeeRecipient",
          "type": "address"
        }
      ],
      "name": "setFeeRecipient",
      "outputs": [],
      "stateMutability": "nonpayable",
      "type": "function"
    },
    {
      "inputs": [
        {
          "internalType": "uint256",
          "name": "newFeePercent",
          "type": "uint256"
        }
      ],
      "name": "setPlatformFee",
      "outputs": [],
      "stateMutability": "nonpayable",
      "type": "function"
    },
    {
      "inputs": [
        {
          "internalType": "address",
          "name": "newOwner",
          "type": "address"
        }
      ],
      "name": "transferOwnership",
      "outputs": [],
      "stateMutability": "nonpayable",
      "type": "function"
    },
    {
      "inputs": [],
      "name": "unpause",
      "outputs": [],
      "stateMutability": "nonpayable",
      "type": "function"
    },
    {
      "inputs": [
        {
          "internalType": "uint256",
          "name": "productId",
          "type": "uint256"
        },
        {
          "internalType": "string",
          "name": "title",
          "type": "string"
        },
        {
          "internalType": "string",
          "name": "description",
          "type": "string"
        },
        {
          "internalType": "uint256",
          "name": "price",
          "type": "uint256"
        },
        {
          "internalType": "bool",
          "name": "isActive",
          "type": "bool"
        }
      ],
      "name": "updateProduct",
      "outputs": [],
      "stateMutability": "nonpayable",
      "type": "function"
    }
  ],
  "bytecode": "0x608060405260fa600555348015610014575f5ffd5b506040516150c53803806150c583398181016040528101906100369190610234565b815f73ffffffffffffffffffffffffffffffffffffffff168173ffffffffffffffffffffffffffffffffffffffff16036100a7575f6040517f1e4fbdf700000000000000000000000000000000000000000000000000000000815260040161009e9190610281565b60405180910390fd5b6100b68161011560201b60201c565b50600180819055508060065f6101000a81548173ffffffffffffffffffffffffffffffffffffffff021916908373ffffffffffffffffffffffffffffffffffffffff16021790555060016003819055506001600481905550505061029a565b5f5f5f9054906101000a900473ffffffffffffffffffffffffffffffffffffffff169050815f5f6101000a81548173ffffffffffffffffffffffffffffffffffffffff021916908373ffffffffffffffffffffffffffffffffffffffff1602179055508173ffffffffffffffffffffffffffffffffffffffff168173ffffffffffffffffffffffffffffffffffffffff167f8be0079c531659141344cd1fd0a4f28419497f9722a3daafe3b4186f6b6457e060405160405180910390a35050565b5f5ffd5b5f73ffffffffffffffffffffffffffffffffffffffff82169050919050565b5f610203826101da565b9050919050565b610213816101f9565b811461021d575f5ffd5b50565b5f8151905061022e8161020a565b92915050565b5f5f6040838503121561024a576102496101d6565b5b5f61025785828601610220565b925050602061026885828601610220565b9150509250929050565b61027b816101f9565b82525050565b5f6020820190506102945f830184610272565b92915050565b614e1e806102a75f395ff3fe6080604052600436106101b6575f3560e01c806373c85715116100eb578063b9db15b411610089578063e4a7118311610063578063e4a7118314610601578063e74b981b1461062b578063f2fde38b14610653578063fdca4ca31461067b576101b6565b8063b9db15b414610587578063da598a7e146105c3578063db2e21bc146105eb576101b6565b80638c639a85116100c55780638c639a85146104ba5780638da5cb5b146104e45780638f38cc7b1461050e578063b03a476e1461054a576101b6565b806373c857151461043d5780637d690e0a146104685780638456cb59146104a4576101b6565b80634246b911116101585780634de91a63116101325780634de91a63146103965780634f1bb00f146103c05780635c975abb146103fd578063715018a614610427576101b6565b80634246b911146102f45780634690484014610330578063473cbdfc1461035a576101b6565b806323b4a7a31161019457806323b4a7a3146102485780633742a9f71461027257806338e76a03146102ae5780633f4ba83a146102de576101b6565b806311923132146101ba57806312c8aa28146101f657806312e8e2c314610220575b5f5ffd5b3480156101c5575f5ffd5b506101e060048036038101906101db9190613760565b6106a5565b6040516101ed91906137b8565b60405180910390f35b348015610201575f5ffd5b5061020a610707565b6040516102179190613a4c565b60405180910390f35b34801561022b575f5ffd5b5061024660048036038101906102419190613a6c565b610c33565b005b348015610253575f5ffd5b5061025c610cc1565b6040516102699190613aa6565b60405180910390f35b34801561027d575f5ffd5b5061029860048036038101906102939190613a6c565b610cca565b6040516102a59190613b25565b60405180910390f35b6102c860048036038101906102c39190613a6c565b610e39565b6040516102d59190613aa6565b60405180910390f35b3480156102e9575f5ffd5b506102f26113d0565b005b3480156102ff575f5ffd5b5061031a60048036038101906103159190613b9f565b6113e2565b6040516103279190613aa6565b60405180910390f35b34801561033b575f5ffd5b50610344611839565b6040516103519190613ca4565b60405180910390f35b348015610365575f5ffd5b50610380600480360381019061037b9190613cbd565b61185e565b60405161038d9190613d90565b60405180910390f35b3480156103a1575f5ffd5b506103aa6118f1565b6040516103b79190613aa6565b60405180910390f35b3480156103cb575f5ffd5b506103e660048036038101906103e19190613cbd565b6118fa565b6040516103f4929190613ebe565b60405180910390f35b348015610408575f5ffd5b50610411611ea8565b60405161041e91906137b8565b60405180910390f35b348015610432575f5ffd5b5061043b611ebd565b005b348015610448575f5ffd5b50610451611ed0565b60405161045f929190613ef3565b60405180910390f35b348015610473575f5ffd5b5061048e60048036038101906104899190613cbd565b611ee4565b60405161049b9190613d90565b60405180910390f35b3480156104af575f5ffd5b506104b8611f77565b005b3480156104c5575f5ffd5b506104ce611f89565b6040516104db9190613aa6565b60405180910390f35b3480156104ef575f5ffd5b506104f8611f8f565b6040516105059190613ca4565b60405180910390f35b348015610519575f5ffd5b50610534600480360381019061052f9190613f28565b611fb6565b6040516105419190613a4c565b60405180910390f35b348015610555575f5ffd5b50610570600480360381019061056b9190613cbd565b612579565b60405161057e929190613ef3565b60405180910390f35b348015610592575f5ffd5b506105ad60048036038101906105a89190613a6c565b61258e565b6040516105ba9190614074565b60405180910390f35b3480156105ce575f5ffd5b506105e960048036038101906105e491906140be565b612964565b005b3480156105f6575f5ffd5b506105ff612b89565b005b34801561060c575f5ffd5b50610615612c25565b6040516106229190613d90565b60405180910390f35b348015610636575f5ffd5b50610651600480360381019061064c9190613cbd565b612cb6565b005b34801561065e575f5ffd5b5061067960048036038101906106749190613cbd565b612da6565b005b348015610686575f5ffd5b5061068f612e2a565b60405161069c9190613d90565b60405180910390f35b5f600c5f8473ffffffffffffffffffffffffffffffffffffffff1673ffffffffffffffffffffffffffffffffffffffff1681526020019081526020015f205f8381526020019081526020015f205f9054906101000a900460ff16905092915050565b60605f5f90505f600190505b6003548110156107cb575f73ffffffffffffffffffffffffffffffffffffffff1660075f8381526020019081526020015f206006015f9054906101000a900473ffffffffffffffffffffffffffffffffffffffff1673ffffffffffffffffffffffffffffffffffffffff16141580156107aa575060075f8281526020019081526020015f2060060160149054906101000a900460ff165b156107be5781806107ba906141a2565b9250505b8080600101915050610713565b505f8167ffffffffffffffff8111156107e7576107e66141e9565b5b60405190808252806020026020018201604052801561082057816020015b61080d61360c565b8152602001906001900390816108055790505b5090505f5f90505f600190505b600354811015610c29575f73ffffffffffffffffffffffffffffffffffffffff1660075f8381526020019081526020015f206006015f9054906101000a900473ffffffffffffffffffffffffffffffffffffffff1673ffffffffffffffffffffffffffffffffffffffff16141580156108c4575060075f8281526020019081526020015f2060060160149054906101000a900460ff165b15610c1c5760075f8281526020019081526020015f20604051806101600160405290815f82015481526020016001820180546108ff90614243565b80601f016020809104026020016040519081016040528092919081815260200182805461092b90614243565b80156109765780601f1061094d57610100808354040283529160200191610976565b820191905f5260205f20905b81548152906001019060200180831161095957829003601f168201915b5050505050815260200160028201805461098f90614243565b80601f01602080910402602001604051908101604052809291908181526020018280546109bb90614243565b8015610a065780601f106109dd57610100808354040283529160200191610a06565b820191905f5260205f20905b8154815290600101906020018083116109e957829003601f168201915b50505050508152602001600382018054610a1f90614243565b80601f0160208091040260200160405190810160405280929190818152602001828054610a4b90614243565b8015610a965780601f10610a6d57610100808354040283529160200191610a96565b820191905f5260205f20905b815481529060010190602001808311610a7957829003601f168201915b50505050508152602001600482018054610aaf90614243565b80601f0160208091040260200160405190810160405280929190818152602001828054610adb90614243565b8015610b265780601f10610afd57610100808354040283529160200191610b26565b820191905f5260205f20905b815481529060010190602001808311610b0957829003601f168201915b5050505050815260200160058201548152602001600682015f9054906101000a900473ffffffffffffffffffffffffffffffffffffffff1673ffffffffffffffffffffffffffffffffffffffff1673ffffffffffffffffffffffffffffffffffffffff1681526020016006820160149054906101000a900460ff161515151581526020016006820160159054906101000a900467ffffffffffffffff1667ffffffffffffffff1667ffffffffffffffff16815260200160078201548152602001600882015481525050838381518110610c0257610c01614273565b5b60200260200101819052508180610c18906141a2565b9250505b808060010191505061082d565b5081935050505090565b610c3b612ebb565b6103e8811115610c80576040517f08c379a0000000000000000000000000000000000000000000000000000000008152600401610c7790614320565b60405180910390fd5b806005819055507f45610d581145924dd7090a5017e5f2b1d6f42213bb2e95707ff86846bbfcb1ca81604051610cb69190613aa6565b60405180910390a150565b5f600454905090565b610cd2613681565b5f73ffffffffffffffffffffffffffffffffffffffff16600b5f8481526020019081526020015f206002015f9054906101000a900473ffffffffffffffffffffffffffffffffffffffff1673ffffffffffffffffffffffffffffffffffffffff1603610d73576040517f08c379a0000000000000000000000000000000000000000000000000000000008152600401610d6a906143ae565b60405180910390fd5b600b5f8381526020019081526020015f206040518060a00160405290815f820154815260200160018201548152602001600282015f9054906101000a900473ffffffffffffffffffffffffffffffffffffffff1673ffffffffffffffffffffffffffffffffffffffff1673ffffffffffffffffffffffffffffffffffffffff16815260200160038201548152602001600482015f9054906101000a900467ffffffffffffffff1667ffffffffffffffff1667ffffffffffffffff16815250509050919050565b5f610e42612f42565b610e4a612f88565b5f60075f8481526020019081526020015f2090505f73ffffffffffffffffffffffffffffffffffffffff16816006015f9054906101000a900473ffffffffffffffffffffffffffffffffffffffff1673ffffffffffffffffffffffffffffffffffffffff1603610eef576040517f08c379a0000000000000000000000000000000000000000000000000000000008152600401610ee69061443c565b60405180910390fd5b8060060160149054906101000a900460ff16610f40576040517f08c379a0000000000000000000000000000000000000000000000000000000008152600401610f37906144ca565b60405180910390fd5b60045f815480929190610f52906141a2565b9190505591505f5f3411610f6a578160050154610f6c565b345b90506040518060a001604052808481526020018581526020013373ffffffffffffffffffffffffffffffffffffffff1681526020018281526020014267ffffffffffffffff16815250600b5f8581526020019081526020015f205f820151815f0155602082015181600101556040820151816002015f6101000a81548173ffffffffffffffffffffffffffffffffffffffff021916908373ffffffffffffffffffffffffffffffffffffffff160217905550606082015181600301556080820151816004015f6101000a81548167ffffffffffffffff021916908367ffffffffffffffff160217905550905050816007015f81548092919061106d906141a2565b919050555080826008015f82825461108591906144e8565b9250508190555060095f3373ffffffffffffffffffffffffffffffffffffffff1673ffffffffffffffffffffffffffffffffffffffff1681526020019081526020015f2083908060018154018082558091505060019003905f5260205f20015f9091909190915055600a5f8581526020019081526020015f2083908060018154018082558091505060019003905f5260205f20015f90919091909150556001600c5f3373ffffffffffffffffffffffffffffffffffffffff1673ffffffffffffffffffffffffffffffffffffffff1681526020019081526020015f205f8681526020019081526020015f205f6101000a81548160ff0219169083151502179055505f34111561134c575f612710600554346111a0919061451b565b6111aa9190614589565b90505f81346111b991906145b9565b90505f8211801561121757505f73ffffffffffffffffffffffffffffffffffffffff1660065f9054906101000a900473ffffffffffffffffffffffffffffffffffffffff1673ffffffffffffffffffffffffffffffffffffffff1614155b156112825760065f9054906101000a900473ffffffffffffffffffffffffffffffffffffffff1673ffffffffffffffffffffffffffffffffffffffff166108fc8390811502906040515f60405180830381858888f19350505050158015611280573d5f5f3e3d5ffd5b505b836006015f9054906101000a900473ffffffffffffffffffffffffffffffffffffffff1673ffffffffffffffffffffffffffffffffffffffff166108fc8290811502906040515f60405180830381858888f193505050501580156112e8573d5f5f3e3d5ffd5b508360050154341115611349573373ffffffffffffffffffffffffffffffffffffffff166108fc85600501543461131f91906145b9565b90811502906040515f60405180830381858888f19350505050158015611347573d5f5f3e3d5ffd5b505b50505b3373ffffffffffffffffffffffffffffffffffffffff1684847f3940ce91d22ebd04faceb595d94fa5fec0a9aa10e824b548f88d609dd12c889284866006015f9054906101000a900473ffffffffffffffffffffffffffffffffffffffff166040516113b99291906145ec565b60405180910390a450506113cb612fc9565b919050565b6113d8612ebb565b6113e0612fd2565b565b5f6113eb612f88565b5f8a8a905011611430576040517f08c379a00000000000000000000000000000000000000000000000000000000081526004016114279061465d565b60405180910390fd5b5f8888905011611475576040517f08c379a000000000000000000000000000000000000000000000000000000000815260040161146c906146c5565b60405180910390fd5b5f82116114b7576040517f08c379a00000000000000000000000000000000000000000000000000000000081526004016114ae90614753565b60405180910390fd5b60035f8154809291906114c9906141a2565b9190505590506040518061016001604052808281526020018b8b8080601f0160208091040260200160405190810160405280939291908181526020018383808284375f81840152601f19601f82011690508083019250505050505050815260200189898080601f0160208091040260200160405190810160405280939291908181526020018383808284375f81840152601f19601f82011690508083019250505050505050815260200187878080601f0160208091040260200160405190810160405280939291908181526020018383808284375f81840152601f19601f82011690508083019250505050505050815260200185858080601f0160208091040260200160405190810160405280939291908181526020018383808284375f81840152601f19601f8201169050808301925050505050505081526020018381526020013373ffffffffffffffffffffffffffffffffffffffff1681526020016001151581526020014267ffffffffffffffff1681526020015f81526020015f81525060075f8381526020019081526020015f205f820151815f015560208201518160010190816116789190614911565b50604082015181600201908161168e9190614911565b5060608201518160030190816116a49190614911565b5060808201518160040190816116ba9190614911565b5060a0820151816005015560c0820151816006015f6101000a81548173ffffffffffffffffffffffffffffffffffffffff021916908373ffffffffffffffffffffffffffffffffffffffff16021790555060e08201518160060160146101000a81548160ff0219169083151502179055506101008201518160060160156101000a81548167ffffffffffffffff021916908367ffffffffffffffff1602179055506101208201518160070155610140820151816008015590505060085f3373ffffffffffffffffffffffffffffffffffffffff1673ffffffffffffffffffffffffffffffffffffffff1681526020019081526020015f2081908060018154018082558091505060019003905f5260205f20015f90919091909150553373ffffffffffffffffffffffffffffffffffffffff16817fc70903744648ba62771a2d2410274bf061b52210ea366530dd5bca16536c491e8a8a868989604051611824959493929190614a1a565b60405180910390a39998505050505050505050565b60065f9054906101000a900473ffffffffffffffffffffffffffffffffffffffff1681565b606060085f8373ffffffffffffffffffffffffffffffffffffffff1673ffffffffffffffffffffffffffffffffffffffff1681526020019081526020015f208054806020026020016040519081016040528092919081815260200182805480156118e557602002820191905f5260205f20905b8154815260200190600101908083116118d1575b50505050509050919050565b5f600354905090565b6060805f60095f8573ffffffffffffffffffffffffffffffffffffffff1673ffffffffffffffffffffffffffffffffffffffff1681526020019081526020015f2080548060200260200160405190810160405280929190818152602001828054801561198357602002820191905f5260205f20905b81548152602001906001019080831161196f575b505050505090505f815167ffffffffffffffff8111156119a6576119a56141e9565b5b6040519080825280602002602001820160405280156119df57816020015b6119cc613681565b8152602001906001900390816119c45790505b5090505f825167ffffffffffffffff8111156119fe576119fd6141e9565b5b604051908082528060200260200182016040528015611a3757816020015b611a2461360c565b815260200190600190039081611a1c5790505b5090505f5f90505b8351811015611e99575f600b5f868481518110611a5f57611a5e614273565b5b602002602001015181526020019081526020015f206040518060a00160405290815f820154815260200160018201548152602001600282015f9054906101000a900473ffffffffffffffffffffffffffffffffffffffff1673ffffffffffffffffffffffffffffffffffffffff1673ffffffffffffffffffffffffffffffffffffffff16815260200160038201548152602001600482015f9054906101000a900467ffffffffffffffff1667ffffffffffffffff1667ffffffffffffffff1681525050905080848381518110611b3857611b37614273565b5b602002602001018190525060075f826020015181526020019081526020015f20604051806101600160405290815f8201548152602001600182018054611b7d90614243565b80601f0160208091040260200160405190810160405280929190818152602001828054611ba990614243565b8015611bf45780601f10611bcb57610100808354040283529160200191611bf4565b820191905f5260205f20905b815481529060010190602001808311611bd757829003601f168201915b50505050508152602001600282018054611c0d90614243565b80601f0160208091040260200160405190810160405280929190818152602001828054611c3990614243565b8015611c845780601f10611c5b57610100808354040283529160200191611c84565b820191905f5260205f20905b815481529060010190602001808311611c6757829003601f168201915b50505050508152602001600382018054611c9d90614243565b80601f0160208091040260200160405190810160405280929190818152602001828054611cc990614243565b8015611d145780601f10611ceb57610100808354040283529160200191611d14565b820191905f5260205f20905b815481529060010190602001808311611cf757829003601f168201915b50505050508152602001600482018054611d2d90614243565b80601f0160208091040260200160405190810160405280929190818152602001828054611d5990614243565b8015611da45780601f10611d7b57610100808354040283529160200191611da4565b820191905f5260205f20905b815481529060010190602001808311611d8757829003601f168201915b5050505050815260200160058201548152602001600682015f9054906101000a900473ffffffffffffffffffffffffffffffffffffffff1673ffffffffffffffffffffffffffffffffffffffff1673ffffffffffffffffffffffffffffffffffffffff1681526020016006820160149054906101000a900460ff161515151581526020016006820160159054906101000a900467ffffffffffffffff1667ffffffffffffffff1667ffffffffffffffff16815260200160078201548152602001600882015481525050838381518110611e8057611e7f614273565b5b6020026020010181905250508080600101915050611a3f565b50818194509450505050915091565b5f60025f9054906101000a900460ff16905090565b611ec5612ebb565b611ece5f613033565b565b606080611edc336130f4565b915091509091565b606060095f8373ffffffffffffffffffffffffffffffffffffffff1673ffffffffffffffffffffffffffffffffffffffff1681526020019081526020015f20805480602002602001604051908101604052809291908181526020018280548015611f6b57602002820191905f5260205f20905b815481526020019060010190808311611f57575b50505050509050919050565b611f7f612ebb565b611f87613563565b565b60055481565b5f5f5f9054906101000a900473ffffffffffffffffffffffffffffffffffffffff16905090565b60605f5f90505f600190505b6003548110156120c4575f73ffffffffffffffffffffffffffffffffffffffff1660075f8381526020019081526020015f206006015f9054906101000a900473ffffffffffffffffffffffffffffffffffffffff1673ffffffffffffffffffffffffffffffffffffffff1614158015612059575060075f8281526020019081526020015f2060060160149054906101000a900460ff165b80156120a357508484604051612070929190614a8f565b604051809103902060075f8381526020019081526020015f206004016040516120999190614b39565b6040518091039020145b156120b75781806120b3906141a2565b9250505b8080600101915050611fc2565b505f8167ffffffffffffffff8111156120e0576120df6141e9565b5b60405190808252806020026020018201604052801561211957816020015b61210661360c565b8152602001906001900390816120fe5790505b5090505f5f90505f600190505b60035481101561256c575f73ffffffffffffffffffffffffffffffffffffffff1660075f8381526020019081526020015f206006015f9054906101000a900473ffffffffffffffffffffffffffffffffffffffff1673ffffffffffffffffffffffffffffffffffffffff16141580156121bd575060075f8281526020019081526020015f2060060160149054906101000a900460ff165b8015612207575086866040516121d4929190614a8f565b604051809103902060075f8381526020019081526020015f206004016040516121fd9190614b39565b6040518091039020145b1561255f5760075f8281526020019081526020015f20604051806101600160405290815f820154815260200160018201805461224290614243565b80601f016020809104026020016040519081016040528092919081815260200182805461226e90614243565b80156122b95780601f10612290576101008083540402835291602001916122b9565b820191905f5260205f20905b81548152906001019060200180831161229c57829003601f168201915b505050505081526020016002820180546122d290614243565b80601f01602080910402602001604051908101604052809291908181526020018280546122fe90614243565b80156123495780601f1061232057610100808354040283529160200191612349565b820191905f5260205f20905b81548152906001019060200180831161232c57829003601f168201915b5050505050815260200160038201805461236290614243565b80601f016020809104026020016040519081016040528092919081815260200182805461238e90614243565b80156123d95780601f106123b0576101008083540402835291602001916123d9565b820191905f5260205f20905b8154815290600101906020018083116123bc57829003601f168201915b505050505081526020016004820180546123f290614243565b80601f016020809104026020016040519081016040528092919081815260200182805461241e90614243565b80156124695780601f1061244057610100808354040283529160200191612469565b820191905f5260205f20905b81548152906001019060200180831161244c57829003601f168201915b5050505050815260200160058201548152602001600682015f9054906101000a900473ffffffffffffffffffffffffffffffffffffffff1673ffffffffffffffffffffffffffffffffffffffff1673ffffffffffffffffffffffffffffffffffffffff1681526020016006820160149054906101000a900460ff161515151581526020016006820160159054906101000a900467ffffffffffffffff1667ffffffffffffffff1667ffffffffffffffff1681526020016007820154815260200160088201548152505083838151811061254557612544614273565b5b6020026020010181905250818061255b906141a2565b9250505b8080600101915050612126565b5081935050505092915050565b606080612585836130f4565b91509150915091565b61259661360c565b5f73ffffffffffffffffffffffffffffffffffffffff1660075f8481526020019081526020015f206006015f9054906101000a900473ffffffffffffffffffffffffffffffffffffffff1673ffffffffffffffffffffffffffffffffffffffff1603612637576040517f08c379a000000000000000000000000000000000000000000000000000000000815260040161262e9061443c565b60405180910390fd5b60075f8381526020019081526020015f20604051806101600160405290815f820154815260200160018201805461266d90614243565b80601f016020809104026020016040519081016040528092919081815260200182805461269990614243565b80156126e45780601f106126bb576101008083540402835291602001916126e4565b820191905f5260205f20905b8154815290600101906020018083116126c757829003601f168201915b505050505081526020016002820180546126fd90614243565b80601f016020809104026020016040519081016040528092919081815260200182805461272990614243565b80156127745780601f1061274b57610100808354040283529160200191612774565b820191905f5260205f20905b81548152906001019060200180831161275757829003601f168201915b5050505050815260200160038201805461278d90614243565b80601f01602080910402602001604051908101604052809291908181526020018280546127b990614243565b80156128045780601f106127db57610100808354040283529160200191612804565b820191905f5260205f20905b8154815290600101906020018083116127e757829003601f168201915b5050505050815260200160048201805461281d90614243565b80601f016020809104026020016040519081016040528092919081815260200182805461284990614243565b80156128945780601f1061286b57610100808354040283529160200191612894565b820191905f5260205f20905b81548152906001019060200180831161287757829003601f168201915b5050505050815260200160058201548152602001600682015f9054906101000a900473ffffffffffffffffffffffffffffffffffffffff1673ffffffffffffffffffffffffffffffffffffffff1673ffffffffffffffffffffffffffffffffffffffff1681526020016006820160149054906101000a900460ff161515151581526020016006820160159054906101000a900467ffffffffffffffff1667ffffffffffffffff1667ffffffffffffffff168152602001600782015481526020016008820154815250509050919050565b5f60075f8981526020019081526020015f2090505f73ffffffffffffffffffffffffffffffffffffffff16816006015f9054906101000a900473ffffffffffffffffffffffffffffffffffffffff1673ffffffffffffffffffffffffffffffffffffffff1603612a09576040517f08c379a0000000000000000000000000000000000000000000000000000000008152600401612a009061443c565b60405180910390fd5b3373ffffffffffffffffffffffffffffffffffffffff16816006015f9054906101000a900473ffffffffffffffffffffffffffffffffffffffff1673ffffffffffffffffffffffffffffffffffffffff1614612a9a576040517f08c379a0000000000000000000000000000000000000000000000000000000008152600401612a9190614bbf565b60405180910390fd5b5f8311612adc576040517f08c379a0000000000000000000000000000000000000000000000000000000008152600401612ad390614753565b60405180910390fd5b5f878790501115612afc578686826002019182612afa929190614be7565b505b5f858590501115612b1c578484826003019182612b1a929190614be7565b505b828160050181905550818160060160146101000a81548160ff021916908315150217905550877fadb9ac1315ec4e133e9ecd9fe83ddb5a4b06c66fda5d0a63ef0b5a734758aaeb88888686604051612b779493929190614cb4565b60405180910390a25050505050505050565b612b91612ebb565b5f4790505f8111612bd7576040517f08c379a0000000000000000000000000000000000000000000000000000000008152600401612bce90614d3c565b60405180910390fd5b612bdf611f8f565b73ffffffffffffffffffffffffffffffffffffffff166108fc8290811502906040515f60405180830381858888f19350505050158015612c21573d5f5f3e3d5ffd5b5050565b606060095f3373ffffffffffffffffffffffffffffffffffffffff1673ffffffffffffffffffffffffffffffffffffffff1681526020019081526020015f20805480602002602001604051908101604052809291908181526020018280548015612cac57602002820191905f5260205f20905b815481526020019060010190808311612c98575b5050505050905090565b612cbe612ebb565b5f73ffffffffffffffffffffffffffffffffffffffff168173ffffffffffffffffffffffffffffffffffffffff1603612d2c576040517f08c379a0000000000000000000000000000000000000000000000000000000008152600401612d2390614dca565b60405180910390fd5b8060065f6101000a81548173ffffffffffffffffffffffffffffffffffffffff021916908373ffffffffffffffffffffffffffffffffffffffff1602179055507f7a7b5a0a132f9e0581eb8527f66eae9ee89c2a3e79d4ac7e41a1f1f4d48a7fc281604051612d9b9190613ca4565b60405180910390a150565b612dae612ebb565b5f73ffffffffffffffffffffffffffffffffffffffff168173ffffffffffffffffffffffffffffffffffffffff1603612e1e575f6040517f1e4fbdf7000000000000000000000000000000000000000000000000000000008152600401612e159190613ca4565b60405180910390fd5b612e2781613033565b50565b606060085f3373ffffffffffffffffffffffffffffffffffffffff1673ffffffffffffffffffffffffffffffffffffffff1681526020019081526020015f20805480602002602001604051908101604052809291908181526020018280548015612eb157602002820191905f5260205f20905b815481526020019060010190808311612e9d575b5050505050905090565b612ec36135c5565b73ffffffffffffffffffffffffffffffffffffffff16612ee1611f8f565b73ffffffffffffffffffffffffffffffffffffffff1614612f4057612f046135c5565b6040517f118cdaa7000000000000000000000000000000000000000000000000000000008152600401612f379190613ca4565b60405180910390fd5b565b600260015403612f7e576040517f3ee5aeb500000000000000000000000000000000000000000000000000000000815260040160405180910390fd5b6002600181905550565b612f90611ea8565b15612fc7576040517fd93c066500000000000000000000000000000000000000000000000000000000815260040160405180910390fd5b565b60018081905550565b612fda6135cc565b5f60025f6101000a81548160ff0219169083151502179055507f5db9ee0a495bf2e6ff9c91a7834c1ba4fdd244a5e8aa4e537bd38aeae4b073aa61301c6135c5565b6040516130299190613ca4565b60405180910390a1565b5f5f5f9054906101000a900473ffffffffffffffffffffffffffffffffffffffff169050815f5f6101000a81548173ffffffffffffffffffffffffffffffffffffffff021916908373ffffffffffffffffffffffffffffffffffffffff1602179055508173ffffffffffffffffffffffffffffffffffffffff168173ffffffffffffffffffffffffffffffffffffffff167f8be0079c531659141344cd1fd0a4f28419497f9722a3daafe3b4186f6b6457e060405160405180910390a35050565b6060805f60085f8573ffffffffffffffffffffffffffffffffffffffff1673ffffffffffffffffffffffffffffffffffffffff1681526020019081526020015f2080548060200260200160405190810160405280929190818152602001828054801561317d57602002820191905f5260205f20905b815481526020019060010190808311613169575b505050505090505f815167ffffffffffffffff8111156131a05761319f6141e9565b5b6040519080825280602002602001820160405280156131d957816020015b6131c661360c565b8152602001906001900390816131be5790505b5090505f5f90505b82518110156135555760075f848381518110613200576131ff614273565b5b602002602001015181526020019081526020015f20604051806101600160405290815f820154815260200160018201805461323a90614243565b80601f016020809104026020016040519081016040528092919081815260200182805461326690614243565b80156132b15780601f10613288576101008083540402835291602001916132b1565b820191905f5260205f20905b81548152906001019060200180831161329457829003601f168201915b505050505081526020016002820180546132ca90614243565b80601f01602080910402602001604051908101604052809291908181526020018280546132f690614243565b80156133415780601f1061331857610100808354040283529160200191613341565b820191905f5260205f20905b81548152906001019060200180831161332457829003601f168201915b5050505050815260200160038201805461335a90614243565b80601f016020809104026020016040519081016040528092919081815260200182805461338690614243565b80156133d15780601f106133a8576101008083540402835291602001916133d1565b820191905f5260205f20905b8154815290600101906020018083116133b457829003601f168201915b505050505081526020016004820180546133ea90614243565b80601f016020809104026020016040519081016040528092919081815260200182805461341690614243565b80156134615780601f1061343857610100808354040283529160200191613461565b820191905f5260205f20905b81548152906001019060200180831161344457829003601f168201915b5050505050815260200160058201548152602001600682015f9054906101000a900473ffffffffffffffffffffffffffffffffffffffff1673ffffffffffffffffffffffffffffffffffffffff1673ffffffffffffffffffffffffffffffffffffffff1681526020016006820160149054906101000a900460ff161515151581526020016006820160159054906101000a900467ffffffffffffffff1667ffffffffffffffff1667ffffffffffffffff1681526020016007820154815260200160088201548152505082828151811061353d5761353c614273565b5b602002602001018190525080806001019150506131e1565b508181935093505050915091565b61356b612f88565b600160025f6101000a81548160ff0219169083151502179055507f62e78cea01bee320cd4e420270b5ea74000d11b0c9f74754ebdbfc544b05a2586135ae6135c5565b6040516135bb9190613ca4565b60405180910390a1565b5f33905090565b6135d4611ea8565b61360a576040517f8dfc202b00000000000000000000000000000000000000000000000000000000815260040160405180910390fd5b565b6040518061016001604052805f8152602001606081526020016060815260200160608152602001606081526020015f81526020015f73ffffffffffffffffffffffffffffffffffffffff1681526020015f151581526020015f67ffffffffffffffff1681526020015f81526020015f81525090565b6040518060a001604052805f81526020015f81526020015f73ffffffffffffffffffffffffffffffffffffffff1681526020015f81526020015f67ffffffffffffffff1681525090565b5f5ffd5b5f5ffd5b5f73ffffffffffffffffffffffffffffffffffffffff82169050919050565b5f6136fc826136d3565b9050919050565b61370c816136f2565b8114613716575f5ffd5b50565b5f8135905061372781613703565b92915050565b5f819050919050565b61373f8161372d565b8114613749575f5ffd5b50565b5f8135905061375a81613736565b92915050565b5f5f60408385031215613776576137756136cb565b5b5f61378385828601613719565b92505060206137948582860161374c565b9150509250929050565b5f8115159050919050565b6137b28161379e565b82525050565b5f6020820190506137cb5f8301846137a9565b92915050565b5f81519050919050565b5f82825260208201905092915050565b5f819050602082019050919050565b6138038161372d565b82525050565b5f81519050919050565b5f82825260208201905092915050565b8281835e5f83830152505050565b5f601f19601f8301169050919050565b5f61384b82613809565b6138558185613813565b9350613865818560208601613823565b61386e81613831565b840191505092915050565b613882816136f2565b82525050565b6138918161379e565b82525050565b5f67ffffffffffffffff82169050919050565b6138b381613897565b82525050565b5f61016083015f8301516138cf5f8601826137fa565b50602083015184820360208601526138e78282613841565b915050604083015184820360408601526139018282613841565b9150506060830151848203606086015261391b8282613841565b915050608083015184820360808601526139358282613841565b91505060a083015161394a60a08601826137fa565b5060c083015161395d60c0860182613879565b5060e083015161397060e0860182613888565b506101008301516139856101008601826138aa565b5061012083015161399a6101208601826137fa565b506101408301516139af6101408601826137fa565b508091505092915050565b5f6139c583836138b9565b905092915050565b5f602082019050919050565b5f6139e3826137d1565b6139ed81856137db565b9350836020820285016139ff856137eb565b805f5b85811015613a3a5784840389528151613a1b85826139ba565b9450613a26836139cd565b925060208a01995050600181019050613a02565b50829750879550505050505092915050565b5f6020820190508181035f830152613a6481846139d9565b905092915050565b5f60208284031215613a8157613a806136cb565b5b5f613a8e8482850161374c565b91505092915050565b613aa08161372d565b82525050565b5f602082019050613ab95f830184613a97565b92915050565b60a082015f820151613ad35f8501826137fa565b506020820151613ae660208501826137fa565b506040820151613af96040850182613879565b506060820151613b0c60608501826137fa565b506080820151613b1f60808501826138aa565b50505050565b5f60a082019050613b385f830184613abf565b92915050565b5f5ffd5b5f5ffd5b5f5ffd5b5f5f83601f840112613b5f57613b5e613b3e565b5b8235905067ffffffffffffffff811115613b7c57613b7b613b42565b5b602083019150836001820283011115613b9857613b97613b46565b5b9250929050565b5f5f5f5f5f5f5f5f5f60a08a8c031215613bbc57613bbb6136cb565b5b5f8a013567ffffffffffffffff811115613bd957613bd86136cf565b5b613be58c828d01613b4a565b995099505060208a013567ffffffffffffffff811115613c0857613c076136cf565b5b613c148c828d01613b4a565b975097505060408a013567ffffffffffffffff811115613c3757613c366136cf565b5b613c438c828d01613b4a565b955095505060608a013567ffffffffffffffff811115613c6657613c656136cf565b5b613c728c828d01613b4a565b93509350506080613c858c828d0161374c565b9150509295985092959850929598565b613c9e816136f2565b82525050565b5f602082019050613cb75f830184613c95565b92915050565b5f60208284031215613cd257613cd16136cb565b5b5f613cdf84828501613719565b91505092915050565b5f81519050919050565b5f82825260208201905092915050565b5f819050602082019050919050565b5f613d1c83836137fa565b60208301905092915050565b5f602082019050919050565b5f613d3e82613ce8565b613d488185613cf2565b9350613d5383613d02565b805f5b83811015613d83578151613d6a8882613d11565b9750613d7583613d28565b925050600181019050613d56565b5085935050505092915050565b5f6020820190508181035f830152613da88184613d34565b905092915050565b5f81519050919050565b5f82825260208201905092915050565b5f819050602082019050919050565b60a082015f820151613ded5f8501826137fa565b506020820151613e0060208501826137fa565b506040820151613e136040850182613879565b506060820151613e2660608501826137fa565b506080820151613e3960808501826138aa565b50505050565b5f613e4a8383613dd9565b60a08301905092915050565b5f602082019050919050565b5f613e6c82613db0565b613e768185613dba565b9350613e8183613dca565b805f5b83811015613eb1578151613e988882613e3f565b9750613ea383613e56565b925050600181019050613e84565b5085935050505092915050565b5f6040820190508181035f830152613ed68185613e62565b90508181036020830152613eea81846139d9565b90509392505050565b5f6040820190508181035f830152613f0b8185613d34565b90508181036020830152613f1f81846139d9565b90509392505050565b5f5f60208385031215613f3e57613f3d6136cb565b5b5f83013567ffffffffffffffff811115613f5b57613f5a6136cf565b5b613f6785828601613b4a565b92509250509250929050565b5f61016083015f830151613f895f8601826137fa565b5060208301518482036020860152613fa18282613841565b91505060408301518482036040860152613fbb8282613841565b91505060608301518482036060860152613fd58282613841565b91505060808301518482036080860152613fef8282613841565b91505060a083015161400460a08601826137fa565b5060c083015161401760c0860182613879565b5060e083015161402a60e0860182613888565b5061010083015161403f6101008601826138aa565b506101208301516140546101208601826137fa565b506101408301516140696101408601826137fa565b508091505092915050565b5f6020820190508181035f83015261408c8184613f73565b905092915050565b61409d8161379e565b81146140a7575f5ffd5b50565b5f813590506140b881614094565b92915050565b5f5f5f5f5f5f5f60a0888a0312156140d9576140d86136cb565b5b5f6140e68a828b0161374c565b975050602088013567ffffffffffffffff811115614107576141066136cf565b5b6141138a828b01613b4a565b9650965050604088013567ffffffffffffffff811115614136576141356136cf565b5b6141428a828b01613b4a565b945094505060606141558a828b0161374c565b92505060806141668a828b016140aa565b91505092959891949750929550565b7f4e487b71000000000000000000000000000000000000000000000000000000005f52601160045260245ffd5b5f6141ac8261372d565b91507fffffffffffffffffffffffffffffffffffffffffffffffffffffffffffffffff82036141de576141dd614175565b5b600182019050919050565b7f4e487b71000000000000000000000000000000000000000000000000000000005f52604160045260245ffd5b7f4e487b71000000000000000000000000000000000000000000000000000000005f52602260045260245ffd5b5f600282049050600182168061425a57607f821691505b60208210810361426d5761426c614216565b5b50919050565b7f4e487b71000000000000000000000000000000000000000000000000000000005f52603260045260245ffd5b5f82825260208201905092915050565b7f5361666172694d6172743a206665652063616e6e6f74206578636565642031305f8201527f2500000000000000000000000000000000000000000000000000000000000000602082015250565b5f61430a6021836142a0565b9150614315826142b0565b604082019050919050565b5f6020820190508181035f830152614337816142fe565b9050919050565b7f5361666172694d6172743a20707572636861736520646f6573206e6f742065785f8201527f6973740000000000000000000000000000000000000000000000000000000000602082015250565b5f6143986023836142a0565b91506143a38261433e565b604082019050919050565b5f6020820190508181035f8301526143c58161438c565b9050919050565b7f5361666172694d6172743a2070726f6475637420646f6573206e6f74206578695f8201527f7374000000000000000000000000000000000000000000000000000000000000602082015250565b5f6144266022836142a0565b9150614431826143cc565b604082019050919050565b5f6020820190508181035f8301526144538161441a565b9050919050565b7f5361666172694d6172743a2070726f64756374206e6f7420617661696c61626c5f8201527f6500000000000000000000000000000000000000000000000000000000000000602082015250565b5f6144b46021836142a0565b91506144bf8261445a565b604082019050919050565b5f6020820190508181035f8301526144e1816144a8565b9050919050565b5f6144f28261372d565b91506144fd8361372d565b925082820190508082111561451557614514614175565b5b92915050565b5f6145258261372d565b91506145308361372d565b925082820261453e8161372d565b9150828204841483151761455557614554614175565b5b5092915050565b7f4e487b71000000000000000000000000000000000000000000000000000000005f52601260045260245ffd5b5f6145938261372d565b915061459e8361372d565b9250826145ae576145ad61455c565b5b828204905092915050565b5f6145c38261372d565b91506145ce8361372d565b92508282039050818111156145e6576145e5614175565b5b92915050565b5f6040820190506145ff5f830185613a97565b61460c6020830184613c95565b9392505050565b7f5361666172694d6172743a2066696c6555726c207265717569726564000000005f82015250565b5f614647601c836142a0565b915061465282614613565b602082019050919050565b5f6020820190508181035f8301526146748161463b565b9050919050565b7f5361666172694d6172743a207469746c652072657175697265640000000000005f82015250565b5f6146af601a836142a0565b91506146ba8261467b565b602082019050919050565b5f6020820190508181035f8301526146dc816146a3565b9050919050565b7f5361666172694d6172743a207072696365206d757374206265206772656174655f8201527f72207468616e2030000000000000000000000000000000000000000000000000602082015250565b5f61473d6028836142a0565b9150614748826146e3565b604082019050919050565b5f6020820190508181035f83015261476a81614731565b9050919050565b5f819050815f5260205f209050919050565b5f6020601f8301049050919050565b5f82821b905092915050565b5f600883026147cd7fffffffffffffffffffffffffffffffffffffffffffffffffffffffffffffffff82614792565b6147d78683614792565b95508019841693508086168417925050509392505050565b5f819050919050565b5f61481261480d6148088461372d565b6147ef565b61372d565b9050919050565b5f819050919050565b61482b836147f8565b61483f61483782614819565b84845461479e565b825550505050565b5f5f905090565b614856614847565b614861818484614822565b505050565b5b81811015614884576148795f8261484e565b600181019050614867565b5050565b601f8211156148c95761489a81614771565b6148a384614783565b810160208510156148b2578190505b6148c66148be85614783565b830182614866565b50505b505050565b5f82821c905092915050565b5f6148e95f19846008026148ce565b1980831691505092915050565b5f61490183836148da565b9150826002028217905092915050565b61491a82613809565b67ffffffffffffffff811115614933576149326141e9565b5b61493d8254614243565b614948828285614888565b5f60209050601f831160018114614979575f8415614967578287015190505b61497185826148f6565b8655506149d8565b601f19841661498786614771565b5f5b828110156149ae57848901518255600182019150602085019450602081019050614989565b868310156149cb57848901516149c7601f8916826148da565b8355505b6001600288020188555050505b505050505050565b828183375f83830152505050565b5f6149f983856142a0565b9350614a068385846149e0565b614a0f83613831565b840190509392505050565b5f6060820190508181035f830152614a338187896149ee565b9050614a426020830186613a97565b8181036040830152614a558184866149ee565b90509695505050505050565b5f81905092915050565b5f614a768385614a61565b9350614a838385846149e0565b82840190509392505050565b5f614a9b828486614a6b565b91508190509392505050565b5f819050815f5260205f209050919050565b5f8154614ac581614243565b614acf8186614a61565b9450600182165f8114614ae95760018114614afe57614b30565b60ff1983168652811515820286019350614b30565b614b0785614aa7565b5f5b83811015614b2857815481890152600182019150602081019050614b09565b838801955050505b50505092915050565b5f614b448284614ab9565b915081905092915050565b7f5361666172694d6172743a206f6e6c792063726561746f722063616e207570645f8201527f6174650000000000000000000000000000000000000000000000000000000000602082015250565b5f614ba96023836142a0565b9150614bb482614b4f565b604082019050919050565b5f6020820190508181035f830152614bd681614b9d565b9050919050565b5f82905092915050565b614bf18383614bdd565b67ffffffffffffffff811115614c0a57614c096141e9565b5b614c148254614243565b614c1f828285614888565b5f601f831160018114614c4c575f8415614c3a578287013590505b614c4485826148f6565b865550614cab565b601f198416614c5a86614771565b5f5b82811015614c8157848901358255600182019150602085019450602081019050614c5c565b86831015614c9e5784890135614c9a601f8916826148da565b8355505b6001600288020188555050505b50505050505050565b5f6060820190508181035f830152614ccd8186886149ee565b9050614cdc6020830185613a97565b614ce960408301846137a9565b95945050505050565b7f5361666172694d6172743a206e6f2066756e647320746f2077697468647261775f82015250565b5f614d266020836142a0565b9150614d3182614cf2565b602082019050919050565b5f6020820190508181035f830152614d5381614d1a565b9050919050565b7f5361666172694d6172743a20696e76616c69642066656520726563697069656e5f8201527f7400000000000000000000000000000000000000000000000000000000000000602082015250565b5f614db46021836142a0565b9150614dbf82614d5a565b604082019050919050565b5f6020820190508181035f830152614de181614da8565b905091905056fea264697066735822122090c93b4294f94da97226ef2aae9e82a749340edecbb9dd1d529d5cb0be2b0abe64736f6c634300081c0033",
  "linkReferences": {},
  "deployedLinkReferences": {},
  "immutableReferences": {},
  "inputSourceName": "project/contracts/SafariMart.sol",
  "buildInfoId": "solc-0_8_28-0b5c7b16db0c4438ab8e1da5f0cd82230831ba7e"
}