{
  "_format": "hh3-artifact-1",
  "contractName": "SafariMart",
  "sourceName": "contracts/SafariMart.sol",
  "abi": [
    {
      "inputs": [
        {
          "internalType": "address",
          "name": "initialOwner",
          "type": "address"
        },
        {
          "internalType": "address",
          "name": "_feeRecipient",
          "type": "address"
        }
      ],
      "stateMutability": "nonpayable",
      "type": "constructor"
    },
    {
      "inputs": [],
      "name": "EnforcedPause",
      "type": "error"
    },
    {
      "inputs": [],
      "name": "ExpectedPause",
      "type": "error"
    },
    {
      "inputs": [
        {
          "internalType": "address",
          "name": "owner",
          "type": "address"
        }
      ],
      "name": "OwnableInvalidOwner",
      "type": "error"
    },
    {
      "inputs": [
        {
          "internalType": "address",
          "name": "account",
          "type": "address"
        }
      ],
      "name": "OwnableUnauthorizedAccount",
      "type": "error"
    },
    {
      "inputs": [],
      "name": "ReentrancyGuardReentrantCall",
      "type": "error"
    },
    {
      "anonymous": false,
      "inputs": [
        {
          "indexed": false,
          "internalType": "address",
          "name": "newFeeRecipient",
          "type": "address"
        }
      ],
      "name": "FeeRecipientUpdated",
      "type": "event"
    },
    {
      "anonymous": false,
      "inputs": [
        {
          "indexed": true,
          "internalType": "address",
          "name": "previousOwner",
          "type": "address"
        },
        {
          "indexed": true,
          "internalType": "address",
          "name": "newOwner",
          "type": "address"
        }
      ],
      "name": "OwnershipTransferred",
      "type": "event"
    },
    {
      "anonymous": false,
      "inputs": [
        {
          "indexed": false,
          "internalType": "address",
          "name": "account",
          "type": "address"
        }
      ],
      "name": "Paused",
      "type": "event"
    },
    {
      "anonymous": false,
      "inputs": [
        {
          "indexed": false,
          "internalType": "uint256",
          "name": "newFeePercent",
          "type": "uint256"
        }
      ],
      "name": "PlatformFeeUpdated",
      "type": "event"
    },
    {
      "anonymous": false,
      "inputs": [
        {
          "indexed": true,
          "internalType": "uint256",
          "name": "productId",
          "type": "uint256"
        },
        {
          "indexed": true,
          "internalType": "address",
          "name": "creator",
          "type": "address"
        },
        {
          "indexed": false,
          "internalType": "string",
          "name": "title",
          "type": "string"
        },
        {
          "indexed": false,
          "internalType": "uint256",
          "name": "price",
          "type": "uint256"
        },
        {
          "indexed": false,
          "internalType": "string",
          "name": "category",
          "type": "string"
        }
      ],
      "name": "ProductListed",
      "type": "event"
    },
    {
      "anonymous": false,
      "inputs": [
        {
          "indexed": true,
          "internalType": "uint256",
          "name": "purchaseId",
          "type": "uint256"
        },
        {
          "indexed": true,
          "internalType": "uint256",
          "name": "productId",
          "type": "uint256"
        },
        {
          "indexed": true,
          "internalType": "address",
          "name": "buyer",
          "type": "address"
        },
        {
          "indexed": false,
          "internalType": "uint256",
          "name": "pricePaid",
          "type": "uint256"
        },
        {
          "indexed": false,
          "internalType": "address",
          "name": "creator",
          "type": "address"
        }
      ],
      "name": "ProductPurchased",
      "type": "event"
    },
    {
      "anonymous": false,
      "inputs": [
        {
          "indexed": true,
          "internalType": "uint256",
          "name": "productId",
          "type": "uint256"
        },
        {
          "indexed": false,
          "internalType": "string",
          "name": "title",
          "type": "string"
        },
        {
          "indexed": false,
          "internalType": "uint256",
          "name": "price",
          "type": "uint256"
        },
        {
          "indexed": false,
          "internalType": "bool",
          "name": "isActive",
          "type": "bool"
        }
      ],
      "name": "ProductUpdated",
      "type": "event"
    },
    {
      "anonymous": false,
      "inputs": [
        {
          "indexed": false,
          "internalType": "address",
          "name": "account",
          "type": "address"
        }
      ],
      "name": "Unpaused",
      "type": "event"
    },
    {
      "inputs": [],
      "name": "emergencyWithdraw",
      "outputs": [],
      "stateMutability": "nonpayable",
      "type": "function"
    },
    {
      "inputs": [],
      "name": "feeRecipient",
      "outputs": [
        {
          "internalType": "address",
          "name": "",
          "type": "address"
        }
      ],
      "stateMutability": "view",
      "type": "function"
    },
    {
      "inputs": [],
      "name": "getAllActiveProducts",
      "outputs": [
        {
          "components": [
            {
              "internalType": "uint256",
              "name": "productId",
              "type": "uint256"
            },
            {
              "internalType": "string",
              "name": "fileUrl",
              "type": "string"
            },
            {
              "internalType": "string",
              "name": "title",
              "type": "string"
            },
            {
              "internalType": "string",
              "name": "description",
              "type": "string"
            },
            {
              "internalType": "string",
              "name": "category",
              "type": "string"
            },
            {
              "internalType": "uint256",
              "name": "price",
              "type": "uint256"
            },
            {
              "internalType": "address",
              "name": "creator",
              "type": "address"
            },
            {
              "internalType": "bool",
              "name": "isActive",
              "type": "bool"
            },
            {
              "internalType": "uint64",
              "name": "createdAt",
              "type": "uint64"
            },
            {
              "internalType": "uint256",
              "name": "totalSales",
              "type": "uint256"
            },
            {
              "internalType": "uint256",
              "name": "totalRevenue",
              "type": "uint256"
            }
          ],
          "internalType": "struct SafariMart.Product[]",
          "name": "",
          "type": "tuple[]"
        }
      ],
      "stateMutability": "view",
      "type": "function"
    },
    {
      "inputs": [
        {
          "internalType": "address",
          "name": "creator",
          "type": "address"
        }
      ],
      "name": "getCreatorProductsWithData",
      "outputs": [
        {
          "internalType": "uint256[]",
          "name": "productIds",
          "type": "uint256[]"
        },
        {
          "components": [
            {
              "internalType": "uint256",
              "name": "productId",
              "type": "uint256"
            },
            {
              "internalType": "string",
              "name": "fileUrl",
              "type": "string"
            },
            {
              "internalType": "string",
              "name": "title",
              "type": "string"
            },
            {
              "internalType": "string",
              "name": "description",
              "type": "string"
            },
            {
              "internalType": "string",
              "name": "category",
              "type": "string"
            },
            {
              "internalType": "uint256",
              "name": "price",
              "type": "uint256"
            },
            {
              "internalType": "address",
              "name": "creator",
              "type": "address"
            },
            {
              "internalType": "bool",
              "name": "isActive",
              "type": "bool"
            },
            {
              "internalType": "uint64",
              "name": "createdAt",
              "type": "uint64"
            },
            {
              "internalType": "uint256",
              "name": "totalSales",
              "type": "uint256"
            },
            {
              "internalType": "uint256",
              "name": "totalRevenue",
              "type": "uint256"
            }
          ],
          "internalType": "struct SafariMart.Product[]",
          "name": "products",
          "type": "tuple[]"
        }
      ],
      "stateMutability": "view",
      "type": "function"
    },
    {
      "inputs": [],
      "name": "getMyProducts",
      "outputs": [
        {
          "internalType": "uint256[]",
          "name": "",
          "type": "uint256[]"
        }
      ],
      "stateMutability": "view",
      "type": "function"
    },
    {
      "inputs": [],
      "name": "getMyProductsWithData",
      "outputs": [
        {
          "internalType": "uint256[]",
          "name": "productIds",
          "type": "uint256[]"
        },
        {
          "components": [
            {
              "internalType": "uint256",
              "name": "productId",
              "type": "uint256"
            },
            {
              "internalType": "string",
              "name": "fileUrl",
              "type": "string"
            },
            {
              "internalType": "string",
              "name": "title",
              "type": "string"
            },
            {
              "internalType": "string",
              "name": "description",
              "type": "string"
            },
            {
              "internalType": "string",
              "name": "category",
              "type": "string"
            },
            {
              "internalType": "uint256",
              "name": "price",
              "type": "uint256"
            },
            {
              "internalType": "address",
              "name": "creator",
              "type": "address"
            },
            {
              "internalType": "bool",
              "name": "isActive",
              "type": "bool"
            },
            {
              "internalType": "uint64",
              "name": "createdAt",
              "type": "uint64"
            },
            {
              "internalType": "uint256",
              "name": "totalSales",
              "type": "uint256"
            },
            {
              "internalType": "uint256",
              "name": "totalRevenue",
              "type": "uint256"
            }
          ],
          "internalType": "struct SafariMart.Product[]",
          "name": "products",
          "type": "tuple[]"
        }
      ],
      "stateMutability": "view",
      "type": "function"
    },
    {
      "inputs": [],
      "name": "getMyPurchases",
      "outputs": [
        {
          "internalType": "uint256[]",
          "name": "",
          "type": "uint256[]"
        }
      ],
      "stateMutability": "view",
      "type": "function"
    },
    {
      "inputs": [
        {
          "internalType": "uint256",
          "name": "productId",
          "type": "uint256"
        }
      ],
      "name": "getProduct",
      "outputs": [
        {
          "components": [
            {
              "internalType": "uint256",
              "name": "productId",
              "type": "uint256"
            },
            {
              "internalType": "string",
              "name": "fileUrl",
              "type": "string"
            },
            {
              "internalType": "string",
              "name": "title",
              "type": "string"
            },
            {
              "internalType": "string",
              "name": "description",
              "type": "string"
            },
            {
              "internalType": "string",
              "name": "category",
              "type": "string"
            },
            {
              "internalType": "uint256",
              "name": "price",
              "type": "uint256"
            },
            {
              "internalType": "address",
              "name": "creator",
              "type": "address"
            },
            {
              "internalType": "bool",
              "name": "isActive",
              "type": "bool"
            },
            {
              "internalType": "uint64",
              "name": "createdAt",
              "type": "uint64"
            },
            {
              "internalType": "uint256",
              "name": "totalSales",
              "type": "uint256"
            },
            {
              "internalType": "uint256",
              "name": "totalRevenue",
              "type": "uint256"
            }
          ],
          "internalType": "struct SafariMart.Product",
          "name": "",
          "type": "tuple"
        }
      ],
      "stateMutability": "view",
      "type": "function"
    },
    {
      "inputs": [
        {
          "internalType": "string",
          "name": "category",
          "type": "string"
        }
      ],
      "name": "getProductsByCategory",
      "outputs": [
        {
          "components": [
            {
              "internalType": "uint256",
              "name": "productId",
              "type": "uint256"
            },
            {
              "internalType": "string",
              "name": "fileUrl",
              "type": "string"
            },
            {
              "internalType": "string",
              "name": "title",
              "type": "string"
            },
            {
              "internalType": "string",
              "name": "description",
              "type": "string"
            },
            {
              "internalType": "string",
              "name": "category",
              "type": "string"
            },
            {
              "internalType": "uint256",
              "name": "price",
              "type": "uint256"
            },
            {
              "internalType": "address",
              "name": "creator",
              "type": "address"
            },
            {
              "internalType": "bool",
              "name": "isActive",
              "type": "bool"
            },
            {
              "internalType": "uint64",
              "name": "createdAt",
              "type": "uint64"
            },
            {
              "internalType": "uint256",
              "name": "totalSales",
              "type": "uint256"
            },
            {
              "internalType": "uint256",
              "name": "totalRevenue",
              "type": "uint256"
            }
          ],
          "internalType": "struct SafariMart.Product[]",
          "name": "",
          "type": "tuple[]"
        }
      ],
      "stateMutability": "view",
      "type": "function"
    },
    {
      "inputs": [
        {
          "internalType": "address",
          "name": "creator",
          "type": "address"
        }
      ],
      "name": "getProductsByCreator",
      "outputs": [
        {
          "internalType": "uint256[]",
          "name": "",
          "type": "uint256[]"
        }
      ],
      "stateMutability": "view",
      "type": "function"
    },
    {
      "inputs": [
        {
          "internalType": "uint256",
          "name": "purchaseId",
          "type": "uint256"
        }
      ],
      "name": "getPurchase",
      "outputs": [
        {
          "components": [
            {
              "internalType": "uint256",
              "name": "purchaseId",
              "type": "uint256"
            },
            {
              "internalType": "uint256",
              "name": "productId",
              "type": "uint256"
            },
            {
              "internalType": "address",
              "name": "buyer",
              "type": "address"
            },
            {
              "internalType": "uint256",
              "name": "pricePaid",
              "type": "uint256"
            },
            {
              "internalType": "uint64",
              "name": "purchasedAt",
              "type": "uint64"
            }
          ],
          "internalType": "struct SafariMart.Purchase",
          "name": "",
          "type": "tuple"
        }
      ],
      "stateMutability": "view",
      "type": "function"
    },
    {
      "inputs": [
        {
          "internalType": "address",
          "name": "buyer",
          "type": "address"
        }
      ],
      "name": "getPurchaseHistoryWithDetails",
      "outputs": [
        {
          "components": [
            {
              "internalType": "uint256",
              "name": "purchaseId",
              "type": "uint256"
            },
            {
              "internalType": "uint256",
              "name": "productId",
              "type": "uint256"
            },
            {
              "internalType": "address",
              "name": "buyer",
              "type": "address"
            },
            {
              "internalType": "uint256",
              "name": "pricePaid",
              "type": "uint256"
            },
            {
              "internalType": "uint64",
              "name": "purchasedAt",
              "type": "uint64"
            }
          ],
          "internalType": "struct SafariMart.Purchase[]",
          "name": "purchases",
          "type": "tuple[]"
        },
        {
          "components": [
            {
              "internalType": "uint256",
              "name": "productId",
              "type": "uint256"
            },
            {
              "internalType": "string",
              "name": "fileUrl",
              "type": "string"
            },
            {
              "internalType": "string",
              "name": "title",
              "type": "string"
            },
            {
              "internalType": "string",
              "name": "description",
              "type": "string"
            },
            {
              "internalType": "string",
              "name": "category",
              "type": "string"
            },
            {
              "internalType": "uint256",
              "name": "price",
              "type": "uint256"
            },
            {
              "internalType": "address",
              "name": "creator",
              "type": "address"
            },
            {
              "internalType": "bool",
              "name": "isActive",
              "type": "bool"
            },
            {
              "internalType": "uint64",
              "name": "createdAt",
              "type": "uint64"
            },
            {
              "internalType": "uint256",
              "name": "totalSales",
              "type": "uint256"
            },
            {
              "internalType": "uint256",
              "name": "totalRevenue",
              "type": "uint256"
            }
          ],
          "internalType": "struct SafariMart.Product[]",
          "name": "products",
          "type": "tuple[]"
        }
      ],
      "stateMutability": "view",
      "type": "function"
    },
    {
      "inputs": [
        {
          "internalType": "address",
          "name": "buyer",
          "type": "address"
        }
      ],
      "name": "getPurchasesByBuyer",
      "outputs": [
        {
          "internalType": "uint256[]",
          "name": "",
          "type": "uint256[]"
        }
      ],
      "stateMutability": "view",
      "type": "function"
    },
    {
      "inputs": [
        {
          "internalType": "address",
          "name": "buyer",
          "type": "address"
        },
        {
          "internalType": "uint256",
          "name": "productId",
          "type": "uint256"
        }
      ],
      "name": "hasPurchased",
      "outputs": [
        {
          "internalType": "bool",
          "name": "",
          "type": "bool"
        }
      ],
      "stateMutability": "view",
      "type": "function"
    },
    {
      "inputs": [
        {
          "internalType": "string",
          "name": "fileUrl",
          "type": "string"
        },
        {
          "internalType": "string",
          "name": "title",
          "type": "string"
        },
        {
          "internalType": "string",
          "name": "description",
          "type": "string"
        },
        {
          "internalType": "string",
          "name": "category",
          "type": "string"
        },
        {
          "internalType": "uint256",
          "name": "price",
          "type": "uint256"
        }
      ],
      "name": "listProduct",
      "outputs": [
        {
          "internalType": "uint256",
          "name": "productId",
          "type": "uint256"
        }
      ],
      "stateMutability": "nonpayable",
      "type": "function"
    },
    {
      "inputs": [],
      "name": "nextProductId",
      "outputs": [
        {
          "internalType": "uint256",
          "name": "",
          "type": "uint256"
        }
      ],
      "stateMutability": "view",
      "type": "function"
    },
    {
      "inputs": [],
      "name": "nextPurchaseId",
      "outputs": [
        {
          "internalType": "uint256",
          "name": "",
          "type": "uint256"
        }
      ],
      "stateMutability": "view",
      "type": "function"
    },
    {
      "inputs": [],
      "name": "owner",
      "outputs": [
        {
          "internalType": "address",
          "name": "",
          "type": "address"
        }
      ],
      "stateMutability": "view",
      "type": "function"
    },
    {
      "inputs": [],
      "name": "pause",
      "outputs": [],
      "stateMutability": "nonpayable",
      "type": "function"
    },
    {
      "inputs": [],
      "name": "paused",
      "outputs": [
        {
          "internalType": "bool",
          "name": "",
          "type": "bool"
        }
      ],
      "stateMutability": "view",
      "type": "function"
    },
    {
      "inputs": [],
      "name": "platformFeePercent",
      "outputs": [
        {
          "internalType": "uint256",
          "name": "",
          "type": "uint256"
        }
      ],
      "stateMutability": "view",
      "type": "function"
    },
    {
      "inputs": [
        {
          "internalType": "uint256",
          "name": "productId",
          "type": "uint256"
        }
      ],
      "name": "purchaseProduct",
      "outputs": [
        {
          "internalType": "uint256",
          "name": "purchaseId",
          "type": "uint256"
        }
      ],
      "stateMutability": "payable",
      "type": "function"
    },
    {
      "inputs": [],
      "name": "renounceOwnership",
      "outputs": [],
      "stateMutability": "nonpayable",
      "type": "function"
    },
    {
      "inputs": [
        {
          "internalType": "address",
          "name": "newFeeRecipient",
          "type": "address"
        }
      ],
      "name": "setFeeRecipient",
      "outputs": [],
      "stateMutability": "nonpayable",
      "type": "function"
    },
    {
      "inputs": [
        {
          "internalType": "uint256",
          "name": "newFeePercent",
          "type": "uint256"
        }
      ],
      "name": "setPlatformFee",
      "outputs": [],
      "stateMutability": "nonpayable",
      "type": "function"
    },
    {
      "inputs": [
        {
          "internalType": "address",
          "name": "newOwner",
          "type": "address"
        }
      ],
      "name": "transferOwnership",
      "outputs": [],
      "stateMutability": "nonpayable",
      "type": "function"
    },
    {
      "inputs": [],
      "name": "unpause",
      "outputs": [],
      "stateMutability": "nonpayable",
      "type": "function"
    },
    {
      "inputs": [
        {
          "internalType": "uint256",
          "name": "productId",
          "type": "uint256"
        },
        {
          "internalType": "string",
          "name": "title",
          "type": "string"
        },
        {
          "internalType": "string",
          "name": "description",
          "type": "string"
        },
        {
          "internalType": "uint256",
          "name": "price",
          "type": "uint256"
        },
        {
          "internalType": "bool",
          "name": "isActive",
          "type": "bool"
        }
      ],
      "name": "updateProduct",
      "outputs": [],
      "stateMutability": "nonpayable",
      "type": "function"
    }
  ],
  "bytecode": "0x608060405260fa600555348015610014575f5ffd5b5060405161515838038061515883398181016040528101906100369190610234565b815f73ffffffffffffffffffffffffffffffffffffffff168173ffffffffffffffffffffffffffffffffffffffff16036100a7575f6040517f1e4fbdf700000000000000000000000000000000000000000000000000000000815260040161009e9190610281565b60405180910390fd5b6100b68161011560201b60201c565b50600180819055508060065f6101000a81548173ffffffffffffffffffffffffffffffffffffffff021916908373ffffffffffffffffffffffffffffffffffffffff16021790555060016003819055506001600481905550505061029a565b5f5f5f9054906101000a900473ffffffffffffffffffffffffffffffffffffffff169050815f5f6101000a81548173ffffffffffffffffffffffffffffffffffffffff021916908373ffffffffffffffffffffffffffffffffffffffff1602179055508173ffffffffffffffffffffffffffffffffffffffff168173ffffffffffffffffffffffffffffffffffffffff167f8be0079c531659141344cd1fd0a4f28419497f9722a3daafe3b4186f6b6457e060405160405180910390a35050565b5f5ffd5b5f73ffffffffffffffffffffffffffffffffffffffff82169050919050565b5f610203826101da565b9050919050565b610213816101f9565b811461021d575f5ffd5b50565b5f8151905061022e8161020a565b92915050565b5f5f6040838503121561024a576102496101d6565b5b5f61025785828601610220565b925050602061026885828601610220565b9150509250929050565b61027b816101f9565b82525050565b5f6020820190506102945f830184610272565b92915050565b614eb1806102a75f395ff3fe6080604052600436106101b6575f3560e01c806373c85715116100eb578063b9db15b411610089578063e4a7118311610063578063e4a7118314610601578063e74b981b1461062b578063f2fde38b14610653578063fdca4ca31461067b576101b6565b8063b9db15b414610587578063da598a7e146105c3578063db2e21bc146105eb576101b6565b80638c639a85116100c55780638c639a85146104ba5780638da5cb5b146104e45780638f38cc7b1461050e578063b03a476e1461054a576101b6565b806373c857151461043d5780637d690e0a146104685780638456cb59146104a4576101b6565b80634246b911116101585780634de91a63116101325780634de91a63146103965780634f1bb00f146103c05780635c975abb146103fd578063715018a614610427576101b6565b80634246b911146102f45780634690484014610330578063473cbdfc1461035a576101b6565b806323b4a7a31161019457806323b4a7a3146102485780633742a9f71461027257806338e76a03146102ae5780633f4ba83a146102de576101b6565b806311923132146101ba57806312c8aa28146101f657806312e8e2c314610220575b5f5ffd5b3480156101c5575f5ffd5b506101e060048036038101906101db919061378b565b6106a5565b6040516101ed91906137e3565b60405180910390f35b348015610201575f5ffd5b5061020a610707565b6040516102179190613a77565b60405180910390f35b34801561022b575f5ffd5b5061024660048036038101906102419190613a97565b610c33565b005b348015610253575f5ffd5b5061025c610cc1565b6040516102699190613ad1565b60405180910390f35b34801561027d575f5ffd5b5061029860048036038101906102939190613a97565b610cca565b6040516102a59190613b50565b60405180910390f35b6102c860048036038101906102c39190613a97565b610e39565b6040516102d59190613ad1565b60405180910390f35b3480156102e9575f5ffd5b506102f26113fb565b005b3480156102ff575f5ffd5b5061031a60048036038101906103159190613bca565b61140d565b6040516103279190613ad1565b60405180910390f35b34801561033b575f5ffd5b50610344611864565b6040516103519190613ccf565b60405180910390f35b348015610365575f5ffd5b50610380600480360381019061037b9190613ce8565b611889565b60405161038d9190613dbb565b60405180910390f35b3480156103a1575f5ffd5b506103aa61191c565b6040516103b79190613ad1565b60405180910390f35b3480156103cb575f5ffd5b506103e660048036038101906103e19190613ce8565b611925565b6040516103f4929190613ee9565b60405180910390f35b348015610408575f5ffd5b50610411611ed3565b60405161041e91906137e3565b60405180910390f35b348015610432575f5ffd5b5061043b611ee8565b005b348015610448575f5ffd5b50610451611efb565b60405161045f929190613f1e565b60405180910390f35b348015610473575f5ffd5b5061048e60048036038101906104899190613ce8565b611f0f565b60405161049b9190613dbb565b60405180910390f35b3480156104af575f5ffd5b506104b8611fa2565b005b3480156104c5575f5ffd5b506104ce611fb4565b6040516104db9190613ad1565b60405180910390f35b3480156104ef575f5ffd5b506104f8611fba565b6040516105059190613ccf565b60405180910390f35b348015610519575f5ffd5b50610534600480360381019061052f9190613f53565b611fe1565b6040516105419190613a77565b60405180910390f35b348015610555575f5ffd5b50610570600480360381019061056b9190613ce8565b6125a4565b60405161057e929190613f1e565b60405180910390f35b348015610592575f5ffd5b506105ad60048036038101906105a89190613a97565b6125b9565b6040516105ba919061409f565b60405180910390f35b3480156105ce575f5ffd5b506105e960048036038101906105e491906140e9565b61298f565b005b3480156105f6575f5ffd5b506105ff612bb4565b005b34801561060c575f5ffd5b50610615612c50565b6040516106229190613dbb565b60405180910390f35b348015610636575f5ffd5b50610651600480360381019061064c9190613ce8565b612ce1565b005b34801561065e575f5ffd5b5061067960048036038101906106749190613ce8565b612dd1565b005b348015610686575f5ffd5b5061068f612e55565b60405161069c9190613dbb565b60405180910390f35b5f600c5f8473ffffffffffffffffffffffffffffffffffffffff1673ffffffffffffffffffffffffffffffffffffffff1681526020019081526020015f205f8381526020019081526020015f205f9054906101000a900460ff16905092915050565b60605f5f90505f600190505b6003548110156107cb575f73ffffffffffffffffffffffffffffffffffffffff1660075f8381526020019081526020015f206006015f9054906101000a900473ffffffffffffffffffffffffffffffffffffffff1673ffffffffffffffffffffffffffffffffffffffff16141580156107aa575060075f8281526020019081526020015f2060060160149054906101000a900460ff165b156107be5781806107ba906141cd565b9250505b8080600101915050610713565b505f8167ffffffffffffffff8111156107e7576107e6614214565b5b60405190808252806020026020018201604052801561082057816020015b61080d613637565b8152602001906001900390816108055790505b5090505f5f90505f600190505b600354811015610c29575f73ffffffffffffffffffffffffffffffffffffffff1660075f8381526020019081526020015f206006015f9054906101000a900473ffffffffffffffffffffffffffffffffffffffff1673ffffffffffffffffffffffffffffffffffffffff16141580156108c4575060075f8281526020019081526020015f2060060160149054906101000a900460ff165b15610c1c5760075f8281526020019081526020015f20604051806101600160405290815f82015481526020016001820180546108ff9061426e565b80601f016020809104026020016040519081016040528092919081815260200182805461092b9061426e565b80156109765780601f1061094d57610100808354040283529160200191610976565b820191905f5260205f20905b81548152906001019060200180831161095957829003601f168201915b5050505050815260200160028201805461098f9061426e565b80601f01602080910402602001604051908101604052809291908181526020018280546109bb9061426e565b8015610a065780601f106109dd57610100808354040283529160200191610a06565b820191905f5260205f20905b8154815290600101906020018083116109e957829003601f168201915b50505050508152602001600382018054610a1f9061426e565b80601f0160208091040260200160405190810160405280929190818152602001828054610a4b9061426e565b8015610a965780601f10610a6d57610100808354040283529160200191610a96565b820191905f5260205f20905b815481529060010190602001808311610a7957829003601f168201915b50505050508152602001600482018054610aaf9061426e565b80601f0160208091040260200160405190810160405280929190818152602001828054610adb9061426e565b8015610b265780601f10610afd57610100808354040283529160200191610b26565b820191905f5260205f20905b815481529060010190602001808311610b0957829003601f168201915b5050505050815260200160058201548152602001600682015f9054906101000a900473ffffffffffffffffffffffffffffffffffffffff1673ffffffffffffffffffffffffffffffffffffffff1673ffffffffffffffffffffffffffffffffffffffff1681526020016006820160149054906101000a900460ff161515151581526020016006820160159054906101000a900467ffffffffffffffff1667ffffffffffffffff1667ffffffffffffffff16815260200160078201548152602001600882015481525050838381518110610c0257610c0161429e565b5b60200260200101819052508180610c18906141cd565b9250505b808060010191505061082d565b5081935050505090565b610c3b612ee6565b6103e8811115610c80576040517f08c379a0000000000000000000000000000000000000000000000000000000008152600401610c779061434b565b60405180910390fd5b806005819055507f45610d581145924dd7090a5017e5f2b1d6f42213bb2e95707ff86846bbfcb1ca81604051610cb69190613ad1565b60405180910390a150565b5f600454905090565b610cd26136ac565b5f73ffffffffffffffffffffffffffffffffffffffff16600b5f8481526020019081526020015f206002015f9054906101000a900473ffffffffffffffffffffffffffffffffffffffff1673ffffffffffffffffffffffffffffffffffffffff1603610d73576040517f08c379a0000000000000000000000000000000000000000000000000000000008152600401610d6a906143d9565b60405180910390fd5b600b5f8381526020019081526020015f206040518060a00160405290815f820154815260200160018201548152602001600282015f9054906101000a900473ffffffffffffffffffffffffffffffffffffffff1673ffffffffffffffffffffffffffffffffffffffff1673ffffffffffffffffffffffffffffffffffffffff16815260200160038201548152602001600482015f9054906101000a900467ffffffffffffffff1667ffffffffffffffff1667ffffffffffffffff16815250509050919050565b5f610e42612f6d565b610e4a612fb3565b5f60075f8481526020019081526020015f2090505f73ffffffffffffffffffffffffffffffffffffffff16816006015f9054906101000a900473ffffffffffffffffffffffffffffffffffffffff1673ffffffffffffffffffffffffffffffffffffffff1603610eef576040517f08c379a0000000000000000000000000000000000000000000000000000000008152600401610ee690614467565b60405180910390fd5b8060060160149054906101000a900460ff16610f40576040517f08c379a0000000000000000000000000000000000000000000000000000000008152600401610f37906144f5565b60405180910390fd5b8060050154341015610f87576040517f08c379a0000000000000000000000000000000000000000000000000000000008152600401610f7e9061455d565b60405180910390fd5b60045f815480929190610f99906141cd565b9190505591506040518060a001604052808381526020018481526020013373ffffffffffffffffffffffffffffffffffffffff1681526020013481526020014267ffffffffffffffff16815250600b5f8481526020019081526020015f205f820151815f0155602082015181600101556040820151816002015f6101000a81548173ffffffffffffffffffffffffffffffffffffffff021916908373ffffffffffffffffffffffffffffffffffffffff160217905550606082015181600301556080820151816004015f6101000a81548167ffffffffffffffff021916908367ffffffffffffffff160217905550905050806007015f81548092919061109e906141cd565b919050555034816008015f8282546110b6919061457b565b9250508190555060095f3373ffffffffffffffffffffffffffffffffffffffff1673ffffffffffffffffffffffffffffffffffffffff1681526020019081526020015f2082908060018154018082558091505060019003905f5260205f20015f9091909190915055600a5f8481526020019081526020015f2082908060018154018082558091505060019003905f5260205f20015f90919091909150556001600c5f3373ffffffffffffffffffffffffffffffffffffffff1673ffffffffffffffffffffffffffffffffffffffff1681526020019081526020015f205f8581526020019081526020015f205f6101000a81548160ff0219169083151502179055505f612710600554346111c991906145ae565b6111d3919061461c565b90505f81346111e2919061464c565b90505f8211801561124057505f73ffffffffffffffffffffffffffffffffffffffff1660065f9054906101000a900473ffffffffffffffffffffffffffffffffffffffff1673ffffffffffffffffffffffffffffffffffffffff1614155b156112ab5760065f9054906101000a900473ffffffffffffffffffffffffffffffffffffffff1673ffffffffffffffffffffffffffffffffffffffff166108fc8390811502906040515f60405180830381858888f193505050501580156112a9573d5f5f3e3d5ffd5b505b826006015f9054906101000a900473ffffffffffffffffffffffffffffffffffffffff1673ffffffffffffffffffffffffffffffffffffffff166108fc8290811502906040515f60405180830381858888f19350505050158015611311573d5f5f3e3d5ffd5b508260050154341115611372573373ffffffffffffffffffffffffffffffffffffffff166108fc846005015434611348919061464c565b90811502906040515f60405180830381858888f19350505050158015611370573d5f5f3e3d5ffd5b505b3373ffffffffffffffffffffffffffffffffffffffff1685857f3940ce91d22ebd04faceb595d94fa5fec0a9aa10e824b548f88d609dd12c88928660050154876006015f9054906101000a900473ffffffffffffffffffffffffffffffffffffffff166040516113e392919061467f565b60405180910390a45050506113f6612ff4565b919050565b611403612ee6565b61140b612ffd565b565b5f611416612fb3565b5f8a8a90501161145b576040517f08c379a0000000000000000000000000000000000000000000000000000000008152600401611452906146f0565b60405180910390fd5b5f88889050116114a0576040517f08c379a000000000000000000000000000000000000000000000000000000000815260040161149790614758565b60405180910390fd5b5f82116114e2576040517f08c379a00000000000000000000000000000000000000000000000000000000081526004016114d9906147e6565b60405180910390fd5b60035f8154809291906114f4906141cd565b9190505590506040518061016001604052808281526020018b8b8080601f0160208091040260200160405190810160405280939291908181526020018383808284375f81840152601f19601f82011690508083019250505050505050815260200189898080601f0160208091040260200160405190810160405280939291908181526020018383808284375f81840152601f19601f82011690508083019250505050505050815260200187878080601f0160208091040260200160405190810160405280939291908181526020018383808284375f81840152601f19601f82011690508083019250505050505050815260200185858080601f0160208091040260200160405190810160405280939291908181526020018383808284375f81840152601f19601f8201169050808301925050505050505081526020018381526020013373ffffffffffffffffffffffffffffffffffffffff1681526020016001151581526020014267ffffffffffffffff1681526020015f81526020015f81525060075f8381526020019081526020015f205f820151815f015560208201518160010190816116a391906149a4565b5060408201518160020190816116b991906149a4565b5060608201518160030190816116cf91906149a4565b5060808201518160040190816116e591906149a4565b5060a0820151816005015560c0820151816006015f6101000a81548173ffffffffffffffffffffffffffffffffffffffff021916908373ffffffffffffffffffffffffffffffffffffffff16021790555060e08201518160060160146101000a81548160ff0219169083151502179055506101008201518160060160156101000a81548167ffffffffffffffff021916908367ffffffffffffffff1602179055506101208201518160070155610140820151816008015590505060085f3373ffffffffffffffffffffffffffffffffffffffff1673ffffffffffffffffffffffffffffffffffffffff1681526020019081526020015f2081908060018154018082558091505060019003905f5260205f20015f90919091909150553373ffffffffffffffffffffffffffffffffffffffff16817fc70903744648ba62771a2d2410274bf061b52210ea366530dd5bca16536c491e8a8a86898960405161184f959493929190614aad565b60405180910390a39998505050505050505050565b60065f9054906101000a900473ffffffffffffffffffffffffffffffffffffffff1681565b606060085f8373ffffffffffffffffffffffffffffffffffffffff1673ffffffffffffffffffffffffffffffffffffffff1681526020019081526020015f2080548060200260200160405190810160405280929190818152602001828054801561191057602002820191905f5260205f20905b8154815260200190600101908083116118fc575b50505050509050919050565b5f600354905090565b6060805f60095f8573ffffffffffffffffffffffffffffffffffffffff1673ffffffffffffffffffffffffffffffffffffffff1681526020019081526020015f208054806020026020016040519081016040528092919081815260200182805480156119ae57602002820191905f5260205f20905b81548152602001906001019080831161199a575b505050505090505f815167ffffffffffffffff8111156119d1576119d0614214565b5b604051908082528060200260200182016040528015611a0a57816020015b6119f76136ac565b8152602001906001900390816119ef5790505b5090505f825167ffffffffffffffff811115611a2957611a28614214565b5b604051908082528060200260200182016040528015611a6257816020015b611a4f613637565b815260200190600190039081611a475790505b5090505f5f90505b8351811015611ec4575f600b5f868481518110611a8a57611a8961429e565b5b602002602001015181526020019081526020015f206040518060a00160405290815f820154815260200160018201548152602001600282015f9054906101000a900473ffffffffffffffffffffffffffffffffffffffff1673ffffffffffffffffffffffffffffffffffffffff1673ffffffffffffffffffffffffffffffffffffffff16815260200160038201548152602001600482015f9054906101000a900467ffffffffffffffff1667ffffffffffffffff1667ffffffffffffffff1681525050905080848381518110611b6357611b6261429e565b5b602002602001018190525060075f826020015181526020019081526020015f20604051806101600160405290815f8201548152602001600182018054611ba89061426e565b80601f0160208091040260200160405190810160405280929190818152602001828054611bd49061426e565b8015611c1f5780601f10611bf657610100808354040283529160200191611c1f565b820191905f5260205f20905b815481529060010190602001808311611c0257829003601f168201915b50505050508152602001600282018054611c389061426e565b80601f0160208091040260200160405190810160405280929190818152602001828054611c649061426e565b8015611caf5780601f10611c8657610100808354040283529160200191611caf565b820191905f5260205f20905b815481529060010190602001808311611c9257829003601f168201915b50505050508152602001600382018054611cc89061426e565b80601f0160208091040260200160405190810160405280929190818152602001828054611cf49061426e565b8015611d3f5780601f10611d1657610100808354040283529160200191611d3f565b820191905f5260205f20905b815481529060010190602001808311611d2257829003601f168201915b50505050508152602001600482018054611d589061426e565b80601f0160208091040260200160405190810160405280929190818152602001828054611d849061426e565b8015611dcf5780601f10611da657610100808354040283529160200191611dcf565b820191905f5260205f20905b815481529060010190602001808311611db257829003601f168201915b5050505050815260200160058201548152602001600682015f9054906101000a900473ffffffffffffffffffffffffffffffffffffffff1673ffffffffffffffffffffffffffffffffffffffff1673ffffffffffffffffffffffffffffffffffffffff1681526020016006820160149054906101000a900460ff161515151581526020016006820160159054906101000a900467ffffffffffffffff1667ffffffffffffffff1667ffffffffffffffff16815260200160078201548152602001600882015481525050838381518110611eab57611eaa61429e565b5b6020026020010181905250508080600101915050611a6a565b50818194509450505050915091565b5f60025f9054906101000a900460ff16905090565b611ef0612ee6565b611ef95f61305e565b565b606080611f073361311f565b915091509091565b606060095f8373ffffffffffffffffffffffffffffffffffffffff1673ffffffffffffffffffffffffffffffffffffffff1681526020019081526020015f20805480602002602001604051908101604052809291908181526020018280548015611f9657602002820191905f5260205f20905b815481526020019060010190808311611f82575b50505050509050919050565b611faa612ee6565b611fb261358e565b565b60055481565b5f5f5f9054906101000a900473ffffffffffffffffffffffffffffffffffffffff16905090565b60605f5f90505f600190505b6003548110156120ef575f73ffffffffffffffffffffffffffffffffffffffff1660075f8381526020019081526020015f206006015f9054906101000a900473ffffffffffffffffffffffffffffffffffffffff1673ffffffffffffffffffffffffffffffffffffffff1614158015612084575060075f8281526020019081526020015f2060060160149054906101000a900460ff165b80156120ce5750848460405161209b929190614b22565b604051809103902060075f8381526020019081526020015f206004016040516120c49190614bcc565b6040518091039020145b156120e25781806120de906141cd565b9250505b8080600101915050611fed565b505f8167ffffffffffffffff81111561210b5761210a614214565b5b60405190808252806020026020018201604052801561214457816020015b612131613637565b8152602001906001900390816121295790505b5090505f5f90505f600190505b600354811015612597575f73ffffffffffffffffffffffffffffffffffffffff1660075f8381526020019081526020015f206006015f9054906101000a900473ffffffffffffffffffffffffffffffffffffffff1673ffffffffffffffffffffffffffffffffffffffff16141580156121e8575060075f8281526020019081526020015f2060060160149054906101000a900460ff165b8015612232575086866040516121ff929190614b22565b604051809103902060075f8381526020019081526020015f206004016040516122289190614bcc565b6040518091039020145b1561258a5760075f8281526020019081526020015f20604051806101600160405290815f820154815260200160018201805461226d9061426e565b80601f01602080910402602001604051908101604052809291908181526020018280546122999061426e565b80156122e45780601f106122bb576101008083540402835291602001916122e4565b820191905f5260205f20905b8154815290600101906020018083116122c757829003601f168201915b505050505081526020016002820180546122fd9061426e565b80601f01602080910402602001604051908101604052809291908181526020018280546123299061426e565b80156123745780601f1061234b57610100808354040283529160200191612374565b820191905f5260205f20905b81548152906001019060200180831161235757829003601f168201915b5050505050815260200160038201805461238d9061426e565b80601f01602080910402602001604051908101604052809291908181526020018280546123b99061426e565b80156124045780601f106123db57610100808354040283529160200191612404565b820191905f5260205f20905b8154815290600101906020018083116123e757829003601f168201915b5050505050815260200160048201805461241d9061426e565b80601f01602080910402602001604051908101604052809291908181526020018280546124499061426e565b80156124945780601f1061246b57610100808354040283529160200191612494565b820191905f5260205f20905b81548152906001019060200180831161247757829003601f168201915b5050505050815260200160058201548152602001600682015f9054906101000a900473ffffffffffffffffffffffffffffffffffffffff1673ffffffffffffffffffffffffffffffffffffffff1673ffffffffffffffffffffffffffffffffffffffff1681526020016006820160149054906101000a900460ff161515151581526020016006820160159054906101000a900467ffffffffffffffff1667ffffffffffffffff1667ffffffffffffffff168152602001600782015481526020016008820154815250508383815181106125705761256f61429e565b5b60200260200101819052508180612586906141cd565b9250505b8080600101915050612151565b5081935050505092915050565b6060806125b08361311f565b91509150915091565b6125c1613637565b5f73ffffffffffffffffffffffffffffffffffffffff1660075f8481526020019081526020015f206006015f9054906101000a900473ffffffffffffffffffffffffffffffffffffffff1673ffffffffffffffffffffffffffffffffffffffff1603612662576040517f08c379a000000000000000000000000000000000000000000000000000000000815260040161265990614467565b60405180910390fd5b60075f8381526020019081526020015f20604051806101600160405290815f82015481526020016001820180546126989061426e565b80601f01602080910402602001604051908101604052809291908181526020018280546126c49061426e565b801561270f5780601f106126e65761010080835404028352916020019161270f565b820191905f5260205f20905b8154815290600101906020018083116126f257829003601f168201915b505050505081526020016002820180546127289061426e565b80601f01602080910402602001604051908101604052809291908181526020018280546127549061426e565b801561279f5780601f106127765761010080835404028352916020019161279f565b820191905f5260205f20905b81548152906001019060200180831161278257829003601f168201915b505050505081526020016003820180546127b89061426e565b80601f01602080910402602001604051908101604052809291908181526020018280546127e49061426e565b801561282f5780601f106128065761010080835404028352916020019161282f565b820191905f5260205f20905b81548152906001019060200180831161281257829003601f168201915b505050505081526020016004820180546128489061426e565b80601f01602080910402602001604051908101604052809291908181526020018280546128749061426e565b80156128bf5780601f10612896576101008083540402835291602001916128bf565b820191905f5260205f20905b8154815290600101906020018083116128a257829003601f168201915b5050505050815260200160058201548152602001600682015f9054906101000a900473ffffffffffffffffffffffffffffffffffffffff1673ffffffffffffffffffffffffffffffffffffffff1673ffffffffffffffffffffffffffffffffffffffff1681526020016006820160149054906101000a900460ff161515151581526020016006820160159054906101000a900467ffffffffffffffff1667ffffffffffffffff1667ffffffffffffffff168152602001600782015481526020016008820154815250509050919050565b5f60075f8981526020019081526020015f2090505f73ffffffffffffffffffffffffffffffffffffffff16816006015f9054906101000a900473ffffffffffffffffffffffffffffffffffffffff1673ffffffffffffffffffffffffffffffffffffffff1603612a34576040517f08c379a0000000000000000000000000000000000000000000000000000000008152600401612a2b90614467565b60405180910390fd5b3373ffffffffffffffffffffffffffffffffffffffff16816006015f9054906101000a900473ffffffffffffffffffffffffffffffffffffffff1673ffffffffffffffffffffffffffffffffffffffff1614612ac5576040517f08c379a0000000000000000000000000000000000000000000000000000000008152600401612abc90614c52565b60405180910390fd5b5f8311612b07576040517f08c379a0000000000000000000000000000000000000000000000000000000008152600401612afe906147e6565b60405180910390fd5b5f878790501115612b27578686826002019182612b25929190614c7a565b505b5f858590501115612b47578484826003019182612b45929190614c7a565b505b828160050181905550818160060160146101000a81548160ff021916908315150217905550877fadb9ac1315ec4e133e9ecd9fe83ddb5a4b06c66fda5d0a63ef0b5a734758aaeb88888686604051612ba29493929190614d47565b60405180910390a25050505050505050565b612bbc612ee6565b5f4790505f8111612c02576040517f08c379a0000000000000000000000000000000000000000000000000000000008152600401612bf990614dcf565b60405180910390fd5b612c0a611fba565b73ffffffffffffffffffffffffffffffffffffffff166108fc8290811502906040515f60405180830381858888f19350505050158015612c4c573d5f5f3e3d5ffd5b5050565b606060095f3373ffffffffffffffffffffffffffffffffffffffff1673ffffffffffffffffffffffffffffffffffffffff1681526020019081526020015f20805480602002602001604051908101604052809291908181526020018280548015612cd757602002820191905f5260205f20905b815481526020019060010190808311612cc3575b5050505050905090565b612ce9612ee6565b5f73ffffffffffffffffffffffffffffffffffffffff168173ffffffffffffffffffffffffffffffffffffffff1603612d57576040517f08c379a0000000000000000000000000000000000000000000000000000000008152600401612d4e90614e5d565b60405180910390fd5b8060065f6101000a81548173ffffffffffffffffffffffffffffffffffffffff021916908373ffffffffffffffffffffffffffffffffffffffff1602179055507f7a7b5a0a132f9e0581eb8527f66eae9ee89c2a3e79d4ac7e41a1f1f4d48a7fc281604051612dc69190613ccf565b60405180910390a150565b612dd9612ee6565b5f73ffffffffffffffffffffffffffffffffffffffff168173ffffffffffffffffffffffffffffffffffffffff1603612e49575f6040517f1e4fbdf7000000000000000000000000000000000000000000000000000000008152600401612e409190613ccf565b60405180910390fd5b612e528161305e565b50565b606060085f3373ffffffffffffffffffffffffffffffffffffffff1673ffffffffffffffffffffffffffffffffffffffff1681526020019081526020015f20805480602002602001604051908101604052809291908181526020018280548015612edc57602002820191905f5260205f20905b815481526020019060010190808311612ec8575b5050505050905090565b612eee6135f0565b73ffffffffffffffffffffffffffffffffffffffff16612f0c611fba565b73ffffffffffffffffffffffffffffffffffffffff1614612f6b57612f2f6135f0565b6040517f118cdaa7000000000000000000000000000000000000000000000000000000008152600401612f629190613ccf565b60405180910390fd5b565b600260015403612fa9576040517f3ee5aeb500000000000000000000000000000000000000000000000000000000815260040160405180910390fd5b6002600181905550565b612fbb611ed3565b15612ff2576040517fd93c066500000000000000000000000000000000000000000000000000000000815260040160405180910390fd5b565b60018081905550565b6130056135f7565b5f60025f6101000a81548160ff0219169083151502179055507f5db9ee0a495bf2e6ff9c91a7834c1ba4fdd244a5e8aa4e537bd38aeae4b073aa6130476135f0565b6040516130549190613ccf565b60405180910390a1565b5f5f5f9054906101000a900473ffffffffffffffffffffffffffffffffffffffff169050815f5f6101000a81548173ffffffffffffffffffffffffffffffffffffffff021916908373ffffffffffffffffffffffffffffffffffffffff1602179055508173ffffffffffffffffffffffffffffffffffffffff168173ffffffffffffffffffffffffffffffffffffffff167f8be0079c531659141344cd1fd0a4f28419497f9722a3daafe3b4186f6b6457e060405160405180910390a35050565b6060805f60085f8573ffffffffffffffffffffffffffffffffffffffff1673ffffffffffffffffffffffffffffffffffffffff1681526020019081526020015f208054806020026020016040519081016040528092919081815260200182805480156131a857602002820191905f5260205f20905b815481526020019060010190808311613194575b505050505090505f815167ffffffffffffffff8111156131cb576131ca614214565b5b60405190808252806020026020018201604052801561320457816020015b6131f1613637565b8152602001906001900390816131e95790505b5090505f5f90505b82518110156135805760075f84838151811061322b5761322a61429e565b5b602002602001015181526020019081526020015f20604051806101600160405290815f82015481526020016001820180546132659061426e565b80601f01602080910402602001604051908101604052809291908181526020018280546132919061426e565b80156132dc5780601f106132b3576101008083540402835291602001916132dc565b820191905f5260205f20905b8154815290600101906020018083116132bf57829003601f168201915b505050505081526020016002820180546132f59061426e565b80601f01602080910402602001604051908101604052809291908181526020018280546133219061426e565b801561336c5780601f106133435761010080835404028352916020019161336c565b820191905f5260205f20905b81548152906001019060200180831161334f57829003601f168201915b505050505081526020016003820180546133859061426e565b80601f01602080910402602001604051908101604052809291908181526020018280546133b19061426e565b80156133fc5780601f106133d3576101008083540402835291602001916133fc565b820191905f5260205f20905b8154815290600101906020018083116133df57829003601f168201915b505050505081526020016004820180546134159061426e565b80601f01602080910402602001604051908101604052809291908181526020018280546134419061426e565b801561348c5780601f106134635761010080835404028352916020019161348c565b820191905f5260205f20905b81548152906001019060200180831161346f57829003601f168201915b5050505050815260200160058201548152602001600682015f9054906101000a900473ffffffffffffffffffffffffffffffffffffffff1673ffffffffffffffffffffffffffffffffffffffff1673ffffffffffffffffffffffffffffffffffffffff1681526020016006820160149054906101000a900460ff161515151581526020016006820160159054906101000a900467ffffffffffffffff1667ffffffffffffffff1667ffffffffffffffff168152602001600782015481526020016008820154815250508282815181106135685761356761429e565b5b6020026020010181905250808060010191505061320c565b508181935093505050915091565b613596612fb3565b600160025f6101000a81548160ff0219169083151502179055507f62e78cea01bee320cd4e420270b5ea74000d11b0c9f74754ebdbfc544b05a2586135d96135f0565b6040516135e69190613ccf565b60405180910390a1565b5f33905090565b6135ff611ed3565b613635576040517f8dfc202b00000000000000000000000000000000000000000000000000000000815260040160405180910390fd5b565b6040518061016001604052805f8152602001606081526020016060815260200160608152602001606081526020015f81526020015f73ffffffffffffffffffffffffffffffffffffffff1681526020015f151581526020015f67ffffffffffffffff1681526020015f81526020015f81525090565b6040518060a001604052805f81526020015f81526020015f73ffffffffffffffffffffffffffffffffffffffff1681526020015f81526020015f67ffffffffffffffff1681525090565b5f5ffd5b5f5ffd5b5f73ffffffffffffffffffffffffffffffffffffffff82169050919050565b5f613727826136fe565b9050919050565b6137378161371d565b8114613741575f5ffd5b50565b5f813590506137528161372e565b92915050565b5f819050919050565b61376a81613758565b8114613774575f5ffd5b50565b5f8135905061378581613761565b92915050565b5f5f604083850312156137a1576137a06136f6565b5b5f6137ae85828601613744565b92505060206137bf85828601613777565b9150509250929050565b5f8115159050919050565b6137dd816137c9565b82525050565b5f6020820190506137f65f8301846137d4565b92915050565b5f81519050919050565b5f82825260208201905092915050565b5f819050602082019050919050565b61382e81613758565b82525050565b5f81519050919050565b5f82825260208201905092915050565b8281835e5f83830152505050565b5f601f19601f8301169050919050565b5f61387682613834565b613880818561383e565b935061389081856020860161384e565b6138998161385c565b840191505092915050565b6138ad8161371d565b82525050565b6138bc816137c9565b82525050565b5f67ffffffffffffffff82169050919050565b6138de816138c2565b82525050565b5f61016083015f8301516138fa5f860182613825565b5060208301518482036020860152613912828261386c565b9150506040830151848203604086015261392c828261386c565b91505060608301518482036060860152613946828261386c565b91505060808301518482036080860152613960828261386c565b91505060a083015161397560a0860182613825565b5060c083015161398860c08601826138a4565b5060e083015161399b60e08601826138b3565b506101008301516139b06101008601826138d5565b506101208301516139c5610120860182613825565b506101408301516139da610140860182613825565b508091505092915050565b5f6139f083836138e4565b905092915050565b5f602082019050919050565b5f613a0e826137fc565b613a188185613806565b935083602082028501613a2a85613816565b805f5b85811015613a655784840389528151613a4685826139e5565b9450613a51836139f8565b925060208a01995050600181019050613a2d565b50829750879550505050505092915050565b5f6020820190508181035f830152613a8f8184613a04565b905092915050565b5f60208284031215613aac57613aab6136f6565b5b5f613ab984828501613777565b91505092915050565b613acb81613758565b82525050565b5f602082019050613ae45f830184613ac2565b92915050565b60a082015f820151613afe5f850182613825565b506020820151613b116020850182613825565b506040820151613b2460408501826138a4565b506060820151613b376060850182613825565b506080820151613b4a60808501826138d5565b50505050565b5f60a082019050613b635f830184613aea565b92915050565b5f5ffd5b5f5ffd5b5f5ffd5b5f5f83601f840112613b8a57613b89613b69565b5b8235905067ffffffffffffffff811115613ba757613ba6613b6d565b5b602083019150836001820283011115613bc357613bc2613b71565b5b9250929050565b5f5f5f5f5f5f5f5f5f60a08a8c031215613be757613be66136f6565b5b5f8a013567ffffffffffffffff811115613c0457613c036136fa565b5b613c108c828d01613b75565b995099505060208a013567ffffffffffffffff811115613c3357613c326136fa565b5b613c3f8c828d01613b75565b975097505060408a013567ffffffffffffffff811115613c6257613c616136fa565b5b613c6e8c828d01613b75565b955095505060608a013567ffffffffffffffff811115613c9157613c906136fa565b5b613c9d8c828d01613b75565b93509350506080613cb08c828d01613777565b9150509295985092959850929598565b613cc98161371d565b82525050565b5f602082019050613ce25f830184613cc0565b92915050565b5f60208284031215613cfd57613cfc6136f6565b5b5f613d0a84828501613744565b91505092915050565b5f81519050919050565b5f82825260208201905092915050565b5f819050602082019050919050565b5f613d478383613825565b60208301905092915050565b5f602082019050919050565b5f613d6982613d13565b613d738185613d1d565b9350613d7e83613d2d565b805f5b83811015613dae578151613d958882613d3c565b9750613da083613d53565b925050600181019050613d81565b5085935050505092915050565b5f6020820190508181035f830152613dd38184613d5f565b905092915050565b5f81519050919050565b5f82825260208201905092915050565b5f819050602082019050919050565b60a082015f820151613e185f850182613825565b506020820151613e2b6020850182613825565b506040820151613e3e60408501826138a4565b506060820151613e516060850182613825565b506080820151613e6460808501826138d5565b50505050565b5f613e758383613e04565b60a08301905092915050565b5f602082019050919050565b5f613e9782613ddb565b613ea18185613de5565b9350613eac83613df5565b805f5b83811015613edc578151613ec38882613e6a565b9750613ece83613e81565b925050600181019050613eaf565b5085935050505092915050565b5f6040820190508181035f830152613f018185613e8d565b90508181036020830152613f158184613a04565b90509392505050565b5f6040820190508181035f830152613f368185613d5f565b90508181036020830152613f4a8184613a04565b90509392505050565b5f5f60208385031215613f6957613f686136f6565b5b5f83013567ffffffffffffffff811115613f8657613f856136fa565b5b613f9285828601613b75565b92509250509250929050565b5f61016083015f830151613fb45f860182613825565b5060208301518482036020860152613fcc828261386c565b91505060408301518482036040860152613fe6828261386c565b91505060608301518482036060860152614000828261386c565b9150506080830151848203608086015261401a828261386c565b91505060a083015161402f60a0860182613825565b5060c083015161404260c08601826138a4565b5060e083015161405560e08601826138b3565b5061010083015161406a6101008601826138d5565b5061012083015161407f610120860182613825565b50610140830151614094610140860182613825565b508091505092915050565b5f6020820190508181035f8301526140b78184613f9e565b905092915050565b6140c8816137c9565b81146140d2575f5ffd5b50565b5f813590506140e3816140bf565b92915050565b5f5f5f5f5f5f5f60a0888a031215614104576141036136f6565b5b5f6141118a828b01613777565b975050602088013567ffffffffffffffff811115614132576141316136fa565b5b61413e8a828b01613b75565b9650965050604088013567ffffffffffffffff811115614161576141606136fa565b5b61416d8a828b01613b75565b945094505060606141808a828b01613777565b92505060806141918a828b016140d5565b91505092959891949750929550565b7f4e487b71000000000000000000000000000000000000000000000000000000005f52601160045260245ffd5b5f6141d782613758565b91507fffffffffffffffffffffffffffffffffffffffffffffffffffffffffffffffff8203614209576142086141a0565b5b600182019050919050565b7f4e487b71000000000000000000000000000000000000000000000000000000005f52604160045260245ffd5b7f4e487b71000000000000000000000000000000000000000000000000000000005f52602260045260245ffd5b5f600282049050600182168061428557607f821691505b60208210810361429857614297614241565b5b50919050565b7f4e487b71000000000000000000000000000000000000000000000000000000005f52603260045260245ffd5b5f82825260208201905092915050565b7f5361666172694d6172743a206665652063616e6e6f74206578636565642031305f8201527f2500000000000000000000000000000000000000000000000000000000000000602082015250565b5f6143356021836142cb565b9150614340826142db565b604082019050919050565b5f6020820190508181035f83015261436281614329565b9050919050565b7f5361666172694d6172743a20707572636861736520646f6573206e6f742065785f8201527f6973740000000000000000000000000000000000000000000000000000000000602082015250565b5f6143c36023836142cb565b91506143ce82614369565b604082019050919050565b5f6020820190508181035f8301526143f0816143b7565b9050919050565b7f5361666172694d6172743a2070726f6475637420646f6573206e6f74206578695f8201527f7374000000000000000000000000000000000000000000000000000000000000602082015250565b5f6144516022836142cb565b915061445c826143f7565b604082019050919050565b5f6020820190508181035f83015261447e81614445565b9050919050565b7f5361666172694d6172743a2070726f64756374206e6f7420617661696c61626c5f8201527f6500000000000000000000000000000000000000000000000000000000000000602082015250565b5f6144df6021836142cb565b91506144ea82614485565b604082019050919050565b5f6020820190508181035f83015261450c816144d3565b9050919050565b7f5361666172694d6172743a20696e73756666696369656e74207061796d656e745f82015250565b5f6145476020836142cb565b915061455282614513565b602082019050919050565b5f6020820190508181035f8301526145748161453b565b9050919050565b5f61458582613758565b915061459083613758565b92508282019050808211156145a8576145a76141a0565b5b92915050565b5f6145b882613758565b91506145c383613758565b92508282026145d181613758565b915082820484148315176145e8576145e76141a0565b5b5092915050565b7f4e487b71000000000000000000000000000000000000000000000000000000005f52601260045260245ffd5b5f61462682613758565b915061463183613758565b925082614641576146406145ef565b5b828204905092915050565b5f61465682613758565b915061466183613758565b9250828203905081811115614679576146786141a0565b5b92915050565b5f6040820190506146925f830185613ac2565b61469f6020830184613cc0565b9392505050565b7f5361666172694d6172743a2066696c6555726c207265717569726564000000005f82015250565b5f6146da601c836142cb565b91506146e5826146a6565b602082019050919050565b5f6020820190508181035f830152614707816146ce565b9050919050565b7f5361666172694d6172743a207469746c652072657175697265640000000000005f82015250565b5f614742601a836142cb565b915061474d8261470e565b602082019050919050565b5f6020820190508181035f83015261476f81614736565b9050919050565b7f5361666172694d6172743a207072696365206d757374206265206772656174655f8201527f72207468616e2030000000000000000000000000000000000000000000000000602082015250565b5f6147d06028836142cb565b91506147db82614776565b604082019050919050565b5f6020820190508181035f8301526147fd816147c4565b9050919050565b5f819050815f5260205f209050919050565b5f6020601f8301049050919050565b5f82821b905092915050565b5f600883026148607fffffffffffffffffffffffffffffffffffffffffffffffffffffffffffffffff82614825565b61486a8683614825565b95508019841693508086168417925050509392505050565b5f819050919050565b5f6148a56148a061489b84613758565b614882565b613758565b9050919050565b5f819050919050565b6148be8361488b565b6148d26148ca826148ac565b848454614831565b825550505050565b5f5f905090565b6148e96148da565b6148f48184846148b5565b505050565b5b818110156149175761490c5f826148e1565b6001810190506148fa565b5050565b601f82111561495c5761492d81614804565b61493684614816565b81016020851015614945578190505b61495961495185614816565b8301826148f9565b50505b505050565b5f82821c905092915050565b5f61497c5f1984600802614961565b1980831691505092915050565b5f614994838361496d565b9150826002028217905092915050565b6149ad82613834565b67ffffffffffffffff8111156149c6576149c5614214565b5b6149d0825461426e565b6149db82828561491b565b5f60209050601f831160018114614a0c575f84156149fa578287015190505b614a048582614989565b865550614a6b565b601f198416614a1a86614804565b5f5b82811015614a4157848901518255600182019150602085019450602081019050614a1c565b86831015614a5e5784890151614a5a601f89168261496d565b8355505b6001600288020188555050505b505050505050565b828183375f83830152505050565b5f614a8c83856142cb565b9350614a99838584614a73565b614aa28361385c565b840190509392505050565b5f6060820190508181035f830152614ac6818789614a81565b9050614ad56020830186613ac2565b8181036040830152614ae8818486614a81565b90509695505050505050565b5f81905092915050565b5f614b098385614af4565b9350614b16838584614a73565b82840190509392505050565b5f614b2e828486614afe565b91508190509392505050565b5f819050815f5260205f209050919050565b5f8154614b588161426e565b614b628186614af4565b9450600182165f8114614b7c5760018114614b9157614bc3565b60ff1983168652811515820286019350614bc3565b614b9a85614b3a565b5f5b83811015614bbb57815481890152600182019150602081019050614b9c565b838801955050505b50505092915050565b5f614bd78284614b4c565b915081905092915050565b7f5361666172694d6172743a206f6e6c792063726561746f722063616e207570645f8201527f6174650000000000000000000000000000000000000000000000000000000000602082015250565b5f614c3c6023836142cb565b9150614c4782614be2565b604082019050919050565b5f6020820190508181035f830152614c6981614c30565b9050919050565b5f82905092915050565b614c848383614c70565b67ffffffffffffffff811115614c9d57614c9c614214565b5b614ca7825461426e565b614cb282828561491b565b5f601f831160018114614cdf575f8415614ccd578287013590505b614cd78582614989565b865550614d3e565b601f198416614ced86614804565b5f5b82811015614d1457848901358255600182019150602085019450602081019050614cef565b86831015614d315784890135614d2d601f89168261496d565b8355505b6001600288020188555050505b50505050505050565b5f6060820190508181035f830152614d60818688614a81565b9050614d6f6020830185613ac2565b614d7c60408301846137d4565b95945050505050565b7f5361666172694d6172743a206e6f2066756e647320746f2077697468647261775f82015250565b5f614db96020836142cb565b9150614dc482614d85565b602082019050919050565b5f6020820190508181035f830152614de681614dad565b9050919050565b7f5361666172694d6172743a20696e76616c69642066656520726563697069656e5f8201527f7400000000000000000000000000000000000000000000000000000000000000602082015250565b5f614e476021836142cb565b9150614e5282614ded565b604082019050919050565b5f6020820190508181035f830152614e7481614e3b565b905091905056fea26469706673582212204d9270e9c10d09866b617cb98b40ad81e137f3ad9a14f804ac77cd97686f230164736f6c634300081c0033",
  "linkReferences": {},
  "deployedLinkReferences": {},
  "immutableReferences": {},
  "inputSourceName": "project/contracts/SafariMart.sol",
  "buildInfoId": "solc-0_8_28-bcb2aba0548f52bae92f35f55d79213dccbacd45"
}