{
  "_format": "hh3-artifact-1",
  "contractName": "SafariSurvivalToken",
  "sourceName": "contracts/SafariGameRewards.sol",
  "abi": [
    {
      "inputs": [
        {
          "internalType": "address",
          "name": "initialOwner",
          "type": "address"
        }
      ],
      "stateMutability": "nonpayable",
      "type": "constructor"
    },
    {
      "inputs": [
        {
          "internalType": "address",
          "name": "spender",
          "type": "address"
        },
        {
          "internalType": "uint256",
          "name": "allowance",
          "type": "uint256"
        },
        {
          "internalType": "uint256",
          "name": "needed",
          "type": "uint256"
        }
      ],
      "name": "ERC20InsufficientAllowance",
      "type": "error"
    },
    {
      "inputs": [
        {
          "internalType": "address",
          "name": "sender",
          "type": "address"
        },
        {
          "internalType": "uint256",
          "name": "balance",
          "type": "uint256"
        },
        {
          "internalType": "uint256",
          "name": "needed",
          "type": "uint256"
        }
      ],
      "name": "ERC20InsufficientBalance",
      "type": "error"
    },
    {
      "inputs": [
        {
          "internalType": "address",
          "name": "approver",
          "type": "address"
        }
      ],
      "name": "ERC20InvalidApprover",
      "type": "error"
    },
    {
      "inputs": [
        {
          "internalType": "address",
          "name": "receiver",
          "type": "address"
        }
      ],
      "name": "ERC20InvalidReceiver",
      "type": "error"
    },
    {
      "inputs": [
        {
          "internalType": "address",
          "name": "sender",
          "type": "address"
        }
      ],
      "name": "ERC20InvalidSender",
      "type": "error"
    },
    {
      "inputs": [
        {
          "internalType": "address",
          "name": "spender",
          "type": "address"
        }
      ],
      "name": "ERC20InvalidSpender",
      "type": "error"
    },
    {
      "inputs": [],
      "name": "EnforcedPause",
      "type": "error"
    },
    {
      "inputs": [],
      "name": "ExpectedPause",
      "type": "error"
    },
    {
      "inputs": [
        {
          "internalType": "address",
          "name": "owner",
          "type": "address"
        }
      ],
      "name": "OwnableInvalidOwner",
      "type": "error"
    },
    {
      "inputs": [
        {
          "internalType": "address",
          "name": "account",
          "type": "address"
        }
      ],
      "name": "OwnableUnauthorizedAccount",
      "type": "error"
    },
    {
      "anonymous": false,
      "inputs": [
        {
          "indexed": true,
          "internalType": "address",
          "name": "owner",
          "type": "address"
        },
        {
          "indexed": true,
          "internalType": "address",
          "name": "spender",
          "type": "address"
        },
        {
          "indexed": false,
          "internalType": "uint256",
          "name": "value",
          "type": "uint256"
        }
      ],
      "name": "Approval",
      "type": "event"
    },
    {
      "anonymous": false,
      "inputs": [
        {
          "indexed": true,
          "internalType": "address",
          "name": "gameContract",
          "type": "address"
        }
      ],
      "name": "GameContractAdded",
      "type": "event"
    },
    {
      "anonymous": false,
      "inputs": [
        {
          "indexed": true,
          "internalType": "address",
          "name": "gameContract",
          "type": "address"
        }
      ],
      "name": "GameContractRemoved",
      "type": "event"
    },
    {
      "anonymous": false,
      "inputs": [
        {
          "indexed": true,
          "internalType": "address",
          "name": "previousOwner",
          "type": "address"
        },
        {
          "indexed": true,
          "internalType": "address",
          "name": "newOwner",
          "type": "address"
        }
      ],
      "name": "OwnershipTransferred",
      "type": "event"
    },
    {
      "anonymous": false,
      "inputs": [
        {
          "indexed": false,
          "internalType": "address",
          "name": "account",
          "type": "address"
        }
      ],
      "name": "Paused",
      "type": "event"
    },
    {
      "anonymous": false,
      "inputs": [
        {
          "indexed": true,
          "internalType": "address",
          "name": "player",
          "type": "address"
        },
        {
          "indexed": false,
          "internalType": "uint256",
          "name": "amount",
          "type": "uint256"
        },
        {
          "indexed": false,
          "internalType": "string",
          "name": "reason",
          "type": "string"
        }
      ],
      "name": "TokensRewarded",
      "type": "event"
    },
    {
      "anonymous": false,
      "inputs": [
        {
          "indexed": true,
          "internalType": "address",
          "name": "from",
          "type": "address"
        },
        {
          "indexed": true,
          "internalType": "address",
          "name": "to",
          "type": "address"
        },
        {
          "indexed": false,
          "internalType": "uint256",
          "name": "value",
          "type": "uint256"
        }
      ],
      "name": "Transfer",
      "type": "event"
    },
    {
      "anonymous": false,
      "inputs": [
        {
          "indexed": false,
          "internalType": "address",
          "name": "account",
          "type": "address"
        }
      ],
      "name": "Unpaused",
      "type": "event"
    },
    {
      "inputs": [],
      "name": "INITIAL_SUPPLY",
      "outputs": [
        {
          "internalType": "uint256",
          "name": "",
          "type": "uint256"
        }
      ],
      "stateMutability": "view",
      "type": "function"
    },
    {
      "inputs": [],
      "name": "MAX_SUPPLY",
      "outputs": [
        {
          "internalType": "uint256",
          "name": "",
          "type": "uint256"
        }
      ],
      "stateMutability": "view",
      "type": "function"
    },
    {
      "inputs": [
        {
          "internalType": "address",
          "name": "gameContract",
          "type": "address"
        }
      ],
      "name": "addGameContract",
      "outputs": [],
      "stateMutability": "nonpayable",
      "type": "function"
    },
    {
      "inputs": [
        {
          "internalType": "address",
          "name": "owner",
          "type": "address"
        },
        {
          "internalType": "address",
          "name": "spender",
          "type": "address"
        }
      ],
      "name": "allowance",
      "outputs": [
        {
          "internalType": "uint256",
          "name": "",
          "type": "uint256"
        }
      ],
      "stateMutability": "view",
      "type": "function"
    },
    {
      "inputs": [
        {
          "internalType": "address",
          "name": "spender",
          "type": "address"
        },
        {
          "internalType": "uint256",
          "name": "value",
          "type": "uint256"
        }
      ],
      "name": "approve",
      "outputs": [
        {
          "internalType": "bool",
          "name": "",
          "type": "bool"
        }
      ],
      "stateMutability": "nonpayable",
      "type": "function"
    },
    {
      "inputs": [
        {
          "internalType": "address",
          "name": "account",
          "type": "address"
        }
      ],
      "name": "balanceOf",
      "outputs": [
        {
          "internalType": "uint256",
          "name": "",
          "type": "uint256"
        }
      ],
      "stateMutability": "view",
      "type": "function"
    },
    {
      "inputs": [],
      "name": "decimals",
      "outputs": [
        {
          "internalType": "uint8",
          "name": "",
          "type": "uint8"
        }
      ],
      "stateMutability": "view",
      "type": "function"
    },
    {
      "inputs": [
        {
          "internalType": "address",
          "name": "",
          "type": "address"
        }
      ],
      "name": "gameContracts",
      "outputs": [
        {
          "internalType": "bool",
          "name": "",
          "type": "bool"
        }
      ],
      "stateMutability": "view",
      "type": "function"
    },
    {
      "inputs": [
        {
          "internalType": "address",
          "name": "player",
          "type": "address"
        }
      ],
      "name": "getPlayerStats",
      "outputs": [
        {
          "internalType": "uint256",
          "name": "totalEarned",
          "type": "uint256"
        },
        {
          "internalType": "uint256",
          "name": "sessionsPlayed",
          "type": "uint256"
        },
        {
          "internalType": "uint256",
          "name": "currentBalance",
          "type": "uint256"
        }
      ],
      "stateMutability": "view",
      "type": "function"
    },
    {
      "inputs": [],
      "name": "name",
      "outputs": [
        {
          "internalType": "string",
          "name": "",
          "type": "string"
        }
      ],
      "stateMutability": "view",
      "type": "function"
    },
    {
      "inputs": [],
      "name": "owner",
      "outputs": [
        {
          "internalType": "address",
          "name": "",
          "type": "address"
        }
      ],
      "stateMutability": "view",
      "type": "function"
    },
    {
      "inputs": [],
      "name": "pause",
      "outputs": [],
      "stateMutability": "nonpayable",
      "type": "function"
    },
    {
      "inputs": [],
      "name": "paused",
      "outputs": [
        {
          "internalType": "bool",
          "name": "",
          "type": "bool"
        }
      ],
      "stateMutability": "view",
      "type": "function"
    },
    {
      "inputs": [
        {
          "internalType": "address",
          "name": "",
          "type": "address"
        }
      ],
      "name": "playerSessionsPlayed",
      "outputs": [
        {
          "internalType": "uint256",
          "name": "",
          "type": "uint256"
        }
      ],
      "stateMutability": "view",
      "type": "function"
    },
    {
      "inputs": [
        {
          "internalType": "address",
          "name": "",
          "type": "address"
        }
      ],
      "name": "playerTotalEarned",
      "outputs": [
        {
          "internalType": "uint256",
          "name": "",
          "type": "uint256"
        }
      ],
      "stateMutability": "view",
      "type": "function"
    },
    {
      "inputs": [
        {
          "internalType": "address",
          "name": "gameContract",
          "type": "address"
        }
      ],
      "name": "removeGameContract",
      "outputs": [],
      "stateMutability": "nonpayable",
      "type": "function"
    },
    {
      "inputs": [],
      "name": "renounceOwnership",
      "outputs": [],
      "stateMutability": "nonpayable",
      "type": "function"
    },
    {
      "inputs": [
        {
          "internalType": "address",
          "name": "player",
          "type": "address"
        },
        {
          "internalType": "uint256",
          "name": "amount",
          "type": "uint256"
        },
        {
          "internalType": "string",
          "name": "reason",
          "type": "string"
        }
      ],
      "name": "rewardPlayer",
      "outputs": [],
      "stateMutability": "nonpayable",
      "type": "function"
    },
    {
      "inputs": [],
      "name": "symbol",
      "outputs": [
        {
          "internalType": "string",
          "name": "",
          "type": "string"
        }
      ],
      "stateMutability": "view",
      "type": "function"
    },
    {
      "inputs": [],
      "name": "totalSupply",
      "outputs": [
        {
          "internalType": "uint256",
          "name": "",
          "type": "uint256"
        }
      ],
      "stateMutability": "view",
      "type": "function"
    },
    {
      "inputs": [
        {
          "internalType": "address",
          "name": "to",
          "type": "address"
        },
        {
          "internalType": "uint256",
          "name": "value",
          "type": "uint256"
        }
      ],
      "name": "transfer",
      "outputs": [
        {
          "internalType": "bool",
          "name": "",
          "type": "bool"
        }
      ],
      "stateMutability": "nonpayable",
      "type": "function"
    },
    {
      "inputs": [
        {
          "internalType": "address",
          "name": "from",
          "type": "address"
        },
        {
          "internalType": "address",
          "name": "to",
          "type": "address"
        },
        {
          "internalType": "uint256",
          "name": "value",
          "type": "uint256"
        }
      ],
      "name": "transferFrom",
      "outputs": [
        {
          "internalType": "bool",
          "name": "",
          "type": "bool"
        }
      ],
      "stateMutability": "nonpayable",
      "type": "function"
    },
    {
      "inputs": [
        {
          "internalType": "address",
          "name": "newOwner",
          "type": "address"
        }
      ],
      "name": "transferOwnership",
      "outputs": [],
      "stateMutability": "nonpayable",
      "type": "function"
    },
    {
      "inputs": [],
      "name": "unpause",
      "outputs": [],
      "stateMutability": "nonpayable",
      "type": "function"
    }
  ],
  "bytecode": "0x608060405234801561000f575f5ffd5b506040516127e93803806127e9833981810160405281019061003191906105a0565b806040518060400160405280601581526020017f53616661726920537572766976616c20546f6b656e00000000000000000000008152506040518060400160405280600681526020017f534146415249000000000000000000000000000000000000000000000000000081525081600390816100ad9190610808565b5080600490816100bd9190610808565b5050505f73ffffffffffffffffffffffffffffffffffffffff168173ffffffffffffffffffffffffffffffffffffffff1603610130575f6040517f1e4fbdf700000000000000000000000000000000000000000000000000000000815260040161012791906108e6565b60405180910390fd5b61013f8161016060201b60201c565b5061015a8169d3c21bcecceda100000061022360201b60201c565b506109bc565b5f60055f9054906101000a900473ffffffffffffffffffffffffffffffffffffffff1690508160055f6101000a81548173ffffffffffffffffffffffffffffffffffffffff021916908373ffffffffffffffffffffffffffffffffffffffff1602179055508173ffffffffffffffffffffffffffffffffffffffff168173ffffffffffffffffffffffffffffffffffffffff167f8be0079c531659141344cd1fd0a4f28419497f9722a3daafe3b4186f6b6457e060405160405180910390a35050565b5f73ffffffffffffffffffffffffffffffffffffffff168273ffffffffffffffffffffffffffffffffffffffff1603610293575f6040517fec442f0500000000000000000000000000000000000000000000000000000000815260040161028a91906108e6565b60405180910390fd5b6102a45f83836102a860201b60201c565b5050565b6102b66102cc60201b60201c565b6102c783838361031360201b60201c565b505050565b6102da61052c60201b60201c565b15610311576040517fd93c066500000000000000000000000000000000000000000000000000000000815260040160405180910390fd5b565b5f73ffffffffffffffffffffffffffffffffffffffff168373ffffffffffffffffffffffffffffffffffffffff1603610363578060025f828254610357919061092c565b92505081905550610431565b5f5f5f8573ffffffffffffffffffffffffffffffffffffffff1673ffffffffffffffffffffffffffffffffffffffff1681526020019081526020015f20549050818110156103ec578381836040517fe450d38c0000000000000000000000000000000000000000000000000000000081526004016103e39392919061096e565b60405180910390fd5b8181035f5f8673ffffffffffffffffffffffffffffffffffffffff1673ffffffffffffffffffffffffffffffffffffffff1681526020019081526020015f2081905550505b5f73ffffffffffffffffffffffffffffffffffffffff168273ffffffffffffffffffffffffffffffffffffffff1603610478578060025f82825403925050819055506104c2565b805f5f8473ffffffffffffffffffffffffffffffffffffffff1673ffffffffffffffffffffffffffffffffffffffff1681526020019081526020015f205f82825401925050819055505b8173ffffffffffffffffffffffffffffffffffffffff168373ffffffffffffffffffffffffffffffffffffffff167fddf252ad1be2c89b69c2b068fc378daa952ba7f163c4a11628f55a4df523b3ef8360405161051f91906109a3565b60405180910390a3505050565b5f600560149054906101000a900460ff16905090565b5f5ffd5b5f73ffffffffffffffffffffffffffffffffffffffff82169050919050565b5f61056f82610546565b9050919050565b61057f81610565565b8114610589575f5ffd5b50565b5f8151905061059a81610576565b92915050565b5f602082840312156105b5576105b4610542565b5b5f6105c28482850161058c565b91505092915050565b5f81519050919050565b7f4e487b71000000000000000000000000000000000000000000000000000000005f52604160045260245ffd5b7f4e487b71000000000000000000000000000000000000000000000000000000005f52602260045260245ffd5b5f600282049050600182168061064657607f821691505b60208210810361065957610658610602565b5b50919050565b5f819050815f5260205f209050919050565b5f6020601f8301049050919050565b5f82821b905092915050565b5f600883026106bb7fffffffffffffffffffffffffffffffffffffffffffffffffffffffffffffffff82610680565b6106c58683610680565b95508019841693508086168417925050509392505050565b5f819050919050565b5f819050919050565b5f6107096107046106ff846106dd565b6106e6565b6106dd565b9050919050565b5f819050919050565b610722836106ef565b61073661072e82610710565b84845461068c565b825550505050565b5f5f905090565b61074d61073e565b610758818484610719565b505050565b5b8181101561077b576107705f82610745565b60018101905061075e565b5050565b601f8211156107c0576107918161065f565b61079a84610671565b810160208510156107a9578190505b6107bd6107b585610671565b83018261075d565b50505b505050565b5f82821c905092915050565b5f6107e05f19846008026107c5565b1980831691505092915050565b5f6107f883836107d1565b9150826002028217905092915050565b610811826105cb565b67ffffffffffffffff81111561082a576108296105d5565b5b610834825461062f565b61083f82828561077f565b5f60209050601f831160018114610870575f841561085e578287015190505b61086885826107ed565b8655506108cf565b601f19841661087e8661065f565b5f5b828110156108a557848901518255600182019150602085019450602081019050610880565b868310156108c257848901516108be601f8916826107d1565b8355505b6001600288020188555050505b505050505050565b6108e081610565565b82525050565b5f6020820190506108f95f8301846108d7565b92915050565b7f4e487b71000000000000000000000000000000000000000000000000000000005f52601160045260245ffd5b5f610936826106dd565b9150610941836106dd565b9250828201905080821115610959576109586108ff565b5b92915050565b610968816106dd565b82525050565b5f6060820190506109815f8301866108d7565b61098e602083018561095f565b61099b604083018461095f565b949350505050565b5f6020820190506109b65f83018461095f565b92915050565b611e20806109c95f395ff3fe608060405234801561000f575f5ffd5b5060043610610156575f3560e01c80635c975abb116100c15780638da5cb5b1161007a5780638da5cb5b146103a257806395d89b41146103c0578063a13edfc1146103de578063a9059cbb1461040e578063dd62ed3e1461043e578063f2fde38b1461046e57610156565b80635c975abb146102f45780636ddd474d1461031257806370a0823114610342578063715018a61461037257806381cd08ee1461037c5780638456cb591461039857610156565b806332cb6b0c1161011357806332cb6b0c146102325780633f4ba83a146102505780633fa1a6401461025a5780634fd66eae1461028a57806350271e02146102bc5780635c74e025146102d857610156565b806306fdde031461015a578063095ea7b31461017857806318160ddd146101a857806323b872dd146101c65780632ff2e9dc146101f6578063313ce56714610214575b5f5ffd5b61016261048a565b60405161016f919061165e565b60405180910390f35b610192600480360381019061018d9190611713565b61051a565b60405161019f919061176b565b60405180910390f35b6101b061053c565b6040516101bd9190611793565b60405180910390f35b6101e060048036038101906101db91906117ac565b610545565b6040516101ed919061176b565b60405180910390f35b6101fe610573565b60405161020b9190611793565b60405180910390f35b61021c610581565b6040516102299190611817565b60405180910390f35b61023a610589565b6040516102479190611793565b60405180910390f35b610258610598565b005b610274600480360381019061026f9190611830565b6105aa565b6040516102819190611793565b60405180910390f35b6102a4600480360381019061029f9190611830565b6105bf565b6040516102b39392919061185b565b60405180910390f35b6102d660048036038101906102d191906118f1565b610654565b005b6102f260048036038101906102ed9190611830565b6108fe565b005b6102fc6109a0565b604051610309919061176b565b60405180910390f35b61032c60048036038101906103279190611830565b6109b6565b604051610339919061176b565b60405180910390f35b61035c60048036038101906103579190611830565b6109d3565b6040516103699190611793565b60405180910390f35b61037a610a18565b005b61039660048036038101906103919190611830565b610a2b565b005b6103a0610b3c565b005b6103aa610b4e565b6040516103b79190611971565b60405180910390f35b6103c8610b76565b6040516103d5919061165e565b60405180910390f35b6103f860048036038101906103f39190611830565b610c06565b6040516104059190611793565b60405180910390f35b61042860048036038101906104239190611713565b610c1b565b604051610435919061176b565b60405180910390f35b6104586004803603810190610453919061198a565b610c3d565b6040516104659190611793565b60405180910390f35b61048860048036038101906104839190611830565b610cbf565b005b606060038054610499906119f5565b80601f01602080910402602001604051908101604052809291908181526020018280546104c5906119f5565b80156105105780601f106104e757610100808354040283529160200191610510565b820191905f5260205f20905b8154815290600101906020018083116104f357829003601f168201915b5050505050905090565b5f5f610524610d43565b9050610531818585610d4a565b600191505092915050565b5f600254905090565b5f5f61054f610d43565b905061055c858285610d5c565b610567858585610def565b60019150509392505050565b69d3c21bcecceda100000081565b5f6012905090565b6a084595161401484a00000081565b6105a0610edf565b6105a8610f66565b565b6007602052805f5260405f205f915090505481565b5f5f5f60075f8573ffffffffffffffffffffffffffffffffffffffff1673ffffffffffffffffffffffffffffffffffffffff1681526020019081526020015f205460085f8673ffffffffffffffffffffffffffffffffffffffff1673ffffffffffffffffffffffffffffffffffffffff1681526020019081526020015f2054610647866109d3565b9250925092509193909250565b60065f3373ffffffffffffffffffffffffffffffffffffffff1673ffffffffffffffffffffffffffffffffffffffff1681526020019081526020015f205f9054906101000a900460ff166106dd576040517f08c379a00000000000000000000000000000000000000000000000000000000081526004016106d490611a95565b60405180910390fd5b6106e5610fc8565b5f73ffffffffffffffffffffffffffffffffffffffff168473ffffffffffffffffffffffffffffffffffffffff1603610753576040517f08c379a000000000000000000000000000000000000000000000000000000000815260040161074a90611b23565b60405180910390fd5b5f8311610795576040517f08c379a000000000000000000000000000000000000000000000000000000000815260040161078c90611bb1565b60405180910390fd5b6a084595161401484a000000836107aa61053c565b6107b49190611bfc565b11156107f5576040517f08c379a00000000000000000000000000000000000000000000000000000000081526004016107ec90611c9f565b60405180910390fd5b6107ff8484611009565b8260075f8673ffffffffffffffffffffffffffffffffffffffff1673ffffffffffffffffffffffffffffffffffffffff1681526020019081526020015f205f82825461084b9190611bfc565b92505081905550600160085f8673ffffffffffffffffffffffffffffffffffffffff1673ffffffffffffffffffffffffffffffffffffffff1681526020019081526020015f205f82825461089f9190611bfc565b925050819055508373ffffffffffffffffffffffffffffffffffffffff167fb969d134776a7f04430dbbcac4e68734b1c6c5adcecbf68c3cbe6a9a4f2c8a1d8484846040516108f093929190611cf7565b60405180910390a250505050565b610906610edf565b5f60065f8373ffffffffffffffffffffffffffffffffffffffff1673ffffffffffffffffffffffffffffffffffffffff1681526020019081526020015f205f6101000a81548160ff0219169083151502179055508073ffffffffffffffffffffffffffffffffffffffff167f2787914e393eae017c5d63972ae40b8a6e095f82f7c2df7b8cc0947364f44c3b60405160405180910390a250565b5f600560149054906101000a900460ff16905090565b6006602052805f5260405f205f915054906101000a900460ff1681565b5f5f5f8373ffffffffffffffffffffffffffffffffffffffff1673ffffffffffffffffffffffffffffffffffffffff1681526020019081526020015f20549050919050565b610a20610edf565b610a295f611088565b565b610a33610edf565b5f73ffffffffffffffffffffffffffffffffffffffff168173ffffffffffffffffffffffffffffffffffffffff1603610aa1576040517f08c379a0000000000000000000000000000000000000000000000000000000008152600401610a9890611d97565b60405180910390fd5b600160065f8373ffffffffffffffffffffffffffffffffffffffff1673ffffffffffffffffffffffffffffffffffffffff1681526020019081526020015f205f6101000a81548160ff0219169083151502179055508073ffffffffffffffffffffffffffffffffffffffff167f6c714ab98f337e5ba3203dce1dd577e948f63b10c5300a075c35c4df3a27006760405160405180910390a250565b610b44610edf565b610b4c61114b565b565b5f60055f9054906101000a900473ffffffffffffffffffffffffffffffffffffffff16905090565b606060048054610b85906119f5565b80601f0160208091040260200160405190810160405280929190818152602001828054610bb1906119f5565b8015610bfc5780601f10610bd357610100808354040283529160200191610bfc565b820191905f5260205f20905b815481529060010190602001808311610bdf57829003601f168201915b5050505050905090565b6008602052805f5260405f205f915090505481565b5f5f610c25610d43565b9050610c32818585610def565b600191505092915050565b5f60015f8473ffffffffffffffffffffffffffffffffffffffff1673ffffffffffffffffffffffffffffffffffffffff1681526020019081526020015f205f8373ffffffffffffffffffffffffffffffffffffffff1673ffffffffffffffffffffffffffffffffffffffff1681526020019081526020015f2054905092915050565b610cc7610edf565b5f73ffffffffffffffffffffffffffffffffffffffff168173ffffffffffffffffffffffffffffffffffffffff1603610d37575f6040517f1e4fbdf7000000000000000000000000000000000000000000000000000000008152600401610d2e9190611971565b60405180910390fd5b610d4081611088565b50565b5f33905090565b610d5783838360016111ae565b505050565b5f610d678484610c3d565b90507fffffffffffffffffffffffffffffffffffffffffffffffffffffffffffffffff811015610de95781811015610dda578281836040517ffb8f41b2000000000000000000000000000000000000000000000000000000008152600401610dd193929190611db5565b60405180910390fd5b610de884848484035f6111ae565b5b50505050565b5f73ffffffffffffffffffffffffffffffffffffffff168373ffffffffffffffffffffffffffffffffffffffff1603610e5f575f6040517f96c6fd1e000000000000000000000000000000000000000000000000000000008152600401610e569190611971565b60405180910390fd5b5f73ffffffffffffffffffffffffffffffffffffffff168273ffffffffffffffffffffffffffffffffffffffff1603610ecf575f6040517fec442f05000000000000000000000000000000000000000000000000000000008152600401610ec69190611971565b60405180910390fd5b610eda83838361137d565b505050565b610ee7610d43565b73ffffffffffffffffffffffffffffffffffffffff16610f05610b4e565b73ffffffffffffffffffffffffffffffffffffffff1614610f6457610f28610d43565b6040517f118cdaa7000000000000000000000000000000000000000000000000000000008152600401610f5b9190611971565b60405180910390fd5b565b610f6e611395565b5f600560146101000a81548160ff0219169083151502179055507f5db9ee0a495bf2e6ff9c91a7834c1ba4fdd244a5e8aa4e537bd38aeae4b073aa610fb1610d43565b604051610fbe9190611971565b60405180910390a1565b610fd06109a0565b15611007576040517fd93c066500000000000000000000000000000000000000000000000000000000815260040160405180910390fd5b565b5f73ffffffffffffffffffffffffffffffffffffffff168273ffffffffffffffffffffffffffffffffffffffff1603611079575f6040517fec442f050000000000000000000000000000000000000000000000000000000081526004016110709190611971565b60405180910390fd5b6110845f838361137d565b5050565b5f60055f9054906101000a900473ffffffffffffffffffffffffffffffffffffffff1690508160055f6101000a81548173ffffffffffffffffffffffffffffffffffffffff021916908373ffffffffffffffffffffffffffffffffffffffff1602179055508173ffffffffffffffffffffffffffffffffffffffff168173ffffffffffffffffffffffffffffffffffffffff167f8be0079c531659141344cd1fd0a4f28419497f9722a3daafe3b4186f6b6457e060405160405180910390a35050565b611153610fc8565b6001600560146101000a81548160ff0219169083151502179055507f62e78cea01bee320cd4e420270b5ea74000d11b0c9f74754ebdbfc544b05a258611197610d43565b6040516111a49190611971565b60405180910390a1565b5f73ffffffffffffffffffffffffffffffffffffffff168473ffffffffffffffffffffffffffffffffffffffff160361121e575f6040517fe602df050000000000000000000000000000000000000000000000000000000081526004016112159190611971565b60405180910390fd5b5f73ffffffffffffffffffffffffffffffffffffffff168373ffffffffffffffffffffffffffffffffffffffff160361128e575f6040517f94280d620000000000000000000000000000000000000000000000000000000081526004016112859190611971565b60405180910390fd5b8160015f8673ffffffffffffffffffffffffffffffffffffffff1673ffffffffffffffffffffffffffffffffffffffff1681526020019081526020015f205f8573ffffffffffffffffffffffffffffffffffffffff1673ffffffffffffffffffffffffffffffffffffffff1681526020019081526020015f20819055508015611377578273ffffffffffffffffffffffffffffffffffffffff168473ffffffffffffffffffffffffffffffffffffffff167f8c5be1e5ebec7d5bd14f71427d1e84f3dd0314c0f7b2291e5b200ac8c7c3b9258460405161136e9190611793565b60405180910390a35b50505050565b611385610fc8565b6113908383836113d5565b505050565b61139d6109a0565b6113d3576040517f8dfc202b00000000000000000000000000000000000000000000000000000000815260040160405180910390fd5b565b5f73ffffffffffffffffffffffffffffffffffffffff168373ffffffffffffffffffffffffffffffffffffffff1603611425578060025f8282546114199190611bfc565b925050819055506114f3565b5f5f5f8573ffffffffffffffffffffffffffffffffffffffff1673ffffffffffffffffffffffffffffffffffffffff1681526020019081526020015f20549050818110156114ae578381836040517fe450d38c0000000000000000000000000000000000000000000000000000000081526004016114a593929190611db5565b60405180910390fd5b8181035f5f8673ffffffffffffffffffffffffffffffffffffffff1673ffffffffffffffffffffffffffffffffffffffff1681526020019081526020015f2081905550505b5f73ffffffffffffffffffffffffffffffffffffffff168273ffffffffffffffffffffffffffffffffffffffff160361153a578060025f8282540392505081905550611584565b805f5f8473ffffffffffffffffffffffffffffffffffffffff1673ffffffffffffffffffffffffffffffffffffffff1681526020019081526020015f205f82825401925050819055505b8173ffffffffffffffffffffffffffffffffffffffff168373ffffffffffffffffffffffffffffffffffffffff167fddf252ad1be2c89b69c2b068fc378daa952ba7f163c4a11628f55a4df523b3ef836040516115e19190611793565b60405180910390a3505050565b5f81519050919050565b5f82825260208201905092915050565b8281835e5f83830152505050565b5f601f19601f8301169050919050565b5f611630826115ee565b61163a81856115f8565b935061164a818560208601611608565b61165381611616565b840191505092915050565b5f6020820190508181035f8301526116768184611626565b905092915050565b5f5ffd5b5f5ffd5b5f73ffffffffffffffffffffffffffffffffffffffff82169050919050565b5f6116af82611686565b9050919050565b6116bf816116a5565b81146116c9575f5ffd5b50565b5f813590506116da816116b6565b92915050565b5f819050919050565b6116f2816116e0565b81146116fc575f5ffd5b50565b5f8135905061170d816116e9565b92915050565b5f5f604083850312156117295761172861167e565b5b5f611736858286016116cc565b9250506020611747858286016116ff565b9150509250929050565b5f8115159050919050565b61176581611751565b82525050565b5f60208201905061177e5f83018461175c565b92915050565b61178d816116e0565b82525050565b5f6020820190506117a65f830184611784565b92915050565b5f5f5f606084860312156117c3576117c261167e565b5b5f6117d0868287016116cc565b93505060206117e1868287016116cc565b92505060406117f2868287016116ff565b9150509250925092565b5f60ff82169050919050565b611811816117fc565b82525050565b5f60208201905061182a5f830184611808565b92915050565b5f602082840312156118455761184461167e565b5b5f611852848285016116cc565b91505092915050565b5f60608201905061186e5f830186611784565b61187b6020830185611784565b6118886040830184611784565b949350505050565b5f5ffd5b5f5ffd5b5f5ffd5b5f5f83601f8401126118b1576118b0611890565b5b8235905067ffffffffffffffff8111156118ce576118cd611894565b5b6020830191508360018202830111156118ea576118e9611898565b5b9250929050565b5f5f5f5f606085870312156119095761190861167e565b5b5f611916878288016116cc565b9450506020611927878288016116ff565b935050604085013567ffffffffffffffff81111561194857611947611682565b5b6119548782880161189c565b925092505092959194509250565b61196b816116a5565b82525050565b5f6020820190506119845f830184611962565b92915050565b5f5f604083850312156119a05761199f61167e565b5b5f6119ad858286016116cc565b92505060206119be858286016116cc565b9150509250929050565b7f4e487b71000000000000000000000000000000000000000000000000000000005f52602260045260245ffd5b5f6002820490506001821680611a0c57607f821691505b602082108103611a1f57611a1e6119c8565b5b50919050565b7f536166617269546f6b656e3a204f6e6c792067616d6520636f6e7472616374735f8201527f2063616e2063616c6c2074686973000000000000000000000000000000000000602082015250565b5f611a7f602e836115f8565b9150611a8a82611a25565b604082019050919050565b5f6020820190508181035f830152611aac81611a73565b9050919050565b7f536166617269546f6b656e3a20496e76616c696420706c6179657220616464725f8201527f6573730000000000000000000000000000000000000000000000000000000000602082015250565b5f611b0d6023836115f8565b9150611b1882611ab3565b604082019050919050565b5f6020820190508181035f830152611b3a81611b01565b9050919050565b7f536166617269546f6b656e3a20416d6f756e74206d75737420626520677265615f8201527f746572207468616e203000000000000000000000000000000000000000000000602082015250565b5f611b9b602a836115f8565b9150611ba682611b41565b604082019050919050565b5f6020820190508181035f830152611bc881611b8f565b9050919050565b7f4e487b71000000000000000000000000000000000000000000000000000000005f52601160045260245ffd5b5f611c06826116e0565b9150611c11836116e0565b9250828201905080821115611c2957611c28611bcf565b5b92915050565b7f536166617269546f6b656e3a20576f756c6420657863656564206d61782073755f8201527f70706c7900000000000000000000000000000000000000000000000000000000602082015250565b5f611c896024836115f8565b9150611c9482611c2f565b604082019050919050565b5f6020820190508181035f830152611cb681611c7d565b9050919050565b828183375f83830152505050565b5f611cd683856115f8565b9350611ce3838584611cbd565b611cec83611616565b840190509392505050565b5f604082019050611d0a5f830186611784565b8181036020830152611d1d818486611ccb565b9050949350505050565b7f536166617269546f6b656e3a20496e76616c69642067616d6520636f6e7472615f8201527f6374206164647265737300000000000000000000000000000000000000000000602082015250565b5f611d81602a836115f8565b9150611d8c82611d27565b604082019050919050565b5f6020820190508181035f830152611dae81611d75565b9050919050565b5f606082019050611dc85f830186611962565b611dd56020830185611784565b611de26040830184611784565b94935050505056fea26469706673582212206e95c12151d55efecd077ff40e7a103467d815d45a1eb3fc9fe07c6217b9d18164736f6c634300081c0033",
  "linkReferences": {},
  "deployedLinkReferences": {},
  "immutableReferences": {},
  "inputSourceName": "project/contracts/SafariGameRewards.sol",
  "buildInfoId": "solc-0_8_28-f96acca3bc8691b0c606d1a6f3298124b337d38e"
}