{
  "_format": "hh3-artifact-1",
  "contractName": "SafariAchievementNFT",
  "sourceName": "contracts/SafariGameRewards.sol",
  "abi": [
    {
      "inputs": [
        {
          "internalType": "address",
          "name": "initialOwner",
          "type": "address"
        }
      ],
      "stateMutability": "nonpayable",
      "type": "constructor"
    },
    {
      "inputs": [
        {
          "internalType": "address",
          "name": "sender",
          "type": "address"
        },
        {
          "internalType": "uint256",
          "name": "tokenId",
          "type": "uint256"
        },
        {
          "internalType": "address",
          "name": "owner",
          "type": "address"
        }
      ],
      "name": "ERC721IncorrectOwner",
      "type": "error"
    },
    {
      "inputs": [
        {
          "internalType": "address",
          "name": "operator",
          "type": "address"
        },
        {
          "internalType": "uint256",
          "name": "tokenId",
          "type": "uint256"
        }
      ],
      "name": "ERC721InsufficientApproval",
      "type": "error"
    },
    {
      "inputs": [
        {
          "internalType": "address",
          "name": "approver",
          "type": "address"
        }
      ],
      "name": "ERC721InvalidApprover",
      "type": "error"
    },
    {
      "inputs": [
        {
          "internalType": "address",
          "name": "operator",
          "type": "address"
        }
      ],
      "name": "ERC721InvalidOperator",
      "type": "error"
    },
    {
      "inputs": [
        {
          "internalType": "address",
          "name": "owner",
          "type": "address"
        }
      ],
      "name": "ERC721InvalidOwner",
      "type": "error"
    },
    {
      "inputs": [
        {
          "internalType": "address",
          "name": "receiver",
          "type": "address"
        }
      ],
      "name": "ERC721InvalidReceiver",
      "type": "error"
    },
    {
      "inputs": [
        {
          "internalType": "address",
          "name": "sender",
          "type": "address"
        }
      ],
      "name": "ERC721InvalidSender",
      "type": "error"
    },
    {
      "inputs": [
        {
          "internalType": "uint256",
          "name": "tokenId",
          "type": "uint256"
        }
      ],
      "name": "ERC721NonexistentToken",
      "type": "error"
    },
    {
      "inputs": [],
      "name": "EnforcedPause",
      "type": "error"
    },
    {
      "inputs": [],
      "name": "ExpectedPause",
      "type": "error"
    },
    {
      "inputs": [
        {
          "internalType": "address",
          "name": "owner",
          "type": "address"
        }
      ],
      "name": "OwnableInvalidOwner",
      "type": "error"
    },
    {
      "inputs": [
        {
          "internalType": "address",
          "name": "account",
          "type": "address"
        }
      ],
      "name": "OwnableUnauthorizedAccount",
      "type": "error"
    },
    {
      "anonymous": false,
      "inputs": [
        {
          "indexed": true,
          "internalType": "uint256",
          "name": "tokenId",
          "type": "uint256"
        },
        {
          "indexed": true,
          "internalType": "address",
          "name": "player",
          "type": "address"
        },
        {
          "indexed": false,
          "internalType": "string",
          "name": "achievementType",
          "type": "string"
        },
        {
          "indexed": false,
          "internalType": "string",
          "name": "rarity",
          "type": "string"
        },
        {
          "indexed": false,
          "internalType": "uint256",
          "name": "survivalTime",
          "type": "uint256"
        },
        {
          "indexed": false,
          "internalType": "uint256",
          "name": "score",
          "type": "uint256"
        }
      ],
      "name": "AchievementMinted",
      "type": "event"
    },
    {
      "anonymous": false,
      "inputs": [
        {
          "indexed": true,
          "internalType": "address",
          "name": "owner",
          "type": "address"
        },
        {
          "indexed": true,
          "internalType": "address",
          "name": "approved",
          "type": "address"
        },
        {
          "indexed": true,
          "internalType": "uint256",
          "name": "tokenId",
          "type": "uint256"
        }
      ],
      "name": "Approval",
      "type": "event"
    },
    {
      "anonymous": false,
      "inputs": [
        {
          "indexed": true,
          "internalType": "address",
          "name": "owner",
          "type": "address"
        },
        {
          "indexed": true,
          "internalType": "address",
          "name": "operator",
          "type": "address"
        },
        {
          "indexed": false,
          "internalType": "bool",
          "name": "approved",
          "type": "bool"
        }
      ],
      "name": "ApprovalForAll",
      "type": "event"
    },
    {
      "anonymous": false,
      "inputs": [
        {
          "indexed": false,
          "internalType": "uint256",
          "name": "_fromTokenId",
          "type": "uint256"
        },
        {
          "indexed": false,
          "internalType": "uint256",
          "name": "_toTokenId",
          "type": "uint256"
        }
      ],
      "name": "BatchMetadataUpdate",
      "type": "event"
    },
    {
      "anonymous": false,
      "inputs": [
        {
          "indexed": true,
          "internalType": "address",
          "name": "gameContract",
          "type": "address"
        }
      ],
      "name": "GameContractAdded",
      "type": "event"
    },
    {
      "anonymous": false,
      "inputs": [
        {
          "indexed": true,
          "internalType": "address",
          "name": "gameContract",
          "type": "address"
        }
      ],
      "name": "GameContractRemoved",
      "type": "event"
    },
    {
      "anonymous": false,
      "inputs": [
        {
          "indexed": false,
          "internalType": "uint256",
          "name": "_tokenId",
          "type": "uint256"
        }
      ],
      "name": "MetadataUpdate",
      "type": "event"
    },
    {
      "anonymous": false,
      "inputs": [
        {
          "indexed": true,
          "internalType": "address",
          "name": "previousOwner",
          "type": "address"
        },
        {
          "indexed": true,
          "internalType": "address",
          "name": "newOwner",
          "type": "address"
        }
      ],
      "name": "OwnershipTransferred",
      "type": "event"
    },
    {
      "anonymous": false,
      "inputs": [
        {
          "indexed": false,
          "internalType": "address",
          "name": "account",
          "type": "address"
        }
      ],
      "name": "Paused",
      "type": "event"
    },
    {
      "anonymous": false,
      "inputs": [
        {
          "indexed": true,
          "internalType": "address",
          "name": "from",
          "type": "address"
        },
        {
          "indexed": true,
          "internalType": "address",
          "name": "to",
          "type": "address"
        },
        {
          "indexed": true,
          "internalType": "uint256",
          "name": "tokenId",
          "type": "uint256"
        }
      ],
      "name": "Transfer",
      "type": "event"
    },
    {
      "anonymous": false,
      "inputs": [
        {
          "indexed": false,
          "internalType": "address",
          "name": "account",
          "type": "address"
        }
      ],
      "name": "Unpaused",
      "type": "event"
    },
    {
      "inputs": [
        {
          "internalType": "string",
          "name": "",
          "type": "string"
        }
      ],
      "name": "achievementRarities",
      "outputs": [
        {
          "internalType": "string",
          "name": "",
          "type": "string"
        }
      ],
      "stateMutability": "view",
      "type": "function"
    },
    {
      "inputs": [
        {
          "internalType": "uint256",
          "name": "",
          "type": "uint256"
        }
      ],
      "name": "achievements",
      "outputs": [
        {
          "internalType": "uint256",
          "name": "tokenId",
          "type": "uint256"
        },
        {
          "internalType": "string",
          "name": "achievementType",
          "type": "string"
        },
        {
          "internalType": "uint256",
          "name": "survivalTime",
          "type": "uint256"
        },
        {
          "internalType": "uint256",
          "name": "score",
          "type": "uint256"
        },
        {
          "internalType": "uint256",
          "name": "timestamp",
          "type": "uint256"
        },
        {
          "internalType": "string",
          "name": "rarity",
          "type": "string"
        },
        {
          "internalType": "address",
          "name": "player",
          "type": "address"
        }
      ],
      "stateMutability": "view",
      "type": "function"
    },
    {
      "inputs": [
        {
          "internalType": "address",
          "name": "gameContract",
          "type": "address"
        }
      ],
      "name": "addGameContract",
      "outputs": [],
      "stateMutability": "nonpayable",
      "type": "function"
    },
    {
      "inputs": [
        {
          "internalType": "address",
          "name": "to",
          "type": "address"
        },
        {
          "internalType": "uint256",
          "name": "tokenId",
          "type": "uint256"
        }
      ],
      "name": "approve",
      "outputs": [],
      "stateMutability": "nonpayable",
      "type": "function"
    },
    {
      "inputs": [
        {
          "internalType": "address",
          "name": "owner",
          "type": "address"
        }
      ],
      "name": "balanceOf",
      "outputs": [
        {
          "internalType": "uint256",
          "name": "",
          "type": "uint256"
        }
      ],
      "stateMutability": "view",
      "type": "function"
    },
    {
      "inputs": [
        {
          "internalType": "address",
          "name": "",
          "type": "address"
        }
      ],
      "name": "gameContracts",
      "outputs": [
        {
          "internalType": "bool",
          "name": "",
          "type": "bool"
        }
      ],
      "stateMutability": "view",
      "type": "function"
    },
    {
      "inputs": [
        {
          "internalType": "uint256",
          "name": "tokenId",
          "type": "uint256"
        }
      ],
      "name": "getAchievement",
      "outputs": [
        {
          "components": [
            {
              "internalType": "uint256",
              "name": "tokenId",
              "type": "uint256"
            },
            {
              "internalType": "string",
              "name": "achievementType",
              "type": "string"
            },
            {
              "internalType": "uint256",
              "name": "survivalTime",
              "type": "uint256"
            },
            {
              "internalType": "uint256",
              "name": "score",
              "type": "uint256"
            },
            {
              "internalType": "uint256",
              "name": "timestamp",
              "type": "uint256"
            },
            {
              "internalType": "string",
              "name": "rarity",
              "type": "string"
            },
            {
              "internalType": "address",
              "name": "player",
              "type": "address"
            }
          ],
          "internalType": "struct SafariAchievementNFT.Achievement",
          "name": "",
          "type": "tuple"
        }
      ],
      "stateMutability": "view",
      "type": "function"
    },
    {
      "inputs": [
        {
          "internalType": "uint256",
          "name": "tokenId",
          "type": "uint256"
        }
      ],
      "name": "getApproved",
      "outputs": [
        {
          "internalType": "address",
          "name": "",
          "type": "address"
        }
      ],
      "stateMutability": "view",
      "type": "function"
    },
    {
      "inputs": [
        {
          "internalType": "address",
          "name": "player",
          "type": "address"
        }
      ],
      "name": "getPlayerAchievements",
      "outputs": [
        {
          "internalType": "uint256[]",
          "name": "",
          "type": "uint256[]"
        }
      ],
      "stateMutability": "view",
      "type": "function"
    },
    {
      "inputs": [],
      "name": "getRarityStats",
      "outputs": [
        {
          "internalType": "uint256",
          "name": "common",
          "type": "uint256"
        },
        {
          "internalType": "uint256",
          "name": "uncommon",
          "type": "uint256"
        },
        {
          "internalType": "uint256",
          "name": "rare",
          "type": "uint256"
        },
        {
          "internalType": "uint256",
          "name": "epic",
          "type": "uint256"
        },
        {
          "internalType": "uint256",
          "name": "legendary",
          "type": "uint256"
        }
      ],
      "stateMutability": "view",
      "type": "function"
    },
    {
      "inputs": [
        {
          "internalType": "address",
          "name": "owner",
          "type": "address"
        },
        {
          "internalType": "address",
          "name": "operator",
          "type": "address"
        }
      ],
      "name": "isApprovedForAll",
      "outputs": [
        {
          "internalType": "bool",
          "name": "",
          "type": "bool"
        }
      ],
      "stateMutability": "view",
      "type": "function"
    },
    {
      "inputs": [
        {
          "internalType": "address",
          "name": "player",
          "type": "address"
        },
        {
          "internalType": "string",
          "name": "achievementType",
          "type": "string"
        },
        {
          "internalType": "uint256",
          "name": "survivalTime",
          "type": "uint256"
        },
        {
          "internalType": "uint256",
          "name": "score",
          "type": "uint256"
        },
        {
          "internalType": "string",
          "name": "tokenURI",
          "type": "string"
        }
      ],
      "name": "mintAchievement",
      "outputs": [
        {
          "internalType": "uint256",
          "name": "",
          "type": "uint256"
        }
      ],
      "stateMutability": "nonpayable",
      "type": "function"
    },
    {
      "inputs": [],
      "name": "name",
      "outputs": [
        {
          "internalType": "string",
          "name": "",
          "type": "string"
        }
      ],
      "stateMutability": "view",
      "type": "function"
    },
    {
      "inputs": [],
      "name": "owner",
      "outputs": [
        {
          "internalType": "address",
          "name": "",
          "type": "address"
        }
      ],
      "stateMutability": "view",
      "type": "function"
    },
    {
      "inputs": [
        {
          "internalType": "uint256",
          "name": "tokenId",
          "type": "uint256"
        }
      ],
      "name": "ownerOf",
      "outputs": [
        {
          "internalType": "address",
          "name": "",
          "type": "address"
        }
      ],
      "stateMutability": "view",
      "type": "function"
    },
    {
      "inputs": [],
      "name": "pause",
      "outputs": [],
      "stateMutability": "nonpayable",
      "type": "function"
    },
    {
      "inputs": [],
      "name": "paused",
      "outputs": [
        {
          "internalType": "bool",
          "name": "",
          "type": "bool"
        }
      ],
      "stateMutability": "view",
      "type": "function"
    },
    {
      "inputs": [
        {
          "internalType": "address",
          "name": "",
          "type": "address"
        },
        {
          "internalType": "uint256",
          "name": "",
          "type": "uint256"
        }
      ],
      "name": "playerAchievements",
      "outputs": [
        {
          "internalType": "uint256",
          "name": "",
          "type": "uint256"
        }
      ],
      "stateMutability": "view",
      "type": "function"
    },
    {
      "inputs": [
        {
          "internalType": "string",
          "name": "",
          "type": "string"
        }
      ],
      "name": "rarityCount",
      "outputs": [
        {
          "internalType": "uint256",
          "name": "",
          "type": "uint256"
        }
      ],
      "stateMutability": "view",
      "type": "function"
    },
    {
      "inputs": [
        {
          "internalType": "address",
          "name": "gameContract",
          "type": "address"
        }
      ],
      "name": "removeGameContract",
      "outputs": [],
      "stateMutability": "nonpayable",
      "type": "function"
    },
    {
      "inputs": [],
      "name": "renounceOwnership",
      "outputs": [],
      "stateMutability": "nonpayable",
      "type": "function"
    },
    {
      "inputs": [
        {
          "internalType": "address",
          "name": "from",
          "type": "address"
        },
        {
          "internalType": "address",
          "name": "to",
          "type": "address"
        },
        {
          "internalType": "uint256",
          "name": "tokenId",
          "type": "uint256"
        }
      ],
      "name": "safeTransferFrom",
      "outputs": [],
      "stateMutability": "nonpayable",
      "type": "function"
    },
    {
      "inputs": [
        {
          "internalType": "address",
          "name": "from",
          "type": "address"
        },
        {
          "internalType": "address",
          "name": "to",
          "type": "address"
        },
        {
          "internalType": "uint256",
          "name": "tokenId",
          "type": "uint256"
        },
        {
          "internalType": "bytes",
          "name": "data",
          "type": "bytes"
        }
      ],
      "name": "safeTransferFrom",
      "outputs": [],
      "stateMutability": "nonpayable",
      "type": "function"
    },
    {
      "inputs": [
        {
          "internalType": "string",
          "name": "achievementType",
          "type": "string"
        },
        {
          "internalType": "string",
          "name": "rarity",
          "type": "string"
        }
      ],
      "name": "setAchievementRarity",
      "outputs": [],
      "stateMutability": "nonpayable",
      "type": "function"
    },
    {
      "inputs": [
        {
          "internalType": "address",
          "name": "operator",
          "type": "address"
        },
        {
          "internalType": "bool",
          "name": "approved",
          "type": "bool"
        }
      ],
      "name": "setApprovalForAll",
      "outputs": [],
      "stateMutability": "nonpayable",
      "type": "function"
    },
    {
      "inputs": [
        {
          "internalType": "bytes4",
          "name": "interfaceId",
          "type": "bytes4"
        }
      ],
      "name": "supportsInterface",
      "outputs": [
        {
          "internalType": "bool",
          "name": "",
          "type": "bool"
        }
      ],
      "stateMutability": "view",
      "type": "function"
    },
    {
      "inputs": [],
      "name": "symbol",
      "outputs": [
        {
          "internalType": "string",
          "name": "",
          "type": "string"
        }
      ],
      "stateMutability": "view",
      "type": "function"
    },
    {
      "inputs": [
        {
          "internalType": "uint256",
          "name": "tokenId",
          "type": "uint256"
        }
      ],
      "name": "tokenURI",
      "outputs": [
        {
          "internalType": "string",
          "name": "",
          "type": "string"
        }
      ],
      "stateMutability": "view",
      "type": "function"
    },
    {
      "inputs": [
        {
          "internalType": "address",
          "name": "from",
          "type": "address"
        },
        {
          "internalType": "address",
          "name": "to",
          "type": "address"
        },
        {
          "internalType": "uint256",
          "name": "tokenId",
          "type": "uint256"
        }
      ],
      "name": "transferFrom",
      "outputs": [],
      "stateMutability": "nonpayable",
      "type": "function"
    },
    {
      "inputs": [
        {
          "internalType": "address",
          "name": "newOwner",
          "type": "address"
        }
      ],
      "name": "transferOwnership",
      "outputs": [],
      "stateMutability": "nonpayable",
      "type": "function"
    },
    {
      "inputs": [],
      "name": "unpause",
      "outputs": [],
      "stateMutability": "nonpayable",
      "type": "function"
    }
  ],
  "bytecode": "0x60806040526001600855348015610014575f5ffd5b50604051614aca380380614aca83398181016040528101906100369190610446565b806040518060400160405280601d81526020017f53616661726920416476656e7475726520416368696576656d656e74730000008152506040518060400160405280600681526020017f5341464e46540000000000000000000000000000000000000000000000000000815250815f90816100b191906106ae565b5080600190816100c191906106ae565b5050505f73ffffffffffffffffffffffffffffffffffffffff168173ffffffffffffffffffffffffffffffffffffffff1603610134575f6040517f1e4fbdf700000000000000000000000000000000000000000000000000000000815260040161012b919061078c565b60405180910390fd5b6101438161032560201b60201c565b506040518060400160405280600681526020017f636f6d6d6f6e0000000000000000000000000000000000000000000000000000815250600d604051610188906107f9565b908152602001604051809103902090816101a291906106ae565b506040518060400160405280600881526020017f756e636f6d6d6f6e000000000000000000000000000000000000000000000000815250600d6040516101e790610857565b9081526020016040518091039020908161020191906106ae565b506040518060400160405280600481526020017f7261726500000000000000000000000000000000000000000000000000000000815250600d604051610246906108b5565b9081526020016040518091039020908161026091906106ae565b506040518060400160405280600481526020017f6570696300000000000000000000000000000000000000000000000000000000815250600d6040516102a590610913565b908152602001604051809103902090816102bf91906106ae565b506040518060400160405280600981526020017f6c6567656e646172790000000000000000000000000000000000000000000000815250600d60405161030490610971565b9081526020016040518091039020908161031e91906106ae565b5050610985565b5f60075f9054906101000a900473ffffffffffffffffffffffffffffffffffffffff1690508160075f6101000a81548173ffffffffffffffffffffffffffffffffffffffff021916908373ffffffffffffffffffffffffffffffffffffffff1602179055508173ffffffffffffffffffffffffffffffffffffffff168173ffffffffffffffffffffffffffffffffffffffff167f8be0079c531659141344cd1fd0a4f28419497f9722a3daafe3b4186f6b6457e060405160405180910390a35050565b5f5ffd5b5f73ffffffffffffffffffffffffffffffffffffffff82169050919050565b5f610415826103ec565b9050919050565b6104258161040b565b811461042f575f5ffd5b50565b5f815190506104408161041c565b92915050565b5f6020828403121561045b5761045a6103e8565b5b5f61046884828501610432565b91505092915050565b5f81519050919050565b7f4e487b71000000000000000000000000000000000000000000000000000000005f52604160045260245ffd5b7f4e487b71000000000000000000000000000000000000000000000000000000005f52602260045260245ffd5b5f60028204905060018216806104ec57607f821691505b6020821081036104ff576104fe6104a8565b5b50919050565b5f819050815f5260205f209050919050565b5f6020601f8301049050919050565b5f82821b905092915050565b5f600883026105617fffffffffffffffffffffffffffffffffffffffffffffffffffffffffffffffff82610526565b61056b8683610526565b95508019841693508086168417925050509392505050565b5f819050919050565b5f819050919050565b5f6105af6105aa6105a584610583565b61058c565b610583565b9050919050565b5f819050919050565b6105c883610595565b6105dc6105d4826105b6565b848454610532565b825550505050565b5f5f905090565b6105f36105e4565b6105fe8184846105bf565b505050565b5b81811015610621576106165f826105eb565b600181019050610604565b5050565b601f8211156106665761063781610505565b61064084610517565b8101602085101561064f578190505b61066361065b85610517565b830182610603565b50505b505050565b5f82821c905092915050565b5f6106865f198460080261066b565b1980831691505092915050565b5f61069e8383610677565b9150826002028217905092915050565b6106b782610471565b67ffffffffffffffff8111156106d0576106cf61047b565b5b6106da82546104d5565b6106e5828285610625565b5f60209050601f831160018114610716575f8415610704578287015190505b61070e8582610693565b865550610775565b601f19841661072486610505565b5f5b8281101561074b57848901518255600182019150602085019450602081019050610726565b868310156107685784890151610764601f891682610677565b8355505b6001600288020188555050505b505050505050565b6107868161040b565b82525050565b5f60208201905061079f5f83018461077d565b92915050565b5f81905092915050565b7f4669727374205375727669766f720000000000000000000000000000000000005f82015250565b5f6107e3600e836107a5565b91506107ee826107af565b600e82019050919050565b5f610803826107d7565b9150819050919050565b7f53706565642044656d6f6e0000000000000000000000000000000000000000005f82015250565b5f610841600b836107a5565b915061084c8261080d565b600b82019050919050565b5f61086182610835565b9150819050919050565b7f436f6c6c6973696f6e204d6173746572000000000000000000000000000000005f82015250565b5f61089f6010836107a5565b91506108aa8261086b565b601082019050919050565b5f6108bf82610893565b9150819050919050565b7f456e647572616e63652052756e6e6572000000000000000000000000000000005f82015250565b5f6108fd6010836107a5565b9150610908826108c9565b601082019050919050565b5f61091d826108f1565b9150819050919050565b7f536166617269204d6173746572000000000000000000000000000000000000005f82015250565b5f61095b600d836107a5565b915061096682610927565b600d82019050919050565b5f61097b8261094f565b9150819050919050565b614138806109925f395ff3fe608060405234801561000f575f5ffd5b50600436106101e3575f3560e01c80637e1e59d21161010d578063a22cb465116100a0578063df999dfd1161006f578063df999dfd14610595578063e985e9c5146105c5578063f2ccc543146105f5578063f2fde38b14610625576101e3565b8063a22cb465146104fd578063b88d4fde14610519578063c71e029b14610535578063c87b56dd14610565576101e3565b80638da5cb5b116100dc5780638da5cb5b1461047557806395d89b411461049357806397d63359146104b15780639ce67bdd146104cd576101e3565b80637e1e59d2146103fd57806381cd08ee1461042d5780638456cb59146104495780638b3c88b414610453576101e3565b806342842e0e116101855780636352211e116101545780636352211e146103635780636ddd474d1461039357806370a08231146103c3578063715018a6146103f3576101e3565b806342842e0e146102dd5780634e91d0c8146102f95780635c74e025146103295780635c975abb14610345576101e3565b8063095ea7b3116101c1578063095ea7b31461026557806323b872dd1461028157806327aed72e1461029d5780633f4ba83a146102d3576101e3565b806301ffc9a7146101e757806306fdde0314610217578063081812fc14610235575b5f5ffd5b61020160048036038101906101fc9190612bb1565b610641565b60405161020e9190612bf6565b60405180910390f35b61021f6106a1565b60405161022c9190612c7f565b60405180910390f35b61024f600480360381019061024a9190612cd2565b610730565b60405161025c9190612d3c565b60405180910390f35b61027f600480360381019061027a9190612d7f565b61074b565b005b61029b60048036038101906102969190612dbd565b610761565b005b6102b760048036038101906102b29190612cd2565b610860565b6040516102ca9796959493929190612e1c565b60405180910390f35b6102db6109c9565b005b6102f760048036038101906102f29190612dbd565b6109db565b005b610313600480360381019061030e9190612fc3565b6109fa565b604051610320919061300a565b60405180910390f35b610343600480360381019061033e9190613023565b610a27565b005b61034d610ac9565b60405161035a9190612bf6565b60405180910390f35b61037d60048036038101906103789190612cd2565b610adf565b60405161038a9190612d3c565b60405180910390f35b6103ad60048036038101906103a89190613023565b610af0565b6040516103ba9190612bf6565b60405180910390f35b6103dd60048036038101906103d89190613023565b610b0d565b6040516103ea919061300a565b60405180910390f35b6103fb610bc3565b005b61041760048036038101906104129190612fc3565b610bd6565b6040516104249190612c7f565b60405180910390f35b61044760048036038101906104429190613023565b610c89565b005b610451610d9a565b005b61045b610dac565b60405161046c95949392919061304e565b60405180910390f35b61047d610e53565b60405161048a9190612d3c565b60405180910390f35b61049b610e7b565b6040516104a89190612c7f565b60405180910390f35b6104cb60048036038101906104c691906130fc565b610f0b565b005b6104e760048036038101906104e29190613023565b610f49565b6040516104f49190613231565b60405180910390f35b6105176004803603810190610512919061327b565b610fdc565b005b610533600480360381019061052e9190613357565b610ff2565b005b61054f600480360381019061054a91906133d7565b611017565b60405161055c919061300a565b60405180910390f35b61057f600480360381019061057a9190612cd2565b6114ea565b60405161058c9190612c7f565b60405180910390f35b6105af60048036038101906105aa9190612d7f565b6115f5565b6040516105bc919061300a565b60405180910390f35b6105df60048036038101906105da919061348e565b611620565b6040516105ec9190612bf6565b60405180910390f35b61060f600480360381019061060a9190612cd2565b6116ae565b60405161061c91906135c3565b60405180910390f35b61063f600480360381019061063a9190613023565b6118eb565b005b5f634906490660e01b7bffffffffffffffffffffffffffffffffffffffffffffffffffffffff1916827bffffffffffffffffffffffffffffffffffffffffffffffffffffffff1916148061069a57506106998261196f565b5b9050919050565b60605f80546106af90613610565b80601f01602080910402602001604051908101604052809291908181526020018280546106db90613610565b80156107265780601f106106fd57610100808354040283529160200191610726565b820191905f5260205f20905b81548152906001019060200180831161070957829003601f168201915b5050505050905090565b5f61073a82611a50565b5061074482611ad6565b9050919050565b61075d8282610758611b0f565b611b16565b5050565b5f73ffffffffffffffffffffffffffffffffffffffff168273ffffffffffffffffffffffffffffffffffffffff16036107d1575f6040517f64a0ae920000000000000000000000000000000000000000000000000000000081526004016107c89190612d3c565b60405180910390fd5b5f6107e483836107df611b0f565b611b28565b90508373ffffffffffffffffffffffffffffffffffffffff168173ffffffffffffffffffffffffffffffffffffffff161461085a578382826040517f64283d7b00000000000000000000000000000000000000000000000000000000815260040161085193929190613640565b60405180910390fd5b50505050565b600a602052805f5260405f205f91509050805f01549080600101805461088590613610565b80601f01602080910402602001604051908101604052809291908181526020018280546108b190613610565b80156108fc5780601f106108d3576101008083540402835291602001916108fc565b820191905f5260205f20905b8154815290600101906020018083116108df57829003601f168201915b50505050509080600201549080600301549080600401549080600501805461092390613610565b80601f016020809104026020016040519081016040528092919081815260200182805461094f90613610565b801561099a5780601f106109715761010080835404028352916020019161099a565b820191905f5260205f20905b81548152906001019060200180831161097d57829003601f168201915b505050505090806006015f9054906101000a900473ffffffffffffffffffffffffffffffffffffffff16905087565b6109d1611b45565b6109d9611bcc565b565b6109f583838360405180602001604052805f815250610ff2565b505050565b600c818051602081018201805184825260208301602085012081835280955050505050505f915090505481565b610a2f611b45565b5f60095f8373ffffffffffffffffffffffffffffffffffffffff1673ffffffffffffffffffffffffffffffffffffffff1681526020019081526020015f205f6101000a81548160ff0219169083151502179055508073ffffffffffffffffffffffffffffffffffffffff167f2787914e393eae017c5d63972ae40b8a6e095f82f7c2df7b8cc0947364f44c3b60405160405180910390a250565b5f600760149054906101000a900460ff16905090565b5f610ae982611a50565b9050919050565b6009602052805f5260405f205f915054906101000a900460ff1681565b5f5f73ffffffffffffffffffffffffffffffffffffffff168273ffffffffffffffffffffffffffffffffffffffff1603610b7e575f6040517f89c62b64000000000000000000000000000000000000000000000000000000008152600401610b759190612d3c565b60405180910390fd5b60035f8373ffffffffffffffffffffffffffffffffffffffff1673ffffffffffffffffffffffffffffffffffffffff1681526020019081526020015f20549050919050565b610bcb611b45565b610bd45f611c2e565b565b600d818051602081018201805184825260208301602085012081835280955050505050505f915090508054610c0a90613610565b80601f0160208091040260200160405190810160405280929190818152602001828054610c3690613610565b8015610c815780601f10610c5857610100808354040283529160200191610c81565b820191905f5260205f20905b815481529060010190602001808311610c6457829003601f168201915b505050505081565b610c91611b45565b5f73ffffffffffffffffffffffffffffffffffffffff168173ffffffffffffffffffffffffffffffffffffffff1603610cff576040517f08c379a0000000000000000000000000000000000000000000000000000000008152600401610cf6906136e5565b60405180910390fd5b600160095f8373ffffffffffffffffffffffffffffffffffffffff1673ffffffffffffffffffffffffffffffffffffffff1681526020019081526020015f205f6101000a81548160ff0219169083151502179055508073ffffffffffffffffffffffffffffffffffffffff167f6c714ab98f337e5ba3203dce1dd577e948f63b10c5300a075c35c4df3a27006760405160405180910390a250565b610da2611b45565b610daa611cf1565b565b5f5f5f5f5f600c604051610dbf90613757565b908152602001604051809103902054600c604051610ddc906137b5565b908152602001604051809103902054600c604051610df990613813565b908152602001604051809103902054600c604051610e1690613871565b908152602001604051809103902054600c604051610e33906138cf565b908152602001604051809103902054945094509450945094509091929394565b5f60075f9054906101000a900473ffffffffffffffffffffffffffffffffffffffff16905090565b606060018054610e8a90613610565b80601f0160208091040260200160405190810160405280929190818152602001828054610eb690613610565b8015610f015780601f10610ed857610100808354040283529160200191610f01565b820191905f5260205f20905b815481529060010190602001808311610ee457829003601f168201915b5050505050905090565b610f13611b45565b8181600d8686604051610f27929190613907565b90815260200160405180910390209182610f42929190613ac9565b5050505050565b6060600b5f8373ffffffffffffffffffffffffffffffffffffffff1673ffffffffffffffffffffffffffffffffffffffff1681526020019081526020015f20805480602002602001604051908101604052809291908181526020018280548015610fd057602002820191905f5260205f20905b815481526020019060010190808311610fbc575b50505050509050919050565b610fee610fe7611b0f565b8383611d54565b5050565b610ffd848484610761565b611011611008611b0f565b85858585611ebd565b50505050565b5f60095f3373ffffffffffffffffffffffffffffffffffffffff1673ffffffffffffffffffffffffffffffffffffffff1681526020019081526020015f205f9054906101000a900460ff166110a1576040517f08c379a000000000000000000000000000000000000000000000000000000000815260040161109890613c06565b60405180910390fd5b6110a9612069565b5f73ffffffffffffffffffffffffffffffffffffffff168873ffffffffffffffffffffffffffffffffffffffff1603611117576040517f08c379a000000000000000000000000000000000000000000000000000000000815260040161110e90613c94565b60405180910390fd5b5f878790501161115c576040517f08c379a000000000000000000000000000000000000000000000000000000000815260040161115390613d22565b60405180910390fd5b5f60085f81548092919061116f90613d6d565b9190505590505f600d8989604051611188929190613907565b908152602001604051809103902080546111a190613610565b80601f01602080910402602001604051908101604052809291908181526020018280546111cd90613610565b80156112185780601f106111ef57610100808354040283529160200191611218565b820191905f5260205f20905b8154815290600101906020018083116111fb57829003601f168201915b505050505090505f815103611260576040518060400160405280600681526020017f636f6d6d6f6e000000000000000000000000000000000000000000000000000081525090505b61126a8a836120aa565b6112b78286868080601f0160208091040260200160405190810160405280939291908181526020018383808284375f81840152601f19601f820116905080830192505050505050506120c7565b6040518060e001604052808381526020018a8a8080601f0160208091040260200160405190810160405280939291908181526020018383808284375f81840152601f19601f8201169050808301925050505050505081526020018881526020018781526020014281526020018281526020018b73ffffffffffffffffffffffffffffffffffffffff16815250600a5f8481526020019081526020015f205f820151815f015560208201518160010190816113719190613db4565b5060408201518160020155606082015181600301556080820151816004015560a08201518160050190816113a59190613db4565b5060c0820151816006015f6101000a81548173ffffffffffffffffffffffffffffffffffffffff021916908373ffffffffffffffffffffffffffffffffffffffff160217905550905050600b5f8b73ffffffffffffffffffffffffffffffffffffffff1673ffffffffffffffffffffffffffffffffffffffff1681526020019081526020015f2082908060018154018082558091505060019003905f5260205f20015f9091909190915055600c816040516114609190613eb3565b90815260200160405180910390205f81548092919061147e90613d6d565b91905055508973ffffffffffffffffffffffffffffffffffffffff16827fdd103596ac68c7f888bd045cb22a2c40c02788670463f925a1a5dbf6747155a68b8b858c8c6040516114d2959493929190613ef5565b60405180910390a38192505050979650505050505050565b60606114f582611a50565b505f60065f8481526020019081526020015f20805461151390613610565b80601f016020809104026020016040519081016040528092919081815260200182805461153f90613610565b801561158a5780601f106115615761010080835404028352916020019161158a565b820191905f5260205f20905b81548152906001019060200180831161156d57829003601f168201915b505050505090505f61159a612121565b90505f8151036115ae5781925050506115f0565b5f825111156115e25780826040516020016115ca929190613f48565b604051602081830303815290604052925050506115f0565b6115eb84612137565b925050505b919050565b600b602052815f5260405f20818154811061160e575f80fd5b905f5260205f20015f91509150505481565b5f60055f8473ffffffffffffffffffffffffffffffffffffffff1673ffffffffffffffffffffffffffffffffffffffff1681526020019081526020015f205f8373ffffffffffffffffffffffffffffffffffffffff1673ffffffffffffffffffffffffffffffffffffffff1681526020019081526020015f205f9054906101000a900460ff16905092915050565b6116b6612afd565b5f73ffffffffffffffffffffffffffffffffffffffff166116d68361219d565b73ffffffffffffffffffffffffffffffffffffffff160361172c576040517f08c379a000000000000000000000000000000000000000000000000000000000815260040161172390613fb5565b60405180910390fd5b600a5f8381526020019081526020015f206040518060e00160405290815f820154815260200160018201805461176190613610565b80601f016020809104026020016040519081016040528092919081815260200182805461178d90613610565b80156117d85780601f106117af576101008083540402835291602001916117d8565b820191905f5260205f20905b8154815290600101906020018083116117bb57829003601f168201915b5050505050815260200160028201548152602001600382015481526020016004820154815260200160058201805461180f90613610565b80601f016020809104026020016040519081016040528092919081815260200182805461183b90613610565b80156118865780601f1061185d57610100808354040283529160200191611886565b820191905f5260205f20905b81548152906001019060200180831161186957829003601f168201915b50505050508152602001600682015f9054906101000a900473ffffffffffffffffffffffffffffffffffffffff1673ffffffffffffffffffffffffffffffffffffffff1673ffffffffffffffffffffffffffffffffffffffff16815250509050919050565b6118f3611b45565b5f73ffffffffffffffffffffffffffffffffffffffff168173ffffffffffffffffffffffffffffffffffffffff1603611963575f6040517f1e4fbdf700000000000000000000000000000000000000000000000000000000815260040161195a9190612d3c565b60405180910390fd5b61196c81611c2e565b50565b5f7f80ac58cd000000000000000000000000000000000000000000000000000000007bffffffffffffffffffffffffffffffffffffffffffffffffffffffff1916827bffffffffffffffffffffffffffffffffffffffffffffffffffffffff19161480611a3957507f5b5e139f000000000000000000000000000000000000000000000000000000007bffffffffffffffffffffffffffffffffffffffffffffffffffffffff1916827bffffffffffffffffffffffffffffffffffffffffffffffffffffffff1916145b80611a495750611a48826121d6565b5b9050919050565b5f5f611a5b8361219d565b90505f73ffffffffffffffffffffffffffffffffffffffff168173ffffffffffffffffffffffffffffffffffffffff1603611acd57826040517f7e273289000000000000000000000000000000000000000000000000000000008152600401611ac4919061300a565b60405180910390fd5b80915050919050565b5f60045f8381526020019081526020015f205f9054906101000a900473ffffffffffffffffffffffffffffffffffffffff169050919050565b5f33905090565b611b23838383600161223f565b505050565b5f611b31612069565b611b3c8484846123fe565b90509392505050565b611b4d611b0f565b73ffffffffffffffffffffffffffffffffffffffff16611b6b610e53565b73ffffffffffffffffffffffffffffffffffffffff1614611bca57611b8e611b0f565b6040517f118cdaa7000000000000000000000000000000000000000000000000000000008152600401611bc19190612d3c565b60405180910390fd5b565b611bd4612609565b5f600760146101000a81548160ff0219169083151502179055507f5db9ee0a495bf2e6ff9c91a7834c1ba4fdd244a5e8aa4e537bd38aeae4b073aa611c17611b0f565b604051611c249190612d3c565b60405180910390a1565b5f60075f9054906101000a900473ffffffffffffffffffffffffffffffffffffffff1690508160075f6101000a81548173ffffffffffffffffffffffffffffffffffffffff021916908373ffffffffffffffffffffffffffffffffffffffff1602179055508173ffffffffffffffffffffffffffffffffffffffff168173ffffffffffffffffffffffffffffffffffffffff167f8be0079c531659141344cd1fd0a4f28419497f9722a3daafe3b4186f6b6457e060405160405180910390a35050565b611cf9612069565b6001600760146101000a81548160ff0219169083151502179055507f62e78cea01bee320cd4e420270b5ea74000d11b0c9f74754ebdbfc544b05a258611d3d611b0f565b604051611d4a9190612d3c565b60405180910390a1565b5f73ffffffffffffffffffffffffffffffffffffffff168273ffffffffffffffffffffffffffffffffffffffff1603611dc457816040517f5b08ba18000000000000000000000000000000000000000000000000000000008152600401611dbb9190612d3c565b60405180910390fd5b8060055f8573ffffffffffffffffffffffffffffffffffffffff1673ffffffffffffffffffffffffffffffffffffffff1681526020019081526020015f205f8473ffffffffffffffffffffffffffffffffffffffff1673ffffffffffffffffffffffffffffffffffffffff1681526020019081526020015f205f6101000a81548160ff0219169083151502179055508173ffffffffffffffffffffffffffffffffffffffff168373ffffffffffffffffffffffffffffffffffffffff167f17307eab39ab6107e8899845ad3d59bd9653f200f220920489ca2b5937696c3183604051611eb09190612bf6565b60405180910390a3505050565b5f8373ffffffffffffffffffffffffffffffffffffffff163b1115612062578273ffffffffffffffffffffffffffffffffffffffff1663150b7a02868685856040518563ffffffff1660e01b8152600401611f1b9493929190614025565b6020604051808303815f875af1925050508015611f5657506040513d601f19601f82011682018060405250810190611f539190614083565b60015b611fd7573d805f8114611f84576040519150601f19603f3d011682016040523d82523d5f602084013e611f89565b606091505b505f815103611fcf57836040517f64a0ae92000000000000000000000000000000000000000000000000000000008152600401611fc69190612d3c565b60405180910390fd5b805160208201fd5b63150b7a0260e01b7bffffffffffffffffffffffffffffffffffffffffffffffffffffffff1916817bffffffffffffffffffffffffffffffffffffffffffffffffffffffff19161461206057836040517f64a0ae920000000000000000000000000000000000000000000000000000000081526004016120579190612d3c565b60405180910390fd5b505b5050505050565b612071610ac9565b156120a8576040517fd93c066500000000000000000000000000000000000000000000000000000000815260040160405180910390fd5b565b6120c3828260405180602001604052805f815250612649565b5050565b8060065f8481526020019081526020015f2090816120e59190613db4565b507ff8e1a15aba9398e019f0b49df1a4fde98ee17ae345cb5f6b5e2c27f5033e8ce782604051612115919061300a565b60405180910390a15050565b606060405180602001604052805f815250905090565b606061214282611a50565b505f61214c612121565b90505f81511161216a5760405180602001604052805f815250612195565b806121748461266c565b604051602001612185929190613f48565b6040516020818303038152906040525b915050919050565b5f60025f8381526020019081526020015f205f9054906101000a900473ffffffffffffffffffffffffffffffffffffffff169050919050565b5f7f01ffc9a7000000000000000000000000000000000000000000000000000000007bffffffffffffffffffffffffffffffffffffffffffffffffffffffff1916827bffffffffffffffffffffffffffffffffffffffffffffffffffffffff1916149050919050565b808061227757505f73ffffffffffffffffffffffffffffffffffffffff168273ffffffffffffffffffffffffffffffffffffffff1614155b156123a9575f61228684611a50565b90505f73ffffffffffffffffffffffffffffffffffffffff168373ffffffffffffffffffffffffffffffffffffffff16141580156122f057508273ffffffffffffffffffffffffffffffffffffffff168173ffffffffffffffffffffffffffffffffffffffff1614155b801561230357506123018184611620565b155b1561234557826040517fa9fbf51f00000000000000000000000000000000000000000000000000000000815260040161233c9190612d3c565b60405180910390fd5b81156123a757838573ffffffffffffffffffffffffffffffffffffffff168273ffffffffffffffffffffffffffffffffffffffff167f8c5be1e5ebec7d5bd14f71427d1e84f3dd0314c0f7b2291e5b200ac8c7c3b92560405160405180910390a45b505b8360045f8581526020019081526020015f205f6101000a81548173ffffffffffffffffffffffffffffffffffffffff021916908373ffffffffffffffffffffffffffffffffffffffff16021790555050505050565b5f5f6124098461219d565b90505f73ffffffffffffffffffffffffffffffffffffffff168373ffffffffffffffffffffffffffffffffffffffff161461244a57612449818486612736565b5b5f73ffffffffffffffffffffffffffffffffffffffff168173ffffffffffffffffffffffffffffffffffffffff16146124d5576124895f855f5f61223f565b600160035f8373ffffffffffffffffffffffffffffffffffffffff1673ffffffffffffffffffffffffffffffffffffffff1681526020019081526020015f205f82825403925050819055505b5f73ffffffffffffffffffffffffffffffffffffffff168573ffffffffffffffffffffffffffffffffffffffff161461255457600160035f8773ffffffffffffffffffffffffffffffffffffffff1673ffffffffffffffffffffffffffffffffffffffff1681526020019081526020015f205f82825401925050819055505b8460025f8681526020019081526020015f205f6101000a81548173ffffffffffffffffffffffffffffffffffffffff021916908373ffffffffffffffffffffffffffffffffffffffff160217905550838573ffffffffffffffffffffffffffffffffffffffff168273ffffffffffffffffffffffffffffffffffffffff167fddf252ad1be2c89b69c2b068fc378daa952ba7f163c4a11628f55a4df523b3ef60405160405180910390a4809150509392505050565b612611610ac9565b612647576040517f8dfc202b00000000000000000000000000000000000000000000000000000000815260040160405180910390fd5b565b61265383836127f9565b61266761265e611b0f565b5f858585611ebd565b505050565b60605f600161267a846128ec565b0190505f8167ffffffffffffffff81111561269857612697612e9f565b5b6040519080825280601f01601f1916602001820160405280156126ca5781602001600182028036833780820191505090505b5090505f82602083010190505b60011561272b578080600190039150507f3031323334353637383961626364656600000000000000000000000000000000600a86061a8153600a85816127205761271f6140ae565b5b0494505f85036126d7575b819350505050919050565b612741838383612a3d565b6127f4575f73ffffffffffffffffffffffffffffffffffffffff168373ffffffffffffffffffffffffffffffffffffffff16036127b557806040517f7e2732890000000000000000000000000000000000000000000000000000000081526004016127ac919061300a565b60405180910390fd5b81816040517f177e802f0000000000000000000000000000000000000000000000000000000081526004016127eb9291906140db565b60405180910390fd5b505050565b5f73ffffffffffffffffffffffffffffffffffffffff168273ffffffffffffffffffffffffffffffffffffffff1603612869575f6040517f64a0ae920000000000000000000000000000000000000000000000000000000081526004016128609190612d3c565b60405180910390fd5b5f61287583835f611b28565b90505f73ffffffffffffffffffffffffffffffffffffffff168173ffffffffffffffffffffffffffffffffffffffff16146128e7575f6040517f73c6ac6e0000000000000000000000000000000000000000000000000000000081526004016128de9190612d3c565b60405180910390fd5b505050565b5f5f5f90507a184f03e93ff9f4daa797ed6e38ed64bf6a1f0100000000000000008310612948577a184f03e93ff9f4daa797ed6e38ed64bf6a1f010000000000000000838161293e5761293d6140ae565b5b0492506040810190505b6d04ee2d6d415b85acef81000000008310612985576d04ee2d6d415b85acef8100000000838161297b5761297a6140ae565b5b0492506020810190505b662386f26fc1000083106129b457662386f26fc1000083816129aa576129a96140ae565b5b0492506010810190505b6305f5e10083106129dd576305f5e10083816129d3576129d26140ae565b5b0492506008810190505b6127108310612a025761271083816129f8576129f76140ae565b5b0492506004810190505b60648310612a255760648381612a1b57612a1a6140ae565b5b0492506002810190505b600a8310612a34576001810190505b80915050919050565b5f5f73ffffffffffffffffffffffffffffffffffffffff168373ffffffffffffffffffffffffffffffffffffffff1614158015612af457508273ffffffffffffffffffffffffffffffffffffffff168473ffffffffffffffffffffffffffffffffffffffff161480612ab55750612ab48484611620565b5b80612af357508273ffffffffffffffffffffffffffffffffffffffff16612adb83611ad6565b73ffffffffffffffffffffffffffffffffffffffff16145b5b90509392505050565b6040518060e001604052805f8152602001606081526020015f81526020015f81526020015f8152602001606081526020015f73ffffffffffffffffffffffffffffffffffffffff1681525090565b5f604051905090565b5f5ffd5b5f5ffd5b5f7fffffffff0000000000000000000000000000000000000000000000000000000082169050919050565b612b9081612b5c565b8114612b9a575f5ffd5b50565b5f81359050612bab81612b87565b92915050565b5f60208284031215612bc657612bc5612b54565b5b5f612bd384828501612b9d565b91505092915050565b5f8115159050919050565b612bf081612bdc565b82525050565b5f602082019050612c095f830184612be7565b92915050565b5f81519050919050565b5f82825260208201905092915050565b8281835e5f83830152505050565b5f601f19601f8301169050919050565b5f612c5182612c0f565b612c5b8185612c19565b9350612c6b818560208601612c29565b612c7481612c37565b840191505092915050565b5f6020820190508181035f830152612c978184612c47565b905092915050565b5f819050919050565b612cb181612c9f565b8114612cbb575f5ffd5b50565b5f81359050612ccc81612ca8565b92915050565b5f60208284031215612ce757612ce6612b54565b5b5f612cf484828501612cbe565b91505092915050565b5f73ffffffffffffffffffffffffffffffffffffffff82169050919050565b5f612d2682612cfd565b9050919050565b612d3681612d1c565b82525050565b5f602082019050612d4f5f830184612d2d565b92915050565b612d5e81612d1c565b8114612d68575f5ffd5b50565b5f81359050612d7981612d55565b92915050565b5f5f60408385031215612d9557612d94612b54565b5b5f612da285828601612d6b565b9250506020612db385828601612cbe565b9150509250929050565b5f5f5f60608486031215612dd457612dd3612b54565b5b5f612de186828701612d6b565b9350506020612df286828701612d6b565b9250506040612e0386828701612cbe565b9150509250925092565b612e1681612c9f565b82525050565b5f60e082019050612e2f5f83018a612e0d565b8181036020830152612e418189612c47565b9050612e506040830188612e0d565b612e5d6060830187612e0d565b612e6a6080830186612e0d565b81810360a0830152612e7c8185612c47565b9050612e8b60c0830184612d2d565b98975050505050505050565b5f5ffd5b5f5ffd5b7f4e487b71000000000000000000000000000000000000000000000000000000005f52604160045260245ffd5b612ed582612c37565b810181811067ffffffffffffffff82111715612ef457612ef3612e9f565b5b80604052505050565b5f612f06612b4b565b9050612f128282612ecc565b919050565b5f67ffffffffffffffff821115612f3157612f30612e9f565b5b612f3a82612c37565b9050602081019050919050565b828183375f83830152505050565b5f612f67612f6284612f17565b612efd565b905082815260208101848484011115612f8357612f82612e9b565b5b612f8e848285612f47565b509392505050565b5f82601f830112612faa57612fa9612e97565b5b8135612fba848260208601612f55565b91505092915050565b5f60208284031215612fd857612fd7612b54565b5b5f82013567ffffffffffffffff811115612ff557612ff4612b58565b5b61300184828501612f96565b91505092915050565b5f60208201905061301d5f830184612e0d565b92915050565b5f6020828403121561303857613037612b54565b5b5f61304584828501612d6b565b91505092915050565b5f60a0820190506130615f830188612e0d565b61306e6020830187612e0d565b61307b6040830186612e0d565b6130886060830185612e0d565b6130956080830184612e0d565b9695505050505050565b5f5ffd5b5f5ffd5b5f5f83601f8401126130bc576130bb612e97565b5b8235905067ffffffffffffffff8111156130d9576130d861309f565b5b6020830191508360018202830111156130f5576130f46130a3565b5b9250929050565b5f5f5f5f6040858703121561311457613113612b54565b5b5f85013567ffffffffffffffff81111561313157613130612b58565b5b61313d878288016130a7565b9450945050602085013567ffffffffffffffff8111156131605761315f612b58565b5b61316c878288016130a7565b925092505092959194509250565b5f81519050919050565b5f82825260208201905092915050565b5f819050602082019050919050565b6131ac81612c9f565b82525050565b5f6131bd83836131a3565b60208301905092915050565b5f602082019050919050565b5f6131df8261317a565b6131e98185613184565b93506131f483613194565b805f5b8381101561322457815161320b88826131b2565b9750613216836131c9565b9250506001810190506131f7565b5085935050505092915050565b5f6020820190508181035f83015261324981846131d5565b905092915050565b61325a81612bdc565b8114613264575f5ffd5b50565b5f8135905061327581613251565b92915050565b5f5f6040838503121561329157613290612b54565b5b5f61329e85828601612d6b565b92505060206132af85828601613267565b9150509250929050565b5f67ffffffffffffffff8211156132d3576132d2612e9f565b5b6132dc82612c37565b9050602081019050919050565b5f6132fb6132f6846132b9565b612efd565b90508281526020810184848401111561331757613316612e9b565b5b613322848285612f47565b509392505050565b5f82601f83011261333e5761333d612e97565b5b813561334e8482602086016132e9565b91505092915050565b5f5f5f5f6080858703121561336f5761336e612b54565b5b5f61337c87828801612d6b565b945050602061338d87828801612d6b565b935050604061339e87828801612cbe565b925050606085013567ffffffffffffffff8111156133bf576133be612b58565b5b6133cb8782880161332a565b91505092959194509250565b5f5f5f5f5f5f5f60a0888a0312156133f2576133f1612b54565b5b5f6133ff8a828b01612d6b565b975050602088013567ffffffffffffffff8111156134205761341f612b58565b5b61342c8a828b016130a7565b9650965050604061343f8a828b01612cbe565b94505060606134508a828b01612cbe565b935050608088013567ffffffffffffffff81111561347157613470612b58565b5b61347d8a828b016130a7565b925092505092959891949750929550565b5f5f604083850312156134a4576134a3612b54565b5b5f6134b185828601612d6b565b92505060206134c285828601612d6b565b9150509250929050565b5f82825260208201905092915050565b5f6134e682612c0f565b6134f081856134cc565b9350613500818560208601612c29565b61350981612c37565b840191505092915050565b61351d81612d1c565b82525050565b5f60e083015f8301516135385f8601826131a3565b506020830151848203602086015261355082826134dc565b915050604083015161356560408601826131a3565b50606083015161357860608601826131a3565b50608083015161358b60808601826131a3565b5060a083015184820360a08601526135a382826134dc565b91505060c08301516135b860c0860182613514565b508091505092915050565b5f6020820190508181035f8301526135db8184613523565b905092915050565b7f4e487b71000000000000000000000000000000000000000000000000000000005f52602260045260245ffd5b5f600282049050600182168061362757607f821691505b60208210810361363a576136396135e3565b5b50919050565b5f6060820190506136535f830186612d2d565b6136606020830185612e0d565b61366d6040830184612d2d565b949350505050565b7f5361666172694e46543a20496e76616c69642067616d6520636f6e74726163745f8201527f2061646472657373000000000000000000000000000000000000000000000000602082015250565b5f6136cf602883612c19565b91506136da82613675565b604082019050919050565b5f6020820190508181035f8301526136fc816136c3565b9050919050565b5f81905092915050565b7f636f6d6d6f6e00000000000000000000000000000000000000000000000000005f82015250565b5f613741600683613703565b915061374c8261370d565b600682019050919050565b5f61376182613735565b9150819050919050565b7f756e636f6d6d6f6e0000000000000000000000000000000000000000000000005f82015250565b5f61379f600883613703565b91506137aa8261376b565b600882019050919050565b5f6137bf82613793565b9150819050919050565b7f72617265000000000000000000000000000000000000000000000000000000005f82015250565b5f6137fd600483613703565b9150613808826137c9565b600482019050919050565b5f61381d826137f1565b9150819050919050565b7f65706963000000000000000000000000000000000000000000000000000000005f82015250565b5f61385b600483613703565b915061386682613827565b600482019050919050565b5f61387b8261384f565b9150819050919050565b7f6c6567656e6461727900000000000000000000000000000000000000000000005f82015250565b5f6138b9600983613703565b91506138c482613885565b600982019050919050565b5f6138d9826138ad565b9150819050919050565b5f6138ee8385613703565b93506138fb838584612f47565b82840190509392505050565b5f6139138284866138e3565b91508190509392505050565b5f82905092915050565b5f819050815f5260205f209050919050565b5f6020601f8301049050919050565b5f82821b905092915050565b5f600883026139857fffffffffffffffffffffffffffffffffffffffffffffffffffffffffffffffff8261394a565b61398f868361394a565b95508019841693508086168417925050509392505050565b5f819050919050565b5f6139ca6139c56139c084612c9f565b6139a7565b612c9f565b9050919050565b5f819050919050565b6139e3836139b0565b6139f76139ef826139d1565b848454613956565b825550505050565b5f5f905090565b613a0e6139ff565b613a198184846139da565b505050565b5b81811015613a3c57613a315f82613a06565b600181019050613a1f565b5050565b601f821115613a8157613a5281613929565b613a5b8461393b565b81016020851015613a6a578190505b613a7e613a768561393b565b830182613a1e565b50505b505050565b5f82821c905092915050565b5f613aa15f1984600802613a86565b1980831691505092915050565b5f613ab98383613a92565b9150826002028217905092915050565b613ad3838361391f565b67ffffffffffffffff811115613aec57613aeb612e9f565b5b613af68254613610565b613b01828285613a40565b5f601f831160018114613b2e575f8415613b1c578287013590505b613b268582613aae565b865550613b8d565b601f198416613b3c86613929565b5f5b82811015613b6357848901358255600182019150602085019450602081019050613b3e565b86831015613b805784890135613b7c601f891682613a92565b8355505b6001600288020188555050505b50505050505050565b7f5361666172694e46543a204f6e6c792067616d6520636f6e74726163747320635f8201527f616e2063616c6c20746869730000000000000000000000000000000000000000602082015250565b5f613bf0602c83612c19565b9150613bfb82613b96565b604082019050919050565b5f6020820190508181035f830152613c1d81613be4565b9050919050565b7f5361666172694e46543a20496e76616c696420706c61796572206164647265735f8201527f7300000000000000000000000000000000000000000000000000000000000000602082015250565b5f613c7e602183612c19565b9150613c8982613c24565b604082019050919050565b5f6020820190508181035f830152613cab81613c72565b9050919050565b7f5361666172694e46543a20416368696576656d656e74207479706520726571755f8201527f6972656400000000000000000000000000000000000000000000000000000000602082015250565b5f613d0c602483612c19565b9150613d1782613cb2565b604082019050919050565b5f6020820190508181035f830152613d3981613d00565b9050919050565b7f4e487b71000000000000000000000000000000000000000000000000000000005f52601160045260245ffd5b5f613d7782612c9f565b91507fffffffffffffffffffffffffffffffffffffffffffffffffffffffffffffffff8203613da957613da8613d40565b5b600182019050919050565b613dbd82612c0f565b67ffffffffffffffff811115613dd657613dd5612e9f565b5b613de08254613610565b613deb828285613a40565b5f60209050601f831160018114613e1c575f8415613e0a578287015190505b613e148582613aae565b865550613e7b565b601f198416613e2a86613929565b5f5b82811015613e5157848901518255600182019150602085019450602081019050613e2c565b86831015613e6e5784890151613e6a601f891682613a92565b8355505b6001600288020188555050505b505050505050565b5f613e8d82612c0f565b613e978185613703565b9350613ea7818560208601612c29565b80840191505092915050565b5f613ebe8284613e83565b915081905092915050565b5f613ed48385612c19565b9350613ee1838584612f47565b613eea83612c37565b840190509392505050565b5f6080820190508181035f830152613f0e818789613ec9565b90508181036020830152613f228186612c47565b9050613f316040830185612e0d565b613f3e6060830184612e0d565b9695505050505050565b5f613f538285613e83565b9150613f5f8284613e83565b91508190509392505050565b7f5361666172694e46543a20546f6b656e20646f6573206e6f74206578697374005f82015250565b5f613f9f601f83612c19565b9150613faa82613f6b565b602082019050919050565b5f6020820190508181035f830152613fcc81613f93565b9050919050565b5f81519050919050565b5f82825260208201905092915050565b5f613ff782613fd3565b6140018185613fdd565b9350614011818560208601612c29565b61401a81612c37565b840191505092915050565b5f6080820190506140385f830187612d2d565b6140456020830186612d2d565b6140526040830185612e0d565b81810360608301526140648184613fed565b905095945050505050565b5f8151905061407d81612b87565b92915050565b5f6020828403121561409857614097612b54565b5b5f6140a58482850161406f565b91505092915050565b7f4e487b71000000000000000000000000000000000000000000000000000000005f52601260045260245ffd5b5f6040820190506140ee5f830185612d2d565b6140fb6020830184612e0d565b939250505056fea2646970667358221220ac59fd495dff935318550b907c8dc02631a8e4f1f9ae5a1b161bb6642fe7a5ca64736f6c634300081c0033",
  "linkReferences": {},
  "deployedLinkReferences": {},
  "immutableReferences": {},
  "inputSourceName": "project/contracts/SafariGameRewards.sol",
  "buildInfoId": "solc-0_8_28-f96acca3bc8691b0c606d1a6f3298124b337d38e"
}