{
  "_format": "hh3-artifact-1",
  "contractName": "SafariGameRewards",
  "sourceName": "contracts/SafariGameRewards.sol",
  "abi": [
    {
      "inputs": [
        {
          "internalType": "address",
          "name": "_survivalToken",
          "type": "address"
        },
        {
          "internalType": "address",
          "name": "_achievementNFT",
          "type": "address"
        },
        {
          "internalType": "address",
          "name": "initialOwner",
          "type": "address"
        }
      ],
      "stateMutability": "nonpayable",
      "type": "constructor"
    },
    {
      "inputs": [],
      "name": "EnforcedPause",
      "type": "error"
    },
    {
      "inputs": [],
      "name": "ExpectedPause",
      "type": "error"
    },
    {
      "inputs": [
        {
          "internalType": "address",
          "name": "owner",
          "type": "address"
        }
      ],
      "name": "OwnableInvalidOwner",
      "type": "error"
    },
    {
      "inputs": [
        {
          "internalType": "address",
          "name": "account",
          "type": "address"
        }
      ],
      "name": "OwnableUnauthorizedAccount",
      "type": "error"
    },
    {
      "inputs": [],
      "name": "ReentrancyGuardReentrantCall",
      "type": "error"
    },
    {
      "anonymous": false,
      "inputs": [
        {
          "indexed": true,
          "internalType": "address",
          "name": "caller",
          "type": "address"
        }
      ],
      "name": "AuthorizedCallerAdded",
      "type": "event"
    },
    {
      "anonymous": false,
      "inputs": [
        {
          "indexed": true,
          "internalType": "address",
          "name": "caller",
          "type": "address"
        }
      ],
      "name": "AuthorizedCallerRemoved",
      "type": "event"
    },
    {
      "anonymous": false,
      "inputs": [
        {
          "indexed": true,
          "internalType": "address",
          "name": "previousOwner",
          "type": "address"
        },
        {
          "indexed": true,
          "internalType": "address",
          "name": "newOwner",
          "type": "address"
        }
      ],
      "name": "OwnershipTransferred",
      "type": "event"
    },
    {
      "anonymous": false,
      "inputs": [
        {
          "indexed": false,
          "internalType": "address",
          "name": "account",
          "type": "address"
        }
      ],
      "name": "Paused",
      "type": "event"
    },
    {
      "anonymous": false,
      "inputs": [
        {
          "indexed": true,
          "internalType": "bytes32",
          "name": "sessionId",
          "type": "bytes32"
        },
        {
          "indexed": true,
          "internalType": "address",
          "name": "player",
          "type": "address"
        },
        {
          "indexed": false,
          "internalType": "uint256",
          "name": "tokensEarned",
          "type": "uint256"
        },
        {
          "indexed": false,
          "internalType": "uint256",
          "name": "nftsEarned",
          "type": "uint256"
        }
      ],
      "name": "SessionEnded",
      "type": "event"
    },
    {
      "anonymous": false,
      "inputs": [
        {
          "indexed": true,
          "internalType": "bytes32",
          "name": "sessionId",
          "type": "bytes32"
        },
        {
          "indexed": true,
          "internalType": "address",
          "name": "player",
          "type": "address"
        }
      ],
      "name": "SessionStarted",
      "type": "event"
    },
    {
      "anonymous": false,
      "inputs": [
        {
          "indexed": false,
          "internalType": "address",
          "name": "account",
          "type": "address"
        }
      ],
      "name": "Unpaused",
      "type": "event"
    },
    {
      "inputs": [],
      "name": "MIN_SURVIVAL_TIME",
      "outputs": [
        {
          "internalType": "uint256",
          "name": "",
          "type": "uint256"
        }
      ],
      "stateMutability": "view",
      "type": "function"
    },
    {
      "inputs": [],
      "name": "TOKENS_PER_100_SCORE",
      "outputs": [
        {
          "internalType": "uint256",
          "name": "",
          "type": "uint256"
        }
      ],
      "stateMutability": "view",
      "type": "function"
    },
    {
      "inputs": [],
      "name": "TOKENS_PER_MINUTE",
      "outputs": [
        {
          "internalType": "uint256",
          "name": "",
          "type": "uint256"
        }
      ],
      "stateMutability": "view",
      "type": "function"
    },
    {
      "inputs": [],
      "name": "achievementNFT",
      "outputs": [
        {
          "internalType": "contract SafariAchievementNFT",
          "name": "",
          "type": "address"
        }
      ],
      "stateMutability": "view",
      "type": "function"
    },
    {
      "inputs": [
        {
          "internalType": "address",
          "name": "caller",
          "type": "address"
        }
      ],
      "name": "addAuthorizedCaller",
      "outputs": [],
      "stateMutability": "nonpayable",
      "type": "function"
    },
    {
      "inputs": [
        {
          "internalType": "address",
          "name": "",
          "type": "address"
        }
      ],
      "name": "authorizedCallers",
      "outputs": [
        {
          "internalType": "bool",
          "name": "",
          "type": "bool"
        }
      ],
      "stateMutability": "view",
      "type": "function"
    },
    {
      "inputs": [
        {
          "internalType": "uint256",
          "name": "survivalTime",
          "type": "uint256"
        },
        {
          "internalType": "uint256",
          "name": "score",
          "type": "uint256"
        },
        {
          "internalType": "uint256",
          "name": "achievementCount",
          "type": "uint256"
        }
      ],
      "name": "calculateTokenReward",
      "outputs": [
        {
          "internalType": "uint256",
          "name": "",
          "type": "uint256"
        }
      ],
      "stateMutability": "pure",
      "type": "function"
    },
    {
      "inputs": [
        {
          "internalType": "bytes32",
          "name": "sessionId",
          "type": "bytes32"
        },
        {
          "internalType": "uint256",
          "name": "survivalTime",
          "type": "uint256"
        },
        {
          "internalType": "uint256",
          "name": "score",
          "type": "uint256"
        },
        {
          "internalType": "string[]",
          "name": "achievements",
          "type": "string[]"
        }
      ],
      "name": "endGameSession",
      "outputs": [],
      "stateMutability": "nonpayable",
      "type": "function"
    },
    {
      "inputs": [
        {
          "internalType": "bytes32",
          "name": "",
          "type": "bytes32"
        }
      ],
      "name": "gameSessions",
      "outputs": [
        {
          "internalType": "address",
          "name": "player",
          "type": "address"
        },
        {
          "internalType": "uint256",
          "name": "survivalTime",
          "type": "uint256"
        },
        {
          "internalType": "uint256",
          "name": "score",
          "type": "uint256"
        },
        {
          "internalType": "uint256",
          "name": "tokensEarned",
          "type": "uint256"
        },
        {
          "internalType": "uint256",
          "name": "timestamp",
          "type": "uint256"
        },
        {
          "internalType": "bool",
          "name": "rewarded",
          "type": "bool"
        }
      ],
      "stateMutability": "view",
      "type": "function"
    },
    {
      "inputs": [
        {
          "internalType": "string",
          "name": "achievementType",
          "type": "string"
        },
        {
          "internalType": "uint256",
          "name": "survivalTime",
          "type": "uint256"
        },
        {
          "internalType": "uint256",
          "name": "score",
          "type": "uint256"
        }
      ],
      "name": "generateTokenURI",
      "outputs": [
        {
          "internalType": "string",
          "name": "",
          "type": "string"
        }
      ],
      "stateMutability": "pure",
      "type": "function"
    },
    {
      "inputs": [
        {
          "internalType": "address",
          "name": "player",
          "type": "address"
        }
      ],
      "name": "getPlayerSessions",
      "outputs": [
        {
          "internalType": "bytes32[]",
          "name": "",
          "type": "bytes32[]"
        }
      ],
      "stateMutability": "view",
      "type": "function"
    },
    {
      "inputs": [
        {
          "internalType": "bytes32",
          "name": "sessionId",
          "type": "bytes32"
        }
      ],
      "name": "getSession",
      "outputs": [
        {
          "components": [
            {
              "internalType": "address",
              "name": "player",
              "type": "address"
            },
            {
              "internalType": "uint256",
              "name": "survivalTime",
              "type": "uint256"
            },
            {
              "internalType": "uint256",
              "name": "score",
              "type": "uint256"
            },
            {
              "internalType": "uint256",
              "name": "tokensEarned",
              "type": "uint256"
            },
            {
              "internalType": "uint256[]",
              "name": "achievementNFTs",
              "type": "uint256[]"
            },
            {
              "internalType": "uint256",
              "name": "timestamp",
              "type": "uint256"
            },
            {
              "internalType": "bool",
              "name": "rewarded",
              "type": "bool"
            }
          ],
          "internalType": "struct SafariGameRewards.GameSession",
          "name": "",
          "type": "tuple"
        }
      ],
      "stateMutability": "view",
      "type": "function"
    },
    {
      "inputs": [],
      "name": "owner",
      "outputs": [
        {
          "internalType": "address",
          "name": "",
          "type": "address"
        }
      ],
      "stateMutability": "view",
      "type": "function"
    },
    {
      "inputs": [],
      "name": "pause",
      "outputs": [],
      "stateMutability": "nonpayable",
      "type": "function"
    },
    {
      "inputs": [],
      "name": "paused",
      "outputs": [
        {
          "internalType": "bool",
          "name": "",
          "type": "bool"
        }
      ],
      "stateMutability": "view",
      "type": "function"
    },
    {
      "inputs": [
        {
          "internalType": "address",
          "name": "",
          "type": "address"
        },
        {
          "internalType": "uint256",
          "name": "",
          "type": "uint256"
        }
      ],
      "name": "playerSessions",
      "outputs": [
        {
          "internalType": "bytes32",
          "name": "",
          "type": "bytes32"
        }
      ],
      "stateMutability": "view",
      "type": "function"
    },
    {
      "inputs": [
        {
          "internalType": "address",
          "name": "caller",
          "type": "address"
        }
      ],
      "name": "removeAuthorizedCaller",
      "outputs": [],
      "stateMutability": "nonpayable",
      "type": "function"
    },
    {
      "inputs": [],
      "name": "renounceOwnership",
      "outputs": [],
      "stateMutability": "nonpayable",
      "type": "function"
    },
    {
      "inputs": [
        {
          "internalType": "string",
          "name": "achievementType",
          "type": "string"
        },
        {
          "internalType": "uint256",
          "name": "survivalTime",
          "type": "uint256"
        },
        {
          "internalType": "uint256",
          "name": "score",
          "type": "uint256"
        }
      ],
      "name": "shouldMintNFT",
      "outputs": [
        {
          "internalType": "bool",
          "name": "",
          "type": "bool"
        }
      ],
      "stateMutability": "pure",
      "type": "function"
    },
    {
      "inputs": [
        {
          "internalType": "address",
          "name": "player",
          "type": "address"
        }
      ],
      "name": "startGameSession",
      "outputs": [
        {
          "internalType": "bytes32",
          "name": "sessionId",
          "type": "bytes32"
        }
      ],
      "stateMutability": "nonpayable",
      "type": "function"
    },
    {
      "inputs": [],
      "name": "survivalToken",
      "outputs": [
        {
          "internalType": "contract SafariSurvivalToken",
          "name": "",
          "type": "address"
        }
      ],
      "stateMutability": "view",
      "type": "function"
    },
    {
      "inputs": [
        {
          "internalType": "address",
          "name": "newOwner",
          "type": "address"
        }
      ],
      "name": "transferOwnership",
      "outputs": [],
      "stateMutability": "nonpayable",
      "type": "function"
    },
    {
      "inputs": [],
      "name": "unpause",
      "outputs": [],
      "stateMutability": "nonpayable",
      "type": "function"
    }
  ],
  "bytecode": "0x608060405234801561000f575f5ffd5b50604051612fee380380612fee83398181016040528101906100319190610261565b805f73ffffffffffffffffffffffffffffffffffffffff168173ffffffffffffffffffffffffffffffffffffffff16036100a2575f6040517f1e4fbdf700000000000000000000000000000000000000000000000000000000815260040161009991906102c0565b60405180910390fd5b6100b18161014260201b60201c565b506001808190555082600260016101000a81548173ffffffffffffffffffffffffffffffffffffffff021916908373ffffffffffffffffffffffffffffffffffffffff1602179055508160035f6101000a81548173ffffffffffffffffffffffffffffffffffffffff021916908373ffffffffffffffffffffffffffffffffffffffff1602179055505050506102d9565b5f5f5f9054906101000a900473ffffffffffffffffffffffffffffffffffffffff169050815f5f6101000a81548173ffffffffffffffffffffffffffffffffffffffff021916908373ffffffffffffffffffffffffffffffffffffffff1602179055508173ffffffffffffffffffffffffffffffffffffffff168173ffffffffffffffffffffffffffffffffffffffff167f8be0079c531659141344cd1fd0a4f28419497f9722a3daafe3b4186f6b6457e060405160405180910390a35050565b5f5ffd5b5f73ffffffffffffffffffffffffffffffffffffffff82169050919050565b5f61023082610207565b9050919050565b61024081610226565b811461024a575f5ffd5b50565b5f8151905061025b81610237565b92915050565b5f5f5f6060848603121561027857610277610203565b5b5f6102858682870161024d565b93505060206102968682870161024d565b92505060406102a78682870161024d565b9150509250925092565b6102ba81610226565b82525050565b5f6020820190506102d35f8301846102b1565b92915050565b612d08806102e65f395ff3fe608060405234801561000f575f5ffd5b506004361061014b575f3560e01c8063715018a6116100c1578063b7aa02311161007a578063b7aa023114610392578063ba047ab0146103ae578063c221c8a5146103ca578063c47375f9146103fa578063d8838fe114610418578063f2fde38b146104485761014b565b8063715018a6146102dd5780638456cb59146102e75780638da5cb5b146102f1578063918cba7b1461030f578063a7d802fc14610344578063b25b0519146103745761014b565b80633f4ba83a116101135780633f4ba83a146102075780634c8a954b146102115780634fbfa4591461022f578063536fff6c1461025f5780635c975abb1461028f5780635de1e224146102ad5761014b565b80630576c6f21461014f57806313a155ea1461016d57806325392551146101895780632ce27971146101b957806339b240bd146101d7575b5f5ffd5b610157610464565b60405161016491906119bf565b60405180910390f35b61018760048036038101906101829190611a43565b610469565b005b6101a3600480360381019061019e9190611a98565b61057a565b6040516101b091906119bf565b60405180910390f35b6101c16105e6565b6040516101ce9190611b43565b60405180910390f35b6101f160048036038101906101ec9190611b8f565b61060c565b6040516101fe9190611d33565b60405180910390f35b61020f610723565b005b610219610735565b60405161022691906119bf565b60405180910390f35b61024960048036038101906102449190611a43565b61073a565b6040516102569190611e0a565b60405180910390f35b61027960048036038101906102749190611a43565b6107cd565b6040516102869190611e39565b60405180910390f35b6102976107ea565b6040516102a49190611e39565b60405180910390f35b6102c760048036038101906102c29190611a43565b6107ff565b6040516102d49190611e61565b60405180910390f35b6102e5610b62565b005b6102ef610b75565b005b6102f9610b87565b6040516103069190611e89565b60405180910390f35b61032960048036038101906103249190611b8f565b610bae565b60405161033b96959493929190611ea2565b60405180910390f35b61035e6004803603810190610359919061203d565b610c11565b60405161036b9190611e39565b60405180910390f35b61037c610d16565b60405161038991906119bf565b60405180910390f35b6103ac60048036038101906103a79190611a43565b610d1b565b005b6103c860048036038101906103c39190612106565b610dbd565b005b6103e460048036038101906103df919061203d565b61137f565b6040516103f191906121ea565b60405180910390f35b6104026113be565b60405161040f919061222a565b60405180910390f35b610432600480360381019061042d9190612243565b6113e3565b60405161043f9190611e61565b60405180910390f35b610462600480360381019061045d9190611a43565b61140e565b005b606481565b610471611492565b5f73ffffffffffffffffffffffffffffffffffffffff168173ffffffffffffffffffffffffffffffffffffffff16036104df576040517f08c379a00000000000000000000000000000000000000000000000000000000081526004016104d6906122f1565b60405180910390fd5b600160065f8373ffffffffffffffffffffffffffffffffffffffff1673ffffffffffffffffffffffffffffffffffffffff1681526020019081526020015f205f6101000a81548160ff0219169083151502179055508073ffffffffffffffffffffffffffffffffffffffff167feb1b9b92e50b7f88f9ff25d56765095ac6e91540eee214906f4036a908ffbdef60405160405180910390a250565b5f5f6064603c8661058b9190612369565b6105959190612399565b90505f600a6064866105a79190612369565b6105b19190612399565b90505f6032856105c19190612399565b90508082846105d091906123da565b6105da91906123da565b93505050509392505050565b600260019054906101000a900473ffffffffffffffffffffffffffffffffffffffff1681565b6106146118f2565b60045f8381526020019081526020015f206040518060e00160405290815f82015f9054906101000a900473ffffffffffffffffffffffffffffffffffffffff1673ffffffffffffffffffffffffffffffffffffffff1673ffffffffffffffffffffffffffffffffffffffff168152602001600182015481526020016002820154815260200160038201548152602001600482018054806020026020016040519081016040528092919081815260200182805480156106ef57602002820191905f5260205f20905b8154815260200190600101908083116106db575b5050505050815260200160058201548152602001600682015f9054906101000a900460ff1615151515815250509050919050565b61072b611492565b610733611519565b565b600a81565b606060055f8373ffffffffffffffffffffffffffffffffffffffff1673ffffffffffffffffffffffffffffffffffffffff1681526020019081526020015f208054806020026020016040519081016040528092919081815260200182805480156107c157602002820191905f5260205f20905b8154815260200190600101908083116107ad575b50505050509050919050565b6006602052805f5260405f205f915054906101000a900460ff1681565b5f60025f9054906101000a900460ff16905090565b5f60065f3373ffffffffffffffffffffffffffffffffffffffff1673ffffffffffffffffffffffffffffffffffffffff1681526020019081526020015f205f9054906101000a900460ff16806108875750610858610b87565b73ffffffffffffffffffffffffffffffffffffffff163373ffffffffffffffffffffffffffffffffffffffff16145b6108c6576040517f08c379a00000000000000000000000000000000000000000000000000000000081526004016108bd90612457565b60405180910390fd5b6108ce61157a565b5f73ffffffffffffffffffffffffffffffffffffffff168273ffffffffffffffffffffffffffffffffffffffff160361093c576040517f08c379a0000000000000000000000000000000000000000000000000000000008152600401610933906124e5565b60405180910390fd5b81424460405160200161095193929190612568565b6040516020818303038152906040528051906020012090506040518060e001604052808373ffffffffffffffffffffffffffffffffffffffff1681526020015f81526020015f81526020015f81526020015f67ffffffffffffffff8111156109bc576109bb611f19565b5b6040519080825280602002602001820160405280156109ea5781602001602082028036833780820191505090505b5081526020014281526020015f151581525060045f8381526020019081526020015f205f820151815f015f6101000a81548173ffffffffffffffffffffffffffffffffffffffff021916908373ffffffffffffffffffffffffffffffffffffffff1602179055506020820151816001015560408201518160020155606082015181600301556080820151816004019080519060200190610a8b929190611941565b5060a0820151816005015560c0820151816006015f6101000a81548160ff02191690831515021790555090505060055f8373ffffffffffffffffffffffffffffffffffffffff1673ffffffffffffffffffffffffffffffffffffffff1681526020019081526020015f2081908060018154018082558091505060019003905f5260205f20015f90919091909150558173ffffffffffffffffffffffffffffffffffffffff16817f998864759cecf38826ae25f9fd77b10d5f589983c423fe3b976b38935bc1c21360405160405180910390a3919050565b610b6a611492565b610b735f6115bb565b565b610b7d611492565b610b8561167c565b565b5f5f5f9054906101000a900473ffffffffffffffffffffffffffffffffffffffff16905090565b6004602052805f5260405f205f91509050805f015f9054906101000a900473ffffffffffffffffffffffffffffffffffffffff1690806001015490806002015490806003015490806005015490806006015f9054906101000a900460ff16905086565b5f5f84604051602001610c2491906125de565b604051602081830303815290604052805190602001209050604051602001610c4b9061263e565b604051602081830303815290604052805190602001208103610c755761012c841015915050610d0f565b604051602001610c849061269c565b604051602081830303815290604052805190602001208103610cad5760b4841015915050610d0f565b6101f48310610cc0576001915050610d0f565b60788410610d0a57600a60648686604051602001610cdf9291906126b0565b604051602081830303815290604052805190602001205f1c610d0191906126d7565b10915050610d0f565b5f9150505b9392505050565b601e81565b610d23611492565b5f60065f8373ffffffffffffffffffffffffffffffffffffffff1673ffffffffffffffffffffffffffffffffffffffff1681526020019081526020015f205f6101000a81548160ff0219169083151502179055508073ffffffffffffffffffffffffffffffffffffffff167fc3803387881faad271c47728894e3e36fac830ffc8602ca6fc07733cbda7758060405160405180910390a250565b60065f3373ffffffffffffffffffffffffffffffffffffffff1673ffffffffffffffffffffffffffffffffffffffff1681526020019081526020015f205f9054906101000a900460ff1680610e445750610e15610b87565b73ffffffffffffffffffffffffffffffffffffffff163373ffffffffffffffffffffffffffffffffffffffff16145b610e83576040517f08c379a0000000000000000000000000000000000000000000000000000000008152600401610e7a90612457565b60405180910390fd5b610e8b61157a565b610e936116de565b5f60045f8781526020019081526020015f2090505f73ffffffffffffffffffffffffffffffffffffffff16815f015f9054906101000a900473ffffffffffffffffffffffffffffffffffffffff1673ffffffffffffffffffffffffffffffffffffffff1603610f37576040517f08c379a0000000000000000000000000000000000000000000000000000000008152600401610f2e90612777565b60405180910390fd5b806006015f9054906101000a900460ff1615610f88576040517f08c379a0000000000000000000000000000000000000000000000000000000008152600401610f7f90612805565b60405180910390fd5b601e851015610fcc576040517f08c379a0000000000000000000000000000000000000000000000000000000008152600401610fc390612893565b60405180910390fd5b8481600101819055508381600201819055506001816006015f6101000a81548160ff0219169083151502179055505f61100986868686905061057a565b90505f8111156110c957600260019054906101000a900473ffffffffffffffffffffffffffffffffffffffff1673ffffffffffffffffffffffffffffffffffffffff166350271e02835f015f9054906101000a900473ffffffffffffffffffffffffffffffffffffffff16836040518363ffffffff1660e01b81526004016110929291906128fb565b5f604051808303815f87803b1580156110a9575f5ffd5b505af11580156110bb573d5f5f3e3d5ffd5b505050508082600301819055505b5f5f90505f5f90505b858590508110156112f95761114e8686838181106110f3576110f2612935565b5b9050602002810190611105919061296e565b8080601f0160208091040260200160405190810160405280939291908181526020018383808284375f81840152601f19601f820116905080830192505050505050508989610c11565b156112ec575f6111c587878481811061116a57611169612935565b5b905060200281019061117c919061296e565b8080601f0160208091040260200160405190810160405280939291908181526020018383808284375f81840152601f19601f820116905080830192505050505050508a8a61137f565b90505f60035f9054906101000a900473ffffffffffffffffffffffffffffffffffffffff1673ffffffffffffffffffffffffffffffffffffffff1663c71e029b875f015f9054906101000a900473ffffffffffffffffffffffffffffffffffffffff168a8a8781811061123b5761123a612935565b5b905060200281019061124d919061296e565b8e8e886040518763ffffffff1660e01b8152600401611271969594939291906129fc565b6020604051808303815f875af115801561128d573d5f5f3e3d5ffd5b505050506040513d601f19601f820116820180604052508101906112b19190612a71565b90508560040181908060018154018082558091505060019003905f5260205f20015f909190919091505583806112e690612a9c565b94505050505b80806001019150506110d2565b50825f015f9054906101000a900473ffffffffffffffffffffffffffffffffffffffff1673ffffffffffffffffffffffffffffffffffffffff16887f8615ec5442dcabc06284c7b37d1570937719e5025cfd7483ec1de1043c80510b8484604051611365929190612ae3565b60405180910390a3505050611378611724565b5050505050565b60608361138b8461172d565b6113948461172d565b6040516020016113a693929190612c0e565b60405160208183030381529060405290509392505050565b60035f9054906101000a900473ffffffffffffffffffffffffffffffffffffffff1681565b6005602052815f5260405f2081815481106113fc575f80fd5b905f5260205f20015f91509150505481565b611416611492565b5f73ffffffffffffffffffffffffffffffffffffffff168173ffffffffffffffffffffffffffffffffffffffff1603611486575f6040517f1e4fbdf700000000000000000000000000000000000000000000000000000000815260040161147d9190611e89565b60405180910390fd5b61148f816115bb565b50565b61149a6118ab565b73ffffffffffffffffffffffffffffffffffffffff166114b8610b87565b73ffffffffffffffffffffffffffffffffffffffff1614611517576114db6118ab565b6040517f118cdaa700000000000000000000000000000000000000000000000000000000815260040161150e9190611e89565b60405180910390fd5b565b6115216118b2565b5f60025f6101000a81548160ff0219169083151502179055507f5db9ee0a495bf2e6ff9c91a7834c1ba4fdd244a5e8aa4e537bd38aeae4b073aa6115636118ab565b6040516115709190611e89565b60405180910390a1565b6115826107ea565b156115b9576040517fd93c066500000000000000000000000000000000000000000000000000000000815260040160405180910390fd5b565b5f5f5f9054906101000a900473ffffffffffffffffffffffffffffffffffffffff169050815f5f6101000a81548173ffffffffffffffffffffffffffffffffffffffff021916908373ffffffffffffffffffffffffffffffffffffffff1602179055508173ffffffffffffffffffffffffffffffffffffffff168173ffffffffffffffffffffffffffffffffffffffff167f8be0079c531659141344cd1fd0a4f28419497f9722a3daafe3b4186f6b6457e060405160405180910390a35050565b61168461157a565b600160025f6101000a81548160ff0219169083151502179055507f62e78cea01bee320cd4e420270b5ea74000d11b0c9f74754ebdbfc544b05a2586116c76118ab565b6040516116d49190611e89565b60405180910390a1565b60026001540361171a576040517f3ee5aeb500000000000000000000000000000000000000000000000000000000815260040160405180910390fd5b6002600181905550565b60018081905550565b60605f8203611773576040518060400160405280600181526020017f300000000000000000000000000000000000000000000000000000000000000081525090506118a6565b5f8290505f5b5f82146117a257808061178b90612a9c565b915050600a8261179b9190612369565b9150611779565b5f8167ffffffffffffffff8111156117bd576117bc611f19565b5b6040519080825280601f01601f1916602001820160405280156117ef5781602001600182028036833780820191505090505b5090505f8290505b5f861461189e5760018161180b9190612c5f565b90505f600a808861181c9190612369565b6118269190612399565b876118319190612c5f565b603061183d9190612c9e565b90505f8160f81b90508084848151811061185a57611859612935565b5b60200101907effffffffffffffffffffffffffffffffffffffffffffffffffffffffffffff191690815f1a905350600a886118959190612369565b975050506117f7565b819450505050505b919050565b5f33905090565b6118ba6107ea565b6118f0576040517f8dfc202b00000000000000000000000000000000000000000000000000000000815260040160405180910390fd5b565b6040518060e001604052805f73ffffffffffffffffffffffffffffffffffffffff1681526020015f81526020015f81526020015f8152602001606081526020015f81526020015f151581525090565b828054828255905f5260205f2090810192821561197b579160200282015b8281111561197a57825182559160200191906001019061195f565b5b509050611988919061198c565b5090565b5b808211156119a3575f815f90555060010161198d565b5090565b5f819050919050565b6119b9816119a7565b82525050565b5f6020820190506119d25f8301846119b0565b92915050565b5f604051905090565b5f5ffd5b5f5ffd5b5f73ffffffffffffffffffffffffffffffffffffffff82169050919050565b5f611a12826119e9565b9050919050565b611a2281611a08565b8114611a2c575f5ffd5b50565b5f81359050611a3d81611a19565b92915050565b5f60208284031215611a5857611a576119e1565b5b5f611a6584828501611a2f565b91505092915050565b611a77816119a7565b8114611a81575f5ffd5b50565b5f81359050611a9281611a6e565b92915050565b5f5f5f60608486031215611aaf57611aae6119e1565b5b5f611abc86828701611a84565b9350506020611acd86828701611a84565b9250506040611ade86828701611a84565b9150509250925092565b5f819050919050565b5f611b0b611b06611b01846119e9565b611ae8565b6119e9565b9050919050565b5f611b1c82611af1565b9050919050565b5f611b2d82611b12565b9050919050565b611b3d81611b23565b82525050565b5f602082019050611b565f830184611b34565b92915050565b5f819050919050565b611b6e81611b5c565b8114611b78575f5ffd5b50565b5f81359050611b8981611b65565b92915050565b5f60208284031215611ba457611ba36119e1565b5b5f611bb184828501611b7b565b91505092915050565b611bc381611a08565b82525050565b611bd2816119a7565b82525050565b5f81519050919050565b5f82825260208201905092915050565b5f819050602082019050919050565b5f611c0c8383611bc9565b60208301905092915050565b5f602082019050919050565b5f611c2e82611bd8565b611c388185611be2565b9350611c4383611bf2565b805f5b83811015611c73578151611c5a8882611c01565b9750611c6583611c18565b925050600181019050611c46565b5085935050505092915050565b5f8115159050919050565b611c9481611c80565b82525050565b5f60e083015f830151611caf5f860182611bba565b506020830151611cc26020860182611bc9565b506040830151611cd56040860182611bc9565b506060830151611ce86060860182611bc9565b5060808301518482036080860152611d008282611c24565b91505060a0830151611d1560a0860182611bc9565b5060c0830151611d2860c0860182611c8b565b508091505092915050565b5f6020820190508181035f830152611d4b8184611c9a565b905092915050565b5f81519050919050565b5f82825260208201905092915050565b5f819050602082019050919050565b611d8581611b5c565b82525050565b5f611d968383611d7c565b60208301905092915050565b5f602082019050919050565b5f611db882611d53565b611dc28185611d5d565b9350611dcd83611d6d565b805f5b83811015611dfd578151611de48882611d8b565b9750611def83611da2565b925050600181019050611dd0565b5085935050505092915050565b5f6020820190508181035f830152611e228184611dae565b905092915050565b611e3381611c80565b82525050565b5f602082019050611e4c5f830184611e2a565b92915050565b611e5b81611b5c565b82525050565b5f602082019050611e745f830184611e52565b92915050565b611e8381611a08565b82525050565b5f602082019050611e9c5f830184611e7a565b92915050565b5f60c082019050611eb55f830189611e7a565b611ec260208301886119b0565b611ecf60408301876119b0565b611edc60608301866119b0565b611ee960808301856119b0565b611ef660a0830184611e2a565b979650505050505050565b5f5ffd5b5f5ffd5b5f601f19601f8301169050919050565b7f4e487b71000000000000000000000000000000000000000000000000000000005f52604160045260245ffd5b611f4f82611f09565b810181811067ffffffffffffffff82111715611f6e57611f6d611f19565b5b80604052505050565b5f611f806119d8565b9050611f8c8282611f46565b919050565b5f67ffffffffffffffff821115611fab57611faa611f19565b5b611fb482611f09565b9050602081019050919050565b828183375f83830152505050565b5f611fe1611fdc84611f91565b611f77565b905082815260208101848484011115611ffd57611ffc611f05565b5b612008848285611fc1565b509392505050565b5f82601f83011261202457612023611f01565b5b8135612034848260208601611fcf565b91505092915050565b5f5f5f60608486031215612054576120536119e1565b5b5f84013567ffffffffffffffff811115612071576120706119e5565b5b61207d86828701612010565b935050602061208e86828701611a84565b925050604061209f86828701611a84565b9150509250925092565b5f5ffd5b5f5ffd5b5f5f83601f8401126120c6576120c5611f01565b5b8235905067ffffffffffffffff8111156120e3576120e26120a9565b5b6020830191508360208202830111156120ff576120fe6120ad565b5b9250929050565b5f5f5f5f5f6080868803121561211f5761211e6119e1565b5b5f61212c88828901611b7b565b955050602061213d88828901611a84565b945050604061214e88828901611a84565b935050606086013567ffffffffffffffff81111561216f5761216e6119e5565b5b61217b888289016120b1565b92509250509295509295909350565b5f81519050919050565b5f82825260208201905092915050565b8281835e5f83830152505050565b5f6121bc8261218a565b6121c68185612194565b93506121d68185602086016121a4565b6121df81611f09565b840191505092915050565b5f6020820190508181035f83015261220281846121b2565b905092915050565b5f61221482611b12565b9050919050565b6122248161220a565b82525050565b5f60208201905061223d5f83018461221b565b92915050565b5f5f60408385031215612259576122586119e1565b5b5f61226685828601611a2f565b925050602061227785828601611a84565b9150509250929050565b7f536166617269526577617264733a20496e76616c69642063616c6c65722061645f8201527f6472657373000000000000000000000000000000000000000000000000000000602082015250565b5f6122db602583612194565b91506122e682612281565b604082019050919050565b5f6020820190508181035f830152612308816122cf565b9050919050565b7f4e487b71000000000000000000000000000000000000000000000000000000005f52601260045260245ffd5b7f4e487b71000000000000000000000000000000000000000000000000000000005f52601160045260245ffd5b5f612373826119a7565b915061237e836119a7565b92508261238e5761238d61230f565b5b828204905092915050565b5f6123a3826119a7565b91506123ae836119a7565b92508282026123bc816119a7565b915082820484148315176123d3576123d261233c565b5b5092915050565b5f6123e4826119a7565b91506123ef836119a7565b92508282019050808211156124075761240661233c565b5b92915050565b7f536166617269526577617264733a204e6f7420617574686f72697a65640000005f82015250565b5f612441601d83612194565b915061244c8261240d565b602082019050919050565b5f6020820190508181035f83015261246e81612435565b9050919050565b7f536166617269526577617264733a20496e76616c696420706c617965722061645f8201527f6472657373000000000000000000000000000000000000000000000000000000602082015250565b5f6124cf602583612194565b91506124da82612475565b604082019050919050565b5f6020820190508181035f8301526124fc816124c3565b9050919050565b5f8160601b9050919050565b5f61251982612503565b9050919050565b5f61252a8261250f565b9050919050565b61254261253d82611a08565b612520565b82525050565b5f819050919050565b61256261255d826119a7565b612548565b82525050565b5f6125738286612531565b6014820191506125838285612551565b6020820191506125938284612551565b602082019150819050949350505050565b5f81905092915050565b5f6125b88261218a565b6125c281856125a4565b93506125d28185602086016121a4565b80840191505092915050565b5f6125e982846125ae565b915081905092915050565b7f536166617269204d6173746572000000000000000000000000000000000000005f82015250565b5f612628600d836125a4565b9150612633826125f4565b600d82019050919050565b5f6126488261261c565b9150819050919050565b7f456e647572616e63652052756e6e6572000000000000000000000000000000005f82015250565b5f6126866010836125a4565b915061269182612652565b601082019050919050565b5f6126a68261267a565b9150819050919050565b5f6126bb82856125ae565b91506126c78284612551565b6020820191508190509392505050565b5f6126e1826119a7565b91506126ec836119a7565b9250826126fc576126fb61230f565b5b828206905092915050565b7f536166617269526577617264733a2053657373696f6e20646f6573206e6f74205f8201527f6578697374000000000000000000000000000000000000000000000000000000602082015250565b5f612761602583612194565b915061276c82612707565b604082019050919050565b5f6020820190508181035f83015261278e81612755565b9050919050565b7f536166617269526577617264733a2053657373696f6e20616c726561647920725f8201527f6577617264656400000000000000000000000000000000000000000000000000602082015250565b5f6127ef602783612194565b91506127fa82612795565b604082019050919050565b5f6020820190508181035f83015261281c816127e3565b9050919050565b7f536166617269526577617264733a204d696e696d756d20737572766976616c205f8201527f74696d65206e6f74206d65740000000000000000000000000000000000000000602082015250565b5f61287d602c83612194565b915061288882612823565b604082019050919050565b5f6020820190508181035f8301526128aa81612871565b9050919050565b7f47616d652073657373696f6e20636f6d706c6574696f6e0000000000000000005f82015250565b5f6128e5601783612194565b91506128f0826128b1565b602082019050919050565b5f60608201905061290e5f830185611e7a565b61291b60208301846119b0565b818103604083015261292c816128d9565b90509392505050565b7f4e487b71000000000000000000000000000000000000000000000000000000005f52603260045260245ffd5b5f5ffd5b5f5ffd5b5f5ffd5b5f5f8335600160200384360303811261298a57612989612962565b5b80840192508235915067ffffffffffffffff8211156129ac576129ab612966565b5b6020830192506001820236038313156129c8576129c761296a565b5b509250929050565b5f6129db8385612194565b93506129e8838584611fc1565b6129f183611f09565b840190509392505050565b5f60a082019050612a0f5f830189611e7a565b8181036020830152612a228187896129d0565b9050612a3160408301866119b0565b612a3e60608301856119b0565b8181036080830152612a5081846121b2565b9050979650505050505050565b5f81519050612a6b81611a6e565b92915050565b5f60208284031215612a8657612a856119e1565b5b5f612a9384828501612a5d565b91505092915050565b5f612aa6826119a7565b91507fffffffffffffffffffffffffffffffffffffffffffffffffffffffffffffffff8203612ad857612ad761233c565b5b600182019050919050565b5f604082019050612af65f8301856119b0565b612b0360208301846119b0565b9392505050565b7f68747470733a2f2f73616661726976657273652e6170702f6170692f6e66742d5f8201527f6d657461646174612f0000000000000000000000000000000000000000000000602082015250565b5f612b646029836125a4565b9150612b6f82612b0a565b602982019050919050565b7f3f737572766976616c3d000000000000000000000000000000000000000000005f82015250565b5f612bae600a836125a4565b9150612bb982612b7a565b600a82019050919050565b7f2673636f72653d000000000000000000000000000000000000000000000000005f82015250565b5f612bf86007836125a4565b9150612c0382612bc4565b600782019050919050565b5f612c1882612b58565b9150612c2482866125ae565b9150612c2f82612ba2565b9150612c3b82856125ae565b9150612c4682612bec565b9150612c5282846125ae565b9150819050949350505050565b5f612c69826119a7565b9150612c74836119a7565b9250828203905081811115612c8c57612c8b61233c565b5b92915050565b5f60ff82169050919050565b5f612ca882612c92565b9150612cb383612c92565b9250828201905060ff811115612ccc57612ccb61233c565b5b9291505056fea26469706673582212208d86f5d01b092efb8393356b12fa4955f1e01f1f41408fc80b40d104082af8c564736f6c634300081c0033",
  "linkReferences": {},
  "deployedLinkReferences": {},
  "immutableReferences": {},
  "inputSourceName": "project/contracts/SafariGameRewards.sol",
  "buildInfoId": "solc-0_8_28-f96acca3bc8691b0c606d1a6f3298124b337d38e"
}